:020000040800F2
:10000000A00A0020F1010008D7600008035300088F
:10001000D5600008E5190008A1750008000000007F
:1000200000000000000000000000000071640008F3
:100030001F1D00080000000021620008FD65000887
:100040000B0200080B0200080B0200080B0200085C
:100050000B0200080B0200080B0200080B0200084C
:100060000B0200080B0200080B020008711C0008BC
:100070000B0200080B0200080B0200080B0200082C
:100080000B020008000000000B0200080B02000831
:100090000B0200080B0200080B0200080B0200080C
:1000A000796600080B0200080B0200080B0200082A
:1000B0000B020008856600080B0200080B0200080E
:1000C0000B0200080B0200080B0200080B020008DC
:1000D0000B020008517500080B0200080B02000813
:1000E0000B0200080B0200080B0200080B020008BC
:1000F0000B0200080B0200080B02000800000000C1
:10010000000000000B020008000000000B020008C5
:100110000B020008000000000B0200080B020008A0
:100120000B0200080B0200080B0200080B0200087B
:100130000B02000800000000000000000B02000895
:100140000B0200080B020008000000000000000085
:10015000000000000000000000000000000000009F
:100160000000000000000000000000000B0200087A
:100170000B0200080000000000000000000000006A
:10018000000000000B02000800000000000000005A
:10019000000000000000000000000000000000005F
:1001A00000000000000000000B0200080B02000825
:1001B0000B0200080B0200080B0200080000000000
:1001C000000000000B02000800000000000000001A
:1001D0000B0200080B020008DFF810D000F0AAFBA9
:1001E00000480047E9890008AFF30080A00A00201A
:1001F0000648804706480047FEE7FEE7FEE7FEE7C1
:10020000FEE7FEE7FEE7FEE7FEE7FEE769660008B9
:10021000D90100082DE9F05F0546002092469B4673
:1002200088460646814640241BE02846414647460C
:10023000224600F0CFF953465A46C01A914110D3D6
:1002400011461846224600F0B6F92D1A67EB010850
:100250004F4622460120002100F0ADF917EB0009BE
:100260004E41201EA4F10104DFDC484631462A46F7
:100270004346BDE8F09FD2B201E000F8012B491ED1
:10028000FBD270470022F6E710B513460A46044633
:100290001946FFF7F0FF204610BD2DE9FE4F8046BE
:1002A00081EA0300C00F0C46009021F0004123F0CA
:1002B0000045B8EB0200A94105D2404621469046D0
:1002C0001C460B46024623F00040104347D0270D42
:1002D000C7F30A00C3F30A510290401A0190402864
:1002E0006BDAC3F3130040F4801B0098924620B1F0
:1002F0000023D2EB030A63EB0B0B01985946C0F1C4
:100300004002504600F057F906460D465046594601
:10031000019A00F06FF910EB08006141002487EAB0
:10032000115284EAE7731A4340D0009A62B3019AEB
:10033000012A4FEA075215DC001B61EB02014FF066
:10034000004202EA0752CDE90042001C41F580114B
:1003500032462B4600F0A6F903B0BDE8F08F4046C8
:100360002146F9E7001B61EB0201001C41F58013F7
:1003700000185B412018A2F5001747EB030140EA83
:10038000D570B6196D4111E06D084FEA360645EAA1
:10039000C0754FEA0752001B61EB0201001C41F5DA
:1003A000801149084FEA30000019514132462B466E
:1003B00003B0BDE8F04F00F066B90098012240009C
:1003C0000023D0EB020263EBE073009821464FEA72
:1003D000E074B8EB000061EB0401E9E783F000434F
:1003E0005BE781F0004158E72DE9FE4F81EA030405
:1003F00004F0004421F0004100944FF0000B23F082
:10040000004350EA01045ED052EA03045BD0C3F318
:100410000A54C1F30A552C44A4F2F3340194A0FB0E
:100420000254C1F3130141F48011C3F3130343F4E5
:10043000801301FB024400FB034E840A970A44EA3E
:10044000815447EA8357A4FB076802958D0A05FB90
:1004500007854FEA932C04FB0C542705029D4FEAB5
:10046000065847EA1637B5EB08056EEB070C870E02
:10047000920E47EA811742EA8312A7FB0201B6EB0C
:100480000B0164EB00042B0D43EA0C335E1844EBC4
:100490001C50DA465146E7FB0201C5F313044FEA4C
:1004A0000B3343EA14534FEA0432019C43EA060338
:1004B000A4F10C040294009CCDE900B400F0F2F821
:1004C00003B0BDE8F08F00200146F9E70EB5C10F7B
:1004D00080EAE0700844CA07002140F233438DE807
:1004E0000E000A460B4600F0DDF803B000BD70B503
:1004F000C1F30A5201F000450024C1F3130140F298
:10050000FF3341F480119A4201DA002070BD40F2BD
:1005100033439A42A2F2334203DC524200F05AF8CB
:1005200000E090402C43F1D0404270BD00F000420A
:1005300030F000400AD0C10D01F56071C0F3160023
:1005400042EA0151C20840071143704700200146AA
:10055000704701F0004330B421F0004150EA01023D
:1005600006D00A0DA2F56072C1F31301002A02DC65
:1005700030BC00207047440F44EAC104C100E018B9
:1005800030BC00EBC25000F047B830B50B46014616
:1005900000202022012409E021FA02F59D4205D322
:1005A00003FA02F5491B04FA02F52844151EA2F1CC
:1005B0000102F1DC30BD202A04DB203A00FA02F10E
:1005C000002070479140C2F1200320FA03F3194341
:1005D00090407047202A04DB203A21FA02F00021E3
:1005E000704721FA02F3D040C2F120029140084343
:1005F00019467047202A06DBCB17203A41FA02F051
:1006000043EAE07306E041FA02F3D040C2F120026F
:1006100091400843194670470029A8BF7047401C05
:10062000490008BF20F00100704710B4B0FA80FC08
:1006300000FA0CF050EA010404BF10BC704749B145
:10064000CCF1200421FA04F411FA0CF118BF0121B5
:1006500021430843A3EB0C01CB1D4FEA00614FEA95
:10066000102042BF002010BC704700EBC350104464
:100670000029A4BF10BC7047401C490008BF20F0EF
:10068000010010BC704710B5141E73F1000408DAA5
:10069000401C41F1000192185B411A4301D120F046
:1006A000010010BD2DE9F04D92469B4611B1B1FA03
:1006B00081F202E0B0FA80F220329046FFF77BFF31
:1006C00004460F4640EA0A0041EA0B0153465A46E7
:1006D000084313D0114653EA010019D0C8F1400273
:1006E0005046FFF777FF05460E46504659464246AC
:1006F000FFF761FF084305D0012004E0204639469A
:10070000BDE8F08D0020054346EAE0762C433743F0
:100710000A986305E40AA0EB08000022FD0A44EAF7
:1007200047540A3002D500200146E9E701051019B7
:100730006941DDE9084500196941BDE8F04DA2E7CE
:100740002DE9F04D81EA030404F0004B21F000454F
:1007500014464FF0000A23F0004150EA050220D071
:1007600054EA01021DD0C5F30A570246C5F313032C
:10077000C1F31300C1F30A5640F4801543F480130B
:10078000A7EB0608101BD64608F2FD3873EB0500F0
:1007900002D308F1010801E092185B41B8F1000FA3
:1007A00003DA00200146BDE8F08D00204FF48011EF
:1007B000064684460EE0171B73EB050705D3121B94
:1007C00063EB050306434CEA010C49084FEA30008D
:1007D00092185B4150EA0107EDD152EA030012D0B2
:1007E00082EA040083EA0501084305D0101BAB41EF
:1007F00006D20122002306E000224FF0004302E06F
:100800006FF0010253101AEB06004CEB085110EB8D
:100810000A0041EB0B01BDE8F04DFFF734BF2DE9B5
:10082000FE4FC3F30A5701F000450024C1F30A56F6
:10083000C3F31303C1F3130143F4801312EB020A51
:10084000A64641F48011009543EB030CA7F1010B80
:1008500016E0B0EB0A0061EB0C01071E71F1000716
:1008600007DA4FF00008D0EB080085F0004568EB90
:100870000101171A73EB0107EBD3761E00184941EB
:100880005E45F6DA50EA010209D0CDE900E5002222
:1008900013460296FFF706FF03B0BDE8F08F20462F
:1008A0000099F9E7C1F30A52C1F3130140F2FF3393
:1008B00041F480119A4202DA00200146704740F26A
:1008C00033439A42A2F2334202DC5242FFF782BE25
:1008D000FFF771BE30B5041E71F1000404DB4FF068
:1008E0000044404264EB0101141E73F1000405DB77
:1008F0001C464FF00043524263EB04038B4208BF97
:10090000824230BD30B5041E71F1000404DB4FF0AB
:100910000044404264EB0101141E73F1000405DB46
:100920001C464FF00043524263EB0403994208BF58
:10093000904230BD064C074D06E0E06840F00103F0
:1009400094E8070098471034AC42F6D3FFF748FC10
:1009500088C70008A8C7000810B5846AE16D11F0C7
:10096000500F06D0E16DC90625D5204601F054FE92
:1009700010BDE06D40F40070E06520680168090773
:1009800016D505F0A3F878B12068C0688004002867
:100990000ADBE06D20F48070E065E06DC00403D4F4
:1009A000E06D40F00100E065204601F033FE10BD2F
:1009B000C0688007EBE7616D496BBDE810400847F0
:1009C00010B5806AC16D41F04001C165016E41F012
:1009D0000401016601F020FE10BD10B5806A01F02F
:1009E0001AFE10BD70B504460068816811F0010F51
:1009F0002DD18168174A11421AD18168D543294007
:100A0000491C816002F0CCFB06461BE0816811F0B6
:100A1000010F03D181682940491C816002F0C0FBAD
:100A2000801B02280ED920680068C043C00709D087
:100A3000E06D40F01000E065206E40F0010020669F
:100A4000012070BD20680168C943C907DED10020BC
:100A500070BD00003F0000803EB5002001900B20DB
:100A60000C2400908DF808406C2102AA012307484D
:100A700002F0DEFC01AA02236D210448009402F07A
:100A800045FCBDF8040040BA3EBD000060010020F6
:100A900010B5084C9FED060A84ED010AFFF7DCFF54
:100AA00000EE100AB8EE400A84ED000A10BD000006
:100AB000000000002000002010B5B2EE080A044635
:100AC00080ED010A0548206084ED020A01F03EFA3B
:100AD000206801F053FA002010BD0000C7CFFFFFCF
:100AE0009FED070A10B5B0EE401AF0EE400A00F094
:100AF00017F84FF090414FF40020886110BD0000BE
:100B0000000000004FF09042082191619FED030A20
:100B1000B0EE401AF0EE400A00F002B8000000000B
:100B2000DFED3C3AB5EEC00AF1EE10FA02D2B0EEBB
:100B3000630A08E0D0ED021AF4EEC01AF1EE10FAE2
:100B400001D2B0EE610AF5EEC00AF1EE10FA02D25F
:100B5000F0EE630A08E0D0ED021AF4EEE01AF1EECE
:100B600010FA01D2F0EE610AB5EEC01AF1EE10FAF9
:100B700002D2B0EE631A08E0D0ED021AF4EEC11A08
:100B8000F1EE10FA01D2B0EE611A90ED013A4FF099
:100B90007E5280EE032AB5EEC02AF1EE10FA02D2A0
:100BA000B0EE630A08E012EE101A914202DDB7EED1
:100BB000000A01E0B0EE420AC0EE832A80ED030A8B
:100BC000F5EEC02AF1EE10FA02D2F0EE630A08E068
:100BD00012EE901A914202DDF7EE000A01E0F0EE0B
:100BE000620AC1EE031AC0ED040AF5EEC01AF1EE76
:100BF00010FA02D2B0EE631A08E011EE901A914298
:100C000002DDB7EE001A01E0B0EE611A80ED051AC0
:100C100001F0D6B90000000070B504462DED048B3C
:100C200025A006F0BFFC94ED0C0AD4ED118A94EDDA
:100C30000F8A84ED110A94ED0B0A9FED259A84ED3D
:100C40000F0A84ED019ADFED239A234D09E000BFDE
:100C5000B0EE690A204600F015FAD4F8300105F02C
:100C60009BFCD4F8300105F095FC10B16068A842F7
:100C7000EEDBB0EE490A2046B0EE401AF0EE400A34
:100C800000F0E6FCC4ED118A84ED0F8AD4F830013F
:100C900005F080FC08B111A000E017A006F082FC6E
:100CA000D4F8300105F076FC18B10020BDEC048BBF
:100CB00070BD0120FAE700004D4F543A20496E64A0
:100CC0006578207365617263682E2E2E0D0A000010
:100CD00000000000E4CB1641DB0FC9404D4F543AF1
:100CE000204572726F723A204E6F7420666F756E77
:100CF00064210D0A000000004D4F543A20537563E3
:100D000063657373210D0A0010B504460BA006F04D
:100D100049FC94ED0B0AD4E94D0100F0C6FE040035
:100D200007D001460CA006F03DFC002C04DD01209C
:100D300010BD0EA006F036FC002010BD4D4F543AF9
:100D400020416C69676E2063757272656E742073E2
:100D5000656E73652E0D0A004D4F543A205375632E
:100D6000636573733A2025640D0A00004D4F543AB1
:100D700020416C69676E206572726F72210D0A00E6
:100D80002DE9F04104462DED068B012778A006F0F1
:100D900009FC43F239019FED7C9A9FED7C8AD4F8DF
:100DA0002001C84276D1D4F8300105F0F3FB20B120
:100DB0002046FFF731FF07005DD000264FF4FA759B
:100DC0009FED73AADFED738A00EE106A2046B8EE3D
:100DD000C00A60EE280A80EE8A0AF0EE480A30EE79
:100DE000091A94ED0B0A00F033FC022001F058FFC1
:100DF000761CAE42E8DDD4F8300105F0CDFBD4F826
:100E0000300105F037FBF0EE409A00BF00EE105ABB
:100E10002046B8EEC00A60EE280A80EE8A0AF0EE9C
:100E2000480A30EE091A94ED0B0A00F011FC02207A
:100E300001F036FF6D1EE9D5D4F8300105F0ACFBAA
:100E4000D4F8300105F016FBB0EE40AAB0EE480A27
:100E50002046B0EE401AF0EE400A00F0F9FBC82040
:100E600001F01EFFF4EE4A9AF1EE10FA07D14AA003
:100E700006F098FB0020BDEC068BBDE8F081F4EE97
:100E8000CA9AF1EE10FA06D24CA006F08BFB4FF096
:100E9000FF3004E064E051A006F084FB0120C4F8B8
:100EA000200155A006F07EFBD4ED0E0A39EECA0AE9
:100EB000B8EEE01AF0EE680AB0EEC00A50EE010A91
:100EC000F0EEE00A10EE900AB0F17C5F0DDDC8EEA6
:100ED000800A10EE900AFFF729FB41EC100B4AA0A4
:100EE00053EC102B06F05EFB02E04EA006F05AFB1E
:100EF0004E49D4F81C01884234D194ED0B0AB0EE6F
:100F0000491AF0EE480A204600F0A2FB4FF42F7079
:100F100001F0C6FED4F8300105F03EFB84ED478AAF
:100F2000204601F01AF984ED470A142001F0B8FEBA
:100F3000D4F81C01FFF7FAFA41EC100B3CA053EC7B
:100F4000102B06F02FFBB0EE481AF0EE480AB0EE78
:100F5000480A204600F07CFBC82001F0A1FE04E016
:100F60003BA0C3E740A006F01DFB384683E7000026
:100F70004D4F543A20416C69676E2073656E736FF4
:100F8000722E0D0A00000000E4CB96400000000025
:100F90000000FA43DB0FC9404D4F543A20466169C7
:100FA0006C656420746F206E6F74696365206D6F6B
:100FB00076656D656E740D0A000000004D4F543A61
:100FC0002073656E736F725F646972656374696FB5
:100FD0006E3D3D4343570D0A000000004D4F543A0B
:100FE0002073656E736F725F646972656374696F95
:100FF0006E3D3D43570D0A004D4F543A205050204E
:10100000636865636B3A20006661696C202D20651A
:101010007374696D617465642070703A252E34664E
:101020000D0A00004F4B210D0A00000000E440C6ED
:101030004D4F543A205A65726F20656C65632E20BF
:10104000616E676C653A20252E34660D0A0000003B
:101050004D4F543A20536B6970206469722063616C
:101060006C69622E0D0A00004D4F543A20536B6993
:1010700070206F66667365742063616C69622E0D03
:101080000A00000070B504462DED028BB0EE408AD8
:1010900007F0C9FC0546D4F83C01281A00EE100AF6
:1010A000B8EE400ADFED3F0A20EE200AB5EEC00A96
:1010B000F1EE10FA04D910EE100AB0F17C5F01DDF8
:1010C0009FED390A94ED012A78EE421AF5EEC01A26
:1010D000F1EE10FA02DDF0EE612A01E072EE482A2C
:1010E00094ED111A21EE003AB5EEC03AF1EE10FA85
:1010F00001DC21EE403ADFED2D8AF4EEC32AF1EE59
:1011000010FA26DDF5EEC01AF1EE10FA02D24FF019
:10111000FF3007E0F5EEC01AF1EE10FA01DD012014
:1011200000E0002000EE900AB5EEC01AF8EEE01ADA
:10113000F1EE10FA02DDF0EE410A01E0F1EE410AB3
:1011400061EEA00A00EE802A84ED012A84ED031AE4
:1011500003E084ED018AC4ED038A94ED0D0A14497D
:1011600010EE100A94ED0F8A884203D0D4ED100AD5
:1011700020EE808A94ED010A06F070FFA06B06F065
:10118000A3FEB0EE401AF0EE680AB0EE480A204620
:1011900000F05EFAC4F83C51B0EE480ABDEC028B98
:1011A00070BD0000BD3786356F12833A0000000025
:1011B00000E440C670B50D462DED028BB0EE408ABE
:1011C000044600F027FFA56384ED0D8A002084F813
:1011D0004B00BDEC028B70BD10B59FED090A0446B3
:1011E000D0F83801B0EE401AF0EE400ABC34FFF7F8
:1011F00097FCE06FFFF774FC002004F8740C10BD3E
:101200000000000010B50446D0F83801BC34FFF7E8
:1012100079FC9FED060AE06FB0EE401AF0EE400A4E
:10122000FFF77EFC012004F8740C10BD00000000E4
:1012300070B5044600F090FF284AD4F83401A0B9F4
:1012400094ED0D0A10EE101A91420ED0D4ED100A52
:1012500020EE800AD4ED0F0AF4EEC00AF1EE10FA87
:1012600001DCB0EE600A84ED0F0AD4F83811D4ED39
:101270000F0A91ED020AF4EEC00AF1EE10FA01DD58
:1012800084ED0F0AD4ED0B0A94ED0F0AF4EEC00AB8
:10129000F1EE10FA01DD84ED0B0A20B184ED180A9D
:1012A00084ED210A02E0606B904201D094ED100AB7
:1012B0004FF4FA7584ED300A94ED110A284684ED56
:1012C000390A01F0EDFC2046FFF79CFF04A006F070
:1012D00069F92846BDE8704001F0E2BC00E440C670
:1012E0004D4F543A20456E61626C65206472697698
:1012F00065722E0D0A00000070B5054610EE100A4A
:101300001F4A0124904203D085ED470AC5F82011F9
:101310004FF4FA76304601F0C3FCD5F8300188B1BD
:101320002846FFF72DFD0446D5F8300105F034F9C5
:10133000284600F034FF85ED010A304601F0B0FC8C
:1013400034B915E00FA006F02DF9304601F0A8FCE5
:10135000D5F8340120B12846FFF7D6FC444302E01B
:101360000DA006F01FF91CB112A006F01BF905E054
:1013700014A006F017F92846FFF72EFF204670BD8F
:1013800000E440C64D4F543A204E6F2073656E7393
:101390006F722E0D0A0000004D4F543A204E6F2000
:1013A00063757272656E742073656E73652E0D0AB7
:1013B000000000004D4F543A2052656164792E0DB3
:1013C0000A0000004D4F543A20496E697420464F80
:1013D00043206661696C65642E0D0A00C0F83811FF
:1013E0007047000070B50446D0F8300108B105F030
:1013F000D3F894F84C0004286BD0032869D094F8F3
:101400004800002865D0204600F0A7FE84ED020ABF
:1014100094F84B1051B104F1980504F150060129DC
:101420000FD0022926D02BA006F0BCF894ED021AAA
:10143000D4ED070A94ED080A2046BDE8704000F09C
:1014400007B9D4F83401002843D000F031FB84ED13
:101450000A0A284604F080FB84ED0A0AD4ED040A47
:10146000304630EEC00A04F037FE84ED080A9FEDE6
:10147000220A2BE0D4F8340100282AD000F070FBB7
:1014800084ED090AC4ED0A0AB0EE600A284604F0A9
:1014900063FB84ED0A0A94ED090A04F1A40004F048
:1014A0005BFB84ED090A94ED040AD4ED0A0A304688
:1014B00030EE600A04F010FE84ED080A94ED090A8B
:1014C00004F17400B1EE400A04F006FE84ED070A50
:1014D000ACE770BD4D4F543A206E6F20746F72713F
:1014E000756520636F6E74726F6C2073656C6563D5
:1014F000746564210D0A00000000000070B5044608
:101500002DED028BB0EE408AD0F81401411CC4F8D6
:101510001411D4F81011884233D30020C4F82C01E0
:1015200094F84C00042806D0032804D0204600F08C
:1015300036FE84ED010A204600F04AFE84ED030ADF
:1015400094F84800F0EE400A00281AD018EE100A6D
:101550003D4DA84201D084ED008A94F84C109FEDD7
:101560003B8A04F1B00605290BD2DFE801F0034104
:101570001B5D650094F84B0030B194ED000A84EDDA
:10158000040ABDEC028B70BD94ED0D0A10EE100A3A
:10159000A84202D194ED000A41E0D4ED000A20EE09
:1015A000800A3CE094ED000A04F1D40084ED060AC0
:1015B000D4ED010A30EE600A04F08EFD84ED050AD8
:1015C000D4ED030A304630EE600A04F085FD84ED68
:1015D000040A94F84B000028D3D1D4ED0D0A10EE84
:1015E000900AA84201D020EE200A84ED080AC8E73C
:1015F00094ED000A304684ED050A30EE600A04F0EE
:101600006BFD84ED040A94F84B000028B9D1D4EDA9
:101610000D0A10EE900AA84201D020EE200A84EDB7
:10162000080A84ED078AACE794ED000A204684EDB1
:10163000050A00F07FF9F2E794ED000A204684EDF8
:10164000060AFFF71FFDEAE700E440C600000000BD
:1016500070B504462DED088BF0EE419AB0EE609A1D
:10166000F0EE408AB6EE008A90F8490010B10128E9
:101670007DD166E0B0EE690A06F0F0FCB0EE40AA5B
:1016800006F00CFCB0EE401AB0EE4A0AF0EE419AB9
:1016900007F08AF8F0EE400A29EE890A00EEE80A1F
:1016A00060EE890A49EEA80A84ED530AC4ED540A93
:1016B000D4F8380190ED021A21EE082ABEEE001A85
:1016C00070EE021A20EE010AC4ED501ADFED922AE4
:1016D000B0EE401A00EEA21A00EEE20A31EE021A53
:1016E00070EE020A84ED511AC4ED520A94F84A00D1
:1016F0000028BDD1B4EEE01AF1EE10FA02D2B0EE3D
:10170000410A01E0B0EE600AB4EEE10AF1EE10FA2F
:1017100002DDB0EE610A09E0B4EEE01AF1EE10FA73
:1017200002D2B0EE410A01E0B0EE600A71EEC01ADA
:1017300031EE401A30EEC00AC4ED501A84ED511A51
:10174000DCE0B5EEC09AF1EE10FA30D029EE090ACD
:1017500008EEA80A07F0A0F8D4F83801D0ED020A84
:1017600019EE100A80EE20AAFEF7E0FE00E0C7E0C6
:1017700041EC1B0B18EE900AFEF7D8FE41EC100B63
:10178000B0EE4B1AF0EE6B1A06F0B2F8B0EE40BABB
:10179000F0EE60BA19EE900AFEF7C8FE53EC1B2B70
:1017A000FEF77BFDFEF7D5FE00EE100A09E0D4F847
:1017B000380190ED020A88EE80AA9FED580A39EEB2
:1017C000800A06F04BFCB0EE409ADFED559A89EEA8
:1017D000290A10EE100AFEF7A9FE41EC100B06F0E4
:1017E00087F99FED501B51EC100B53EC112BFEF7BA
:1017F00054FDFEF77CFE054600EE905AB0EE490A15
:10180000F8EEE00A10EEA90A06F0CEFF9FED47BA07
:10181000F7EE00AA20EE0B0A60EE0A8A00EE105ADC
:10182000B8EEC00A70EE6A0AB0EE490A00EEE90AA4
:1018300006F0BAFF20EE0B0A9FED3D1A94F84A001D
:1018400060EE0A0AB0EE410A18B13AEEE80A30EE4C
:10185000600A072D3CD2DFE805F03B040D181F2974
:10186000320038EEA01A40EE080A00EE081AF0EE38
:10187000601A07E078EEA01AB0EE681A00EE081AB7
:1018800040EE081A60EE080A26E078EEA01A20EE74
:10189000081A40EE081A06E0F0EE681A20EE081A60
:1018A00040EE081A08E040EE080A15E0B0EE601AB3
:1018B00060EE081A00EE081A78EEA00AF3E738EE98
:1018C000A01A60EE081AF0EE680A00EE081AEAE7BD
:1018D000F0EE411AF0EE410AD4F8380190ED020A18
:1018E00020EE010A84ED500A90ED020A20EE210A52
:1018F00084ED510A90ED020A20EE200A84ED520A8E
:1019000004F5A07090EC030AD4F83801BDEC088B04
:10191000BDE87040FFF704B9D7B35D3FDB0FC93FA7
:10192000920A863F000000000000F03FD7B3DD3F81
:101930000000000070B504462DED028BB0EE408A29
:1019400007F071F80546D4F83C01DFED220A281AA9
:1019500000EE100AB8EE400A20EE200AB5EEC00AEA
:10196000F1EE10FA04D910EE100AB0F17C5F01DD3F
:101970009FED190AD4ED010A48EE000AB0EE600AA4
:1019800006F06CFB84ED010AF0EE400A84ED038A58
:1019900094ED0D0A114910EE100A94ED0F8A884259
:1019A00003D094ED101A21EE008AB0EE600AA06B0D
:1019B00006F08AFAB0EE401ADFED090AB0EE480AE6
:1019C0002046FFF745FEC4F83C51B0EE480ABDEC96
:1019D000028B70BDBD3786356F12833A00E440C676
:1019E00000000000FEE700210172C17181717047A3
:1019F0002DE9F04100250F460646A84633E000BF1A
:101A000005EB850006EB800456F82000A18801F064
:101A1000BDFB50B10020A071E17941B101290AD08C
:101A2000022911D003291CD124E00120F3E7C0B121
:101A30000120E07115E018B10220E071207A0EE07B
:101A4000404684F807800BE088B1207A322806D31C
:101A50000320E0712069804784F8088001E0401C81
:101A600020726D1CEDB2BD42CAD3BDE8F081E068C2
:101A70008047E5E70028E3D0F3E7F7EE001A10B55A
:101A800081EE801A002400F8044B0EC080ED030A9A
:101A9000C0ED040A81EE200A80ED050A80ED000AFF
:101AA00080ED010A80ED020A10BD012070470000A0
:101AB00010B52DED048BF0EE409A00F097F89FEDF5
:101AC000252ADFED251AB5EEC01AB7EE009AF1EE21
:101AD00010FA06D160EE028AB0EE408A40EEA18A8A
:101AE0000FE070EE202A32EE811ADFED1C2A21EE83
:101AF000221A30EE418A30EEC10A68EE028A40EEC8
:101B0000218AF5EEC09AF1EE10FA18D0B0EE690A0B
:101B100006F0C4F920EE289AB0EE690A06F044FEF9
:101B200008EE409AB5EEC09AF1EE10FA01DD012000
:101B300001E04FF0FF3000EE100AB8EEC09A28EE38
:101B4000080A08EEA80A06F0A7FE20EE090ABDEC76
:101B5000048B10BD3ACD133F3ACD933FABAAAA3EBA
:101B600010B52DED048BF0EE409A00F03FF89FED9C
:101B70001C2ADFED1C1AB5EEC01AF1EE10FA06D1E0
:101B800060EE028AB0EE408A40EEA18A0FE070EE6D
:101B9000202A32EE811ADFED142A21EE221A30EECD
:101BA000418A30EEC10A68EE028A40EE218AB0EE28
:101BB000690A06F073F9F0EE400AB0EE690AB0EE79
:101BC000609A06F0F1FD28EE091A68EE890A08EE1F
:101BD000801A48EE400ABDEC048BB0EE410A10BDFD
:101BE0003ACD133F3ACD933FABAAAA3E1C49426877
:101BF0009FED1C1A90ED0A0A51F82220DFED1A1A07
:101C000000EE902A8268F8EE600A51F8222002EE77
:101C1000102A60EE810AC268B8EE422A10EEA10ACC
:101C2000D0ED040A22EE012A51F8221002EE901A99
:101C300020EE200AD0ED0B0AF8EE622A52EE210ABD
:101C400090ED052A22EE811A60EE820A90ED0C2AB0
:101C500011EE212A90ED061A22EE011A70470000BB
:101C600090060020333353400000803906F038BE20
:101C7000014800F012BF00009C0000200D490268DE
:101C80008A4201D20C4901E00B492031D2B214231F
:101C9000083AB2FBF3F2436C02F01F0223F0030395
:101CA0001944816404498031C16401219140016576
:101CB0007047000008040240000802400179074A0A
:101CC00002EB81024265054A4432491E826501F0F9
:101CD0001F0201219140C16570470000FC080240CD
:101CE00030B5D0E913456560446D14B1D0E91645AF
:101CF000656090F8444004F01F050124AC40056C79
:101D00006C60046863608368102B036803D099607B
:101D10000068C26030BD9A600068C16030BD704725
:101D20000149012048707047180000200149012036
:101D3000087070471800002001490120C8707047E2
:101D40001800002001490120887070471800002009
:101D500070B503202DED028B84B003F0D7FE04F0A4
:101D600061FA05F0FBFB03F09BFC4BF6714400218C
:101D70005023A0220846009403F072FC1820CDE9FD
:101D8000004000254FF47846334649A214210295BD
:101D90000A2003F037FE1020CDE90040334648A268
:101DA000322102950A2003F02DFE642000F078FF16
:101DB00006F07EFDDFED458A07214548B0EE680A52
:101DC000FFF7F8F9032302220121DFED420A9FED1C
:101DD000428A4248B0EE480AFFF74FFE3F48FFF7FD
:101DE00045FF3E493A4800F0D4F93948303804F00C
:101DF0009FFB37493648303900F0CEF93448B2EE0F
:101E0000080A183880ED010AFEF756FE30493048BE
:101E10001839FFF7E3FA2E480121F0EE080A80F89E
:101E20004910022180F84C1080F84B10C0ED140AC4
:101E3000B7EE080A9FED2A1A80ED150A80ED161AF2
:101E4000C0ED180AC0ED1D0A80ED1E0A80ED1F1AB4
:101E50009FED240AC0ED210A80ED2C0A9FED220A95
:101E600080ED2D1A80ED2E0A9FED200AC0ED0F0A9D
:101E700080ED2F0A9FED1E0A80ED3E8A80ED350A27
:101E8000B3EE040A80ED110AFFF7D2F90121B0EE9A
:101E9000680A0F48FFF730FA164802F0BBFB04B09F
:101EA0006420BDEC028BBDE8704000F0F9BE00007C
:101EB00048656C6C6F20576F726C642100000000E5
:101EC000464F4320544553540000000000E440C6F0
:101ED00018040020000048420AD7233C6C0500206B
:101EE00017B7D13800005E420000000000007A44BD
:101EF00000004843C002002010B505F039FB10492E
:101F0000104A11480C780023B2EE040A4CB10B7051
:101F10004FF000541460D0ED000A70EE800AC0ED5E
:101F2000000A8C78002C09D08B704FF4005111609E
:101F3000D0ED000A30EEC00A80ED000A10BD0000AE
:101F400018000020180800481400002010B50022D6
:101F500008214FF0904001F01EF90021064802F0E0
:101F600013FE0421044802F00FFEBDE810400821D2
:101F7000014802F009BE00007402002018B143F2CB
:101F80003901C84202D146F2A81008E0002801DA5F
:101F9000002004E04CF25031884200DD084605493B
:101FA00091FBF0F00449401E08600449096848624A
:101FB00070470000C0687804100000207402002000
:101FC0001148D0ED001A1148B8EE612A026820EEDF
:101FD000020ABCEEC00A10EE101A5163B8EE610A94
:101FE000026820EE800ABCEEC00A10EE101A91635F
:101FF000B8EE610A006821EE000ABCEEC00A10EEDD
:10200000101AC16370470000100000207402002005
:1020100072B6FEE770B500252DED028B012680F823
:102020004850044680F84A60B2EE082A9FED438A81
:10203000F0EE481AB0EE481ADFED418AB0EE080A19
:102040005030F0EE680A04F0D9F8B2EE082AF0EE4B
:10205000481AB0EE481AF0EE680AB0EE080A04F129
:10206000740004F0CBF8DFED378A04F19800B0EE8D
:10207000680A03F063FDB0EE680A04F1A40003F0FF
:102080005DFDB2EE082ADFED301AB0EE481AF2EE2E
:10209000040AB6EE000A04F1B00004F0AFF8B3EEA3
:1020A000042AF0EE481AB0EE481AF0EE480AB3EEF1
:1020B000040A04F1D40004F0A1F8B0EE680A04F1B7
:1020C000F80003F03BFDB0EE480A04F5827003F01F
:1020D00035FDC4F810519FED1D0AC4F8145184ED6C
:1020E000470A1B48B3EE040AC4F8200184ED110A24
:1020F000B2EE080A84ED0F0A9FED160A84ED100A6D
:10210000B7EE000A84ED0C0AB0EE080A84ED0B0A63
:1021100084F8496084ED008A84ED078A84ED088A9A
:1021200084ED048A84ED0A8A84ED098AC4F830516A
:10213000C4F83451BDEC028B70BD000000000000FB
:10214000000096430AD7A33B00007A4400E440C64F
:10215000C7CFFFFFCDCC4C3E704710B50446D0F83A
:10216000300198B104F094F9A16BD4F820014843F0
:1021700000EE900AB8EEE01AD4ED470ABDE8104030
:1021800051EE000AB0EE600A05F068BF94ED020A55
:1021900010BDC0F834117047C0F83011704710B549
:1021A0000446D0F8300180B104F064F904F582707F
:1021B00003F0D2FC94ED481AF0EE400A94ED460A82
:1021C000B8EEC11A11EE200A10BD94ED010A10BD3F
:1021D00010B50446D0F8300160B104F071F904F193
:1021E000F80003F0B9FCD4ED480AF8EEE00A20EE5E
:1021F000200A10BD94ED030A10BD00002DE9F84F30
:1022000000270446009790F85800DFF8D8930D4651
:10221000B846012811D0012684F85860206803F0E0
:1022200051FC60B1E06D40F02000E0655FF0010717
:1022300084F858803846BDE8F88F0220FBE7D5E9DE
:1022400000210C23206803EA91131844036B01F06A
:102250001F014FF01F0C0CFA01FCC2F3846223EA49
:102260000C038A4013430363206803F02BFC82466F
:10227000206803F023FC5AEA00003CD1AA682968D0
:102280002068B2F1004F37D003F028FC2068416984
:1022900021F00041416120686969C268C2F3C1024E
:1022A000520091402A69042A31D000EB82002B6849
:1022B000026EDFF834C303F0F84302EA0C020B436A
:1022C0001A4342F00041016620682A69A96900EBBF
:1022D0008200026E22F080720A430266297F226821
:1022E0002869012910D0002102EB8000026E22F043
:1022F00000720A4302667DE0002203F0EFFB2068D3
:10230000416941F00041C5E74FF00071ECE7002161
:1023100003F0CEFB400320684FF0000172D003F0C1
:10232000C7FB90FAA0F0B0FA80F1286842036ED0A3
:1023300090FAA0F0B0FA80F0814204D10022114658
:10234000206803F0DAFB0121206803F0B1FB4003B1
:1023500020684FF001015DD003F0AAFB90FAA0F0D5
:10236000B0FA80F12868420359D090FAA0F0B0FA90
:1023700080F0814204D100220121206803F0BDFBDE
:102380000221206803F094FB400320684FF0020113
:1023900048D003F08DFB90FAA0F0B0FA80F12868E5
:1023A000420344D090FAA0F0B0FA80F0814204D108
:1023B00000220221206803F0A0FB0321206803F023
:1023C00077FB400320684FF0030133D003F070FB2C
:1023D00090FAA0F0B0FA80F1286842032FD090FA6A
:1023E000A0F0B0FA80F0814204D1002203212068DD
:1023F00003F083FB2068816811F0010F22D0A8E070
:1024000000E004E003F054FBC0F384618DE7C0F307
:10241000846091E703F04CFBC0F38461A2E7C0F352
:102420008460A6E703F044FBC0F38461B7E7C0F320
:102430008460BBE703F03CFBC0F38461CCE7C0F3EE
:102440008460D0E7EB6829684B4550F8B03FC1F392
:10245000120101D10B4300E08B430360E86848455B
:1024600077D1286841031CD090FAA0F1B1FA81F12C
:10247000491C01F01F0109294FEA403132D80029D7
:1024800012D000BF90FAA0F1B1FA81F101F101017F
:1024900001F01F0106FA01F609D100BFC0F3846103
:1024A00009E0C0F38461E3E7C0F38461EEE790FAEA
:1024B000A0F1B1FA81F101F1010101F01F0146EA39
:1024C000816102D1C0F3846003E090FAA0F0B0FA19
:1024D00080F000F1010000F01F0000EB400041EA35
:1024E000005132E000290ED090FAA0F1B1FA81F14A
:1024F00001F1010101F01F0106FA01F606D100BF4A
:10250000C0F3846106E0C0F38461F1E790FAA0F1C2
:10251000B1FA81F101F1010101F01F0146EA816187
:1025200002D1C0F3846003E090FAA0F0B0FA80F02A
:1025300000F1010000F01F002C4A00EB400002EB0C
:10254000005041EA000141F00071AA68206803F0E0
:10255000C5FA27482A6802423FF46AAE25488168D6
:10256000254B01F0E0719A4202D0244B9A421CD1D3
:102570000B021AD42268B2F1A04F7FF459AE8268E0
:1025800041F4000122F0E0720A4382601C481D49B8
:102590000068B0FBF1F0401C00EB4000800000E060
:1025A000401E00900028FBD142E6174D174BAA426F
:1025B00007D1CD0105D422689A42F5D041F080714F
:1025C00009E0134DAA42EFD14A02EDD422689A42A3
:1025D000EAD041F48001826822F0E0720A4382600E
:1025E00026E6000000007F4000F0FF03000020FE10
:1025F0000000088000030050000021C31000C090BC
:102600000C000020400D0300000052C700010050E4
:10261000000084CB7047704770470000F8B54FF05A
:10262000000504002E46009502D0E06D10B107E0D1
:102630000120F8BD204600F0EFF8266684F85860C7
:1026400020688168C1F3407119B181686A4A1140FC
:10265000816020688168C1F3007189B98168674A27
:10266000114041F080518160654866490068B0FBC7
:10267000F1F04000801C00E0401E00900028FBD1DB
:1026800020688168C1F3007141B9E16D41F010012A
:10269000E165216E41F001012166012503F012FA86
:1026A000E16DC90600D430B1E06D40F01000E06586
:1026B00001252846F8BDE06D20F4807040F002004E
:1026C000E0652068806810F0010F11D14FF0A04044
:1026D00080684D4900F00100896801F0010108435C
:1026E00006D14A486168826822F47C120A438260FB
:1026F000E168E06B627F0843A16841EA4231084328
:1027000094F8241040EA0140012904D1218D404A67
:1027100002EB41410843E16A29B101F47871226B6F
:10272000014342EA01002168CA683A4B1A40024359
:10273000CA6020680169626B21F040611143016148
:10274000206803F0BFF90646206803F0B7F930436C
:102750002ED1207F94F83810800340EA410220688F
:10276000C16844F2020399431143C1602069002803
:10277000206801690AD041F480310161206850F875
:10278000C01F22696FF30D01114307E021F480316E
:102790000161206850F8C01F6FF30D01016094F8CB
:1027A000400001280CD02068016921F0010101617D
:1027B000606901282068016B21F00F0111D013E03E
:1027C000D4E911010843D4E91312114308432168E5
:1027D0000A6940F2FC739A43104340F0010008611B
:1027E000E6E7226A521E11430163E06D20F0020009
:1027F00040F00100E0655CE7C0FFFF5FC0FFFF7FC6
:102800000C000020400D03000001005000030050A8
:102810000000FEFF0740F0FF70B598B00546142198
:1028200011A8FDF72FFD44216846FDF72BFD224935
:10283000286888423ED1C001009080030F9068460E
:1028400000F0DAFF08B1FFF7E3FB1C49C86C40F465
:102850000050C864C86C00F400501690C86C40F07A
:102860000100C864C86C002600F001001690F0203A
:1028700011900320CDE9120611A94FF0904000F00D
:1028800061FB104C0E4820602420C4E90106802022
:10289000C4E90360800060618000A0612020E061E5
:1028A000C0012062204600F055F908B1FFF7B0FBE7
:1028B0006C65A56218B070BD0001005000100240A8
:1028C000080002409C0000202DE9F04104463448F5
:1028D00017468846806800F01F05206803F0F2F86C
:1028E00000285AD194F85800012856D0012084F8C5
:1028F0005800002625B1052D02D0092D00D003E097
:102900002046FEF76FF818B184F85860BDE8F081F2
:10291000E06D40F60161884340F48070E065214934
:102920002068884202D14FF0A04100E00146814278
:1029300000D01DB9E06D20F48010E065E06DC004AA
:1029400004D5206E20F00600206600E02666616D4A
:102950001548C862616D15480863616D1448486385
:1029600021681C20086084F858602068416841F0A4
:10297000100141602068C16841F00101C160216817
:102980003B4642464031606D00F044F921688A6858
:10299000084B1A40121D8A60B8E70220B6E7000013
:1029A000000300500001005059090008DB0900082D
:1029B000C1090008C0FFFF7F10B590F82530002145
:1029C0000122022B03D00421C163012122E003680C
:1029D0001C6824F00E041C60836C1C6824F4807452
:1029E0001C6003681C6824F001041C6090F84430EB
:1029F000046C03F01F0302FA03F36360D0E913349D
:102A00005C60436D33B11C6824F480741C60D0E9B1
:102A100016345C6080F82520002280F824200846C7
:102A200010BD70B590F82520002401212346022A0C
:102A300007D00422C26380F8251080F824300124D6
:102A400029E00268156825F00E0515600268156812
:102A500025F001051560826C156825F480751560F8
:102A600090F84420056C02F01F0201FA02F26A603D
:102A7000D0E913255560426D32B1156825F4807593
:102A80001560D0E91625556080F8251080F82430AF
:102A9000816B01B18847204670BDF0B4016C0C68B1
:102AA00001680D6890F8442002F01F06042202FA23
:102AB00006F3234211D06B070FD50B689B0603D496
:102AC0000B6823F004030B6090F8441001F01F0121
:102AD0008A40016C4A60016B1DE0022303FA06F78D
:102AE00027424FF0000C4FF0010218D0AF0716D567
:102AF0000C68A40605D40C6824F00A040C6080F865
:102B0000252090F8441001F01F018B40016C4B60B0
:102B100080F824C0C16A00291AD0F0BC08470823F5
:102B2000B340234214D02B0712D50B6823F00E03B9
:102B30000B6090F84410036C01F01F0102FA01F1E0
:102B40005960C26380F8252080F824C0416BE2E719
:102B5000F0BC704770B504000CD02B4A21681420DB
:102B6000914209D2294A0A44B2FBF0F08000606425
:102B700027480AE0012070BD234A52420A44B2FBB2
:102B8000F0F080006064204808382064022084F857
:102B900025000A6847F6F0708243D4E9020318431F
:102BA000D4E904352B431843A3691843E369184358
:102BB000236A1843104308602046FFF75FF8A068B7
:102BC0000025B0F5804F00D16560A16C20790860C8
:102BD000D4E9130141606068401E032808D82046EC
:102BE000FFF76CF8606D0560D4E91601416002E002
:102BF0006565A565E565E563012084F8250084F831
:102C00002450002070BD000008040240F8FFFDBF02
:102C10000000024070B5044690F824000025012809
:102C20000CD0012084F8240094F825600020012EA7
:102C300006D084F824000225284670BD022070BD0D
:102C4000022684F82560E0632068066826F0010605
:102C500006602046FFF744F8206B002820680168D2
:102C600002D041F00E0106E021F00401016020686D
:102C7000016841F00A010160A06C0168C90303D535
:102C8000016841F480710160606D18B1016841F420
:102C9000807101602068016841F001010160CBE7AB
:102CA00070B5044600F07CFA0546601C02D004486A
:102CB0004068044400F074FA401BA042FAD370BD8F
:102CC000000000202DE9F041040006D0DFF8E88183
:102CD00094F85C00002518B107E00120BDE8F08100
:102CE00084F85D50204600F0EFF82068816921F0FB
:102CF0001001816100F054FA0646032705E000BF89
:102D000000F04EFA801B0A2811D82068806900075D
:102D1000F6D42068816941F00101816100F040FA38
:102D200006460BE000F03CFA801B0A2806D9206E0C
:102D300040F00100206684F85C70CEE7206880696E
:102D4000C007EFD02068816941F0020181612168EC
:102D5000414502D1594960680860207C01282068FB
:102D6000816937D041F040018161607C0128206891
:102D7000816932D021F480418161A07C01282068E2
:102D800081692DD041F48051816120688169A268F8
:102D900021F44071114381612068816921F0A4010F
:102DA00081612068016921F010010161E06801285A
:102DB00019D010B302281BD02068816941F080012E
:102DC00081612068016941F010010161E068032818
:102DD0000ED012E021F04001C6E741F48041CBE77C
:102DE00021F48051D0E72068816941F0040103E0BB
:102DF0002068816941F020018161207EE2694006FE
:102E00006FF0FF0101EB0222A0F100701043226A73
:102E1000A38A521E10430A0202EB0343184323689D
:102E2000D861A068B0F5407F10D1D4E90A0301EB66
:102E30000321401E0843216B131303EB01110843C8
:102E4000A18C02EB014108432168C860206850F85A
:102E5000C01FE26B1143016019482064216851F8DA
:102E6000802FA38E22F4F81242EA03420A6014492A
:102E700070316164216851F8802F94F8383022F065
:102E8000706242EA03620A600D49B031A1640D49E3
:102E9000E1640C49D83121650A49F031616500F5DA
:102EA000547120C08842FCD3A5652566012084F8B2
:102EB0005C00002012E70000006400400065004054
:102EC00000A4004088A5004010B598B00446142125
:102ED00011A8FDF7D7F944216846FDF7D3F9174942
:102EE0002068884228D18014009040030C906846E6
:102EF00000F082FC08B1FFF78BF81148816D41F0BA
:102F000000718165816D01F000711691C16C41F015
:102F10000101C164C06C11A900F0010016904FF4CA
:102F2000C05011900220129000201390149009209C
:102F30001590C00600F006F818B010BD00640040FF
:102F4000001002402DE9F04FDFF820920023012607
:102F50000324A9F1040B85B00F2709F1040AABF192
:102F6000040EFAE006FA03F52A407CD091F804C07A
:102F70000CF0030CBCF1010F02D0BCF1020F26D102
:102F8000D0F808C0CDF800C04FEA430C04FA0CF8A2
:102F9000CDF810C0DDF800C02CEA080CCDF800C058
:102FA000D1F80C80DDF810C008FA0CF8DDF800C08C
:102FB00048EA0C08C0F80880D0F804C02CEA050CD8
:102FC0000D79C5F300159D4045EA0C0545600D7966
:102FD000ED43AD070ED0C5684FEA430804FA08FC7C
:102FE00025EA0C05D1F808C00CFA08FC4CEA050CDF
:102FF000C0F80CC00D7905F00305022D16D1DD08CF
:1030000000EB850CCDF808C0DCF820805D074FEAA6
:10301000D56C07FA0CF528EA05080D6905FA0CF5D8
:10302000DDF808C045EA0805CCF8205005684FEAED
:10303000430CCDF808C004FA0CFC25EA0C0591F805
:1030400004C00CF00308DDF808C008FA0CF848EAE0
:103050000508C0F800804D6815F4403F7CD0444D11
:10306000D5F860C000E077E04CF0010CC5F860C016
:103070002D6E23F0030C05F0010500953D4D6544D0
:103080000295AD684FEA837C4FEA1C7807FA08FC8A
:1030900025EA0C05B0F1904F06D0DFF8DCC06045A2
:1030A00005D14FF0010C20E04FF0000C1DE0DFF8DF
:1030B000CCC0604502D14FF0020C16E0DFF8C0C072
:1030C000604502D14FF0030C0FE0DFF8B8C0604557
:1030D00002D14FF0040C08E0DFF8ACC0604502D12B
:1030E0004FF0050C01E04FF0060C0CFA08FC4CEA1E
:1030F000050C029DC5F808C0D9F80050CC46D1F89F
:10310000048095435FEAC82800D51543CCF80050E9
:10311000DAF80050D446D1F8048095435FEA882855
:1031200000D51543CCF80050DBF80050DC46D1F850
:10313000048095435FEA883800D51543CCF80050E9
:10314000DEF80050F446D1F8048095435FEAC838B1
:1031500000D51543CCF800505B1C0A6832FA03F521
:103160007FF400AF05B0BDE8F08F00000804014017
:103170000010024000000140000400480008004820
:10318000000C004800100048001400480069084086
:1031900000D0012070470AB1816170478162704799
:1031A00001488068704700000000002090F841202E
:1031B000202A24D190F84020012A20D0012280F832
:1031C0004020242280F841200268136823F0010384
:1031D00013600268136823F4805313600268136855
:1031E0000B43136001680A6842F001020A60202163
:1031F00080F84110002180F84010084670470220F6
:10320000704790F84120202A22D190F84020012ACE
:103210001ED0012280F84020242280F8412002683C
:10322000136823F0010313600268136823F47063CA
:1032300043EA0121116001680A6842F001020A6054
:10324000202180F84110002180F840100846704786
:103250000220704770B5040004D094F841000025A6
:1032600010B106E0012070BD84F84050204600F007
:1032700071F9242084F841002068016821F00101DF
:1032800001606068216820F07060086120688168D2
:1032900021F400418160E0680128A06807D040F473
:1032A000044021688860E068022803D006E040F40A
:1032B0000040F6E721684FF40060486020684168EC
:1032C000114A114341602068C16821F40041C16086
:1032D000D4E904010843A16940EA01202168C860DB
:1032E000D4E907010843216808602068016841F0BB
:1032F000010101606564202084F84100256384F8A1
:103300004250002070BD0000008000022DE9F84FFF
:10331000044690F84100DDF828A01F4690468B46F1
:1033200020287ED194F8400001287AD0012084F82A
:103330004000FFF735FF0646012200901923D10314
:10334000204602F099F8E0BB222084F841001020CA
:1033500084F8420000256564C4F8248067856563AD
:10336000618D3148FF274FF080784FF00079FF29B9
:1033700003D927853A46009039E0618D2185009078
:103380003AE05946204602F05FF813E002F0A0F858
:10339000B8B92068406A616A0870606A401C60625F
:1033A000208D401E80B22085618D491E6185618D12
:1033B00001B168B1608D3246002851462046E5D102
:1033C00000E002E002F0D2F8D0B10120BDE8F88FB1
:1033D0005346002280212046009602F04DF8002836
:1033E000F3D1608DFF2804D927853A4600954346DE
:1033F000C7E7608D2085009594F828204B46C0E7EC
:1034000021682020C86121684A68084B1A404A6038
:1034100084F8410084F8425084F840500020D5E7F9
:10342000FFE70220D2E700000024008000E800FE51
:103430002DE9F84F044690F84100DDF828A01F461A
:1034400090468B4620287ED194F8400001287AD0FF
:10345000012084F84000FFF7A3FE064601220090F9
:103460001923D103204602F007F8E0BB212084F89D
:103470004100102084F8420000256564C4F82480CF
:1034800067856563618D3148FF274FF080784FF085
:103490000079FF2903D927853A46009039E0618DEC
:1034A000218500903AE05946204601F0CDFF13E017
:1034B00002F082F8B8B9606A216800788862606AB0
:1034C000401C6062608D401E6085208D401E80B271
:1034D0002085618D01B168B1608D3246002851466A
:1034E0002046E5D100E002E002F040F8D0B1012032
:1034F000BDE8F88F5346002280212046009601F057
:10350000BBFF0028F3D1608DFF2804D927853A46F8
:1035100000954346C7E7608D2085009594F82820E4
:103520004B46C0E721682020C86121684A68084BE3
:103530001A404A6084F8410084F8425084F84050B0
:103540000020D5E7FFE70220D2E70000002000803E
:1035500000E800FEF0B597B00446142111A8FCF76E
:1035600091FE44216846FCF78DFE20492068884280
:1035700039D14020002500900695684600F03CF9BE
:1035800008B1FEF745FD1A4CE06C40F00100E06424
:10359000E06C00F001001690E06C40F00200E06486
:1035A000E06C122600F00200169004274FF4004051
:1035B000CDE91265CDE91457119011A9B006FFF7B6
:1035C000C1FC8020CDE91265CDE91457119011A9F5
:1035D0000848FFF7B7FCA06D40F40010A065A06D8F
:1035E00000F40010169017B0F0BD00000054004029
:1035F00000100240000400480248816842681144FB
:10360000816070470000002010B50024032000F006
:103610007BF8002000F008F808B1012401E000F078
:1036200025F8204610BD000070B50E4E054600245A
:10363000706898B14FF47A71B1FBF0F00A490968EB
:10364000B1FBF0F000F01AFF40B9102D06D20022B5
:103650002946501E00F038F8356000E0012420466D
:1036600070BD0000000000200C0000200E4808B5CE
:10367000016E41F001010166016E01F0010100914E
:10368000816D41F080518165806D00F08050009027
:10369000202000F0E9FE00F0C5FE002000F0DAFE78
:1036A000BDE8084000F0A0B800100240002809DB87
:1036B00000F01F02012191404009800000F1E0204C
:1036C000C0F8001170470000F0B40E4B1B680C46A8
:1036D000C3F30223C3F10705042D00D90425191DE6
:1036E000072901D2002300E0DB1E012606FA05F1BE
:1036F000491E214099409E40761E16403143F0BC41
:1037000003F078BF0CED00E0064900F007020868FE
:103710004FF6FF03184040EA0220034A10430860B6
:10372000704700000CED00E00000FA052B492C4B1F
:103730000A6832214A432B4940B1B0F5007F08683E
:1037400029D020F4C06040F480602CE00868C0F309
:103750004120022804D051F8800F20F4807022E02C
:10376000D1F8800020F48070C1F88000086820F44F
:10377000C06040F400700860B2FBF3F0401C00E051
:10378000401E4A69520501D50028F9D14869400513
:103790000AD503207047C0F34120022806D051F813
:1037A000800F40F48070086000207047D1F88000DE
:1037B00040F48070C1F88000086820F4C06040F4D4
:1037C00000700860B2FBF3F0401C00E0401E4A6944
:1037D0005205DBD50028F9D1D8E700000C00002005
:1037E00040420F00007000400248816841F480416F
:1037F00081607047007000402DE9F843044600687E
:1038000000269D4D00035ED5A86D0027C00008D49A
:10381000A86D40F08050A865A86D012700F0805089
:103820000090DFF85892D9F8001041F48071C9F87F
:103830000010FFF7B5FC804606E000BFFFF7B0FCC4
:10384000A0EB080002282BD8D9F80000C005F5D558
:10385000D5F8900010F4407014D0216C814211D042
:10386000D5F89000D5F8901020F4407041F48031E4
:10387000C5F89010D5F8901021F48031C5F890105B
:10388000C5F89000C00711D0FFF78AFC804641F2CE
:10389000883907E0FFF784FCA0EB0801494501D90E
:1038A00003260BE0D5F890008007F3D5D5F89000FB
:1038B000216C20F440700843C5F890001FB1A86D3A
:1038C00020F08050A8652078C00707D0D5F8880080
:1038D000616820F003000843C5F88800207880075D
:1038E00007D5D5F88800A16820F00C000843C5F87A
:1038F00088002078400707D5D5F88800E16820F0D7
:1039000030000843C5F888002078000707D5D5F8AF
:103910008800216920F0C0000843C5F8880020789D
:10392000800607D5D5F88800616920F44060084317
:10393000C5F888002078400607D5D5F88800A16929
:1039400020F440500843C5F888002078000607D5C9
:10395000D5F88800E16920F440400843C5F88800A4
:103960002088C00507D5D5F88800216A20F44030AA
:103970000843C5F888002088800507D5D5F8880059
:10398000616A20F440200843C5F88800208840057B
:103990000FD5D5F88800A16A20F440100843C5F877
:1039A0008800A06AB0F5801F03D1E86840F4801059
:1039B000E860208800050FD5D5F88800E16A20F47A
:1039C00040000843C5F88800E06AB0F5800F03D1D5
:1039D000E86840F48010E8602088C0040FD5D5F86E
:1039E0008800216B20F040700843C5F88800206BE8
:1039F000B0F1807F03D1E86840F48010E86020884F
:103A00004FF0006180040ED5D5F88800626B20F07D
:103A100040601043C5F88800606B884203D1E868B5
:103A200040F48010E860208840040ED5D5F8880066
:103A3000A26B20F040601043C5F88800A06B88425C
:103A400003D1E86840F48010E860208800040FD5B6
:103A5000D5F88800E16B20F040500843C5F8880095
:103A6000E06BB0F1805F03D1E86840F48030E8603B
:103A70003046BDE8F88300000010024000700040AE
:103A80002DE9F0470E4605004FF0000725D0DFF87E
:103A9000AC81D8F8000000F00F00B0420CD2D8F88A
:103AA000001021F00F013143C8F80010D8F80000D1
:103AB00000F00F00B04210D12968614CC80741F2F4
:103AC000883A5AD06868DFF87C91032808D0022829
:103AD00020682DD0400500282CDB0120BDE8F087B0
:103AE00020688001F9D5E06800F00302E068C0F3C7
:103AF0000310401C032A19D0534A00BFB2FBF0F058
:103B0000E268C2F306225043E268C2F34162521CEB
:103B10005200B0FBF2F0484517D9A06810F0F00F42
:103B20000CD0880711D5A86840B10EE0474AE5E7F8
:103B30008003D0E700F0B6F8484506D9A06820F029
:103B4000F00040F08000A0608027A068696820F045
:103B500003000843A060FFF723FB814606E000BF97
:103B6000FFF71EFBA0EB090151453AD8A068696830
:103B700000F00C00B0EB810FF2D12868810714D55A
:103B8000400703D5A06840F4E060A06028780007F3
:103B900005D5A06820F4605040F4E060A060A06803
:103BA000A96820F0F000084304E0802F03D1A0684A
:103BB00020F0F000A060D8F80010404601F00F019E
:103BC000B14216D9016821F00F0131430160FFF7BE
:103BD000E7FA074607E000BFFFF7E2FAC11B5145CD
:103BE00001D903207AE7D8F8000000F00F00B042B6
:103BF000F2D12878400705D5A068E96820F4E06094
:103C00000843A0602878000706D5A068296920F439
:103C1000605040EAC100A06000F044F8A1680C4A7E
:103C2000C1F30311515C01F01F01C840094908604C
:103C300009480068BDE8F047FFF7F6BC00200240E5
:103C40000010024000B4C4040024F40040787D0158
:103C5000928A00080C000020000000200548064958
:103C600000688968054AC1F30221515C01F01F0117
:103C7000C84070470C00002000100240A28A0008D3
:103C80000548064900688968054AC1F3C221515CAC
:103C900001F01F01C84070470C00002000100240D6
:103CA000A28A0008184910B58868C0F38102174835
:103CB000012A0BD08A68164BC2F38102022A06D071
:103CC0008A68C2F38102032A03D0002010BD18467F
:103CD00010BDCA6802F00304CA68C2F30312521C82
:103CE000032C02D0B0FBF2F001E0B3FBF2F0CA68A3
:103CF000C968C2F306225043C1F34161491C49001F
:103D0000B0FBF1F010BD0000001002400024F400F0
:103D100040787D012DE9F84304007AD02078FA4DEF
:103D2000C00747D0A868E96800F00C0001F0030163
:103D30000C2802D0082817D001E0032914D06068AD
:103D4000B0F5803F17D0B0F5A02F286817D020F429
:103D500080302860286820F4802028606068E0B106
:103D6000FFF71EFA064614E02868800322D5606833
:103D70000028D2D01EE0286840F48030EDE740F4FF
:103D800080202860F7E700BFFFF70AFA801B64284D
:103D900070D828688003F7D50CE0FFF701FA0646D3
:103DA00005E000BFFFF7FCF9801B6428F0D8286805
:103DB0008003F7D4207880074CD5A868E96800F024
:103DC0000C0001F003010C2802D004280DD001E002
:103DD00002290AD0E068002828682BD040F48070BF
:103DE0002860FFF7DDF9064619E02868400502D58E
:103DF000E068002891D06868217C20F0FE4040EA0D
:103E000001606860C1480068FFF70EFC002800D11F
:103E100020E076E1FFF7C4F9801B0228B8D82868B3
:103E20004005F7D56868217C20F0FE4040EA01603B
:103E300068600FE020F480702860FFF7B1F9064653
:103E400005E000BFFFF7ACF9801B0228A0D8286866
:103E50004005F7D42078000729D560690028D5F8F7
:103E6000940013D040F00100C5F89400FFF798F9D2
:103E7000064606E090E000BFFFF792F9801B02289B
:103E800086D8D5F894008007F6D510E020F0010020
:103E9000C5F89400FFF784F9064604E0FFF780F9BF
:103EA000801B022878D8D5F894008007F6D42078B3
:103EB000400761D5A86D0026C00008D4A86D40F069
:103EC0008050A865A86D012600F0805000909048B1
:103ED0000168C90511D40168804641F48071016010
:103EE000FFF75EF9074604E0FFF75AF9C01B022806
:103EF00052D8D8F80000C005F6D5A068012815D022
:103F00000528D5F8900016D020F00100C5F89000E3
:103F1000D5F8900020F00400C5F89000A06841F2A8
:103F20008838B8B1FFF73CF907460EE0D5F89000A5
:103F300040F00100F0E740F00400C5F89000F5E71C
:103F4000FFF72EF9C11B414526D8D5F89000800710
:103F5000F6D50CE0FFF724F9074604E0FFF720F957
:103F6000C11B414518D8D5F890008007F6D41EB182
:103F7000A86D20F08050A8652078800629D5A0691A
:103F80000028D5F8980013D040F00100C5F898003B
:103F9000FFF706F9064606E077E000BFFFF700F9F5
:103FA000801B022877D8D5F898008007F6D510E056
:103FB00020F00100C5F89800FFF7F2F8064604E08B
:103FC000FFF7EEF8801B022865D8D5F89800800727
:103FD000F6D4E069F0B3A968C1F38101032961D087
:103FE0000228286820F0807028600BD0E86820F054
:103FF0000300E860E86847490840E860FFF7D0F848
:1040000004464BE0FFF7CCF8064604E0FFF7C8F89B
:10401000801B02283FD828688001F7D4F4E9080102
:104020006FF00F0202EB01110843218A5204490884
:1040300002EB4151A26841EA02210843217D4FF081
:104040007E42490802EB41610843217B40EAC1609E
:10405000E96800E062E0304A11400843E8602868FF
:1040600040F080702860E86840F08070E860FFF7FA
:1040700097F8044605E000BFFFF792F8001B0228FE
:1040800009D828688001F7D548E004E0FFF788F8F0
:10409000001B022802D90320BDE8F88328688001AC
:1040A000F4D43BE00128F7D0E868226A00F003016D
:1040B000914226D1616A00F0F00209011039914263
:1040C0001FD1A26A00F4FE41B1EB022F19D194F87E
:1040D0002C2000F07841B1EBC26F12D1218E00F498
:1040E000C00249084905A1F50011914209D194F88F
:1040F000341000F0C06049084906A1F10071814206
:104100000CD00120C8E70000001002400000002091
:1041100000700040FFFFEEFE0C809F010020BBE717
:1041200070B5040009D0606A002540B12561656161
:10413000A56294F85D0040B10CE0012070BD60689C
:10414000B0F5827FF4D0E561F2E784F85C50204658
:1041500000F05CF8022084F85D002068016821F01E
:1041600040010160E1684FF4E062914201D9002012
:1041700001E04FF48050B1F5706F02D0914200D051
:10418000A562A188228901F4827102F404421143DC
:10419000227C02F002021143227D02F0010211434F
:1041A000228B02F400721143227F02F03802114385
:1041B00094F8202002F080021143228D02F4005274
:1041C000114322681160A169042202EA114194F8A6
:1041D000242000F4805002F01002114394F834209F
:1041E00002F008021143A28902F4706211430143F4
:1041F000206841602068C16921F40061C1612566C1
:10420000012084F85D00002070BD000070B586B00C
:10421000044614216846FCF735F81C4E2568002238
:104220001B49022405231B48B54211D10D6E45F4EC
:1042300080550D660D6E05F480550595CD6C45F0E5
:104240000205CD64C96C01F002010591282113E03B
:10425000114EB54218D18D6D45F480458D658D6D3B
:1042600005F480450595CD6C45F00205CD64C96C1B
:1042700001F002010591B1000091CDE901426946CA
:10428000CDE90323FEF75EFE06B070BD00300140AD
:104290000010024000040048003800402DE9F84FAB
:1042A000044690F85C0000271D4616468946012802
:1042B0000DD04FF0010B84F85CB0FEF771FF804623
:1042C00094F85D00BA46012804D00227A4E0022039
:1042D000BDE8F88FB9F1000F74D0002E72D0032022
:1042E00084F85D00C4F860A0C4F83890A687E6871B
:1042F000C4F840A0A4F844A0A4F846A0C4F850A074
:10430000C4F84CA0A068B0F5004F09D1206801683E
:1043100021F0400101602068016841F480410160A2
:1043200020680168490603D4016841F0400101603A
:10433000E068B0F5E06F606823D908B1012E1CD1A8
:10434000A06B21680088C86006E020688168890742
:1043500009D5A16B0988C160A06B801CA063E08FA8
:10436000401EE08709E0FEF71BFFA0EB0800A84213
:1043700002D3681C01D046E0ADB3E08F0028E4D141
:1043800036E008B1012E30D1E08F0128A06B03D9AF
:1043900021680088C8600FE021680078087314E085
:1043A000E08722E020688168890714D5E18F012920
:1043B000A16B08D90988C160A06B801CA063E08F45
:1043C000801EEDE727E009780173A06B401CA06315
:1043D000E08F401EE4E7FEF7E3FEA0EB0800A842F2
:1043E00002D3681C01D00EE06DB1E08F0028D9D156
:1043F00042462946204601F04BFF08B120202066A6
:10440000A06810B105E0032706E02068C168806855
:104410000090206E00B1012784F85DB084F85CA0A4
:10442000384655E770B50A4D286B40F00100286307
:10443000FEF7B6FE044606E0FEF7B2FE001B0A28B1
:1044400001D9032070BD286B0007F5D5002070BD91
:104450000000014003490A6B22F0020202430A6392
:10446000704700000000014003490A6B22F030024F
:1044700002430A63704700000000014010B5401E6F
:10448000B0F1807F01D3012010BD4FF0E0246061C6
:104490000F21601703F0AEF80020A0610720206113
:1044A000002010BD704770477047704770477047D5
:1044B000F0B590F83C20012A3AD0012580F83C5014
:1044C000022280F83D2003685A689C68194E1A4FF2
:1044D000B34201D0BB4204D122F4700C4A6842EAD4
:1044E0000C02DFF858C002EA0C02D1F800C04CEA16
:1044F000020CC3F804C00268B2420DD0B2F1804F82
:104500000AD00F4B9A4207D00E4B9A4204D0BA42BF
:1045100002D00D4B9A4204D1896824F080031943DC
:10452000916080F83D50002180F83C100846F0BDB5
:104530000220F0BD002C0140003401408FFFFFFD40
:10454000000400400008004000400140704710B5E2
:10455000040003D094F83D0010B107E0012010BD25
:10456000002084F83C00204600F022F8022084F865
:104570003D00211D206802F08BF8012084F84800DE
:1045800084F83E0084F83F0084F8400084F841003D
:1045900084F8420084F8430084F8440084F845001D
:1045A00084F8460084F8470084F83D00002010BDE0
:1045B00008B5154A0168154891420ED1816D41F048
:1045C00002018165806D002200F00200009011461A
:1045D0001D20FFF779F81D2010E00D4A914211D1FE
:1045E000016E41F480310166006E002200F48030DB
:1045F00000900F211820FFF767F81820BDE8084049
:10460000FFF754B808BD000000040040001002404D
:104610000040014090F83D10012901D00120704771
:10462000022180F83D100168CA6842F00102CA60A8
:104630000068104988420ED0B0F1804F0BD00E496F
:10464000884208D00D49884205D00D49884202D0E1
:104650000C49884207D181680B4A1140062906D0CF
:10466000B1F5803F03D0016841F0010101600020F5
:1046700070470000002C014000040040000800408A
:1046800000340140004001400700010070B50446BD
:1046900090F83C000025012814D0012684F83C60E5
:1046A000022084F83D0022689068364B184020F4C0
:1046B0007F409060086870282ED010DC10F00F0F3B
:1046C00003D021E04FF0020070BD4FEA2012072A0C
:1046D0001AD2DFE802F0525252524A3840002A4BB6
:1046E000C21A984249D009DCB0F5805F0DD0B0F510
:1046F000005F1CD0B0F1101F06D13EE0102A3CD064
:10470000202A3AD0502A38D0012584F83D60002074
:1047100084F83C00284670BDCB68D1E901212068AF
:1047200002F01BF82068816841F0770109E0CB684E
:10473000D1E90121206802F010F82068816841F475
:1047400080418160E1E7CA684968206802F0B0F9F9
:104750005021206806E0CA684968206802F0B9F96B
:104760006021206802F004F8CFE7CA684968206831
:1047700002F09EF940212068F4E7226801461046C5
:10478000F0E7000088FFCEFF20001000704770B5F2
:104790000446006801694FF00005C943890715D434
:1047A000C168C943890711D4E91E0161012020773E
:1047B000206880698007204602D0FFF7E7FF04E009
:1047C00000F00AF9204600F0DDF92577206801693C
:1047D000C943490717D4C168C943490713D46FF0C7
:1047E00004010161022020772068806910F4407F75
:1047F000204602D0FFF7CAFF04E000F0EDF82046A3
:1048000000F0C0F9257720680169C943090716D46B
:10481000C168C943090712D46FF00801016104207F
:1048200020772068C0698007204602D0FFF7AEFFDE
:1048300004E000F0D1F8204600F0A4F925772068C4
:104840000169C943C90617D4C168C943C90613D44D
:104850006FF010010161082020772068C06910F412
:10486000407F204602D0FFF791FF04E000F0B4F84B
:10487000204600F087F9257720680169C943C907F8
:1048800008D1C168C943C90704D1891E0161204606
:1048900000F0F8F920680169C943090609D4C16824
:1048A000C943090605D46FF0800101612046FFF776
:1048B000FAFD20680169C943C90509D4C168C94323
:1048C000090605D46FF4807101612046FFF7EAFD07
:1048D00020680169C943490609D4C168C94349062A
:1048E00005D46FF040010161204600F0EFF9206827
:1048F0000169C943890609D4C168C943890605D439
:104900006FF0200101612046FFF7CEFD20680169AC
:10491000C943C90209D4C168C943C90205D46FF4A7
:10492000801101612046FFF7C1FD20680169C9437C
:10493000890209D4C168C943890205D46FF4001102
:1049400001612046FFF7B1FD20680169C9434902B2
:1049500009D4C168C943490205D46FF480010161DB
:104960002046FFF7A4FD20680169C94309020BD462
:10497000C168C943090207D46FF4000101612046F0
:10498000BDE87040FFF7E2BD70BD000010B586B015
:10499000044614216846FBF775FC2068B0F1804F8F
:1049A00016D10C48C16C41F00101C164C06C69466C
:1049B00000F00100059007200090022001900020E7
:1049C00002900390012004904FF09040FEF7BAFA55
:1049D00006B010BD00100240704770B5044690F854
:1049E0003C0000260D4601280BD0012084F83C0035
:1049F0000C2A4AD007DC82B1042A20D0082A06D12A
:104A000031E0022070BD102A53D0142A63D0012651
:104A1000002084F83C00304670BD206801F0B2FEF2
:104A20002068816941F0080181612068816921F075
:104A300004018161206881692A69114311E02068BD
:104A400001F0EEFE2068816941F400618161206817
:104A5000816921F480618161206881692A6941EA64
:104A600002218161D4E7206801F022FF2068C1693A
:104A700041F00801C1612068C16921F00401C161F0
:104A80002068C1692A69114311E0206801F058FFCC
:104A90002068C16941F40061C1612068C16921F4E5
:104AA0008061C1612068C1692A6941EA0221C1614E
:104AB000AEE7206801F08CFF2068016D41F008012D
:104AC00001652068016D21F0040101652068016D18
:104AD0002A69114311E0206801F0B2FF2068016DDE
:104AE00041F4006101652068016D21F48061016578
:104AF0002068016D2A6941EA0221016588E710B545
:104B0000040003D094F83D0010B107E0012010BD6F
:104B1000002084F83C00204600F022F8022084F8AF
:104B20003D00211D206801F0B3FD012084F84800FC
:104B300084F83E0084F83F0084F8400084F8410087
:104B400084F8420084F8430084F8440084F8450067
:104B500084F8460084F8470084F83D00002010BD2A
:104B600008B50068B0F1804F08D10548816D41F06B
:104B700001018165806D00F00100009008BD00001A
:104B8000001002407047000030B50446022269B1AF
:104B9000042912D0082917D00C291CD0102921D0A3
:104BA00094F84300012824D0012030BD94F83E0041
:104BB0000128F9D184F83E201DE094F83F00012837
:104BC000F2D184F83F2016E094F840000128EBD1A0
:104BD00084F840200FE094F841000128E4D184F8E3
:104BE000412008E094F842000128DDD184F84220F9
:104BF00001E084F843200122206801F0A1FD194B57
:104C000020681949194A984209D0884207D0904231
:104C100005D0174DA84202D0164DA84203D1456CCD
:104C200045F400454564206898420CD0B0F1804FAF
:104C300009D0114B984206D0104B984203D08842BD
:104C400001D0904207D181680D4A1140062906D053
:104C5000B1F5803F03D0016841F0010101600020FF
:104C600030BD0000002C01400034014000400140F4
:104C7000004401400048014000040040000800409A
:104C80000700010010B5044600680B49884208D1AE
:104C90000A48FCF7A7FB0A4890ED000A0748FCF712
:104CA0002DFC08492068884205D1BDE8104002214A
:104CB0000548FCF79DBE10BD00040040180400200C
:104CC0001400002000400140A0050020704790F82B
:104CD0008010012918D0012180F880102421C0F80B
:104CE000841050F8641B0A680B6823F001030B6002
:104CF00022F000510022026050F8643C196020212B
:104D00000162027710467047022070477047704773
:104D100070B5044690F8800001281DD0012084F869
:104D200080002420C4F8840020680568026822F00E
:104D3000010202602068826822F060620A43826099
:104D4000204601F0D9FE206805602020C4F88400C8
:104D5000002084F8800070BD022070BD70B504464C
:104D600090F8800001281DD0012084F880002420C4
:104D7000C4F8840020680568026822F0010202601D
:104D80002068826822F060420A438260204601F077
:104D9000B3FE206805602020C4F88400002084F859
:104DA000800070BD022070BD7047704770470000E2
:104DB0002DE9F04103680446D86919689A6840F6FD
:104DC0000F0528424FF0000509D186067ED501F077
:104DD000200602F080573E4378D0216F27E1A94E8C
:104DE000A94F16400F40374370D0C70709D0CF05F1
:104DF00007D501271F62D4F88C3043F00103C4F8B3
:104E00008C3083070AD5D30708D0276802233B627A
:104E1000D4F88C3043F00403C4F88C3043070AD52F
:104E2000D30708D0276804233B62D4F88C3043F0C2
:104E30000203C4F88C3003070CD501F02003334380
:104E400008D0266808233362D4F88C3043F0080376
:104E5000C4F88C3003050BD54B0109D526684FF4F7
:104E600000633362D4F88C3043F02003C4F88C30F4
:104E7000D4F88C30002B3AD0800609D501F0200000
:104E800002F08051084303D0216F09B120468847C2
:104E9000D4F88C0021688968490602D410F0280FE4
:104EA00027D0204601F0E8FE2068806840061BD528
:104EB0002068083050E8001F21F0400140E800124F
:104EC000002AF5D1E06F78B1704900E017E0816306
:104ED000E06FFDF7A6FD002809D0E06F816B00E0D0
:104EE0002046BDE8F04108472046FFF75FFFBDE8D8
:104EF000F0812046FFF75AFFC4F88C50F7E7E76EC1
:104F00002026012F7ED1C7067CD5CF067AD510206A
:104F1000186220688068400642D5E16F08684068E2
:104F20000004000CE3D0B4F85C208242DFD9A4F87E
:104F30005E000868006880062BD4206850E8001FD7
:104F400021F4807140E80012002AF6D12068083070
:104F500050E8001F21F0010140E80012002AF5D1BD
:104F60002068083050E8001F21F0400140E800129E
:104F7000002AF5D1C4F88860E566216851E8000F81
:104F800020F0100041E80002002AF6D1E06FFDF7A2
:104F900013FDB4F85C00B4F85E10401A81B22CE046
:104FA000B4F85C00B4F85E10401A81B2B4F85E0048
:104FB00000289CD000299AD0226852E8000F20F4E3
:104FC000907042E80003002BF6D12E4BDB432068A3
:104FD000083050E8002F1A4040E80027002FF6D193
:104FE000C4F88860E5662567226852E8000F20F063
:104FF000100042E80003002BF6D12046FFF786FEA2
:1050000075E7FFE7C70209D5570207D54FF48010AF
:1050100018622046BDE8F041FFF7C7BE03060AD577
:1050200001F0800302F40002134304D0616F0029F1
:105030007FF456AF5BE7420611D54A060FD52046EE
:10504000016851E8002F22F0400241E80023002BC4
:10505000F6D1C0F88460456700F052F947E70202D4
:1050600006D54A0004D52046BDE8F041FFF79CBEB6
:10507000C001C5D50029C3DA2046BDE8F041FFF7DD
:1050800046BE00000100001020010004656C00080D
:1050900010B5040003D0D4F8840010B107E001205B
:1050A00010BD002084F88000204600F027F824205E
:1050B000C4F884002068016821F0010101602046E5
:1050C00002F01CF80128EBD0A06A10B1204601F0D4
:1050D00035FD2068416821F4904141602068816875
:1050E00021F02A0181602068016841F0010101601E
:1050F0002046BDE8104001F085BD000010B598B015
:105100000446142111A8FBF7BDF844216846FBF7BB
:10511000B9F81B492068884230D101200024CDE92C
:1051200000046846FEF768FB08B1FCF771FF1548FC
:10513000016E41F480410166016E01F480411691D7
:10514000C16C41F00101C164C06C11A900F0010003
:1051500016904FF4C06011900220CDE91204072090
:10516000CDE914404FF09040FDF7ECFE0022012104
:105170002520FEF7A9FA2520FEF798FA18B010BDF1
:10518000003801400010024030B4D0F88830202BA5
:1051900020D1E1B1DAB190F88030012B1AD001238F
:1051A00080F880300023C3660B4C0368A3420BD009
:1051B0005B681B0208D5046854E8003F43F0806335
:1051C00044E80035002DF6D130BC02F0D1B8012002
:1051D00030BC70470220FBE70080004030B400681C
:1051E0001449884224D1144841880A0416D402463E
:1051F0004C0412784FF0000304D50A2A0DD141F473
:10520000004113E00D2A0FD0C1F30D040B4D491CD2
:1052100089B22A554180C72900D9438030BC012278
:1052200005490748FFF7B0BF41F480414180F5E7E9
:1052300030BC7047003801401C000020C805002029
:10524000580300202DE9F8430446D0F884001F4697
:1052500016460D46202851D1DDB1D6B194F8800014
:1052600001284BD0012084F880004FF00008C4F8DA
:105270008C802120C4F884001834FDF791FFA687A4
:105280008146E68754F8100C183CB0F5805F03D0D7
:1052900004E00120BDE8F883206920B12E460025F6
:1052A00084F8808010E00026FAE78021204602F092
:1052B000EBF8B8B9C6B116F8010B21688862B4F8EA
:1052C0005600401EA4F85600B4F856004B464FF066
:1052D000000200970028E8D14FF04001204602F07C
:1052E000D3F830B10320D5E735F8020BC0F308003E
:1052F000E3E72020C4F884000020CBE70220C9E7C0
:105300007047FEE701688A69D243920701D4002200
:105310008A6200688169C943C90703D0816941F085
:1053200001018161704700002DE9F04704460068E3
:105330008A461746816900252E46C906A9464FF0C0
:10534000200849D51021C16137E000BFBAF1FF3F05
:1053500033D0FDF725FFC11B514502D8BAF1000F2C
:105360002BD12068416894F8422001F48041836980
:10537000DB431B041CD4B1F5804F19D0202A17D071
:10538000416841F480414160FDF70AFF07460FE0A4
:10539000FDF706FFC01B19280AD9606C40F02000F9
:1053A000606484F8418084F8429084F8409001253C
:1053B00020688069C0438006EAD420688069C043C1
:1053C000800602D5002DC1D003E015B92168C1F8CF
:1053D0001C8046F00406012521688869C20505D5B0
:1053E0004FF4807246F00106CA610125410509D5D6
:1053F00022684FF4806146F00806D16101258005DE
:1054000002D40AE0800507D521684FF4007046F009
:105410000206C861012500E08DB12046FFF772FF4A
:1054200054F8240B4168074A11404160206A304318
:10543000206284F81D8084F81E9084F81C90284611
:10544000BDE8F08700E800FE10B5C1F3090141EAAC
:1054500002410268029C19432143506821F0004137
:105460004FF4806303EA5453024C234398430843A8
:10547000506010BDFF63FF032DE9F0411D46174644
:105480000E460446DDF8188008E0681C06D0FDF7DB
:1054900087FEA0EB0800A8420BD855B120688069B0
:1054A00036EA000012D00020B842EED00020BDE85D
:1054B000F08154F8440F40F0200044F80409202003
:1054C00060700020A07020700120F0E70120EBE761
:1054D0002DE9F041202690460F460446002530E095
:1054E000424639462046FFF71FFF10BB20688069FF
:1054F000C04380061ED420688169C943490701D48E
:10550000218D19BB8169C943C90604D41021C16129
:105510000420606400E065642068C661206841681A
:10552000114A1140416084F8416084F8425084F887
:10553000405016E0FDF734FEA0EB0800B84208D852
:105540003FB120688069C0434007C9D40020BDE84E
:10555000F08154F8440F40F0200044F804096670CC
:1055600025700120F3E7000000E800FE70B5164644
:105570000D4604460DE0324629462046FFF7D4FE8C
:1055800008B1012070BDFDF70BFE801BA84207D8B3
:1055900035B120688069C0438006ECD4002070BD1E
:1055A00054F8440F40F0200044F8040920206070B3
:1055B0000020A0702070E4E770B516460D46044642
:1055C0000FE0324629462046FFF7AEFE08B1012023
:1055D00070BD681C05D0FDF7E3FD801BA84207D80D
:1055E00035B120688069C0438007EAD4002070BDCF
:1055F00054F8440F40F0200044F804092020607063
:105600000020A0702070E2E72DE9F04107461C461B
:1056100015460E462A2000F01DFA7F1CB8B200F095
:105620000EFA6D1CA8B200F00AFA2B2000F012FA54
:105630001A36B0B200F003FA1A34A0B200F0FFF943
:10564000BDE8F0412C2000F005BA10B514460B4619
:105650000246FFF7D9FF2046BDE8104000F0EFB941
:105660002DE9F04780461F46581E83B21646501E4D
:1056700082B20C464046DDF82090FFF7C5FF0AE0F5
:10568000454604E0484600F0DAF96D1CADB2B5427B
:10569000F8D3641CA4B2BC42F2D3BDE8F08700008A
:1056A00070B5944D4FF40074002221462846FDF752
:1056B00072FD6420FDF7F4FA012221462846FDF729
:1056C0006AFD6420FDF7ECFA012210212846FDF75F
:1056D00062FD6420FDF7E4FA112000F0BBF97820A8
:1056E000FDF7DEFAB12000F0B5F9052000F0C6F9AB
:1056F0003C2000F0C3F93C2000F0C0F9B22000F0DB
:10570000A9F9052000F0BAF93C2000F0B7F93C20D7
:1057100000F0B4F9B32000F09DF9052000F0AEF9D7
:105720003C2000F0ABF93C2000F0A8F9052000F087
:10573000A5F93C2000F0A2F93C2000F09FF9B4202C
:1057400000F088F9032000F099F9C02000F082F9F8
:10575000AB2000F093F90B2000F090F9042000F04A
:105760008DF9C12000F076F9C52000F087F9C2203C
:1057700000F070F90D2000F081F9002000F07EF9B2
:10578000C32000F067F98D2000F078F96A2000F05E
:1057900075F9C42000F05EF98D2000F06FF9EE205D
:1057A00000F06CF9C52000F055F90F2000F066F903
:1057B000E02000F04FF9072000F060F90E2000F023
:1057C0005DF9082000F05AF9072000F057F9102081
:1057D00000F054F9072000F051F9022000F04EF9D2
:1057E000072000F04BF9092000F048F90F2000F0E5
:1057F00045F9252000F042F9362000F03FF900205D
:1058000000F03CF9082000F039F9042000F036F9E6
:10581000102000F033F9E12000F01CF90A2000F01C
:105820002DF90D2000F02AF9082000F027F90720B3
:1058300000F024F90F2000F021F9072000F01EF9F4
:10584000022000F01BF9072000F018F9092000F0F1
:1058500015F90F2000F012F9252000F00FF935207E
:1058600000F00CF9002000F009F9092000F006F919
:10587000042000F003F9102000F000F9FC2000F0F3
:10588000E9F8802000F0FAF83A2000F0E3F805206B
:1058900000F0F4F8362000F0DDF8782000F0EEF8A3
:1058A000212000F0D7F8292000F0D4F82A2000F0B9
:1058B000D1F8002000F0E2F81A2000F0DFF8002014
:1058C00000F0DCF8692000F0D9F82B2000F0C2F8D5
:1058D000002000F0D3F8012000F0D0F8002000F004
:1058E000CDF8A02000F0CAF8BDE870402C2000F0F0
:1058F000B1B80000000400482DE9FF4F81B0044614
:10590000DDF83C9000904FEA59074FF00008780707
:1059100000D0012000EBD70000FB09FB203AD0B2F9
:105920000390029802994844401E83B2E019401E39
:1059300082B22046FFF768FE002553E0B9F10C0F54
:105940002AD0B9F1100F2ED0B9F1180F2ED0B9F11D
:10595000200F49D12749039801EB8010002610F849
:1059600005A0109800284FF0010000FA06F000EAA8
:105970000A0022D020B12046049A0299FFF765FE62
:10598000641C0098A4B2201AB84225D10298009C49
:10599000401C80B2029023E00398174900EB4000BE
:1059A00001EB8000DAE71549039803E003981449F6
:1059B00000EB400001EB0010D0E708B1049800E0D4
:1059C0000E9800F03CF808F10100C0B2B0FBF7F10E
:1059D000804607FB118050B1761CF6B2082EC0D36A
:1059E0006D1CADB25D45A9D305B0BDE8F08F4FF099
:1059F0000008F5E7DEA60008AA8A00081E8F000846
:105A00000E9500082DE9FE4F9946DDE90D67144615
:105A10008A460546DDF830800CE0CDF800804B4624
:105A200051462846CDE90167FFF766FF05EB5600B2
:105A300085B2641C2278002AEFD1BDE8FE8F10B534
:105A40000446000A00F01AF8E0B2BDE8104000F089
:105A500015B8000070B5084C0546002240212046CC
:105A6000FDF799FB284600F009F82046BDE8704094
:105A700001224021FDF78FBB0004004831B54FF4EF
:105A800080744FF09045002221462846FDF783FBA5
:105A90004FF47A73012269460448FEF7FFFB0122A6
:105AA00021462846FDF777FB38BD0000AC010020F9
:105AB00000EB8100006E00F0F84070478068C0F392
:105AC000C00070478068C0F380007047C06810F461
:105AD000406F01D00020704701207047042303EA83
:105AE000D15310B518444369C1F3045107248C40C5
:105AF000A3438A401343436110BD00EB8100016E54
:105B000021F0004111430166704700002DE9F0418A
:105B10004FF000560446084D371409E02E60C820A7
:105B2000FDF7BEF82F60C820FDF7BAF8641EE4B296
:105B3000002CF3D1BDE8F0811808004810B580EDC5
:105B4000000A9FED040A044680ED020A02F06BFF92
:105B5000606010BD0000000010B504462DED028B02
:105B6000B0EE408A02F05FFF6168DFED190A411A6A
:105B700000EE101AB8EE400A20EE200AB5EEC00A78
:105B8000F1EE10FA02D29FED130A0CE010EE101A9B
:105B9000114A914207DD84ED028AB0EE480A606046
:105BA000BDEC028B10BD94ED001A31EE000AC1EE7F
:105BB000000A94ED020AB7EE001A20EE200A71EEF8
:105BC000600A00EE880A84ED020A6060E8E70000DF
:105BD000BD3786356F12833A9A99993E30B589B0B0
:105BE00020216846FAF74EFB2B482A490024016021
:105BF0004FF44031C0E90114C4600121082204615E
:105C0000C0E90512047741770425056280F8244035
:105C1000C462046380F83810C46380F84040FCF725
:105C2000FDFC08B1FCF7F4F91C4800900620019037
:105C3000032002907F200594CDE9030569461648AC
:105C4000FCF7DCFA08B1FCF7E3F9154800900C20EA
:105C5000019069461048FCF7D1FA08B1FCF7D8F971
:105C6000104800901220019069460B48FCF7C6FAD4
:105C700008B1FCF7CDF90C48009018200190694656
:105C80000548FCF7BBFA002801D0FCF7C1F909B0C0
:105C900030BD0000000100503000002000005247DD
:105CA000002090360800900C1000C0100D4808B578
:105CB000816C41F004018164816C01F00401009168
:105CC000816C41F001018164806C002200F00100D0
:105CD000009011460B20FDF7F7FCBDE808400B20B3
:105CE000FDF7E4BC00100240114810B50F490160F7
:105CF000002141608160C16001744174817410228F
:105D0000426101220223C0E90623C0E9083282620F
:105D1000C262C0E90C218163C163FCF7D3FF002894
:105D200003D0BDE81040FCF773B910BD006400401B
:105D3000FC0000202DE9F04786B014216846FAF7F0
:105D4000A1FA3148C16C41F00401C164C16C01F099
:105D500004010591C16C41F02001C164C16C01F0E6
:105D600020010591C16C41F00101C164C16C01F0D9
:105D700001010591C16C41F00201C164C06CDFF802
:105D80008C8000F002004FF4005405900022214660
:105D90004046FDF700FA4FF484764FF09049002218
:105DA00031464846FDF7F7F9DFF864A041F2502785
:105DB000002239465046FDF7EEF90125CDE90045B0
:105DC00000240294694640460394FDF7BBF84FF463
:105DD00040408DE8310069464046FDF7B3F8CDE913
:105DE00000650226CDE9024669464846FDF7AAF855
:105DF00000970396CDE9015469465046FDF7A2F895
:105E000006B0BDE8F087000000100240000800481E
:105E100000040048134810B511490160124941605F
:105E200000210122C0E90212016141618161C16169
:105E30000162FDF70FFA08B1FCF7EAF80021094802
:105E4000FDF7B4F908B1FCF7E3F800210548FDF7C8
:105E5000D8F9002803D0BDE81040FCF7D9B810BD30
:105E60000054004060010020FF63E000124810B5BC
:105E7000104901604FF48271416000214FF4E062EB
:105E8000C0E902120222C0E9042112028261182232
:105E9000C0E9072107224162C0E90A120163082113
:105EA0004163FEF73DF9002803D0BDE81040FCF740
:105EB000AFB810BD00300140AC010020124810B551
:105EC000104901604FF48271416000214FF440722B
:105ED000C0E902124FF400720161C0E905121822F4
:105EE000C0E9072107224162C0E90A1201630821C3
:105EF0004163FEF715F9002803D0BDE81040FCF718
:105F000087B810BD003800401002002010B588B0DE
:105F10000024184800940194029403940494059476
:105F200013490694016040F2DB51C0E9011440F2CC
:105F3000CF71C0E9031444618461FEF708FB08B126
:105F4000FCF766F84FF48050009069460948FEF768
:105F50009DFB08B1FCF75CF8049404A9054806947D
:105F6000FEF7A6FA002801D0FCF752F808B010BDE1
:105F7000004001400C03002030B58BB00024079492
:105F800008941C2168460994FAF77CF91C484FF0E4
:105F90008041602580E8320040F6B731C0E9031443
:105FA0008461FEF7ACFD08B1FCF732F8079407A94D
:105FB00013480994FEF77CFA08B1FCF729F8CDE9FB
:105FC00000540294002269460D480494FEF705FD32
:105FD00008B1FCF71DF8042269460948FEF7FDFCEC
:105FE00008B1FCF715F8082269460548FEF7F5FCEC
:105FF00008B1FCF70DF80248FEF7C8FC0BB030BD45
:106000007402002010B588B0002417480094019451
:106010000294039404940594124906940160952116
:10602000C0E9011440F28F11C0E903148461FEF746
:106030008EFA08B1FBF7ECFF4FF4805000906946F0
:106040000948FEF723FB08B1FBF7E2FF049404A91B
:1060500005480694FEF72CFA002801D0FBF7D8FF7C
:1060600008B010BD00040040C0020020184810B560
:10607000164901604FF4E1314160002181600C223A
:10608000C160C0E904128161C16101624162816243
:10609000FEF7FEFF08B1FBF7BBFF00210C48FEF73F
:1060A0005DFE08B1FBF7B4FF00210948FEF730FEA2
:1060B00008B1FBF7ADFF0648FEF709FE002803D044
:1060C000BDE81040FBF7A4BF10BD00000038014040
:1060D00058030020FEE7FEE710B504462DED028BC5
:1060E000B0EE408A02F09FFC216A411A00EE101ABD
:1060F000B8EE400ADFED3F0A60EE200AF5EEC00A76
:10610000F1EE10FA04D910EE901AB1F17C5F01DDC6
:10611000DFED390A94ED011A94ED000AF6EE001A4B
:1061200021EE201A94ED053A60EE082A94ED070A54
:1061300021EE211A73EE081A01EE210A94ED041AD9
:10614000F1EE411AF4EEC01AF1EE10FA02DDB0EEF3
:10615000610A06E0B4EEC01AF1EE10FA01D2B0EE18
:10616000410A38EE433AB0EE402A94ED020A72EE4C
:10617000822A20EE033A83EE200A32EE800AF4EE01
:10618000C01AF1EE10FA02DDB0EE610A06E0B4EEDC
:10619000C01AF1EE10FA01D2B0EE410AD4ED031AA2
:1061A000F5EEC01AF1EE10FA1ADD94ED061A30EE93
:1061B000413AC3EE202AF4EEE21AF1EE10FA04D2CC
:1061C000B0EE410A01EEA00A0AE0B1EE613AB4EE87
:1061D000E23AF1EE10FA03DDB0EE410A01EEE00A18
:1061E00084ED072A84ED060A84ED058A2062BDEC61
:1061F000028B10BDBD3786356F12833A10B5044649
:1062000080EC050A9FED050A80ED050A80ED060A7F
:1062100080ED070A02F007FC206210BD00000000BC
:106220007047000070B5134C114D4FF4804025604D
:10623000A0801148E060114820612046FBF7D3FBA5
:106240004FF40040656120830D4820620D48606274
:1062500004F11400FBF7C7FB0B490020C8708870DD
:1062600048700870BDE870400848FEF7D3B90000D8
:1062700000080048A00500202D1D0008211D000871
:10628000451D0008391D0008180000200C030020DF
:10629000F8B515460E460B460092044600224FF410
:1062A000C05100F019F888B93346002280212046F9
:1062B000009500F081F848B9334600224FF4C061E0
:1062C0002046009500F008F8002804D0206E40F029
:1062D000200020660320F8BD2DE9FE4F4FF0000A94
:1062E000984617460E4604460C9D8DF804A0FCF710
:1062F00057FF411BA8EB0105FCF752FF81462068C0
:106300004FF4C06B0C3002902A480068C0EBC0000C
:1063100000EB8000000D6843009043E05E4506D12D
:106320002FB9029800788DF804009DF80400B8F1A8
:10633000FF3F37D0FCF734FFA0EB0900A84203D29F
:1063400015B1009858B32BE02068416821F0E001B6
:1063500041606068B0F5827F0BD1A068B0F5004F56
:1063600002D0B0F5806F04D12068016821F04001AF
:106370000160A06AB0F5005F09D12068016821F4CE
:10638000005101602068016841F400510160012062
:1063900084F85D0084F85CA00320BDE8FE8F002532
:1063A000401E0090206880683040B842B6D100207E
:1063B000F3E700000C0000202DE9F8431E4691464B
:1063C00088460446089DFCF7EBFE401B351AFCF797
:1063D000E7FE074625480068C0F3CB30684338E045
:1063E000701C37D0FCF7DCFEC01BA84203D215B1ED
:1063F000009860B32CE02068416821F0E001416022
:106400006068B0F5827F0BD1A068B0F5004F02D074
:10641000B0F5806F04D12068016821F0400101606F
:10642000A06AB0F5005F09D12068016821F400512D
:1064300001602068016841F400510160012084F886
:106440005D00002084F85C000320BDE8F88300258F
:10645000401E00902068816838EA010004D00021C5
:106460004945BDD10020F0E70121F9E70C000020EB
:1064700070470000D0ED040A90ED000A9FED031A6A
:10648000F8EEE00A00EE810A70470000DB0FC94019
:1064900090ED000A7047000010B5FAF7DDFA00EE43
:1064A000100ADFED050AB8EE400A20EE200ADFED03
:1064B000030A20EE200A10BD00008039DB0FC9401E
:1064C00070B504464568C068281AF9F7FFFF9FEDCC
:1064D000141B53EC112BF9F787FFFAF73AF800EE8B
:1064E000900AF5EEC00AF1EE10FA01D8DFED0E0ABF
:1064F00094ED001A94ED020AD4E9040171EE401AF9
:10650000411A00EE101A9FED092A84ED021AB8EE26
:10651000C00AE560606140EE021A81EEA00A70BD1B
:106520008DEDB5A0F7C6B03E6F12833ADB0FC940C0
:1065300010B50446FAF7ACFA9FED150A002084ED79
:10654000000A606084ED020AE0602061606120461C
:10655000FFF7A2FF0120FCF7A3FB2046FFF79CFFFB
:1065600084ED020A02F05FFAE0600120FCF798FB7C
:106570002046FFF791FF0120FCF792FB2046FFF732
:106580008BFF84ED000A02F04EFA606010BD00003F
:10659000000000000020704710B504462DED028B6E
:1065A000FFF77AFFB0EE408A02F03DFA606094EDAA
:1065B000000A78EE400AF5EEC00AF1EE10FA02DDAC
:1065C000B0EE600A01E0B1EE600A10EE100A0A496E
:1065D00088420BDDF5EEC00A2169F1EE10FA02DD0A
:1065E0004FF0FF3000E001200844206184ED008A74
:1065F000BDEC028B10BD00007CD9A040FCF7FCBFB5
:1066000010B594B038216846F9F73CFE14210EA865
:10661000F9F738FE4FF40070FDF788F8012000907C
:106620000004019002200324CDE907041821CDE9DC
:1066300009010B900C900D906846FDF76BFB08B1BB
:1066400072B6FEE70F20CDE90E04002010901190E5
:10665000129004210EA8FDF713FA002801D072B69B
:10666000FEE714B010BD00000248016841F470015B
:106670000160704788ED00E00148FEF788B800002F
:106680000C0300200148FEF782B80000C002002081
:106690002DE9F0430268234B234D244E244C4FF048
:1066A0008049984207D0484505D0A84203D0B0425F
:1066B00001D0A04203D122F070074A683A431D4F2F
:1066C000DFF874C0DFF8748098420DD048450BD0D5
:1066D000A84209D0B04207D0A04205D0B84203D0AA
:1066E000604501D0404503D122F44075CA682A4371
:1066F0004D6922F080022A4302608A68C2620A68F9
:106700008262984207D0A04205D0B84203D06045CB
:1067100001D0404501D10969016301214161BDE812
:10672000F0830000002C01400004004000080040FD
:106730000034014000400140004401400048014055
:1067400010B501F01F030121046A99408C430462D3
:10675000016A9A401143016210BD10B5846842EA93
:10676000032224F47F440A432243826010BD0000C8
:106770008268034B1A400A4342F007018160704768
:106780008FFFCFFF2DE9F043026A22F0010202627F
:10679000056A436882691C4C25F0020522400C689A
:1067A00022F0030214438A68194E2A43174D194FE9
:1067B000DFF864C0DFF86490A84207D0B04205D08B
:1067C000B84203D0604501D0484506D122F0080800
:1067D000CA6842EA080222F00402A84207D0B04286
:1067E00005D0B84203D0604501D0484505D14D6978
:1067F00023F440731D438B692B43436084614968D4
:1068000041630262BDE8F0838FFFFEFF002C014070
:106810000034014000400140004401400048014074
:10682000F0B5026A22F010020262056A42688369CA
:10683000194C1B4E23400C6823F4407343EA042494
:1068400025F020038D6843EA0513144DA84201D0BA
:10685000B04206D1CF6823F0800343EA071323F048
:106860004003A8420AD0B04208D00E4DA84205D03D
:106870000D4DA84202D00D4DA84207D14D6922F41A
:10688000406242EA85028D6942EA85024260846183
:10689000496881630362F0BDFF8FFFFE002C014059
:1068A00000340140004001400044014000480140E4
:1068B000F0B5026A22F480720262056A4368C26916
:1068C000194C1B4E22400C6822F00302144325F49D
:1068D00000728D6842EA0522144DA84201D0B042F0
:1068E00006D1CF6822F4006242EA072222F48062D5
:1068F000A8420AD0B04208D00E4DA84205D00E4D95
:10690000A84202D00D4DA84207D14D6923F440534F
:1069100043EA05138D6943EA05134360C46149687E
:10692000C1630262F0BD00008FFFFEFF002C01403A
:106930000034014000400140004401400048014053
:10694000F0B5026A22F480520262056A4268C369A5
:10695000194C1B4E23400C6823F4407343EA042473
:1069600025F400538D6843EA0533144DA84201D045
:10697000B04206D1CF6823F4004343EA073323F43F
:106980008043A8420AD0B04208D00E4DA84205D09C
:106990000D4DA84202D00D4DA84207D14D6922F4F9
:1069A000404242EA85128D6942EA85124260C46122
:1069B000496801640362F0BDFF8FFFFE002C0140B7
:1069C00000340140004001400044014000480140C3
:1069D00030B5026A22F480320262046A4268036DB2
:1069E000114D2B400D681D4324F400330C8943EAFC
:1069F00004430E4CA0420BD00D4CA04208D00D4CCD
:106A0000A04205D00C4CA04202D00C4CA04204D1B4
:106A10004C6922F4803242EA0422426005654968EA
:106A20008164036230BD00008FFFFEFF002C014037
:106A30000034014000400140004401400048014052
:106A400030B5026A22F480120262046A4268036D61
:106A5000114D24F400142B400D6843EA05230D89E1
:106A600044EA05540D4DA8420BD00D4DA84208D064
:106A70000C4DA84205D00C4DA84202D00B4DA842A7
:106A800004D14D6922F4802242EA852242600365E6
:106A90004968C164046230BDFF8FFFFE002C0140D5
:106AA00000340140004001400044014000480140E2
:106AB00010B5036A046A24F001040462846924F0B6
:106AC000F00444EA021423F00A020A4384610262D9
:106AD00010BD10B5036A23F0100303628369046AD2
:106AE00023F4704343EA023224F0A00343EA011185
:106AF0008261016210BD000030B5416EB9B102681B
:106B000091689268C1F342610B4B520F9C5CE500A7
:106B100003F10804A25CB5FBF2F2A0F86A205A5C0B
:106B2000615CD200B2FBF1F1A0F8681030BD012128
:106B3000A0F86A10F8E70000828A000890F8281090
:106B4000C90706D001684A68C36A22F400321A43B2
:106B50004A6090F82810890706D501684A68036BD7
:106B600022F480321A434A6090F82810490706D56B
:106B700001684A68436B22F480221A434A6090F805
:106B80002810090706D501684A68836B22F4004281
:106B90001A434A6090F82810C90606D501688A6829
:106BA000C36B22F480521A438A6090F82810890639
:106BB00006D501688A68036C22F400521A438A6081
:106BC00090F82810490611D501684A68436C22F4F0
:106BD00080121A434A60416CB1F5801F06D10168EA
:106BE0004A68836C22F4C0021A434A6090F8281065
:106BF000090606D501684A68C06C22F400220243E7
:106C00004A607047F8B500260446C0F88C60FCF76F
:106C1000C7FA0546206800686FF07E47000708D570
:106C20002B4600224FF400112046009700F02CFC68
:106C300060B92068006840070AD52B4600224FF44F
:106C400080012046009700F01FFC08B10320F8BD2A
:106C50002020C4F88400C4F8880044F86C6F002039
:106C60002675F8BD10B5806A0021A0F85E10A0F866
:106C70005610FEF79BF810BD10B5026852E8001FD1
:106C800021F4907142E80013002BF6D10E4B0268FC
:106C9000083252E8001F194042E80014002CF6D1D7
:106CA000C16E012908D1016851E8002F22F01002BD
:106CB00041E80023002BF6D12021C0F888100021E4
:106CC000C166016710BD0000FEFFFFEF10B5B0F810
:106CD0006020D0F888300168222B04D0886940F009
:106CE0000800886110BD496A836D11401980816D6B
:106CF000891C8165B0F85E10491EA0F85E10B0F8DE
:106D00005E100029EED1026852E8001F21F4907154
:106D100042E80013002BF6D10168083151E8002F3A
:106D200022F0010241E80023002BF5D12021C0F818
:106D3000881000210167C26E012A02D0FEF74EFAC8
:106D400010BDC166026852E8001F21F0100142E840
:106D50000013002BF6D10168CA69D243D20601D4D0
:106D600010220A62B0F85C10FDF7D0FF10BD0000E1
:106D70002DE9F0470446B0F860600068C569D0F8B6
:106D800000A0D0F80880D4F88810222905D08169A5
:106D900041F008018161BDE8F087B4F868704FF0F8
:106DA000000963E02068406AA16D30400880A06D52
:106DB000801CA065B4F85E00401EA4F85E00206848
:106DC000C569690730D0E9070AD05FEACA5107D51B
:106DD00001210162D4F88C0040F00100C4F88C005D
:106DE000A8070BD55FEAC87008D0216802200862A6
:106DF000D4F88C0040F00400C4F88C0068070BD570
:106E00005FEAC87008D0216804200862D4F88C00BA
:106E100040F00200C4F88C00D4F88C0020B1204669
:106E2000FDF7C4FFC4F88C90B4F85E00F0B9216897
:106E300051E8000F20F4807041E80002002AF6D1EA
:106E4000264A2068083050E8001F114040E800132F
:106E5000002BF6D12020C4F88800C4F87090E16EB1
:106E60004846012923D02046FEF7B8F90FB1A806FD
:106E700098D4B4F85E0000288DD0B4F86810814230
:106E800089D92068083050E8001F21F0805140E87F
:106E90000012002AF5D112482067206850E8001F30
:106EA00041F0200140E80012002AF6D173E7E066C5
:106EB000216851E8000F20F0100041E80002002A8C
:106EC000F6D12068C169C943C90601D41021016205
:106ED000B4F85C102046FDF719FFC7E7FEFFFFEF8F
:106EE000CD6C000810B5B0F86020D0F8883001688B
:106EF000222B04D0886940F00800886110BD496ADF
:106F00001140826D1170816D491C8165B0F85E1071
:106F1000491EA0F85E10B0F85E100029EED102689C
:106F200052E8001F21F4907142E80013002BF6D1C3
:106F30000168083151E8002F22F0010241E80023E6
:106F4000002BF5D12021C0F8881000210167C26E06
:106F5000012A02D0FEF742F910BDC166026852E86C
:106F6000001F21F0100142E80013002BF6D1016848
:106F7000CA69D243D20601D410220A62B0F85C106A
:106F8000FDF7C4FE10BD00002DE9F0470446B0F83F
:106F900060600068C569D0F800A0D0F80880D4F817
:106FA0008810222905D0816941F008018161BDE87E
:106FB000F087B4F868704FF0000963E02068406A19
:106FC000A16D30400870A06D401CA065B4F85E0053
:106FD000401EA4F85E002068C569690730D0E90743
:106FE0000AD05FEACA5107D501210162D4F88C00AA
:106FF00040F00100C4F88C00A8070BD55FEAC87008
:1070000008D0216802200862D4F88C0040F0040007
:10701000C4F88C0068070BD55FEAC87008D02168F7
:1070200004200862D4F88C0040F00200C4F88C0000
:10703000D4F88C0020B12046FDF7B8FEC4F88C903F
:10704000B4F85E00F0B9216851E8000F20F48070B8
:1070500041E80002002AF6D1264A2068083050E8AC
:10706000001F114040E80013002BF6D12020C4F887
:107070008800C4F87090E16E4846012923D020466C
:10708000FEF7ACF80FB1A80698D4B4F85E0000285B
:107090008DD0B4F86810814289D92068083050E852
:1070A000001F21F0805140E80012002AF5D112485B
:1070B0002067216851E8000F40F0200041E80002FD
:1070C000002AF6D173E7E066216851E8000F20F04E
:1070D000100041E80002002AF6D12068C169C943C6
:1070E000C90601D410210162B4F85C102046FDF7F6
:1070F0000DFEC7E7FEFFFFEFE56E00082DE9F0414A
:107100000446016880682269E369104362690025CA
:107110001A431043DFF82CC20A688B4B1A40024313
:107120000A6020684168E26821F4405111434160DF
:107130002168A069614501D0226A10438A68834BA7
:107140001A4002438A602068C16A626A21F00F0116
:107150001143C1627E4923687E488B420DD1D0F82D
:10716000880010F0030006D0012855D0022842D034
:1071700003283FD152E001203DE077498B420BD1FB
:10718000D0F8880010F00C0035D0042833D008283F
:1071900040D00C282ED141E070498B420BD1D0F861
:1071A000880010F0300026D0102835D0202831D0AB
:1071B00030281FD132E06A498B420BD1D0F88800C9
:1071C00010F0C00017D0402826D0802822D0C02838
:1071D00010D123E063450DD1D0F8880010F4406051
:1071E00009D0B0F5806F17D0B0F5006F12D0B0F5B0
:1071F000406F13D010205B495B4F00264FF40042D4
:1072000063453BD160B1022813D004280BD0082875
:1072100072D10DE00220EEE70420ECE70820EAE757
:10722000FCF71CFD01E0FCF73DFD010001D17CE015
:107230001146606A37F810206768B1FBF2F007EB7F
:107240004703834270D8B0EB073F6DD80023084650
:107250001946F8F7DFFF090241EA106102027808D7
:10726000101871413A460023F8F7D4FF3F4AA0F5C1
:107270004071914258D82168C86056E0E3694FF6E2
:10728000EF7893422CD109284ED2DFE800F00508B0
:10729000114D0D4D4D4D1000FCF7E0FC01E0FCF7E9
:1072A000EFFC010004D140E0FCF7FCFCF9E71146DB
:1072B000606A37F81000B1FBF0F04100606801EB44
:1072C0005001B1FBF0F0A0F1100141452CD84FF670
:1072D000F0710140C0F3420001432068C16024E026
:1072E000092821D2DFE800F0050912200E20202015
:1072F0001100FCF7B3FC02E016E0FCF7C1FC010052
:1073000004D112E0FCF7CEFCF9E71146606A37F8C9
:107310001000B1FBF0F1606801EB5001B1FBF0F03F
:10732000A0F1100141450AD901250120A4F86A0005
:1073300024F8680F2846A660E660BDE8F08180B2B8
:1073400099E7000000800040F369FFCFFFF4FF11D0
:107350000038014000100240004400400048004056
:10736000004C00400024F4006A8A0008FFFC0F0073
:1073700070B58165A0F85C20A0F85E20002101674F
:1073800083684FF48055FF24AB4204D10369FBB9F5
:1073900040F2FF1322E07F26C3B1B3F1805F1AD021
:1073A000A0F86010C0F88C102223C0F88830036861
:1073B000083353E8004F44F0010443E80046002E30
:1073C000F5D1436EB3F1005F0ED032E0036943B9EB
:1073D000A0F86040E6E703691BB13F23A0F86030E6
:1073E000E0E7A0F86060DDE7B0F86830934220D8AD
:1073F0008268AA4201D10269CAB11F4A026780F8B5
:107400008010016941B1026852E8001F41F48071A7
:1074100042E80013002BF6D10168083151E8002F33
:1074200042F0805241E80023002BF5D121E0134ABD
:10743000E4E78268AA4201D102697AB1104A026780
:1074400080F88010016959B1026852E8001F41F4C8
:10745000907142E80013002BF6D10AE0094AEEE7EA
:10746000026852E8001F41F0200142E80013002B9F
:10747000F6D1002070BD0000896F0008716D000812
:10748000E56E0008CD6C00082DE9F0479A461746D6
:107490000E4604464FF000094FF02008089D4AE0D0
:1074A000681C48D0FBF77CFEA0EB0A00A8422AD853
:1074B0004DB32068016849073DD5C069C043000548
:1074C00039D421684FF400600862206850E8001F3A
:1074D00021F4D07140E80012002AF6D1206808306B
:1074E00050E8001F21F0010140E80012002AF5D108
:1074F00044F8848FC4F80480C4F8088004F8049C1D
:107500000320BDE8F087216851E8000F20F4D07017
:1075100041E80002002AF6D12068083050E8001F38
:1075200021F0010140E80012002AF5D144F8848FCF
:10753000C4F80480E2E72068C06936EA000004D09D
:107540000020B842ACD00020DBE70120F9E70000C2
:107550000148FDF72DBC000058030020012202491C
:107560000248FDF711BE00001C0000205803002057
:1075700070B5074841880A0409D50025C1F30D04F8
:107580004580044904A000F00DF80248055570BD7F
:107590001C000020C805002025730D0A0000000013
:1075A000FEE700000FB4054B10B503A9044A02988A
:1075B00000F076FD10BC5DF814FB0000D1890008D6
:1075C0002800002003B401984100009850EAC1202F
:1075D00018BF04204A0D18BF40F0010040F2FF72AE
:1075E000B2EB515F08BF40F00200012808BF052040
:1075F00002B070470907090E002804DB00F1E02003
:1076000080F80014704700F00F0000F1E02080F8CF
:10761000141D70470000000070B59B482DED020B53
:107620002DED068B079D25F00044A04218DC9748FD
:10763000844202DC0AD1069840B19DED060BBDECF8
:10764000068B02B0BDE8704000F0DCBB002DCCBF63
:107650009FED8F0B9FED900BBDEC068B02B070BDC4
:107660008F48A04215DD8F48A042D8BF4FF0FF34AD
:1076700058DD9DED060B51EC100BFFF7A3FF04281E
:1076800008BF00F0E5FB9DED060BBDEC068B02B0DC
:1076900070BD9DED060B51EC100B01F08DF9CDE99D
:1076A000060181489FED828BA0423CDD8248A042CA
:1076B0001FDD00249FED82AB9DED060B53EC1A2BD2
:1076C00051EC100BF8F7E9FD9DED060B41EC190BA1
:1076D00053EC1A2B51EC100BF8F786FE53EC182BD9
:1076E000F8F77CFE53EC192BF9F72AF8CDE90601DF
:1076F00049E09DED060B012453EC182B51EC100BC7
:10770000F8F7CBFD9DED060B41EC190B53EC182B54
:1077100051EC100BF8F762FE53EC192BF9F710F847
:10772000CDE906012FE06848A0421FDD02249FED4D
:10773000689B9DED060B53EC192B51EC100BF8F7E1
:1077400053FE53EC182BF8F7A8FD9DED060B41EC0A
:10775000180B53EC192B51EC100BF8F73FFE53ECC0
:10776000182BF8F7EDFFCDE906010CE09DED060BB7
:10777000032453EC102B9FED580B51EC100BF8F732
:10778000DFFFCDE906019DED060B53EC102B51EC0C
:10779000100BF8F729FE41EC180B53EC182BF8F7F7
:1077A00023FE41EC190B4E480621B0EE490AF0EEDB
:1077B000690A784400F0AAFA53EC182B51EC100B2C
:1077C000F8F712FE41EC180B4648B0EE490AF0EE0D
:1077D000690A0521784400F099FA53EC192B51EC11
:1077E000100BF8F701FE41EC100B51EC180B53ECA9
:1077F000102B002C0EDAF8F750FD9DED061B53EC14
:10780000112BF8F7F1FD9DED061B53EC112BF8F74A
:10781000E8FD35E0F8F741FD9DED061B53EC112B1B
:10782000F8F7E2FD41EC100B2F48784400EBC40060
:1078300090ED001B51EC100B53EC112BF8F7CEFD23
:107840009DED061B53EC112BF8F7C8FD41EC100B16
:107850002648784400EBC40090ED001B51EC100B5F
:1078600053EC112BF8F7BDFD41EC100B002DA2BF1E
:10787000BDEC068B02B070BD51EC100B81F00041E5
:1078800041EC100B01E70000000010440000F07F05
:10789000182D4454FB21F93F182D4454FB21F9BF06
:1078A0000000DC3F0000203E0000F33F000000002D
:1078B000000000000000F03F0000E63F0000000074
:1078C00000000000000000400080034000000000B5
:1078D000000000000000F83F000000000000F0BFC2
:1078E0009A4F0000504F0000DA4E0000924E000008
:1078F00070B56F4E2DED040B2DED048B82B0DDF8CD
:1079000024C0DDE907235C422CF000411C4341EA1E
:10791000D474069D22F00040B44205D86C422C433A
:1079200040EAD474B4420BD99DED081B9DED060BC3
:1079300002B0BDEC048B04B0BDE8704000F06CBA3E
:10794000ACF14054A4F17F641C430BD0022404EA40
:10795000AC7444EAD27405439FED578B9FED582BCE
:1079600007D015E09DED060B51EC100B00F0B0FFB9
:1079700042E0002C11BF012C9DED060B02B0BDECC6
:10798000048B04BF04B070BD022C38D0032C3BD054
:107990000B439FED4D1B9FED4E0B0AD0B14218D10A
:1079A000B04209D121F0804120F080400991079038
:1079B0000FE0002A15DA10E0474B7B44002C08BF8B
:1079C00093ED000B0DD0012C10D0022C17D0032CFE
:1079D0001AD0B0421DD1002A03DAB0EE410AF0EE0F
:1079E000610A02B0BDEC048B04B070BD93ED000BD6
:1079F00051EC100B81F0004141EC100BF1E7B0EEBF
:107A0000480AF0EE680AECE7B0EE420AF0EE620ACD
:107A1000E7E7401A00159FED329B3C28C8BF8DED6B
:107A2000000B17DCBCF1000FBCBF10F13C0F8DED5B
:107A3000009B0FDB9DED080B53EC102B9DED060B0F
:107A400051EC100BF8F77CFE00F0B6FF00F040FFA1
:107A5000CDE90001B4B1012C10D0022C9FED220B16
:107A600053EC102B9DED000B51EC100B19D0F8F7D7
:107A7000B5FC53EC182BF8F7B1FCBDE7019880F08A
:107A8000004001909DED000B53EC192B51EC100BB5
:107A9000F8F720FF04BF022000F0FAF99DED000B7B
:107AA0009FE7F8F79BFC53EC182BF8F79AFCA3E739
:107AB0000000F07F00000000182D4454FB21094015
:107AC000182D4454FB2109C0182D4454FB21F9BF43
:107AD000182D4454FB21F93FC24D00000000000066
:107AE0000000000000000000075C143326A6A13C43
:107AF0002DE9F0412DED020B9FED3D0B2DED028B9D
:107B00009FED3D8BDDE90254C4F30A50A0F2FF362D
:107B1000142E37DA002E18DA53EC102B9DED020BE1
:107B200051EC100BF8F7B9FB53EC182BF8F7EAFE01
:107B300057D2002CA4BF0024254652DA24F000407E
:107B4000284318BF2E4C4CD01AE02E4820FA06F7D6
:107B500004EA070028431FD053EC102B9DED020BC5
:107B600051EC100BF8F799FB53EC182BF8F7CAFE01
:107B700037D2002C03DA4FF48010F0400444BC43A9
:107B800000252EE0332E07DCA6F114004FF0FF3164
:107B900021FA00F73D4206D19DED020BBDEC028BB0
:107BA00002B0BDE8F08153EC102B9DED020B51ECBF
:107BB000100BF8F716FC53EC182BF8F7A3FE10D2B5
:107BC000002C0DDA142E08BF641C09D0C6F1340055
:107BD000012101FA00F02844A84238BF641C054680
:107BE000BD43CDE902549DED020BD7E70000000034
:107BF0009C7500883CE4377E000000000000000017
:107C00000000F0BFFFFF0F0010B52DED040B86B094
:107C10009DED060B10EE100A10EE901A8DED000B84
:107C2000002818BF0120084320F00040C0F17F6009
:107C300000F1E040C00F21D19DED080B10EE101AAD
:107C400010EE900A8DED000B002918BF01210843AA
:107C500020F00040C0F17F6000F1E040C00F0DD186
:107C600029490798B1EB400F04BF0698002842D07D
:107C70000998400004BF089800283CD09DED080BEF
:107C800053EC102B9DED060B51EC100BF8F7C7FDD4
:107C9000CDE902019DED020B40F2FF7110EE900A5A
:107CA0008DED000B31EA105021D00798039900F0B8
:107CB000004001F00041884219D09DED080B8DED88
:107CC000040B9DED020B8DED000B10EE900A059953
:107CD00061F31E0005909DED041B9DED020B51EC20
:107CE000110B53EC102BF8F77CFBCDE902019DED55
:107CF000020B0AB010BD012000F0CAF80AB0BDE8BE
:107D0000104000F095B800000000E0FF70B5044698
:107D10002DED028B4D1E00EBC500B0EE408AF0EE5B
:107D2000608A90ED000B35F0060017D053EC182B4D
:107D300051EC100BF8F758FB41EC100B6D1E04EBE7
:107D4000C50090ED001B51EC100B53EC112BF8F714
:107D5000A4FA41EC100B35F00600E7D1022D36D025
:107D6000042D1CD0062D1CBFBDEC028B70BD53EC46
:107D7000182B51EC100BF8F737FB94ED0A1B53EC62
:107D8000112BF8F78AFA53EC182BF8F72DFB94ED2A
:107D9000081B53EC112BF8F780FA41EC100B53EC55
:107DA000182B51EC100BF8F71FFB94ED061B53EC4E
:107DB000112BF8F772FA53EC182BF8F715FB94ED2A
:107DC000040B53EC102BF8F768FA41EC100B53EC52
:107DD000182B51EC100BF8F707FB94ED021B53EC3A
:107DE000112BF8F75AFA53EC182BF8F7FDFA94ED2B
:107DF000001B53EC112BF8F750FABDEC028B41EC51
:107E0000100B70BD10B553EC102B51EC100BF8F7A4
:107E100044FA41EC100B10BD10B553EC112B51EC92
:107E2000100BF8F73AFA41EC100B10BD00000000FF
:107E30009FED050B10B553EC102B51EC100BF8F720
:107E40007FFC41EC100B10BD0000000000000000A2
:107E50009FED050B10B553EC102B51EC100BF8F700
:107E6000C3FA41EC100B10BD000000000000001030
:107E700002E008C8121F08C1002AFAD170477047F3
:107E8000002001E001C1121F002AFBD17047000051
:107E900001490860704700002C000020DFED070A50
:107EA000074930EE200A10EE100A884203DDDFEDAC
:107EB000050A30EE600A00F077BC0000DB0FC93F16
:107EC000DB0FC940DB0FC94000EE900AF8EEE00A74
:107ED00020EE200A704700002DE9FF5F82B00021EC
:107EE000DDE90430020DDDF840B0034318D044F65C
:107EF0001050A2F2FF3242431514119801281FD0EE
:107F0000A5EB0B00401C5FEA000A4FF000064E4F45
:107F1000DFF83891B046504615D5CAF1000413E099
:107F2000119801244AA3012801D16FEA0B0102989C
:107F3000119AC0E90031C0E9024206B0BDE8F09FE5
:107F4000CBF10000DFE704460021404A491842EB2C
:107F50000450CDE9001012E0E00707D032463B465E
:107F600040464946F8F740FA8046894632463B4645
:107F700010461946F8F738FA06460F466410002CEA
:107F8000EAD1DDE90401DDE90023BAF1000F06DAE8
:107F9000F8F72AFA42464B46F8F726FA05E0F8F7D2
:107FA000CFFB42464B46F8F7CBFB04460E46002279
:107FB000284BF8F7A7FC03D84FF0FF30014607E045
:107FC0000022254B20463146F8F767F9F8F76AFC9E
:107FD000102409E0002C0ADB0A220023F8F71AF922
:107FE000039B30321A55641E50EA0102F2D1641C20
:107FF000039AC4F111031444119A012A03D00122F7
:1080000008430DD10AE0084304D000204FF0110BC3
:10801000119072E7A3EB0B056D1E0DE05B4504DDCF
:108020004FF0000205F1010504E003DA4FF0000211
:10803000A5F10105002AECD002981199C0E902319E
:10804000C0E9004579E70000000014400000F03F5F
:10805000300000000000F0430000E03F10B510EEDB
:10806000100AF8F763FA41EC100B9FED0A1BFFF7BB
:10807000CBFD51EC100BF8F76CFA00EE100AB5EEE0
:10808000C00AF1EE10FA03DADFED040A30EE200A3E
:1080900010BD000000000060FB211940DB0FC9404B
:1080A0002DE9FF4F95B09A46884606460025EEE139
:1080B000252877D100242746F94A0121039400E0BE
:1080C000044316F8013F203B01FA03F01042F7D1B8
:1080D00030782A2811D06FF02F033078A0F13002C9
:1080E000092A16D8039A44F0020402EB820203EB39
:1080F00042021044761C0390EFE758F8042B0392D9
:10810000002A03DA504244F40054039044F002047D
:10811000761C30782E2816D116F8010F44F004048E
:108120002A280DD06FF02F023078A0F13003092BF0
:1081300009D807EB870302EB4303C718761CF3E764
:1081400058F8047B761C30786C280FD006DC4C285D
:1081500017D068280DD06A2814D104E0742810D0F4
:108160007A280FD10DE044F400140AE044F480149E
:1081700001E044F440147278824202D104F5801484
:10818000761C761C307866280BD013DC582877D004
:1081900009DC002875D04528F6D04628F4D04728B9
:1081A0001AD193E118E0632835D0642879D0652886
:1081B00012D18BE1702873D008DC6728F1D06928D0
:1081C0006FD06E280DD06F2806D1ACE073282CD06C
:1081D000752874D0782853D05246179990476D1C53
:1081E00054E1C4F30250022809D003280DD0D8F876
:1081F000001004280DD00D6008F1040846E1D8F8FD
:108200000010EA17C1E90052F6E7D8F800100D8017
:10821000F2E70D70F0E718F8041B8DF8001000204D
:108220008DF80100EB46012003E058F804BB4FF045
:10823000FF3061074FF0000102D40DE009F10101A8
:108240008946B9420FDA8145F8DB1BF8091000298D
:10825000F4D108E009F1010189468142FADB1BF8FB
:1082600009100029F6D103985346A0EB09072146CF
:108270003846179A00F080FA284400EB090507E019
:1082800044E008E10DE01BF8010B524617999047B6
:10829000B9F10109F7D2534621463846179AF2E060
:1082A00039E00A21C4F302524FF0000B0091022A78
:1082B00006D058F8040BC117032A09D00AE023E0BE
:1082C00008F1070020F00702F2E80201904605E0FD
:1082D00000B2C117042A01D140B2C117002906DA41
:1082E0000A460021404261EB02012D2202E02205F4
:1082F00004D52B228DF80420012203E0E20701D0EF
:108300002022F7E7914657E00A2100E010214FF0C4
:10831000000B00910BE010214FF0000B44F004041F
:108320000827009103E008204FF0000B0090C4F3F1
:108330000252022A05D058F8040B0021032A08D063
:1083400008E008F1070020F00702F2E80201904679
:1083500003E080B2042A00D1C0B24FF00009220726
:108360002AD53278702A07D0DDF800C08CF0100CC6
:108370005CEA0B0C05D00EE040228DF804200122AF
:1083800008E050EA010306D030238DF804308DF860
:10839000052002229146009B83F0080353EA0B0359
:1083A0000AD150EA010201D1620705D530228DF8C9
:1083B00004204FF001097F1E3278582A04D039A2D8
:1083C0000C920CAA02920BE03BA2F9E75B46009AE2
:1083D000F7F720FF0C9B9B5C029A521E02921370CF
:1083E00050EA0102F2D1029804A9081A00F1200B08
:1083F000600702D524F4803400E001275F4502DDE8
:10840000A7EB0B0000E0002000EB0B0100900398AD
:108410004944401A0390E00306D453462146179A74
:10842000039800F0A9F90544002706E001A8524688
:10843000C05D179990476D1C7F1C4F45F6DBE0032C
:108440000CD553462146179A039800F095F9054438
:1084500004E030205246179990476D1C0099481E41
:1084600000900029F5DC08E0029802995246007855
:10847000491C0291179990476D1CBBF10001ABF1AB
:10848000010BF1DC5BE100F065F90544761C307806
:1084900000287FF40DAE19B02846BDE8F08F00002B
:1084A00009280100303132333435363738396162CA
:1084B000636465660000000030313233343536378E
:1084C000383941424344454600000000600700D46B
:1084D000062708F1070020F00700F0E80223804695
:1084E00003F0004C5FEA0C0001D097A009E02005E2
:1084F00001D596A005E0E00701D095A001E0AFF21C
:108500004C001390307823F0004365280CD006DC33
:10851000452809D046281DD047287FD13BE0662852
:1085200018D067287AD136E00021112F01DB112005
:1085300000E0781CCDE9000104A90CA8FFF7CCFCF1
:10854000DDE90D010C9A4FF0000B07F101091092C3
:1085500000914EE04FF000400097CDE9011004A9D2
:108560000CA8FFF7B9FCDDE90D020C9B0F994FF049
:10857000000B91461093009211B9791C00EB010990
:10858000B7EB090003D4C0F1FF3B07F10109A9EBE8
:108590000700019042E0012F00DA01270021112F8E
:1085A00001DD112000E03846CDE9000104A90CA846
:1085B000FFF792FCDDE90D010C9A00914FF0000BE2
:1085C000B946109221070FD4009A4A4503DA914622
:1085D00001E0A9F10109B9F1010F05DD109AA9F136
:1085E0000101515C3029F4D0B84202DA10F1040FD5
:1085F00003DA0121CDE9011010E0002803DC8344F7
:10860000A9EB000102E0411C494500DD8946A0EBD1
:108610000B00401C01904FF000400290200705D451
:108620000198484502DB4FF0FF30019000208DF8A3
:108630004B0002980DF14B07B0F1004F25D00220FE
:108640000C902B200D90029800280CDA40420290EA
:108650002D200D9007E00A210298F7F796FF3031A0
:10866000029007F8011D0C99481E0C900029F2DCBD
:1086700002980028EFD1791E0D980870307800F02C
:10868000200040F0450007F8020D11A8C01BC01DD6
:1086900002901398007800B1012000EB09010198C5
:1086A00001EBE071029801440398401A401E0390C8
:1086B000E00306D453462146179A039800F05CF86D
:1086C00005441398007818B15246179990476D1CCD
:1086D000E00323D553462146179A039800F04CF83F
:1086E00005441BE0BBF1000F07DB0098584504DD93
:1086F0001098179910F80B0001E017993020524696
:10870000904701980BF1010B401E05F10105019006
:1087100004D12E205246179990476D1CB9F10001E3
:10872000A9F10109DEDC05E017F8010B52461799A3
:1087300090476D1C0299481E02900029F4DC5346B4
:108740002146179A03989EE62D0000002B0000009A
:10875000200000002DE9F041044600251E46174682
:10876000880404D405E039462020B0476D1C641EFF
:10877000F9D52846BDE8F0812DE9F04104460025F1
:108780001E469046C80301D5302700E02027880404
:1087900004D505E041463846B0476D1C641EF9D546
:1087A0002846BDE8F0810000F6EE000ADFED341A3D
:1087B000B0EE601A10EE100A00EE211A50EE210AF7
:1087C0002E4A60EE211A9FED2F2A2F49BDEEC11AC5
:1087D000FDEEE00A904212DAF5EEC01AF1EE10FA60
:1087E00002DB11EE100A01E010EE900A51F82000B1
:1087F00000EE100AB8EEC00A20EE020A704710EE32
:10880000100A224A90420CDAF5EEC01AF1EE10FA84
:1088100002DB11EE100A01E010EE900AC0F5C770FD
:10882000E4E710EE100A1A4A9FED1A0A904210DA95
:10883000F5EEC01AF1EE10FA02DB11EE100A01E0BB
:1088400010EE900A01EB8000A0F58050D0F8C80926
:108850000DE0F5EEC01AF1EE10FA02DB11EE100A8F
:1088600001E010EE900AC0F5477051F8200000EECC
:10887000900AF8EEE00A20EE800A7047DB0FC93F4D
:10888000E65FFD4217B7D138C8C30008DB0F494087
:10889000E4CB964017B7D1B810EE100A0349A1EB0C
:1088A000600000EE900A20EE200A7047865A375F7B
:1088B00010B5042204490548FAF706F8BDE810404F
:1088C000C820FAF7EDB90000900600203000002023
:1088D00010B541EC100BFEF79FFE51EC100B10BDD4
:1088E0002DE9F0419FED2F0A2F4E04462DED028B0E
:1088F0004FF47A7780ED0A0A80ED0B0A9FED2B8A00
:10890000DFED2B8A80ED0C0A002500BF606894ED36
:108910000A0A56F8200000EE900AF8EE600A60EEAF
:10892000880A00EEA80A84ED0A0AA06894ED0B0AF2
:1089300056F8200000EE900AF8EE600A60EE880A11
:1089400000EEA80A84ED0B0AE06894ED0C0A56F8D4
:10895000200000EE900A0120F8EE600A60EE880A1E
:1089600000EEA80A84ED0C0AFAF79AF96D1CBD42D4
:10897000CCDBD4ED0A0A9FED0F0A80EE801A84ED5D
:108980000A1AD4ED0B0A80EE801A84ED0B1AD4ED8E
:108990000C0A80EE801A84ED0C1ABDEC028BBDE847
:1089A000F0810000000000009006002033335340A7
:1089B0000000803900007A4482B0CDE9000121F046
:1089C000004001909DED000B02B051EC100B704780
:1089D00013B54FF6FF73012269460248FCF732FCDB
:1089E00000981CBD58030020FAF70EFEFDF708FEA4
:1089F000FDF7A0F9FDF75AF9FDF7F0F8FDF774F966
:108A0000FDF708FAFDF75AFAFDF730FBFDF7B4FA67
:108A1000FDF72CFAFDF77AFAFDF7F4FAF9F798F971
:108A2000F9F76AFAFCE738B54FF0E0242069FAF765
:108A3000B7FB6569A1696D1C691A00912169C1F3D1
:108A4000004181B1FAF7ACFBA169691A00914FF4BA
:108A50007A725143B1FBF5F100EB4002C2EBC0105A
:108A600001EBC00038BD0099F1E7010002000400ED
:108A7000060008000A000C001000200040008000E2
:108A800000010101010307010000080402040801BC
:108A900001010000000000000000010203040607BD
:108AA00008090000000001020304000000000000AB
:108AB000000000000000000004040404040000049E
:108AC000000014140A000000000000000000000074
:108AD0000A0A1F0A0A1F0A0A000000040E150506EA
:108AE0000C14150E0400000012150D152E2C2A1260
:108AF00000000000040A0A361515291600000202BB
:108B00000100000000000000000010080804040438
:108B100004040808100002040408080808080404F3
:108B2000020000000004150E0E15040000000000F5
:108B30000008083E080800000000000000000000D7
:108B400000000202010000000000003F00000000E1
:108B500000000000000000000000000200000020F3
:108B60001010080804040202010000000E11111187
:108B70001111110E00000000040604040404040E88
:108B8000000000000E1111080402011F0000000087
:108B90000E11100C1010110E00000000080C0C0A31
:108BA000091F081C000000001F01010F1110110E09
:108BB000000000000C12010D1311110E0000000046
:108BC0001E10080804040404000000000E11110E19
:108BD0001111110E000000000E11111916100906D6
:108BE000000000000000040000000004000000007D
:108BF000000000040000000404000000100804024B
:108C0000020408100000000000003F003F000000C8
:108C10000000000002040810100804020000000018
:108C20000E11110804040004000000001C22292D6C
:108C30002D1D221C0000000004040C0A0A1E123321
:108C4000000000000F12120E1212120F000000009E
:108C50001E1101010101110E000000000F1212127D
:108C60001212120F000000001F120A0E0A02121F39
:108C7000000000001F120A0E0A0202070000000096
:108C80001C1201013911120C000000003312121ED7
:108C900012121233000000001F0404040404041F15
:108CA000000000003E08080808080808090700003E
:108CB00037120A060A1212370000000007020202E9
:108CC0000202223F000000003B1B1B1B151515353F
:108CD000000000003B1216161A1A121700000000BE
:108CE0000E1111111111110E000000000F12120EC1
:108CF00002020207000000000E1111111117190ED7
:108D0000180000000F12120E0A12123700000000A5
:108D10001E1101060810110F000000001F150404A9
:108D20000404040E00000000331212121212120C7E
:108D3000000000003312120A0A0C040400000000B4
:108D4000151515150E0A0A0A000000001B0A0A0470
:108D5000040A0A1B000000001B0A0A0A0404040E8D
:108D6000000000001F0908040402121F00001C0478
:108D700004040404040404041C00000202040404A7
:108D80000808081010000E08080808080808080855
:108D90000E00040A000000000000000000000000B7
:108DA0000000000000000000003F0204000000007E
:108DB00000000000000000000000000C121C123C2B
:108DC000000000030202020E1212120E0000000048
:108DD0000000001C1202120C000000181010101CE1
:108DE0001212123C000000000000000C121E021CB7
:108DF000000000182404041E0404041E00000000E7
:108E00000000003C120C021C221C00030202020E95
:108E10001212123700000004040000060404040EBD
:108E2000000000080800000C0808080808070003F4
:108E30000202021A0A060A130000000704040404CE
:108E40000404041F000000000000000F1515151594
:108E5000000000000000000F121212370000000096
:108E60000000000C1212120C000000000000000FA5
:108E70001212120E020700000000001C1212121C37
:108E8000103800000000001B06020207000000006E
:108E90000000001E020C101E000000000004041E52
:108EA0000404041C000000000000001B1212123C0D
:108EB000000000000000001B0A0A0404000000007B
:108EC00000000015150E0A0A000000000000001B3B
:108ED0000A040A1B000000000000003312120C08F4
:108EE000040300000000001E0804041E000018080F
:108EF0000808080C080808081800080808080808E6
:108F00000808080808080604040404080404040403
:108F1000060016090000000000000000000000002C
:108F20000000000000000000000000000000000041
:108F30000008080808080808000018180000004881
:108F40006C2412000000000000000000000000007F
:108F5000002424247F1212127F121212000000003B
:108F6000081C2A2A0A0C1828282A2A1C080800008B
:108F70000022251515152A585454542200000000CB
:108F8000000C1212120A76252911916E00000006BB
:108F90000604030000000000000000000000004084
:108FA00020101008080808080810102040000002CF
:108FB0000408081010101010100808040200000027
:108FC000000008086B1C1C6B080800000000000073
:108FD0000000080808087F080808080000000000D2
:108FE000000000000000000000000606040300006E
:108FF000000000000000FE00000000000000000073
:109000000000000000000000000006060000000054
:1090100080404020201010080804040202000000D4
:1090200000182442424242424242241800000000FA
:1090300000080E08080808080808083E000000009C
:10904000003C4242422020100804427E0000000002
:10905000003C4242201820404042221C00000000F8
:1090600000203028242422227E20207800000000C6
:10907000007E0202021A26404042221C000000002C
:1090800000382402021A264242422418000000003E
:10909000007E2222101008080808080800000000BE
:1090A000003C4242422418244242423C000000005C
:1090B00000182442424264584040241C0000000032
:1090C0000000000018180000000018180000000040
:1090D0000000000000080000000000080804000074
:1090E0000040201008040204081020400000000086
:1090F000000000007F0000007F0000000000000072
:1091000000020408102040201008040200000000A3
:10911000003C424246402010100018180000000099
:10912000001C225A555555552D42221C00000000A6
:10913000000808181414243C224242E700000000F2
:10914000001F2222221E22424242221F0000000053
:10915000007C4242010101010142221C000000008A
:10916000001F2242424242424242221F00000000AF
:10917000003F4212121E12120242423F0000000043
:10918000003F4212121E12120202020700000000EB
:10919000003C2222010101712122221C000000005A
:1091A00000E7424242427E42424242E70000000063
:1091B000003E0808080808080808083E00000000EB
:1091C000007C10101010101010101010110F000063
:1091D000007722120A0E0A121222227700000000E3
:1091E00000070202020202020202427F00000000A7
:1091F0000077363636362A2A2A2A2A6B00000000E3
:1092000000E346464A4A525252626247000000005A
:10921000001C2241414141414141221C000000000B
:10922000003F424242423E020202020700000000AA
:10923000001C2241414141414D53321C600000005D
:10924000003F4242423E1212222242C7000000006A
:10925000007C4242020418204042423E00000000CE
:10926000007F4908080808080808081C00000000DA
:1092700000E74242424242424242423C0000000079
:1092800000E74242222424141418080800000000B9
:10929000006B4949494955553622222200000000F9
:1092A00000E7422424181818242442E70000000094
:1092B00000772222141408080808081C0000000087
:1092C000007E2120101008040442423F0000007874
:1092D00008080808080808080808080878000000B6
:1092E0000202040408080810102020204040001E3C
:1092F0001010101010101010101010101E00003858
:109300004400000000000000000000000000000019
:1093100000000000000000000000000000FF000648
:109320000800000000000000000000000000000035
:1093300000000000003C4278444242FC0000000073
:1093400000030202021A26424242261A00000000CE
:10935000000000000038440202024438000000000F
:109360000060404040784442424264D8000000001F
:1093700000000000003C427E0202423C000000006F
:1093800000F08808087E08080808083E0000000071
:1093900000000000007C22221C023C42423C0000F3
:1093A00000030202023A4642424242E70000000045
:1093B000000C0C00000E08080808083E0000000021
:1093C000003030000038202020202020221E000005
:1093D000000302020272120A161222770000000035
:1093E000000E0808080808080808083E00000000E9
:1093F00000000000007F9292929292B7000000005D
:1094000000000000003B4642424242E700000000EC
:1094100000000000003C42424242423C000000008A
:1094200000000000001B26424242221E02070000EC
:1094300000000000007844424242447840E00000CE
:109440000000000000774C040404041F000000002A
:1094500000000000007C42023C40423E0000000050
:1094600000000008083E0808080808300000000056
:109470000000000000634242424262DC0000000043
:109480000000000000E74224241408080000000047
:109490000000000000EB4949555522220000000061
:1094A00000000000007624181818246E0000000048
:1094B0000000000000E742242414180808070000F8
:1094C00000000000007E22100808447E000000C05A
:1094D000202020202010202020202020C00010103C
:1094E0001010101010101010101010101010000696
:1094F00008080808081008080808080806000C32C0
:10950000C200000000000000000000000000000099
:10951000000000000000000000000000000000004B
:10952000000000000000000000000000000000003B
:10953000000000000000000000000000000000002B
:10954000000000000000600060006000600060003B
:1095500060006000400020002000200000000000AB
:1095600000006000600060000000000000000000DB
:109570000000600660063003980188004400000087
:1095800000000000000000000000000000000000DB
:1095900000000000000000000000000000000000CB
:1095A0000000000000001002100210021002FE076E
:1095B000FE0708020801080108010801FE07FE076E
:1095C0000401040104010401000000000000000087
:1095D0000000000040004000F00158034C03CC03A1
:1095E0004C0058007000E000C001C00140034C0373
:1095F0005C034C034801F000400040000000000004
:109600000000000000000E010A019100910091008D
:10961000510051003A00AE03A00250045004480427
:109620004804480484028403000000000000000095
:1096300000000000000038006C006C006C006C0042
:109640006C002C0098071C011A01330133016301DF
:10965000E300C308C6093C0700000000000000004A
:1096600000000C001C0010001000080004000000A6
:1096700000000000000000000000000000000000EA
:1096800000000000000000000000000000000000DA
:109690000000000400020001800080004000400043
:1096A000200020002000200020002000200040009A
:1096B0004000800080000001000200040000000063
:1096C000000002000400080010001000200020002C
:1096D00040004000400040004000400040002000AA
:1096E000200010001000080004000200000000002C
:1096F000000000000000000000004000C00040002A
:10970000460C4E0FD001F0015E0F460C40004000A9
:109710004000000000000000000000000000000009
:1097200000000000000000000000000040004000B9
:10973000400040004000FE0F40004000400040005C
:1097400040000000000000000000000000000000D9
:109750000000000000000000000000000000000009
:1097600000000000000000000000000000000000F9
:1097700000000C001C001000100008000400000095
:1097800000000000000000000000000000000000D9
:10979000000000000000FE070000000000000000C4
:1097A00000000000000000000000000000000000B9
:1097B00000000000000000000000000000000000A9
:1097C0000000000000000000000000000000000099
:1097D00000001C001C001C00000000000000000035
:1097E00000000004000600020003000100018000E8
:1097F00080004000400060002000200010001000A9
:10980000080008000C000400060002000000000030
:109810000000000000000000F00098010C030C03A1
:1098200006060606060606060606060606060606D8
:109830000C030C039801F000000000000000000081
:10984000000000000000000040007C00600060009C
:109850006000600060006000600060006000600008
:10986000600060006000FC030000000000000000D9
:109870000000000000000000F8008401020306035D
:109880000603000300018001C000600020001000FA
:10989000080204020602FE030000000000000000AF
:1098A00000000000000000007800C600860186016C
:1098B00080018001C00070008001000100030003EE
:1098C000060306038601F800000000000000000007
:1098D000000000000000000080018001C001A00124
:1098E000A00190018801880184018201FE0F80019E
:1098F000800180018001E0070000000000000000FE
:109900000000000000000000FC030400040004004C
:1099100004000400F4008C010403000300030603A8
:10992000060382018401F80000000000000000002E
:109930000000000000000000E00118030C030C0010
:1099400004000600E60116030E06060606060606D5
:1099500004060C021803F0000000000000000000E4
:109960000000000000000000F8070C0604020401DB
:1099700000010001800080004000400040006000C5
:109980006000600060006000000000000000000057
:109990000000000000000000F8010C0306060606A7
:1099A00006060C021C03F000C8010C03060606069E
:1099B000060606060C03F00100000000000000008F
:1099C0000000000000000000F0000C010C03060283
:1099D00006060606060606078C067806000600033D
:1099E00000030C018C017800000000000000000062
:1099F0000000000000000000000000000000000067
:109A00000000E000E000E0000000000000000000B6
:109A10000000E000E000E0000000000000000000A6
:109A20000000000000000000000000000000000036
:109A30000000600060000000000000000000000066
:109A400000000000600060004000200020000000D6
:109A5000000000000000000400020001800040003F
:109A60002000100008000400080010002000400042
:109A7000800000010002000400000000000000005F
:109A800000000000000000000000000000000000D6
:109A90000000FE07000000000000FE0700000000BC
:109AA00000000000000000000000000000000000B6
:109AB000000000000000040008001000200040002A
:109AC000800000010002000400020001800040004C
:109AD000200010000800040000000000000000004A
:109AE0000000000000000000E0031806040C040C55
:109AF0000C0C0C0C000780014000400040000000EE
:109B00000000E000E000E0000000000000000000B5
:109B1000000000000000E00018030C02CC05640502
:109B20006605A605B604B604B604B604B602E4019A
:109B30000C040C021803F0000000000000000000FC
:109B40000000000000000000600060005000D00035
:109B500090009000880088010801F80104030403C4
:109B60000402020202060F0F0000000000000000C5
:109B70000000000000000000FE008C030C030C033A
:109B80000C030C038C01FC000C030C020C060C06ED
:109B90000C060C060C03FE01000000000000000093
:109BA0000000000000000000E00318030C060C0495
:109BB000040406000600060006000600060006046F
:109BC0000C040C021803F00000000000000000006C
:109BD00000000000000000007F008C010C030C035B
:109BE0000C060C060C060C060C060C060C060C06E5
:109BF0000C030C038C017F0000000000000000003B
:109C00000000000000000000FF0306030604060435
:109C1000060086008600FE0086008600860006009C
:109C2000060406040602FF03000000000000000016
:109C30000000000000000000FF0306030604060405
:109C4000060086008600FE0086008600860006006C
:109C50000600060006001F000000000000000000D3
:109C60000000000000000000F00018010C020C02CF
:109C700004020600060006000600C60F06030603DF
:109C80000C030C031803F0000000000000000000AB
:109C900000000000000000000F0F06060606060682
:109CA000060606060606FE0706060606060606065B
:109CB0000606060606060F0F000000000000000062
:109CC0000000000000000000FC0360006000600075
:109CD0006000600060006000600060006000600084
:109CE000600060006000FC03000000000000000055
:109CF0000000000000000000F807C000C000C00025
:109D0000C000C000C000C000C000C000C000C00053
:109D1000C000C000C000C000C60066003C000000DB
:109D20000000000000000000CF038601C6004600CE
:109D30002600160036002E006E004600C600860083
:109D40008601060106038F070000000000000000E6
:109D500000000000000000001F00060006000600D2
:109D600006000600060006000600060006000600C3
:109D7000060406040602FF030000000000000000C5
:109D800000000000000000000707860386038E0322
:109D90008E034E034E034A035A035A033A03320317
:109DA00032033203120387070000000000000000A6
:109DB00000000000000000008E0F0C021C021C02BC
:109DC00034023402640264024402C4028402840342
:109DD0008403040304031F020000000000000000CD
:109DE0000000000000000000F00098010C030C02CD
:109DF0000606060606060606060606060606060603
:109E00000C020C039801F0000000000000000000AC
:109E10000000000000000000FF0006030606060622
:109E20000606060606068603FE0006000600060075
:109E30000600060006001F000000000000000000F1
:109E40000000000000000000F00098010C030C026C
:109E50000606060606060606060606060606760632
:109E60004C02CC039801F0008007000300000000C2
:109E70000000000000000000FF01060306060606C1
:109E8000060606060603FE004600C600860086019A
:109E90000603060306060F0E000000000000000087
:109EA0000000000000000000F8020C030602060299
:109EB00006000E003C00F800E003800300070206E5
:109EC000020606060C03F00100000000000000007E
:109ED0000000000000000000FE0762046108610845
:109EE0006000600060006000600060006000600072
:109EF000600060006000F801000000000000000049
:109F000000000000000000001E070C020C020C0202
:109F10000C020C020C020C020C020C020C020C02D1
:109F20000C020C021801F00000000000000000000C
:109F300000000000000000000F07060204010401F9
:109F40000C010C0188008800980098005000500017
:109F50007000300020002000000000000000000021
:109F60000000000000000000F70E620442044604F6
:109F7000460464026402E402E4029C029C0198012B
:109F8000980188018800880000000000000000009F
:109F900000000000000000009E070C0108011801ED
:109FA0009000B0006000200060006000D0009000D1
:109FB0008801080104038E07000000000000000073
:109FC00000000000000000000F0F060404020C0255
:109FD00008011801B800B000700060006000600067
:109FE000600060006000F801000000000000000058
:109FF0000000000000000000FC070C020603020144
:10A000008001800040004000200020001000180067
:10A0100008040C040402FE0300000000000000001D
:10A020000000E0032000200020002000200020008D
:10A030002000200020002000200020002000200020
:10A0400020002000200020002000E003000000008D
:10A0500000000000000004000400080008001000D8
:10A06000100010002000200040004000C0008000D0
:10A070008000000100010002000200020004000054
:10A0800000007C00400040004000400040004000D4
:10A0900040004000400040004000400040004000C0
:10A0A000400040004000400040007C0000000000F4
:10A0B00060009000080100000000000000000000A7
:10A0C0000000000000000000000000000000000090
:10A0D0000000000000000000000000000000000080
:10A0E0000000000000000000000000000000000070
:10A0F0000000000000000000000000000000000060
:10A10000000000000000000000000000FF0F000041
:10A1100000001800600000000000000000000000C7
:10A12000000000000000000000000000000000002F
:10A13000000000000000000000000000000000001F
:10A14000000000000000000000000000000000000F
:10A150000000F0010C030C030003E0031C030E03DA
:10A16000060306038E0B7C0E0000000000000000BA
:10A1700000000000000008000E000C000C000C00A5
:10A180000C00CC013C031C060C060C060C060C064D
:10A190000C060C021C03E40100000000000000009B
:10A1A00000000000000000000000000000000000AF
:10A1B0000000F0008C018C018601060006000600FC
:10A1C00006020C020C01F00000000000000000007C
:10A1D0000000000000000002C003000300030003B1
:10A1E000000378038C030C0306030603060306032F
:10A1F000060304038C077801000000000000000043
:10A20000000000000000000000000000000000004E
:10A210000000E001180308020C060C06FC070C0005
:10A220000C0018041802E00100000000000000000B
:10A230000000000000000000C0036006300630008F
:10A240003000FE01300030003000300030003000BF
:10A25000300030003000FC01000000000000000071
:10A2600000000000000000000000000000000000EE
:10A270000000F007D8068C018C018C019801F800D1
:10A280000C00FC00CC03060306038E03F80000005C
:10A2900000000000000008000E000C000C000C0084
:10A2A0000C00EC011C030C030C030C030C030C034B
:10A2B0000C030C030C039E070000000000000000CC
:10A2C00000000000000000006000600000000000CE
:10A2D00040007C0060006000600060006000600082
:10A2E000600060006000FC0300000000000000004F
:10A2F0000000000000000000C001C00100000000DC
:10A300000001F00180018001800180018001800155
:10A3100080018001800180018001CC007C00000070
:10A3200000000000000008000E000C000C000C00F3
:10A330000C008C038C008C004C006C005C008C00CA
:10A340008C010C010C039E070000000000000000BF
:10A3500000000000000040007C0060006000600021
:10A3600060006000600060006000600060006000ED
:10A37000600060006000FC030000000000000000BE
:10A3800000000000000000000000000000000000CD
:10A3900000003707EE06660666066606660666066F
:10A3A000660666066606FF0F00000000000000005B
:10A3B000000000000000000000000000000000009D
:10A3C0000000EE011C030C030C030C030C030C0334
:10A3D0000C030C030C039E070000000000000000AB
:10A3E000000000000000000000000000000000006D
:10A3F0000000F00098010C03060606060606060695
:10A4000006060C030C03F000000000000000000032
:10A41000000000000000000000000000000000003C
:10A420000000EE011C030C060C060C060C060C06C4
:10A430000C060C031C03EC010C000C003E00000099
:10A44000000000000000000000000000000000000C
:10A45000000078028C030C030603060306030603C0
:10A46000060304038C03780300030003C007000005
:10A4700000000000000000000000000000000000DC
:10A4800000009F035806380618001800180018002E
:10A49000180018001800FF00000000000000000075
:10A4A00000000000000000000000000000000000AC
:10A4B0000000F0031C030C020C023800F000C00383
:10A4C000040304038C03FC010000000000000000F2
:10A4D000000000000000000000002000200030000C
:10A4E0003000FE013000300030003000300030001D
:10A4F000300030023002E0010000000000000000E7
:10A50000000000000000000000000000000000004B
:10A5100008028E030C030C030C030C030C030C0346
:10A520000C030C039C0778010000000000000000F1
:10A53000000000000000000000000000000000001B
:10A5400000001E070C020801080118019000B0006D
:10A55000B00060006000200000000000000000006B
:10A5600000000000000000000000000000000000EB
:10A570000000F70E6204460464026402EC029C01CF
:10A5800098019801980108000000000000000000F8
:10A5900000000000000000000000000000000000BB
:10A5A0000000BC0718011001B00060006000E0006E
:10A5B0009000080108039E07000000000000000052
:10A5C000000000000000000000000000000000008B
:10A5D00000009E0708010801080190009000B000EB
:10A5E0006000600060002000200024001C000000CB
:10A5F000000000000000000000000000000000005B
:10A600000000FC018401C400440060002000300010
:10A61000180208020C03FC0100000000000000000A
:10A620000000000380008000800080008000800027
:10A6300080008000400020004000800080008000FA
:10A640008000800080008000800000030000400047
:10A6500040004000400040004000400040004000FA
:10A6600040004000400040004000400040004000EA
:10A67000400040004000400040004000400000001A
:10A6800000000C001000100010001000100010005E
:10A6900010001000200040002000100010001000EA
:10A6A000100010001000100010000C00000000004E
:10A6B0001C002204C204800300000000000000000F
:10A6C000000000000000000000000000000000008A
:10A6D000000000000000000000000000000000007A
:10A6E000000000000000000000000000000000006A
:10A6F000000000000000000000000000000000005A
:10A700000000000000000000000000000000000049
:10A710000000000000000000000000000000000039
:10A720000000000000000000C001C001C001C00125
:10A73000C001C001C0018000800080008000800056
:10A740008000800000000000000000008001C003C5
:10A75000C0038001000000000000000000000000B5
:10A7600000000000E01CE01CF01E700E380718030B
:10A77000080184000000000000000000000000004C
:10A7800000000000000000000000000000000000C9
:10A7900000000000000000000000000000000000B9
:10A7A0000000000000000000000020102010201019
:10A7B00020102010FE7FFE7F1008100810081008DF
:10A7C000100810081008FE7FFE7F08040804080423
:10A7D0000804080400000000000000000000000061
:10A7E00000000000000000010001C00760191031E6
:10A7F00018311839183938017001E001C003800799
:10A80000000F001D003900311C311C310C310C11BE
:10A81000180DE00700010001000100000000000029
:10A82000000000000000000000001C103618630843
:10A83000630C63046304630263026301361D9C3787
:10A840008022806340634063206320633063102272
:10A850001836081C00000000000000000000000086
:10A8600000000000000000000000F00098018C01D2
:10A870008C018C018C018C00CC007800183E1C08E7
:10A880003608320863046304C304C30383430643E6
:10A890008E26781C00000000000000000000000070
:10A8A000000000001C003C003C00300030001000A4
:10A8B0000C00060000000000000000000000000086
:10A8C0000000000000000000000000000000000088
:10A8D0000000000000000000000000000000000078
:10A8E000000000000040002000100008000C0004E0
:10A8F0000006000300030003800180018001800145
:10A900008001800180018001000300030003000634
:10A910000006000C000800100020004000000000AD
:10A9200000000000020004000800100030002000B9
:10A930006000C000C000C000800180018001800173
:10A940008001800180018001C000C000C000600063
:10A950006000300010000800040002000000000049
:10A9600000000000000000000000000000000001E6
:10A970008003800300011C713C79783DC007000111
:10A98000C007783D3C791C71000180038003800181
:10A9900000000000000000000000000000000000B7
:10A9A00000000000000000000000000000000000A7
:10A9B0000001000100010001000100010001FC7F15
:10A9C0000001000100010001000100010001000080
:10A9D0000000000000000000000000000000000077
:10A9E0000000000000000000000000000000000067
:10A9F0000000000000000000000000000000000057
:10AA000000000000000000000000000000001C002A
:10AA10003C003C003000300010000C00060000003C
:10AA20000000000000000000000000000000000026
:10AA30000000000000000000000000000000FE7F99
:10AA40000000000000000000000000000000000006
:10AA500000000000000000000000000000000000F6
:10AA600000000000000000000000000000000000E6
:10AA700000000000000000000000000000000000D6
:10AA800000000000000000000000000018003C0072
:10AA90003C00180000000000000000000000000062
:10AAA000000000000040006000200030001000188E
:10AAB0000008000C000400060002000300018001F1
:10AAC0008000C0004000600020003000100018002E
:10AAD00008000C0004000600020000000000000056
:10AAE00000000000000000000000C007600C3018EB
:10AAF0001830183018200C600C600C600C600C6072
:10AB00000C600C600C600C60182018301830301885
:10AB1000600CC00700000000000000000000000002
:10AB20000000000000000000000000018001F801AA
:10AB3000800180018001800180018001800180010D
:10AB400080018001800180018001800180018001FD
:10AB5000C003F81F0000000000000000000000001B
:10AB600000000000000000000000E007101C0818B2
:10AB7000043004300C300C300030001800080004A1
:10AB80000002000180004000202010200820043036
:10AB9000FC1FFC1F0000000000000000000000007F
:10ABA00000000000000000000000E003180E0C0C84
:10ABB0000C180C180C180018000C0006C003000E2E
:10ABC00000180010003000300C300C300C100C1845
:10ABD000180CE0030000000000000000000000006E
:10ABE00000000000000000000000000C000E000E3D
:10ABF000000F800E800E400E600E200E100E100E04
:10AC0000080E040E040EFE7F000E000E000E000E55
:10AC1000000E000EC07F00000000000000000000D9
:10AC200000000000000000000000F03FF03F1000B6
:10AC30001000100008000800C807280C1818081099
:10AC400000300030003000300C300C300418041894
:10AC5000080CF003000000000000000000000000ED
:10AC600000000000000000000000800FC010203035
:10AC700010301800180008000C008C0F6C183C30C5
:10AC80001C600C600C600C600C6018601820303088
:10AC90006018C00700000000000000000000000075
:10ACA00000000000000000000000F83FF83F1C100A
:10ACB0000C08040804040004000200020001000162
:10ACC0000001800080008000C000C000C000C00003
:10ACD000C000C000000000000000000000000000F4
:10ACE00000000000000000000000E007300C181811
:10ACF0000C300C300C301C3038187008E007B007EE
:10AD0000180E0C1C063806300630063006300C18BB
:10AD1000180CE0030000000000000000000000002C
:10AD200000000000000000000000E00318040C0810
:10AD30000C180610063006300630063006380C3C7B
:10AD40001836F03100300018001800180C0C0C06F2
:10AD50000C03F001000000000000000000000000F3
:10AD600000000000000000000000000000000000E3
:10AD700000000000000000008001C003C00380014B
:10AD80000000000000000000000000008001C0037F
:10AD9000C00380010000000000000000000000006F
:10ADA00000000000000000000000000000000000A3
:10ADB0000000000000000000C000C0000000000013
:10ADC0000000000000000000000000000000000083
:10ADD000C000C00080008000400040000000000073
:10ADE0000000000000000000002000100008000427
:10ADF000000600038001C0006000300018000C0055
:10AE0000180030006000C00080010003000600044C
:10AE100000080010002000000000000000000000FA
:10AE20000000000000000000000000000000000022
:10AE30000000000000000000FE7F00000000000095
:10AE400000000000FE7F0000000000000000000085
:10AE500000000000000000000000000000000000F2
:10AE600000000000000000000400080010002000A6
:10AE70006000C000800100030006000C00180030D4
:10AE80000018000C000600038001C00060002000D4
:10AE90001000080004000000000000000000000096
:10AEA0000000000000000000C007301808300860F3
:10AEB0000C601C601C601C600030001C000600015F
:10AEC0008000800080008000000000008001C0033E
:10AED000C00380010000000000000000000000002E
:10AEE00000000000000000000000C00760181030E3
:10AEF00018200C2F8C4D864CC64CC64C664C6644B4
:10AF00006644662666266615CC1C0C400820183060
:10AF10003018C00700000000000000000000000022
:10AF200000000000000000000001C001C001C001DD
:10AF300040016003200320032003300610061006A2
:10AF40001006F80F080C080C080C0C0C0418041858
:10AF500006181F7C00000000000000000000000038
:10AF600000000000000000000000FE07181C183858
:10AF700018301830183018301818180CF80718182E
:10AF800018301820186018601860186018601830A1
:10AF90001818FE0F00000000000000000000000074
:10AFA00000000000000000000000C02760381030E2
:10AFB00018200C400C4004000600060006000600A5
:10AFC00006000600060006000C400C400C2018305D
:10AFD0003018C00700000000000000000000000062
:10AFE00000000000000000000000FE03180E18180A
:10AFF0001830183018301860186018601860186021
:10B000001860186018601860183018301810181878
:10B01000180EFE0300000000000000000000000009
:10B0200000000000000000000000FE3F1830182063
:10B0300018601840180018081808180CF80F180C99
:10B040001808180818001800180018401840182090
:10B050001830FE3F0000000000000000000000006B
:10B0600000000000000000000000FE7F1870184083
:10B0700018C018801800181018101818F81F181881
:10B0800018101810180018001800180018001800E0
:10B0900018007E000000000000000000000000001A
:10B0A00000000000000000000000C013701C101021
:10B0B00018100C200C2004000600060006000600F4
:10B0C000060006FC063006300C300C301830183004
:10B0D0003008C00700000000000000000000000071
:10B0E000000000000000000000003F7E0C180C185B
:10B0F0000C180C180C180C180C180C180C18FC1F39
:10B100000C180C180C180C180C180C180C180C181F
:10B110000C183F7E0000000000000000000000004E
:10B1200000000000000000000000F81F8001800106
:10B130008001800180018001800180018001800107
:10B1400080018001800180018001800180018001F7
:10B150008001F81F00000000000000000000000057
:10B1600000000000000000000000E07F0006000674
:10B17000000600060006000600060006000600069F
:10B18000000600060006000600060006000600068F
:10B190000006000600060E060E038E01FC000000ED
:10B1A000000000000000000000007E7C1818180855
:10B1B000180418061802180198019801D801B8035C
:10B1C000380318071806180E180C181C1818183011
:10B1D00018307EFC000000000000000000000000AD
:10B1E000000000000000000000007E0018001800B1
:10B1F000180018001800180018001800180018008F
:10B2000018001800180018001800184018401820DE
:10B210001830FE3F000000000000000000000000A9
:10B22000000000000000000000001FF81C381C385F
:10B230001C381C3C34343434343434367432643284
:10B24000643264326431C431C431C431C430C43076
:10B2500084309FFC0000000000000000000000009F
:10B26000000000000000000000001F7C1C103C10CB
:10B270003410341074106410E410C410C41184111C
:10B280008413041304170416041E041C041C041C59
:10B2900004181F180000000000000000000000005B
:10B2A00000000000000000000000C003300C18186F
:10B2B00008100C300C300660066006600660066000
:10B2C00006600660066006600C200C300810181836
:10B2D000300CC0030000000000000000000000006F
:10B2E00000000000000000000000FE0F18181830D9
:10B2F0001860186018601860186018301818F80F77
:10B30000180018001800180018001800180018007D
:10B3100018007E0000000000000000000000000097
:10B3200000000000000000000000C003300C1818EE
:10B330000C100C300C20066006600660066006608B
:10B340000660066006600660E4612C331C32181645
:10B35000300EC007004C007C0038000000000000E8
:10B3600000000000000000000000FE07181C183854
:10B3700018301830183018301818180CF8079803BF
:10B380001803180718061806180E180C180C181CA5
:10B3900018187E7800000000000000000000000087
:10B3A00000000000000000000000E02730381830E6
:10B3B0000C200C200C000C0018007800E003800F1B
:10B3C000001E0038007000600460046008601830DF
:10B3D0003818C80F00000000000000000000000046
:10B3E00000000000000000000000FC3F8C21846190
:10B3F00082418241800180018001800180018001C1
:10B400008001800180018001800180018001800134
:10B410008001E007000000000000000000000000C4
:10B42000000000000000000000003F7C0C100C1029
:10B430000C100C100C100C100C100C100C100C102C
:10B440000C100C100C100C100C100C100C10080828
:10B450003804E003000000000000000000000000CD
:10B46000000000000000000000003EF81820182036
:10B47000182030103010301030106008600860085C
:10B48000E00CC004C004C004800380038003800378
:10B4900000010001000000000000000000000000AA
:10B4A00000000000000000000000DFF3866186213C
:10B4B00086218C210C218C238C138C138C134C1320
:10B4C00058125816580E380E380E380E300C10041C
:10B4D0001004100400000000000000000000000044
:10B4E000000000000000000000007E3E1808380840
:10B4F0003004300470026002E001C001C00180012C
:10B5000080034003400720062006100C100C08188A
:10B5100008183E7C00000000000000000000000051
:10B52000000000000000000000007E7C1C101810CD
:10B5300018083008300C700460046002C002C002B9
:10B54000C0018001800180018001800180018001B3
:10B550008001E00700000000000000000000000083
:10B5600000000000000000000000F83F1818081854
:10B57000040C040E00060007000380038001C001D4
:10B58000C000E000600070003000382018201C105F
:10B590000C18FE1F0000000000000000000000006A
:10B5A00000000000C03F400040004000400040005C
:10B5B000400040004000400040004000400040008B
:10B5C000400040004000400040004000400040007B
:10B5D0004000400040004000C03F0000000000006C
:10B5E0000000000000000000080018001800100013
:10B5F00030002000600060004000C000800080013A
:10B600008001000100030002000600060004000C97
:10B610000008001800180010003000200000000092
:10B6200000000000FC030002000200020002000211
:10B6300000020002000200020002000200020002FA
:10B6400000020002000200020002000200020002EA
:10B650000002000200020002FC03000000000000E3
:10B66000000000008007C006200810100000000045
:10B6700000000000000000000000000000000000CA
:10B6800000000000000000000000000000000000BA
:10B6900000000000000000000000000000000000AA
:10B6A000000000000000000000000000000000009A
:10B6B000000000000000000000000000000000008A
:10B6C000000000000000000000000000000000007A
:10B6D000000000000000000000000000FFFF00006C
:10B6E000000000007800C000000100000000000021
:10B6F000000000000000000000000000000000004A
:10B700000000000000000000000000000000000039
:10B710000000000000000000000000000000000029
:10B720000000000000000000000000000000000019
:10B730000000000000000000F00318060C0C0C0CC8
:10B74000000C800F700C1C0C0C0C060C060C064C2C
:10B750000C4FF8380000000000000000000000005E
:10B76000000000000000000010001E00180018007B
:10B770001800180018001800180FD8183830386052
:10B780001860186018601860186018601820383049
:10B790007818C8070000000000000000000000004A
:10B7A0000000000000000000000000000000000099
:10B7B0000000000000000000C007700C18181818E6
:10B7C0000C180C000C000C000C000C201820181099
:10B7D0003008C0070000000000000000000000006A
:10B7E00000000000000000000010001E00180018FB
:10B7F0000018001800180018E01B301C1818181842
:10B800000C180C180C180C180C180C180818181C0C
:10B81000307AE00900000000000000000000000095
:10B820000000000000000000000000000000000018
:10B830000000000000000000C007300C18180810BD
:10B840000C300C30FC3F0C000C000C0018201810C1
:10B850007018C00700000000000000000000000099
:10B8600000000000000000000000003E80C380C017
:10B87000C0C0C000C000C000FC1FC000C000C000AD
:10B88000C000C000C000C000C000C000C000C000B8
:10B89000C000F80F000000000000000000000000E1
:10B8A0000000000000000000000000000000000098
:10B8B0000000000000000000C077306C101818185D
:10B8C000181818181018300CF00718001800F00F8E
:10B8D000F03F08700C600C600C603838E00F00001E
:10B8E000000000000000000010001E0018001800FA
:10B8F0001800180018001800980FD81838301830A1
:10B9000018301830183018301830183018301830F7
:10B9100018307EFC00000000000000000000000065
:10B92000000000000000000000008003800380038E
:10B930000000000000000001F8018001800180018A
:10B9400080018001800180018001800180018001EF
:10B950008001F81F0000000000000000000000004F
:10B96000000000000000000000000038003800382F
:10B970000000000000000010801F001800180018D0
:10B9800000180018001800180018001800180018F7
:10B990000018001800180018180C1806F003000012
:10B9A000000000000000000010001E001800180039
:10B9B0001800180018001800183E180C1806180374
:10B9C00018019801D801380318071806180C181C1C
:10B9D00018187E7C0000000000000000000000003D
:10B9E00000000000000000000001F801800180015B
:10B9F000800180018001800180018001800180013F
:10BA0000800180018001800180018001800180012E
:10BA10008001F81F0000000000000000000000008E
:10BA20000000000000000000000000000000000016
:10BA30000000000000000800EE1C9C338C318C31AB
:10BA40008C318C318C318C318C318C318C318C310E
:10BA50008C31DE7B000000000000000000000000D0
:10BA600000000000000000000000000000000000D6
:10BA700000000000000010001E0FD81838301830E9
:10BA80001830183018301830183018301830183076
:10BA900018307EFC000000000000000000000000E4
:10BAA0000000000000000000000000000000000096
:10BAB0000000000000000000C007701C10301830AB
:10BAC0000C600C600C600C600C600C60183018305E
:10BAD0003018C00700000000000000000000000057
:10BAE0000000000000000000000000000000000056
:10BAF00000000000000010009E0F58183830182079
:10BB000018601860186018601860186018303830B5
:10BB10007818980718001800180018007E00000018
:10BB20000000000000000000000000000000000015
:10BB30000000000000000000C023303C183818301E
:10BB40000C300C300C300C300C300C300830183805
:10BB5000303CE033003000300030003000FC0000AA
:10BB600000000000000000000000000000000000D5
:10BB700000000000000060007E3C60666061E00044
:10BB8000E000600060006000600060006000600035
:10BB90006000FE0700000000000000000000000040
:10BBA0000000000000000000000000000000000095
:10BBB0000000000000000000E02730381830182096
:10BBC00018007000E003800F001C043004300C30BB
:10BBD0001C18EC0F00000000000000000000000036
:10BBE00000000000000000000000000000008000D5
:10BBF00080008000C000E000FC1FC000C000C0004A
:10BC0000C000C000C000C000C000C000C020C020F4
:10BC10008011000F00000000000000000000000084
:10BC20000000000000000000000000000000000014
:10BC300000000000000010201E3C183018301830A2
:10BC400018301830183018301830183018301838AC
:10BC500030F4E013000000000000000000000000CD
:10BC600000000000000000000000000000000000D4
:10BC700000000000000000007E3C1818180838087A
:10BC800030043004700260026002E001C001C001B3
:10BC9000C000800000000000000000000000000064
:10BCA0000000000000000000000000000000000094
:10BCB0000000000000000000DFF78E630C238C23DF
:10BCC0008C239813981358165816700E700E700E19
:10BCD000200420040000000000000000000000001C
:10BCE0000000000000000000000000000000000054
:10BCF0000000000000000000FC3E70087004E0043A
:10BD0000C002C0018003800340076006200C100CB5
:10BD100018183E7E00000000000000000000000037
:10BD20000000000000000000000000000000000013
:10BD300000000000000000007E7C18181808300881
:10BD40003008300460046004C002C002C0028001F8
:10BD5000800180018000800080004C003C000000D9
:10BD600000000000000000000000000000000000D3
:10BD70000000000000000000FC1F0C0C040E040674
:10BD8000000380038001C000E000702030203830C4
:10BD90001C18FC1F00000000000000000000000054
:10BDA000000000000030000800040004000400044B
:10BDB00000040004000400040004000400028001E8
:10BDC0000002000400040004000400040004000455
:10BDD000000400040004000400080030000000011A
:10BDE000000100010001000100010001000100014B
:10BDF000000100010001000100010001000100013B
:10BE0000000100010001000100010001000100012A
:10BE1000000100010001000100010001000100001B
:10BE2000000000000C001000200020002000200076
:10BE30002000200020002000200020004000800181
:10BE400040002000200020002000200020002000D2
:10BE5000200020002000200010000C000000000046
:10BE60003800C400864002610022001C000000006F
:10BE700000000000000000000000000000000000C2
:10BE800000000000000000000000000000000000B2
:10BE90000000000000000000000000000000D6D0FC
:10BEA000200020002000FE03220222022202FE03C4
:10BEB0002202200020002000BEB0FC010401FC0191
:10BEC0000401FC012000FF070401FC012000240103
:10BED0003202D4B0FE070204FA0402040204FE0592
:10BEE000520452044A0586050204FE07B5E7100015
:10BEF0001000FF0111011101FF0111011101FF01EA
:10BF000011041004E007D7D30000FC0180004000BA
:10BF100020002000FF072000200020002000380023
:10BF2000D6D08000800080008000FC1F8410841028
:10BF3000841084108410FC1F841080008000800016
:10BF40008000BEB0F80F0808F80F0808F80F80004E
:10BF5000FF7F0000F80F08080808F80F8000841021
:10BF6000A2204000D4B00000FE3F0220F2270220B1
:10BF70000220FA2F222122212221122912290A2EFF
:10BF80000220FE3F0220B5E7800080008000FC1FF9
:10BF9000841084108410FC1F841084108410FC1FF3
:10BFA000845080408040007FD7D30000FE1F0008EF
:10BFB0000004000280018000FF7F8000800080007C
:10BFC000800080008000A0004000D6D0000000006B
:10BFD0000000001800000800000800000800080821
:10BFE00018F8FF1F18081818081818081818081843
:10BFF000180818180818F8FF1F080808000800009B
:10C0000008000008000008000018000018000018D0
:10C0100000000000BEB0000000000000400006C0AC
:10C02000FF07400006C0FF07400006C0FF074008AA
:10C0300002003000FEFF3F000000C0FF07C000020A
:10C04000C00002C00002C0FF038010008011016028
:10C05000100E3010180C1E30001C00000000D4B070
:10C06000000000000000080030F8FF1F0800100862
:10C07000C010083F10080010080010080013C8FF87
:10C08000100822100822100822100822100821127D
:10C0900008211488601648C013280010080010F802
:10C0A000FF1F080010000000B5E7000000000000BE
:10C0B000001800000800000800000800F0FF0F1042
:10C0C0000804100804100804100804F0FF07100802
:10C0D00004100804100804100804F0FF07100800FA
:10C0E00000081000081000082000183000F01F00A1
:10C0F0000000D7D3000000000000000004F0FF0F94
:10C1000000000600000100C0000028000018000028
:10C110001800001830FEFF7F0018000018000018FB
:10C120000000180000180000180000180000180097
:10C13000001800001F00000C00000000D6D0000016
:10C14000000000000000008000000080010000806E
:10C1500001000080010000800100008001001080CB
:10C16000010CF0FFFF0F30800104308001043080AB
:10C1700001043080010430800104308001043080EB
:10C18000010430800104F0FFFF073080010430809B
:10C190000104008001000080010000800100008097
:10C1A000010000800100008001000080010000808B
:10C1B0000100008001000080000000000000BEB00F
:10C1C00000000000000000000000000000018001ED
:10C1D00000FFFF01000380010003800100FFFF0159
:10C1E000000380010003800100FFFF010081810046
:10C1F000000003000000031CFCFFFF3F00004000A4
:10C200000003C00100FFFF010003C0000003C000E5
:10C210000003C00000FFFF00000141000004010016
:10C22000000E710000078101800101076000010E0E
:10C230001898011C04E0011800C000000000000074
:10C24000D4B0000000000000000000000008F0FF73
:10C25000FF1F3000000C3000000C3000100C30FECE
:10C260003F0C3004000C3000000C3000000C30009B
:10C27000000C3000C00CF0FFFF0D3030060E3030E7
:10C28000060C3010060C3010060C3010060C30185E
:10C29000860C3018860C3008060D300C860D3006E2
:10C2A000EE0F3002FC0D3001000CF000000C3000ED
:10C2B000000CF0FFFF0F3000000C10000004000025
:10C2C0000000B5E7000000000000000000C0000012
:10C2D00000C0010000C0000000C0000000C000005D
:10C2E00000C00000E0FFFF0360C0000360C0000367
:10C2F00060C0000360C0000360C0000360C00003B2
:10C30000E0FFFF0360C0000360C0000360C00003E3
:10C3100060C0000360C00003E0FFFF0360C00001D5
:10C3200060C0000000C0000800C0001000C0001085
:10C3300000C0001800C001380080FF1F000000008E
:10C3400000000000D7D30000000000000000000043
:10C35000000000000003C0FFFF070000800700008E
:10C36000C000000060000000180000000C00008009
:10C3700003000080030000800100008001080080AD
:10C38000011CFCFFFF3F00800100008001000080D5
:10C390000100008001000080010000800100008099
:10C3A0000100008001000080010000800100008089
:10C3B00001000080010000FC010000E000000040DE
:10C3C0000000000000000000000000004F0000001E
:10C3D0009E000000ED0000003C0100008B01000009
:10C3E000D90100002802000077020000C602000008
:10C3F0001503000063030000B20300000004000006
:10C400004F0400009D040000EC0400003A05000009
:10C4100088050000D6050000240600007206000012
:10C42000C00600000E0700005B070000A90700001F
:10C43000F60700004308000090080000DD08000037
:10C440002A09000077090000C30900000F0A000054
:10C450005C0A0000A80A0000F40A00003F0B00007C
:10C460008B0B0000D60B0000210C00006C0C0000B0
:10C47000B70C0000010D00004C0D0000960D0000EF
:10C48000E00D0000290E0000730E0000BC0E00003D
:10C49000050F00004E0F0000960F0000DF0F000098
:10C4A000271000006E100000B6100000FD10000004
:10C4B000441100008B110000D11100001712000080
:10C4C0005D120000A2120000E81200002D1300000F
:10C4D00071130000B6130000F91300003D140000B2
:10C4E00081140000C4140000061500004915000066
:10C4F0008B150000CC1500000E1600004F16000032
:10C500008F160000CF1600000F1700004F17000015
:10C510008E170000CD1700000B180000491800000E
:10C5200087180000C4180000011900003D19000020
:10C5300079190000B5190000F01900002B1A00004D
:10C54000661A00009F1A0000D91A0000121B000092
:10C550004B1B0000831B0000BB1B0000F21B0000F4
:10C56000291C0000601C0000961C0000CB1C000071
:10C57000001D0000351D0000691D00009D1D00000C
:10C58000D01D0000031E0000351E0000671E0000C5
:10C59000981E0000C91E0000FA1E0000291F00009E
:10C5A000591F0000881F0000B61F0000E41F000094
:10C5B000112000003E2000006A20000096200000AC
:10C5C000C1200000EC2000001621000040210000E6
:10C5D0006921000092210000BA210000E121000041
:10C5E000082200002F220000552200007A220000BD
:10C5F0009F220000C3220000E72200000A2300005F
:10C600002D2300004F230000702300009123000021
:10C61000B2230000D1230000F12300000F2400000A
:10C620002D2400004B240000682400008424000016
:10C63000A0240000BB240000D5240000EF2400004B
:10C6400009250000222500003A250000522500009F
:10C65000692500007F25000095250000AA2500001F
:10C66000BF250000D3250000E6250000F9250000C5
:10C670000B2600001D2600002E2600003E2600008E
:10C680004E2600005D2600006C2600007A26000081
:10C690008726000094260000A0260000AB2600009C
:10C6A000B6260000C0260000CA260000D3260000DF
:10C6B000DB260000E3260000EA260000F126000049
:10C6C000F7260000FC2600000127000005270000D7
:10C6D000082700000B2700000D2700000F2700008F
:10C6E00010270000102700004FBB610567ACDD3F3D
:10C6F000182D4454FB21E93F9BF681D20B73EF3F89
:10C70000182D4454FB21F93FE2652F227F2B7A3C00
:10C71000075C143326A6813CBDCBF07A8807703CB9
:10C72000075C143326A6913CC4EB98999999C9BF2C
:10C73000711623FEC671BCBF6D9A74AFF2B0B3BF61
:10C740009AFDDE522DDEADBF2F6C6A2C44B4A2BF21
:10C750000D5555555555D53FFF8300922449C23F8D
:10C760006E204CC5CD45B73F513DD0A0660DB13FC1
:10C77000EB0D76244B7BA93F11DA22E33AAD903FD3
:10C780000000000000000000A8C700080000002012
:10C7900030000000707E0008D8C70008300000207C
:10C7A000700A0000807E00081000000001000000F8
:10C7B000000000000024F400B70B0000000000009F
:10C7C0000000000000000000000000000000000069
:08C7D000000000000000000061
:04000005080001D915
:00000001FF
