:020000040800F2
:10000000D00800207902000867260008D1220008E5
:10001000652600086F0400086B2F00080000000030
:100020000000000000000000000000006B26000837
:100030007104000800000000692600086D26000811
:10004000930200089302000893020008930200083C
:10005000930200089302000893020008930200082C
:10006000930200089302000893020008930200081C
:10007000930200089302000893020008930200080C
:100080009302000800000000930200089302000899
:1000900093020008930200089302000893020008EC
:1000A00093020008930200089302000893020008DC
:1000B00093020008930200089302000893020008CC
:1000C00093020008930200089302000893020008BC
:1000D00093020008930200089302000893020008AC
:1000E000930200089302000893020008930200089C
:1000F0009302000893020008930200080000000029
:1001000000000000930200080000000093020008B5
:100110009302000800000000930200089302000808
:10012000930200089302000893020008930200085B
:100130009302000800000000000000009302000885
:100140009302000893020008000000000000000075
:10015000000000000000000000000000000000009F
:1001600000000000000000000000000093020008F2
:1001700093020008000000000000000000000000E2
:1001800000000000930200080000000000000000D2
:10019000000000000000000000000000000000005F
:1001A0000000000000000000930200089302000815
:1001B0009302000893020008930200080000000068
:1001C0000000000093020008000000000000000092
:1001D000930200089302000800F002F800F03CF8D7
:1001E0000AA090E8000C82448344AAF10107DA4592
:1001F00001D100F031F8AFF2090EBAE80F0013F0A8
:10020000010F18BFFB1A43F001031847202E00000E
:10021000402E0000103A24BF78C878C1FAD852079F
:1002200024BF30C830C144BF04680C607047000070
:100230000023002400250026103A28BF78C1FBD8EF
:10024000520728BF30C148BF0B6070471FB502F08E
:10025000C7FE1FBD10B510BD00F0CFF81146FFF767
:10026000F5FF02F093FE00F0EDF803B4FFF7F2FFA4
:1002700003BC00F0F5F80000094880470948004732
:10028000FEE7FEE7FEE7FEE7FEE7FEE7FEE7FEE746
:10029000FEE7FEE704480549054A064B70470000A3
:1002A000D9260008D9010008D0020020D00800207B
:1002B000D0040020D004002053EA020C00F0698032
:1002C0002DE9F04B4FF00006002B1FBFB3FA83F56A
:1002D00003FA05F424FA05F65E4012BF1643B2FA9B
:1002E00082F502FA05F4C5F120051EBF22FA05FCCD
:1002F00044EA0C04203556EA044C4FEA144418BF73
:10030000641C4FF000084FF00009904271EB030CA1
:1003100039D3002919BFB1FA81F701FA07F6B0FA0B
:1003200080F700FA07F6C7F120071EBF20FA07FC86
:1003300046EA0C062037B6FBF4FCA7EB0507103F96
:1003400007F01F0BCBF120060CFA0BFB2CFA06F67C
:1003500044BFB3460026202FA4BF5E464FF0000BDB
:100360005BEA060C08BF4FF0010B19EB0B09ABFB66
:10037000027C48EB0608C01B06FB02CC0BFB03CC3F
:1003800071EB0C01C1E70B46024641464846BDE809
:10039000F08B13B54FF000004FF00001AFF3008079
:1003A000BDE81C4070474FF0000200B5134694466C
:1003B0009646203922BFA0E80C50A0E80C50B1F1BD
:1003C0002001BFF4F7AF090728BFA0E80C5048BFD1
:1003D0000CC05DF804EB890028BF40F8042B08BF6F
:1003E000704748BF20F8022B11F0804F18BF00F86B
:1003F000012B7047704770477047754600F02CF826
:10040000AE4605006946534620F00700854618B001
:1004100020B5FFF73FFFBDE820404FF000064FF04A
:1004200000074FF000084FF0000B21F00701AC4629
:10043000ACE8C009ACE8C009ACE8C009ACE8C00948
:100440008D46704710B50446AFF300802046BDE8E6
:100450001040FFF70ABF0000004870476C02002000
:1004600001491820ABBEFEE7260002007047FEE7F8
:10047000704772B6FEE700002DE9F84F00270446EA
:10048000009790F85800DFF8D8930D46B846012839
:1004900011D0012684F85860206801F024FF60B173
:1004A000E06D40F02000E0655FF0010784F85880BF
:1004B0003846BDE8F88F0220FBE7D5E900210C2380
:1004C000206803EA91131844036B01F01F014FF0F9
:1004D0001F0C0CFA01FCC2F3846223EA0C038A406D
:1004E00013430363206801F0FEFE8246206801F09A
:1004F000F6FE5AEA00003CD1AA6829682068B2F1E9
:10050000004F37D001F0F3FE2068416921F000412F
:10051000416120686969C268C2F3C102520091401A
:100520002A69042A31D000EB82002B68026EDFF8C2
:1005300034C303F0F84302EA0C020B431A4342F0BF
:100540000041016620682A69A96900EB8200026EF9
:1005500022F080720A430266297F226828690129F5
:1005600010D0002102EB8000026E22F000720A43DC
:1005700002667DE0002201F0BAFE2068416941F088
:100580000041C5E74FF00071ECE7002101F0A1FE4A
:10059000400320684FF0000172D001F09AFE90FAFB
:1005A000A0F0B0FA80F1286842036ED090FAA0F073
:1005B000B0FA80F0814204D100221146206801F097
:1005C000A5FE0121206801F084FE400320684FF061
:1005D00001015DD001F07DFE90FAA0F0B0FA80F14B
:1005E0002868420359D090FAA0F0B0FA80F0814216
:1005F00004D100220121206801F088FE0221206838
:1006000001F067FE400320684FF0020148D001F07E
:1006100060FE90FAA0F0B0FA80F12868420344D05E
:1006200090FAA0F0B0FA80F0814204D100220221B9
:10063000206801F06BFE0321206801F04AFE4003B0
:1006400020684FF0030133D001F043FE90FAA0F090
:10065000B0FA80F1286842032FD090FAA0F0B0FAE7
:1006600080F0814204D100220321206801F04EFE77
:100670002068816811F0010F22D0A8E000E004E0BA
:1006800001F027FEC0F384618DE7C0F3846091E739
:1006900001F01FFEC0F38461A2E7C0F38460A6E707
:1006A00001F017FEC0F38461B7E7C0F38460BBE7D5
:1006B00001F00FFEC0F38461CCE7C0F38460D0E7A3
:1006C000EB6829684B4550F8B03FC1F3120101D1E6
:1006D0000B4300E08B430360E868484577D1286806
:1006E00041031CD090FAA0F1B1FA81F1491C01F04C
:1006F0001F0109294FEA403132D8002912D000BF2A
:1007000090FAA0F1B1FA81F101F1010101F01F01AC
:1007100006FA01F609D100BFC0F3846109E0C0F315
:100720008461E3E7C0F38461EEE790FAA0F1B1FAE7
:1007300081F101F1010101F01F0146EA816102D15D
:10074000C0F3846003E090FAA0F0B0FA80F000F10A
:10075000010000F01F0000EB400041EA005132E0D0
:1007600000290ED090FAA0F1B1FA81F101F1010156
:1007700001F01F0106FA01F606D100BFC0F3846143
:1007800006E0C0F38461F1E790FAA0F1B1FA81F1DB
:1007900001F1010101F01F0146EA816102D1C0F3BC
:1007A000846003E090FAA0F0B0FA80F000F101005C
:1007B00000F01F002C4A00EB400002EB005041EA21
:1007C000000141F00071AA68206801F090FD2748FF
:1007D0002A6802423FF46AAE25488168254B01F041
:1007E000E0719A4202D0244B9A421CD10B021AD4D7
:1007F0002268B2F1A04F7FF459AE826841F4000143
:1008000022F0E0720A4382601C481D490068B0FB78
:10081000F1F0401C00EB4000800000E0401E009022
:100820000028FBD142E6174D174BAA4207D1CD0154
:1008300005D422689A42F5D041F0807109E0134D49
:10084000AA42EFD14A02EDD422689A42EAD041F49A
:100850008001826822F0E0720A43826026E600008E
:1008600000007F4000F0FF03000020FE0000088031
:1008700000030050000021C31000C0900C000020B5
:10088000400D0300000052C700010050000084CB5F
:10089000F8B54FF0000504002E46009502D0E06D3B
:1008A00010B107E00120F8BD204600F0EFF8266601
:1008B00084F8586020688168C1F3407119B181687B
:1008C0006A4A1140816020688168C1F3007189B96A
:1008D0008168674A114041F08051816065486649EE
:1008E0000068B0FBF1F04000801C00E0401E00906A
:1008F0000028FBD120688168C1F3007141B9E16D26
:1009000041F01001E165216E41F0010121660125F0
:1009100001F0E9FCE16DC90600D430B1E06D40F0B2
:100920001000E06501252846F8BDE06D20F48070D8
:1009300040F00200E0652068806810F0010F11D1DE
:100940004FF0A04080684D4900F00100896801F037
:100950000101084306D14A486168826822F47C128A
:100960000A438260E168E06B627F0843A16841EA64
:100970004231084394F8241040EA0140012904D18F
:10098000218D404A02EB41410843E16A29B101F45B
:100990007871226B014342EA01002168CA683A4B30
:1009A0001A400243CA6020680169626B21F040610D
:1009B00011430161206801F096FC0646206801F0B1
:1009C0008EFC30432ED1207F94F83810800340EA0B
:1009D00041022068C16844F2020399431143C16097
:1009E00020690028206801690AD041F48031016142
:1009F000206850F8C01F22696FF30D01114307E012
:100A000021F480310161206850F8C01F6FF30D019F
:100A1000016094F8400001280CD02068016921F0A1
:100A200001010161606901282068016B21F00F015B
:100A300011D013E0D4E911010843D4E91312114392
:100A4000084321680A6940F2FC739A43104340F05E
:100A500001000861E6E7226A521E11430163E06D5E
:100A600020F0020040F00100E0655CE7C0FFFF5F9E
:100A7000C0FFFF7F0C000020400D0300000100506C
:100A8000000300500000FEFF0740F0FF10B598B0D3
:100A90000446142111A8FFF786FC44216846FFF79D
:100AA00082FC16492068884225D1C001009080034D
:100AB0000F90684600F094FC08B1FFF7DAFC10488C
:100AC000C16C41F40051C164C16C01F40051169134
:100AD000C16C41F00101C164C06C11A900F00100BA
:100AE0001690F020119003201290002013904FF0E8
:100AF000904000F059F918B010BD000000010050FE
:100B00000010024070B5044600F078FA0546601CFB
:100B100002D004484068044400F070FA401BA04230
:100B2000FAD370BD000000202DE9F041040006D08A
:100B3000DFF8E88194F85C00002518B107E0012097
:100B4000BDE8F08184F85D50204600F0EFF82068A1
:100B5000816921F01001816100F050FA06460327F7
:100B600005E000BF00F04AFA801B0A2811D820686F
:100B700080690007F6D42068816941F00101816134
:100B800000F03CFA06460BE000F038FA801B0A2819
:100B900006D9206E40F00100206684F85C70CEE734
:100BA00020688069C007EFD02068816941F00201A8
:100BB00081612168414502D1594960680860207C03
:100BC00001282068816937D041F040018161607C53
:100BD00001282068816932D021F480418161A07CA4
:100BE0000128206881692DD041F4805181612068FD
:100BF0008169A26821F44071114381612068816993
:100C000021F0A40181612068016921F010010161D6
:100C1000E068012819D010B302281BD02068816930
:100C200041F0800181612068016941F0100101619A
:100C3000E06803280ED012E021F04001C6E741F43D
:100C40008041CBE721F48051D0E72068816941F0F1
:100C5000040103E02068816941F020018161207E68
:100C6000E26940066FF0FF0101EB0222A0F1007083
:100C70001043226AA38A521E10430A0202EB034366
:100C800018432368D861A068B0F5407F10D1D4E93B
:100C90000A0301EB0321401E0843216B131303EBEE
:100CA00001110843A18C02EB014108432168C8608F
:100CB000206850F8C01FE26B11430160194820649E
:100CC000216851F8802FA38E22F4F81242EA0342E1
:100CD0000A60144970316164216851F8802F94F8DA
:100CE000383022F0706242EA03620A600D49B03186
:100CF000A1640D49E1640C49D83121650A49F031FC
:100D0000616500F5547120C08842FCD3A565256655
:100D1000012084F85C00002012E70000006400401D
:100D20000065004000A4004088A5004010B598B0C0
:100D30000446142111A8FFF736FB44216846FFF74B
:100D400032FB17492068884228D180140090400364
:100D50000C90684600F044FB08B1FFF78AFB11488D
:100D6000816D41F000718165816D01F00071169116
:100D7000C16C41F00101C164C06C11A900F0010017
:100D800016904FF4C0501190022012900020139042
:100D9000149009201590C00600F006F818B010BD98
:100DA00000640040001002402DE9F04FDFF820926F
:100DB000002301260324A9F1040B85B00F2709F1B4
:100DC000040AABF1040EFAE006FA03F52A407CD0DF
:100DD00091F804C00CF0030CBCF1010F02D0BCF17F
:100DE000020F26D1D0F808C0CDF800C04FEA430C5E
:100DF00004FA0CF8CDF810C0DDF800C02CEA080C9D
:100E0000CDF800C0D1F80C80DDF810C008FA0CF85D
:100E1000DDF800C048EA0C08C0F80880D0F804C02B
:100E20002CEA050C0D79C5F300159D4045EA0C052B
:100E300045600D79ED43AD070ED0C5684FEA430814
:100E400004FA08FC25EA0C05D1F808C00CFA08FCE5
:100E50004CEA050CC0F80CC00D7905F00305022D15
:100E600016D1DD0800EB850CCDF808C0DCF8208039
:100E70005D074FEAD56C07FA0CF528EA05080D69FD
:100E800005FA0CF5DDF808C045EA0805CCF8205055
:100E900005684FEA430CCDF808C004FA0CFC25EABB
:100EA0000C0591F804C00CF00308DDF808C008FA3E
:100EB0000CF848EA0508C0F800804D6815F4403F7A
:100EC0007CD0444DD5F860C000E077E04CF0010CD8
:100ED000C5F860C02D6E23F0030C05F001050095E8
:100EE0003D4D65440295AD684FEA837C4FEA1C781E
:100EF00007FA08FC25EA0C05B0F1904F06D0DFF8A0
:100F0000DCC0604505D14FF0010C20E04FF0000C33
:100F10001DE0DFF8CCC0604502D14FF0020C16E0B6
:100F2000DFF8C0C0604502D14FF0030C0FE0DFF8DE
:100F3000B8C0604502D14FF0040C08E0DFF8ACC047
:100F4000604502D14FF0050C01E04FF0060C0CFAA1
:100F500008FC4CEA050C029DC5F808C0D9F8005001
:100F6000CC46D1F8048095435FEAC82800D51543E4
:100F7000CCF80050DAF80050D446D1F804809543FC
:100F80005FEA882800D51543CCF80050DBF8005004
:100F9000DC46D1F8048095435FEA883800D51543D4
:100FA000CCF80050DEF80050F446D1F804809543A8
:100FB0005FEAC83800D51543CCF800505B1C0A68BE
:100FC00032FA03F57FF400AF05B0BDE8F08F000002
:100FD00008040140001002400000014000040048E5
:100FE00000080048000C00480010004800140048A9
:100FF0000AB18161704781627047000001488068D2
:10100000704700000000002090F84120202A24D1E1
:1010100090F84020012A20D0012280F8402024228C
:1010200080F841200268136823F00103136002680E
:10103000136823F480531360026813680B43136032
:1010400001680A6842F001020A60202180F841101C
:10105000002180F84010084670470220704790F841
:101060004120202A22D190F84020012A1ED00122BE
:1010700080F84020242280F841200268136823F081
:10108000010313600268136823F4706343EA0121CB
:10109000116001680A6842F001020A60202180F8AC
:1010A0004110002180F84010084670470220704728
:1010B00070B5040004D094F84100002510B106E09A
:1010C000012070BD84F84050204600F04DF82420E7
:1010D00084F841002068016821F001010160606826
:1010E000216820F0706008612068816821F4004167
:1010F0008160E0680128A06807D040F404402168BE
:101100008860E068022803D006E040F40040F6E77B
:1011100021684FF40060486020684168114A11431B
:1011200041602068C16821F40041C160D4E9040134
:101130000843A16940EA01202168C860D4E9070199
:101140000843216808602068016841F001010160DE
:101150006564202084F84100256384F84250002013
:1011600070BD000000800002F0B597B00446142165
:1011700011A8FFF718F944216846FFF714F9204930
:101180002068884239D140200025009006956846A5
:1011900000F026F908B1FFF76CF91A4CE06C40F04A
:1011A0000100E064E06C00F001001690E06C40F09B
:1011B0000200E064E06C122600F0020016900427A2
:1011C0004FF40040CDE91265CDE91457119011A9F3
:1011D000B006FFF7E9FD8020CDE91265CDE914578F
:1011E000119011A90848FFF7DFFDA06D40F4001031
:1011F000A065A06D00F40010169017B0F0BD0000BF
:101200000054004000100240000400480248816879
:1012100042681144816070470000002010B500242E
:10122000032000F065F80F2000F008F808B1012451
:1012300001E000F025F8204610BD000070B50E4E0C
:1012400005460024706898B14FF47A71B1FBF0F054
:101250000A490968B1FBF0F000F0FEFD40B9102D1D
:1012600006D200222946501E00F022F8356000E028
:101270000124204670BD0000000000200C0000206A
:101280000A4882B0016E41F001010166016E01F071
:1012900001010091816D41F080518165806D00F008
:1012A0008050009002B000F093B80000001002409F
:1012B000F0B40E4B1B680C46C3F30223C3F10705C1
:1012C000042D00D90425191D072901D2002300E0AF
:1012D000DB1E012606FA05F1491E214099409E4079
:1012E000761E16403143F0BC01F040BE0CED00E02C
:1012F000064900F0070208684FF6FF03184040EA6D
:101300000220034A10430860704700000CED00E023
:101310000000FA052B492C4B0A6832214A432B491D
:1013200040B1B0F5007F086829D020F4C06040F4D7
:1013300080602CE00868C0F34120022804D051F8F6
:10134000800F20F4807022E0D1F8800020F48070BB
:10135000C1F88000086820F4C06040F400700860A4
:10136000B2FBF3F0401C00E0401E4A69520501D573
:101370000028F9D1486940050AD503207047C0F319
:101380004120022806D051F8800F40F48070086098
:1013900000207047D1F8800040F48070C1F88000D0
:1013A000086820F4C06040F400700860B2FBF3F0FD
:1013B000401C00E0401E4A695205DBD50028F9D1E7
:1013C000D8E700000C00002040420F0000700040F1
:1013D0000248816841F4804181607047007000409C
:1013E0002DE9F8430446006800269D4D00035ED5B4
:1013F000A86D0027C00008D4A86D40F08050A865F3
:10140000A86D012700F080500090DFF85892D9F8BD
:10141000001041F48071C9F80010FFF7EFFD80461D
:1014200006E000BFFFF7EAFDA0EB080002282BD87A
:10143000D9F80000C005F5D5D5F8900010F440703B
:1014400014D0216C814211D0D5F89000D5F89010BD
:1014500020F4407041F48031C5F89010D5F8901018
:1014600021F48031C5F89010C5F89000C00711D064
:10147000FFF7C4FD804641F2883907E0FFF7BEFD63
:10148000A0EB0801494501D903260BE0D5F89000EF
:101490008007F3D5D5F89000216C20F44070084304
:1014A000C5F890001FB1A86D20F08050A865207885
:1014B000C00707D0D5F88800616820F00300084312
:1014C000C5F888002078800707D5D5F88800A1687E
:1014D00020F00C000843C5F888002078400707D5A5
:1014E000D5F88800E16820F030000843C5F888008E
:1014F0002078000707D5D5F88800216920F0C000C2
:101500000843C5F888002078800607D5D5F88800FC
:10151000616920F440600843C5F8880020784006DF
:1015200007D5D5F88800A16920F440500843C5F8D4
:1015300088002078000607D5D5F88800E16920F4F6
:1015400040400843C5F888002088C00507D5D5F875
:101550008800216A20F440300843C5F888002088BC
:10156000800507D5D5F88800616A20F4402008433B
:10157000C5F88800208840050FD5D5F88800A16AF5
:1015800020F440100843C5F88800A06AB0F5801F19
:1015900003D1E86840F48010E860208800050FD58A
:1015A000D5F88800E16A20F440000843C5F88800B7
:1015B000E06AB0F5800F03D1E86840F48010E8607D
:1015C0002088C0040FD5D5F88800216B20F040702A
:1015D0000843C5F88800206BB0F1807F03D1E8682C
:1015E00040F48010E86020884FF0006180040ED540
:1015F000D5F88800626B20F040601043C5F8880081
:10160000606B884203D1E86840F48010E86020886D
:1016100040040ED5D5F88800A26B20F0406010433E
:10162000C5F88800A06B884203D1E86840F48010B8
:10163000E860208800040FD5D5F88800E16B20F021
:1016400040500843C5F88800E06BB0F1805F03D1DB
:10165000E86840F48030E8603046BDE8F883000078
:1016600000100240007000402DE9F0470E460500D2
:101670004FF0000725D0DFF8AC81D8F8000000F06B
:101680000F00B0420CD2D8F8001021F00F01314306
:10169000C8F80010D8F8000000F00F00B04210D1D8
:1016A0002968614CC80741F2883A5AD06868DFF867
:1016B0007C91032808D0022820682DD040050028FE
:1016C0002CDB0120BDE8F08720688001F9D5E068B7
:1016D00000F00302E068C0F30310401C032A19D095
:1016E000534A00BFB2FBF0F0E268C2F30622504357
:1016F000E268C2F34162521C5200B0FBF2F048456E
:1017000017D9A06810F0F00F0CD0880711D5A86881
:1017100040B10EE0474AE5E78003D0E700F0B6F8B5
:10172000484506D9A06820F0F00040F08000A06095
:101730008027A068696820F003000843A060FFF7D5
:101740005DFC814606E000BFFFF758FCA0EB0901F5
:1017500051453AD8A068696800F00C00B0EB810FE1
:10176000F2D12868810714D5400703D5A06840F45A
:10177000E060A0602878000705D5A06820F46050DC
:1017800040F4E060A060A068A96820F0F000084381
:1017900004E0802F03D1A06820F0F000A060D8F80A
:1017A0000010404601F00F01B14216D9016821F046
:1017B0000F0131430160FFF721FC074607E000BF3E
:1017C000FFF71CFCC11B514501D903207AE7D8F86B
:1017D000000000F00F00B042F2D12878400705D594
:1017E000A068E96820F4E0600843A060287800075A
:1017F00006D5A068296920F4605040EAC100A060C5
:1018000000F044F8A1680C4AC1F30311515C01F0E7
:101810001F01C8400949086009480068BDE8F04751
:10182000FFF70CBD002002400010024000B4C404C9
:101830000024F40040787D01123000080C000020E4
:10184000000000200548064900688968054AC1F380
:101850000221515C01F01F01C84070470C000020BC
:1018600000100240223000080548064900688968D7
:10187000054AC1F3C221515C01F01F01C840704705
:101880000C0000200010024022300008184910B55A
:101890008868C0F381021748012A0BD08A68164B6A
:1018A000C2F38102022A06D08A68C2F38102032AA7
:1018B00003D0002010BD184610BDCA6802F0030412
:1018C000CA68C2F30312521C032C02D0B0FBF2F020
:1018D00001E0B3FBF2F0CA68C968C2F306225043C4
:1018E000C1F34161491C4900B0FBF1F010BD00009B
:1018F000001002400024F40040787D012DE9F843F7
:1019000004007AD02078FA4DC00747D0A868E9686B
:1019100000F00C0001F003010C2802D0082817D0B9
:1019200001E0032914D06068B0F5803F17D0B0F50E
:10193000A02F286817D020F480302860286820F471
:10194000802028606068E0B1FFF758FB064614E08D
:101950002868800322D560680028D2D01EE028685D
:1019600040F48030EDE740F480202860F7E700BFC6
:10197000FFF744FB801B642870D828688003F7D5E4
:101980000CE0FFF73BFB064605E000BFFFF736FB28
:10199000801B6428F0D828688003F7D4207880075B
:1019A0004CD5A868E96800F00C0001F003010C2890
:1019B00002D004280DD001E002290AD0E0680028F6
:1019C00028682BD040F480702860FFF717FB06468C
:1019D00019E02868400502D5E068002891D06868C1
:1019E000217C20F0FE4040EA01606860C148006848
:1019F000FFF724FC002800D120E076E1FFF7FEFA93
:101A0000801B0228B8D828684005F7D56868217C73
:101A100020F0FE4040EA016068600FE020F4807032
:101A20002860FFF7EBFA064605E000BFFFF7E6FA8D
:101A3000801B0228A0D828684005F7D4207800072A
:101A400029D560690028D5F8940013D040F0010032
:101A5000C5F89400FFF7D2FA064606E090E000BF12
:101A6000FFF7CCFA801B022886D8D5F894008007AF
:101A7000F6D510E020F00100C5F89400FFF7BEFA9B
:101A8000064604E0FFF7BAFA801B022878D8D5F89A
:101A900094008007F6D42078400761D5A86D002611
:101AA000C00008D4A86D40F08050A865A86D01263C
:101AB00000F08050009090480168C90511D4016879
:101AC000804641F480710160FFF798FA074604E010
:101AD000FFF794FAC01B022852D8D8F80000C005BE
:101AE000F6D5A068012815D00528D5F8900016D0A5
:101AF00020F00100C5F89000D5F8900020F0040017
:101B0000C5F89000A06841F28838B8B1FFF776FABE
:101B100007460EE0D5F8900040F00100F0E740F0F5
:101B20000400C5F89000F5E7FFF768FAC11B4145CE
:101B300026D8D5F890008007F6D50CE0FFF75EFABE
:101B4000074604E0FFF75AFAC11B414518D8D5F8FB
:101B500090008007F6D41EB1A86D20F08050A865D3
:101B60002078800629D5A0690028D5F8980013D0E0
:101B700040F00100C5F89800FFF740FA064606E07D
:101B800077E000BFFFF73AFA801B022877D8D5F834
:101B900098008007F6D510E020F00100C5F8980005
:101BA000FFF72CFA064604E0FFF728FA801B02280C
:101BB00065D8D5F898008007F6D4E069F0B3A96835
:101BC000C1F38101032961D00228286820F08070C8
:101BD00028600BD0E86820F00300E860E868474917
:101BE0000840E860FFF70AFA04464BE0FFF706FA00
:101BF000064604E0FFF702FA801B02283FD8286857
:101C00008001F7D4F4E908016FF00F0202EB011133
:101C10000843218A5204490802EB4151A26841EA73
:101C200002210843217D4FF07E42490802EB4161C9
:101C30000843217B40EAC160E96800E062E0304A85
:101C400011400843E860286840F080702860E86828
:101C500040F08070E860FFF7D1F9044605E000BF6E
:101C6000FFF7CCF9001B022809D828688001F7D5B6
:101C700048E004E0FFF7C2F9001B022802D9032064
:101C8000BDE8F88328688001F4D43BE00128F7D050
:101C9000E868226A00F00301914226D1616A00F0EF
:101CA000F0020901103991421FD1A26A00F4FE41ED
:101CB000B1EB022F19D194F82C2000F07841B1EB50
:101CC000C26F12D1218E00F4C00249084905A1F566
:101CD0000011914209D194F8341000F0C060490815
:101CE0004906A1F1007181420CD00120C8E7000033
:101CF000001002400000002000700040FFFFEEFED8
:101D00000C809F010020BBE770B5040009D0606A19
:101D1000002540B125616561A56294F85D0040B180
:101D20000CE0012070BD6068B0F5827FF4D0E56101
:101D3000F2E784F85C50204600F05CF8022084F85A
:101D40005D002068016821F040010160E1684FF406
:101D5000E062914201D9002001E04FF48050B1F5DA
:101D6000706F02D0914200D0A562A188228901F44F
:101D7000827102F404421143227C02F002021143F8
:101D8000227D02F001021143228B02F40072114302
:101D9000227F02F03802114394F8202002F08002E2
:101DA0001143228D02F40052114322681160A1698F
:101DB000042202EA114194F8242000F4805002F039
:101DC0001002114394F8342002F008021143A28952
:101DD00002F4706211430143206841602068C169C8
:101DE00021F40061C1612566012084F85D000020B6
:101DF00070BD000010B586B0044614216846FEF799
:101E0000D2FA1249206888421ED11148816D41F4EE
:101E100080418165816D01F480410591C16C41F083
:101E20000201C164C06C694600F0020005904FF4E5
:101E30006040009002200190002002900390052055
:101E400004900448FEF7B0FF06B010BD0038004013
:101E5000001002400004004810B5401EB0F1807F21
:101E600001D3012010BD4FF0E02460610F21601705
:101E700001F07CF80020A06107202061002010BD47
:101E8000F0B590F83C20012A3AD0012580F83C506A
:101E9000022280F83D2003685A689C68194E1A4F48
:101EA000B34201D0BB4204D122F4700C4A6842EA2A
:101EB0000C02DFF858C002EA0C02D1F800C04CEA6C
:101EC000020CC3F804C00268B2420DD0B2F1804FD8
:101ED0000AD00F4B9A4207D00E4B9A4204D0BA4216
:101EE00002D00D4B9A4204D1896824F08003194333
:101EF000916080F83D50002180F83C100846F0BD0C
:101F00000220F0BD002C0140003401408FFFFFFD96
:101F100000040040000800400040014010B586B0B9
:101F2000044614216846FEF73EFA2068B0F1804F5F
:101F300016D10C48C16C41F00101C164C06C694606
:101F400000F0010005900720009002200190002081
:101F500002900390012004904FF09040FEF724FF80
:101F600006B010BD0010024070B5044690F83C0069
:101F700000260D4601280BD0012084F83C000C2AD5
:101F80004AD007DC82B1042A20D0082A06D131E0E9
:101F9000022070BD102A53D0142A63D001260020DD
:101FA00084F83C00304670BD206800F0F5FB2068E6
:101FB000816941F0080181612068816921F0040193
:101FC0008161206881692A69114311E0206800F06D
:101FD00031FC2068816941F4006181612068816978
:101FE00021F480618161206881692A6941EA0221C6
:101FF0008161D4E7206800F065FC2068C16941F088
:102000000801C1612068C16921F00401C161206833
:10201000C1692A69114311E0206800F09BFC206827
:10202000C16941F40061C1612068C16921F4806126
:10203000C1612068C1692A6941EA0221C161AEE734
:10204000206800F0CFFC2068016D41F008010165B7
:102050002068016D21F0040101652068016D2A6985
:10206000114311E0206800F0F5FC2068016D41F497
:10207000006101652068016D21F4806101652068BF
:10208000016D2A6941EA0221016588E710B5040063
:1020900003D094F83D0010B107E0012010BD0020EE
:1020A00084F83C00204600F023F8022084F83D002C
:1020B000211D206800F018FB012084F8480084F8F6
:1020C0003E0084F83F0084F8400084F8410084F822
:1020D000420084F8430084F8440084F8450084F802
:1020E000460084F8470084F83D00002010BD000041
:1020F00008B50068B0F1804F08D10548816D41F006
:1021000001018165806D00F00100009008BD0000B4
:102110000010024090F88010012918D0012180F8A9
:1021200080102421C0F8841050F8641B0A680B68E2
:1021300023F001030B6022F000510022026050F8EE
:10214000643C19602021016202771046704702202A
:10215000704770B5044690F8800001281DD001201A
:1021600084F880002420C4F8840020680568026890
:1021700022F0010202602068826822F060620A4355
:102180008260204600F09EFC206805602020C4F894
:102190008400002084F8800070BD022070BD70B5FE
:1021A000044690F8800001281DD0012084F88000AA
:1021B0002420C4F8840020680568026822F0010227
:1021C00002602068826822F060420A4382602046F2
:1021D00000F078FC206805602020C4F8840000200E
:1021E00084F8800070BD022070BD10B5040003D0DB
:1021F000D4F8840010B107E0012010BD002084F85D
:102200008000204600F026F82420C4F884002068CE
:10221000016821F001010160204600F009FD01285C
:10222000EBD0A06A10B1204600F06EFC2068416837
:1022300021F4904141602068816821F02A01816089
:102240002068016841F0010101602046BDE81040AE
:1022500000F0BEBC10B598B00446142111A8FEF7DA
:10226000A2F844216846FEF79EF817492068884284
:1022700028D101200024CDE900046846FFF7B0F81A
:1022800008B1FEF7F6F81148016E41F4804101668D
:10229000016E01F480411691C16C41F00101C164ED
:1022A000C06C11A900F0010016904FF4C0601190AD
:1022B0000220CDE912040720CDE914404FF09040F0
:1022C000FEF772FD18B010BD00380140001002404A
:1022D000FEE700EB8100006E00F0F8407047806878
:1022E000C0F3C00070478068C0F3800070470423CB
:1022F00003EAD15310B518444369C1F304510724CC
:102300008C40A3438A401343436110BD00EB81001E
:10231000016E21F0004111430166704730B589B06C
:1023200020216846FEF73FF819481849002401604B
:102330004FF44031C0E90114C46004250461C0E9D0
:102340000545047744770121016280F82440C46286
:10235000046380F83840C46380F84040FEF798FA80
:1023600008B1FEF786F80B4800900620CDE901047D
:102370007F200594CDE9030569460548FEF77CF802
:10238000002801D0FEF775F809B030BD00010050FB
:102390001000002000005247114810B50F4901609D
:1023A000002141608160C160017441748174012227
:1023B00002234261C0E90623C0E908328262C26298
:1023C000C0E90C218163C163FEF7AEFB002803D096
:1023D000BDE81040FEF74DB810BD0000006400409D
:1023E0007C0000202DE9F04786B014216846FDF7F7
:1023F000DAFF3148C16C41F00401C164C16C01F0E5
:1024000004010591C16C41F02001C164C16C01F06F
:1024100020010591C16C41F00101C164C16C01F062
:1024200001010591C16C41F00201C164C06CDFF88B
:102430008C8000F002004FF40054059000222146E9
:102440004046FEF7D5FD4FF484764FF090490022C8
:1024500031464846FEF7CCFDDFF864A041F278270C
:10246000002239465046FEF7C3FD0125CDE900455F
:1024700000240294694640460394FEF795FC4FF40D
:1024800040408DE8310069464046FEF78DFCCDE9BD
:1024900000650226CDE9024669464846FEF784FCFF
:1024A00000970396CDE9015469465046FEF77CFC3F
:1024B00006B0BDE8F08700000010024000080048A8
:1024C00000040048134810B51149016012494160E9
:1024D00000210122C0E90212016141618161C161F3
:1024E0000162FEF7E5FD08B1FDF7C3FF00210948D1
:1024F000FEF78AFD08B1FDF7BCFF00210548FEF795
:10250000AEFD002803D0BDE81040FDF7B2BF10BDFE
:1025100000540040E0000020FFEDC020124810B53C
:10252000104901604FF48271416000214FF4407204
:10253000C0E902124FF400720161C0E905121822CD
:10254000C0E9072107224162C0E90A12016308219C
:102550004163FFF7D9FB002803D0BDE81040FDF729
:1025600088BF10BD003800402C01002010B58AB093
:102570000024079408941C2168460994FDF713FF72
:102580001D484FF0804101609521C0E9011440F2DF
:10259000E731C0E903148461FFF778FD08B1FDF766
:1025A00068FF079407A914480994FFF769FC08B16C
:1025B000FDF75FFF6020CDE9000402940022694628
:1025C0000D480494FFF7D0FC08B1FDF752FF042238
:1025D00069460948FFF7C8FC08B1FDF74AFF082221
:1025E00069460548FFF7C0FC08B1FDF742FF024805
:1025F000FFF794FC0AB010BD90010020184810B5F8
:10260000164901604FF4E1314160002181600C22E4
:10261000C160C0E904128161C161016241628162ED
:10262000FFF7E3FD08B1FDF724FF00210C48FFF799
:10263000B6FD08B1FDF71DFF00210948FFF789FD30
:1026400008B1FDF716FF0648FFF764FD002803D028
:10265000BDE81040FDF70DBF10BD0000003801407F
:10266000DC010020FEE7FEE770477047FEF7CEBDB5
:1026700010B594B038216846FDF795FE14210EA8D8
:10268000FDF791FE4FF40070FEF744FE012000902C
:102690000004019002200324CDE907041821CDE9AC
:1026A00009010B900C900D906846FFF727F908B1CF
:1026B00072B6FEE70F20CDE90E04002010901190B5
:1026C000129004210EA8FEF7CFFF002801D072B6A9
:1026D000FEE714B010BD00000248016841F470012B
:1026E0000160704788ED00E02DE9F0430268234B5C
:1026F000234D244E244C4FF08049984207D0484542
:1027000005D0A84203D0B04201D0A04203D122F0AC
:1027100070074A683A431D4FDFF874C0DFF87480D1
:1027200098420DD048450BD0A84209D0B04207D0FE
:10273000A04205D0B84203D0604501D0404503D146
:1027400022F44075CA682A434D6922F080022A4368
:1027500002608A68C2620A688262984207D0A04218
:1027600005D0B84203D0604501D0404501D1096988
:10277000016301214161BDE8F0830000002C0140AC
:1027800000040040000800400034014000400140C7
:1027900000440140004801402DE9F043026A22F064
:1027A00001020262056A436882691C4C25F0020539
:1027B00022400C6822F0030214438A68194E2A430F
:1027C000174D194FDFF864C0DFF86490A84207D0B6
:1027D000B04205D0B84203D0604501D0484506D18B
:1027E00022F00808CA6842EA080222F00402A8425D
:1027F00007D0B04205D0B84203D0604501D048456B
:1028000005D14D6923F440731D438B692B4343600D
:102810008461496841630262BDE8F0838FFFFEFF77
:10282000002C0140003401400040014000440140C0
:1028300000480140F0B5026A22F010020262056A07
:1028400042688369194C1B4E23400C6823F4407383
:1028500043EA042425F020038D6843EA0513144D50
:10286000A84201D0B04206D1CF6823F0800343EAEA
:10287000071323F04003A8420AD0B04208D00E4DFF
:10288000A84205D00D4DA84202D00D4DA84207D157
:102890004D6922F4406242EA85028D6942EA85026E
:1028A00042608461496881630362F0BDFF8FFFFE6F
:1028B000002C014000340140004001400044014030
:1028C00000480140F0B5026A22F480720262056A93
:1028D0004368C269194C1B4E22400C6822F0030267
:1028E000144325F400728D6842EA0522144DA84273
:1028F00001D0B04206D1CF6822F4006242EA07223A
:1029000022F48062A8420AD0B04208D00E4DA842FC
:1029100005D00E4DA84202D00D4DA84207D14D69F9
:1029200023F4405343EA05138D6943EA05134360DA
:10293000C4614968C1630262F0BD00008FFFFEFF01
:10294000002C01400034014000400140004401409F
:1029500000480140F0B5026A22F480520262056A22
:102960004268C369194C1B4E23400C6823F4407322
:1029700043EA042425F400538D6843EA0533144DDB
:10298000A84201D0B04206D1CF6823F4004343EA05
:10299000073323F48043A8420AD0B04208D00E4D3A
:1029A000A84205D00D4DA84202D00D4DA84207D136
:1029B0004D6922F4404242EA85128D6942EA85124D
:1029C0004260C461496801640362F0BDFF8FFFFE8D
:1029D000002C01400034014000400140004401400F
:1029E0000048014030B5026A22F480320262046A73
:1029F0004268036D114D2B400D681D4324F40033D4
:102A00000C8943EA04430E4CA0420BD00D4CA0426B
:102A100008D00D4CA04205D00C4CA04202D00C4C6A
:102A2000A04204D14C6922F4803242EA042242607E
:102A3000056549688164036230BD00008FFFFEFFB9
:102A4000002C01400034014000400140004401409E
:102A50000048014030B5026A22F480120262046A22
:102A60004268036D114D24F400142B400D6843EAB5
:102A700005230D8944EA05540D4DA8420BD00D4D98
:102A8000A84208D00C4DA84205D00C4DA84202D057
:102A90000B4DA84204D14D6922F4802242EA8522DE
:102AA000426003654968C164046230BDFF8FFFFE68
:102AB000002C01400034014000400140004401402E
:102AC0000048014030B5416EB9B102689168926822
:102AD000C1F342610B4B520F9C5CE50003F108040B
:102AE000A25CB5FBF2F2A0F86A205A5C615CD200ED
:102AF000B2FBF1F1A0F8681030BD0121A0F86A1016
:102B0000F8E700000230000890F82810C90706D046
:102B100001684A68C36A22F400321A434A6090F896
:102B20002810890706D501684A68036B22F48032B1
:102B30001A434A6090F82810490706D501684A6888
:102B4000436B22F480221A434A6090F82810090748
:102B500006D501684A68836B22F400421A434A6032
:102B600090F82810C90606D501688A68C36B22F45C
:102B700080521A438A6090F82810890606D50168A9
:102B80008A68036C22F400521A438A6090F8281075
:102B9000490611D501684A68436C22F480121A4331
:102BA0004A60416CB1F5801F06D101684A68836CA8
:102BB00022F4C0021A434A6090F82810090606D58C
:102BC00001684A68C06C22F4002202434A607047E0
:102BD000F8B500260446C0F88C60FEF70FFA0546EB
:102BE000206800686FF07E47000708D52B4600225A
:102BF0004FF400112046009700F054F960B92068A6
:102C0000006840070AD52B4600224FF48001204679
:102C1000009700F047F908B10320F8BD2020C4F860
:102C20008400C4F8880044F86C6F00202675F8BD55
:102C30002DE9F0410446016880682269E369104388
:102C4000626900251A431043DFF82CC20A688B4BD7
:102C50001A4002430A6020684168E26821F440514A
:102C6000114341602168A069614501D0226A104387
:102C70008A68834B1A4002438A602068C16A626A8C
:102C800021F00F011143C1627E4923687E488B42C7
:102C90000DD1D0F8880010F0030006D0012855D0DF
:102CA000022842D003283FD152E001203DE077497D
:102CB0008B420BD1D0F8880010F00C0035D00428DE
:102CC00033D0082840D00C282ED141E070498B42E7
:102CD0000BD1D0F8880010F0300026D0102835D065
:102CE000202831D030281FD132E06A498B420BD1E5
:102CF000D0F8880010F0C00017D0402826D08028D7
:102D000022D0C02810D123E063450DD1D0F888002F
:102D100010F4406009D0B0F5806F17D0B0F5006FA7
:102D200012D0B0F5406F13D010205B495B4F0026E6
:102D30004FF4004263453BD160B1022813D0042810
:102D40000BD0082872D10DE00220EEE70420ECE75A
:102D50000820EAE7FEF776FD01E0FEF797FD0100A7
:102D600001D17CE01146606A37F810206768B1FB3A
:102D7000F2F007EB4703834270D8B0EB073F6DD802
:102D8000002308461946FDF797FA090241EA106147
:102D900002027808101871413A460023FDF78CFAB8
:102DA0003F4AA0F54071914258D82168C86056E06A
:102DB000E3694FF6EF7893422CD109284ED2DFE831
:102DC00000F00508114D0D4D4D4D1000FEF73AFD78
:102DD00001E0FEF749FD010004D140E0FEF756FD99
:102DE000F9E71146606A37F81000B1FBF0F04100D6
:102DF000606801EB5001B1FBF0F0A0F1100141451A
:102E00002CD84FF6F0710140C0F342000143206816
:102E1000C16024E0092821D2DFE800F00509122072
:102E20000E2020201100FEF70DFD02E016E0FEF757
:102E30001BFD010004D112E0FEF728FDF9E7114661
:102E4000606A37F81000B1FBF0F1606801EB5001E7
:102E5000B1FBF0F0A0F1100141450AD90125012094
:102E6000A4F86A0024F8680F2846A660E660BDE86A
:102E7000F08180B299E7000000800040F369FFCF45
:102E8000FFF4FF11003801400010024000440040F0
:102E900000480040004C00400024F400EA2F0008E5
:102EA000FFFC0F002DE9F0479A4617460E460446F0
:102EB0004FF000094FF02008089D4AE0681C48D0F8
:102EC000FEF79CF8A0EB0A00A8422AD84DB3206870
:102ED000016849073DD5C069C043000539D4216860
:102EE0004FF400600862206850E8001F21F4D071A0
:102EF00040E80012002AF6D12068083050E8001F90
:102F000021F0010140E80012002AF5D144F8848F35
:102F1000C4F80480C4F8088004F8049C0320BDE8C9
:102F2000F087216851E8000F20F4D07041E80002DA
:102F3000002AF6D12068083050E8001F21F0010176
:102F400040E80012002AF5D144F8848FC4F80480C8
:102F5000E2E72068C06936EA000004D00020B842E9
:102F6000ACD00020DBE70120F9E7FEE70907090EF6
:102F7000002804DB00F1E02080F80014704700F026
:102F80000F0000F1E02080F8141D7047FEF746F9AD
:102F9000FFF76EFBFFF726FAFFF7C0F9FFF7FCF922
:102FA000FFF790FAFFF7BAFAFFF7E0FAFFF726FB10
:102FB0000A4C4FF400564FF4FA7501223146204670
:102FC000FEF716F82846FDF79DFD00223146204603
:102FD000FEF70EF82846FDF795FDEEE700080048DD
:102FE0004FF04070E1EE100A70470100020004004B
:102FF000060008000A000C001000200040008000BD
:103000000001010101030701000008040204080196
:103010000101000000000000000001020304060797
:103020000809000000000102030400004C30000801
:103030000000002010000000140200085C300008AE
:1030400010000020C008000030020008100000003E
:0C30500001000000000000000024F4005B
:04000005080001D915
:00000001FF
