Component: ARM Compiler 5.06 update 7 (build 960) Tool: armlink [4d3601]

==============================================================================

Section Cross References

    startup_stm32g431xx.o(RESET) refers to startup_stm32g431xx.o(STACK) for __initial_sp
    startup_stm32g431xx.o(RESET) refers to startup_stm32g431xx.o(.text) for Reset_Handler
    startup_stm32g431xx.o(RESET) refers to stm32g4xx_it.o(i.NMI_Handler) for NMI_Handler
    startup_stm32g431xx.o(RESET) refers to stm32g4xx_it.o(i.HardFault_Handler) for HardFault_Handler
    startup_stm32g431xx.o(RESET) refers to stm32g4xx_it.o(i.MemManage_Handler) for MemManage_Handler
    startup_stm32g431xx.o(RESET) refers to stm32g4xx_it.o(i.BusFault_Handler) for BusFault_Handler
    startup_stm32g431xx.o(RESET) refers to stm32g4xx_it.o(i.UsageFault_Handler) for UsageFault_Handler
    startup_stm32g431xx.o(RESET) refers to stm32g4xx_it.o(i.SVC_Handler) for SVC_Handler
    startup_stm32g431xx.o(RESET) refers to stm32g4xx_it.o(i.DebugMon_Handler) for DebugMon_Handler
    startup_stm32g431xx.o(RESET) refers to stm32g4xx_it.o(i.PendSV_Handler) for PendSV_Handler
    startup_stm32g431xx.o(RESET) refers to stm32g4xx_it.o(i.SysTick_Handler) for SysTick_Handler
    startup_stm32g431xx.o(RESET) refers to stm32g4xx_it.o(i.DMA1_Channel1_IRQHandler) for DMA1_Channel1_IRQHandler
    startup_stm32g431xx.o(RESET) refers to stm32g4xx_it.o(i.TIM1_BRK_TIM15_IRQHandler) for TIM1_BRK_TIM15_IRQHandler
    startup_stm32g431xx.o(RESET) refers to stm32g4xx_it.o(i.TIM3_IRQHandler) for TIM3_IRQHandler
    startup_stm32g431xx.o(RESET) refers to stm32g4xx_it.o(i.USART1_IRQHandler) for USART1_IRQHandler
    startup_stm32g431xx.o(.text) refers to system_stm32g4xx.o(i.SystemInit) for SystemInit
    startup_stm32g431xx.o(.text) refers to entry.o(.ARM.Collect$$$$00000000) for __main
    main.o(i.SystemClock_Config) refers to memseta.o(.text) for __aeabi_memclr4
==============================================================================

Removing Unused input sections from the image.

    Removing startup_stm32g431xx.o(HEAP), (512 bytes).
    Removing main.o(.rev16_text), (4 bytes).
    Removing main.o(.revsh_text), (4 bytes).
    Removing main.o(.rrx_text), (6 bytes).
    Removing gpio.o(.rev16_text), (4 bytes).
    Removing gpio.o(.revsh_text), (4 bytes).
    Removing gpio.o(.rrx_text), (6 bytes).
    Removing adc.o(.rev16_text), (4 bytes).
    Removing adc.o(.revsh_text), (4 bytes).
    Removing adc.o(.rrx_text), (6 bytes).
    Removing adc.o(i.HAL_ADC_MspDeInit), (52 bytes).
    Removing dma.o(.rev16_text), (4 bytes).
    Removing dma.o(.revsh_text), (4 bytes).
    Removing dma.o(.rrx_text), (6 bytes).
    Removing fdcan.o(.rev16_text), (4 bytes).
    Removing fdcan.o(.revsh_text), (4 bytes).
    Removing fdcan.o(.rrx_text), (6 bytes).
    Removing fdcan.o(i.HAL_FDCAN_MspDeInit), (40 bytes).
==============================================================================

Image Symbol Table

    Local Symbols

    Symbol Name                              Value     Ov Type        Size  Object(Section)

    ../Core/Src/adc.c                        0x00000000   Number         0  adc.o ABSOLUTE
    ../Core/Src/dma.c                        0x00000000   Number         0  dma.o ABSOLUTE
    ../Core/Src/fdcan.c                      0x00000000   Number         0  fdcan.o ABSOLUTE
    ../Core/Src/gpio.c                       0x00000000   Number         0  gpio.o ABSOLUTE
    ../Core/Src/i2c.c                        0x00000000   Number         0  i2c.o ABSOLUTE
    ../Core/Src/main.c                       0x00000000   Number         0  main.o ABSOLUTE
    ../Core/Src/spi.c                        0x00000000   Number         0  spi.o ABSOLUTE
    ../Core/Src/stm32g4xx_hal_msp.c          0x00000000   Number         0  stm32g4xx_hal_msp.o ABSOLUTE
    ../Core/Src/stm32g4xx_it.c               0x00000000   Number         0  stm32g4xx_it.o ABSOLUTE
    ../Core/Src/system_stm32g4xx.c           0x00000000   Number         0  system_stm32g4xx.o ABSOLUTE
    ../Core/Src/tim.c                        0x00000000   Number         0  tim.o ABSOLUTE
    ../Core/Src/usart.c                      0x00000000   Number         0  usart.o ABSOLUTE
    ../Drivers/STM32G4xx_HAL_Driver/Src/stm32g4xx_hal.c 0x00000000   Number         0  stm32g4xx_hal.o ABSOLUTE
    ../Drivers/STM32G4xx_HAL_Driver/Src/stm32g4xx_hal_adc.c 0x00000000   Number         0  stm32g4xx_hal_adc.o ABSOLUTE
    ../Drivers/STM32G4xx_HAL_Driver/Src/stm32g4xx_hal_adc_ex.c 0x00000000   Number         0  stm32g4xx_hal_adc_ex.o ABSOLUTE
    ../Drivers/STM32G4xx_HAL_Driver/Src/stm32g4xx_hal_cortex.c 0x00000000   Number         0  stm32g4xx_hal_cortex.o ABSOLUTE
    ../Drivers/STM32G4xx_HAL_Driver/Src/stm32g4xx_hal_dma.c 0x00000000   Number         0  stm32g4xx_hal_dma.o ABSOLUTE
    ../Drivers/STM32G4xx_HAL_Driver/Src/stm32g4xx_hal_dma_ex.c 0x00000000   Number         0  stm32g4xx_hal_dma_ex.o ABSOLUTE
    ../Drivers/STM32G4xx_HAL_Driver/Src/stm32g4xx_hal_exti.c 0x00000000   Number         0  stm32g4xx_hal_exti.o ABSOLUTE
    ../Drivers/STM32G4xx_HAL_Driver/Src/stm32g4xx_hal_fdcan.c 0x00000000   Number         0  stm32g4xx_hal_fdcan.o ABSOLUTE
    ../Drivers/STM32G4xx_HAL_Driver/Src/stm32g4xx_hal_flash.c 0x00000000   Number         0  stm32g4xx_hal_flash.o ABSOLUTE
    ../Drivers/STM32G4xx_HAL_Driver/Src/stm32g4xx_hal_flash_ex.c 0x00000000   Number         0  stm32g4xx_hal_flash_ex.o ABSOLUTE
    ../Drivers/STM32G4xx_HAL_Driver/Src/stm32g4xx_hal_flash_ramfunc.c 0x00000000   Number         0  stm32g4xx_hal_flash_ramfunc.o ABSOLUTE
    ../Drivers/STM32G4xx_HAL_Driver/Src/stm32g4xx_hal_gpio.c 0x00000000   Number         0  stm32g4xx_hal_gpio.o ABSOLUTE
    ../Drivers/STM32G4xx_HAL_Driver/Src/stm32g4xx_hal_i2c.c 0x00000000   Number         0  stm32g4xx_hal_i2c.o ABSOLUTE
    ../Drivers/STM32G4xx_HAL_Driver/Src/stm32g4xx_hal_i2c_ex.c 0x00000000   Number         0  stm32g4xx_hal_i2c_ex.o ABSOLUTE
    ../Drivers/STM32G4xx_HAL_Driver/Src/stm32g4xx_hal_pwr.c 0x00000000   Number         0  stm32g4xx_hal_pwr.o ABSOLUTE
    ../Drivers/STM32G4xx_HAL_Driver/Src/stm32g4xx_hal_pwr_ex.c 0x00000000   Number         0  stm32g4xx_hal_pwr_ex.o ABSOLUTE
    ../Drivers/STM32G4xx_HAL_Driver/Src/stm32g4xx_hal_rcc.c 0x00000000   Number         0  stm32g4xx_hal_rcc.o ABSOLUTE
    ../Drivers/STM32G4xx_HAL_Driver/Src/stm32g4xx_hal_rcc_ex.c 0x00000000   Number         0  stm32g4xx_hal_rcc_ex.o ABSOLUTE
    ../Drivers/STM32G4xx_HAL_Driver/Src/stm32g4xx_hal_spi.c 0x00000000   Number         0  stm32g4xx_hal_spi.o ABSOLUTE
    ../Drivers/STM32G4xx_HAL_Driver/Src/stm32g4xx_hal_spi_ex.c 0x00000000   Number         0  stm32g4xx_hal_spi_ex.o ABSOLUTE
    ../Drivers/STM32G4xx_HAL_Driver/Src/stm32g4xx_hal_tim.c 0x00000000   Number         0  stm32g4xx_hal_tim.o ABSOLUTE
    ../Drivers/STM32G4xx_HAL_Driver/Src/stm32g4xx_hal_tim_ex.c 0x00000000   Number         0  stm32g4xx_hal_tim_ex.o ABSOLUTE
    ../Drivers/STM32G4xx_HAL_Driver/Src/stm32g4xx_hal_uart.c 0x00000000   Number         0  stm32g4xx_hal_uart.o ABSOLUTE
    ../Drivers/STM32G4xx_HAL_Driver/Src/stm32g4xx_hal_uart_ex.c 0x00000000   Number         0  stm32g4xx_hal_uart_ex.o ABSOLUTE
    ../Drivers/STM32G4xx_HAL_Driver/Src/stm32g4xx_ll_adc.c 0x00000000   Number         0  stm32g4xx_ll_adc.o ABSOLUTE
    ../clib/microlib/division.c              0x00000000   Number         0  uidiv.o ABSOLUTE
    ../clib/microlib/division.c              0x00000000   Number         0  uldiv.o ABSOLUTE
    ../clib/microlib/errno.c                 0x00000000   Number         0  errno.o ABSOLUTE
    ../clib/microlib/init/entry.s            0x00000000   Number         0  entry11a.o ABSOLUTE
    ../clib/microlib/init/entry.s            0x00000000   Number         0  entry10b.o ABSOLUTE
    ../clib/microlib/init/entry.s            0x00000000   Number         0  entry12b.o ABSOLUTE
    ../clib/microlib/init/entry.s            0x00000000   Number         0  entry2.o ABSOLUTE
    ../clib/microlib/init/entry.s            0x00000000   Number         0  entry12a.o ABSOLUTE
    ../clib/microlib/init/entry.s            0x00000000   Number         0  entry10a.o ABSOLUTE
    ../clib/microlib/init/entry.s            0x00000000   Number         0  entry9a.o ABSOLUTE
    ../clib/microlib/init/entry.s            0x00000000   Number         0  entry5.o ABSOLUTE
    ../clib/microlib/init/entry.s            0x00000000   Number         0  entry9b.o ABSOLUTE
    ../clib/microlib/init/entry.s            0x00000000   Number         0  entry8b.o ABSOLUTE
    ../clib/microlib/init/entry.s            0x00000000   Number         0  entry8a.o ABSOLUTE
    ../clib/microlib/init/entry.s            0x00000000   Number         0  entry11b.o ABSOLUTE
    ../clib/microlib/init/entry.s            0x00000000   Number         0  entry7b.o ABSOLUTE
    ../clib/microlib/init/entry.s            0x00000000   Number         0  entry7a.o ABSOLUTE
    ../clib/microlib/init/entry.s            0x00000000   Number         0  entry.o ABSOLUTE
    ../clib/microlib/longlong.c              0x00000000   Number         0  llsshr.o ABSOLUTE
    ../clib/microlib/longlong.c              0x00000000   Number         0  llshl.o ABSOLUTE
    ../clib/microlib/longlong.c              0x00000000   Number         0  llushr.o ABSOLUTE
    ../clib/microlib/printf/printf.c         0x00000000   Number         0  printf6.o ABSOLUTE
    ../clib/microlib/printf/printf.c         0x00000000   Number         0  printf7.o ABSOLUTE
    ../clib/microlib/printf/printf.c         0x00000000   Number         0  printf8.o ABSOLUTE
    ../clib/microlib/printf/printf.c         0x00000000   Number         0  printfa.o ABSOLUTE
    ../clib/microlib/printf/printf.c         0x00000000   Number         0  printf5.o ABSOLUTE
    ../clib/microlib/printf/printf.c         0x00000000   Number         0  printfb.o ABSOLUTE
    ../clib/microlib/printf/printf.c         0x00000000   Number         0  printf0.o ABSOLUTE
    ../clib/microlib/printf/printf.c         0x00000000   Number         0  printf1.o ABSOLUTE
    ../clib/microlib/printf/printf.c         0x00000000   Number         0  printf2.o ABSOLUTE
    ../clib/microlib/printf/printf.c         0x00000000   Number         0  printf3.o ABSOLUTE
    ../clib/microlib/printf/printf.c         0x00000000   Number         0  printf4.o ABSOLUTE
    ../clib/microlib/printf/stubs.s          0x00000000   Number         0  stubs.o ABSOLUTE
    ../clib/microlib/stdio/streams.c         0x00000000   Number         0  stdout.o ABSOLUTE
    ../clib/microlib/string/memset.c         0x00000000   Number         0  memseta.o ABSOLUTE
    ../clib/microlib/stubs.s                 0x00000000   Number         0  iusefp.o ABSOLUTE
    ../fplib/microlib/d2f.c                  0x00000000   Number         0  d2f.o ABSOLUTE
    ../fplib/microlib/f2d.c                  0x00000000   Number         0  f2d.o ABSOLUTE
    ../fplib/microlib/fpadd.c                0x00000000   Number         0  dadd.o ABSOLUTE
    ../fplib/microlib/fpdiv.c                0x00000000   Number         0  ddiv.o ABSOLUTE
    ../fplib/microlib/fpepilogue.c           0x00000000   Number         0  depilogue.o ABSOLUTE
    ../fplib/microlib/fpepilogue.c           0x00000000   Number         0  fepilogue.o ABSOLUTE
    ../fplib/microlib/fpfix.c                0x00000000   Number         0  dfixul.o ABSOLUTE
    ../fplib/microlib/fpfix.c                0x00000000   Number         0  dfixi.o ABSOLUTE
    ../fplib/microlib/fpflt.c                0x00000000   Number         0  dflti.o ABSOLUTE
    ../fplib/microlib/fpmul.c                0x00000000   Number         0  dmul.o ABSOLUTE
    ../fplib/microlib/fpneg.c                0x00000000   Number         0  dneg.o ABSOLUTE
    ../fplib/microlib/fprem.c                0x00000000   Number         0  drem.o ABSOLUTE
    ../mathlib/atan.c                        0x00000000   Number         0  atan.o ABSOLUTE
    ../mathlib/atan.c                        0x00000000   Number         0  atan_x.o ABSOLUTE
    ../mathlib/atan2.c                       0x00000000   Number         0  atan2_x.o ABSOLUTE
    ../mathlib/atan2.c                       0x00000000   Number         0  atan2.o ABSOLUTE
    ../mathlib/dunder.c                      0x00000000   Number         0  dunder.o ABSOLUTE
    ../mathlib/fabs.c                        0x00000000   Number         0  fabs.o ABSOLUTE
    ../mathlib/floor.c                       0x00000000   Number         0  floor.o ABSOLUTE
    ../mathlib/fmod.c                        0x00000000   Number         0  fmod_x.o ABSOLUTE
    ../mathlib/fmod.c                        0x00000000   Number         0  fmod.o ABSOLUTE
    ../mathlib/fpclassify.c                  0x00000000   Number         0  fpclassify.o ABSOLUTE
    ../mathlib/poly.c                        0x00000000   Number         0  poly.o ABSOLUTE
    ../mathlib/qnan.c                        0x00000000   Number         0  qnan.o ABSOLUTE
    ..\Core\Src\adc.c                        0x00000000   Number         0  adc.o ABSOLUTE
    ..\Core\Src\dma.c                        0x00000000   Number         0  dma.o ABSOLUTE
    ..\Core\Src\fdcan.c                      0x00000000   Number         0  fdcan.o ABSOLUTE
    ..\Core\Src\gpio.c                       0x00000000   Number         0  gpio.o ABSOLUTE
    ..\Core\Src\i2c.c                        0x00000000   Number         0  i2c.o ABSOLUTE
    ..\Core\Src\main.c                       0x00000000   Number         0  main.o ABSOLUTE
    ..\Core\Src\spi.c                        0x00000000   Number         0  spi.o ABSOLUTE
    ..\Core\Src\stm32g4xx_hal_msp.c          0x00000000   Number         0  stm32g4xx_hal_msp.o ABSOLUTE
    ..\Core\Src\stm32g4xx_it.c               0x00000000   Number         0  stm32g4xx_it.o ABSOLUTE
    ..\Core\Src\system_stm32g4xx.c           0x00000000   Number         0  system_stm32g4xx.o ABSOLUTE
    ..\Core\Src\tim.c                        0x00000000   Number         0  tim.o ABSOLUTE
    ..\Core\Src\usart.c                      0x00000000   Number         0  usart.o ABSOLUTE
    ..\Del\Del_ADC.c                         0x00000000   Number         0  del_adc.o ABSOLUTE
    ..\Del\Del_AS5600.c                      0x00000000   Number         0  del_as5600.o ABSOLUTE
    ..\Del\Del_Driver.c                      0x00000000   Number         0  del_driver.o ABSOLUTE
    ..\Del\Del_Hal.c                         0x00000000   Number         0  del_hal.o ABSOLUTE
    ..\Del\Del_Key.c                         0x00000000   Number         0  del_key.o ABSOLUTE
    ..\Del\Del_Led.c                         0x00000000   Number         0  del_led.o ABSOLUTE
    ..\Del\Del_Port.c                        0x00000000   Number         0  del_port.o ABSOLUTE
    ..\Del\Del_Uart.c                        0x00000000   Number         0  del_uart.o ABSOLUTE
    ..\Del\Lcd.c                             0x00000000   Number         0  lcd.o ABSOLUTE
    ..\Del\Lcd_Init.c                        0x00000000   Number         0  lcd_init.o ABSOLUTE
    ..\Drivers\STM32G4xx_HAL_Driver\Src\stm32g4xx_hal.c 0x00000000   Number         0  stm32g4xx_hal.o ABSOLUTE
    ..\Drivers\STM32G4xx_HAL_Driver\Src\stm32g4xx_hal_adc.c 0x00000000   Number         0  stm32g4xx_hal_adc.o ABSOLUTE
    ..\Drivers\STM32G4xx_HAL_Driver\Src\stm32g4xx_hal_adc_ex.c 0x00000000   Number         0  stm32g4xx_hal_adc_ex.o ABSOLUTE
    ..\Drivers\STM32G4xx_HAL_Driver\Src\stm32g4xx_hal_cortex.c 0x00000000   Number         0  stm32g4xx_hal_cortex.o ABSOLUTE
    ..\Drivers\STM32G4xx_HAL_Driver\Src\stm32g4xx_hal_dma.c 0x00000000   Number         0  stm32g4xx_hal_dma.o ABSOLUTE
    ..\Drivers\STM32G4xx_HAL_Driver\Src\stm32g4xx_hal_dma_ex.c 0x00000000   Number         0  stm32g4xx_hal_dma_ex.o ABSOLUTE
    ..\Drivers\STM32G4xx_HAL_Driver\Src\stm32g4xx_hal_exti.c 0x00000000   Number         0  stm32g4xx_hal_exti.o ABSOLUTE
    ..\Drivers\STM32G4xx_HAL_Driver\Src\stm32g4xx_hal_fdcan.c 0x00000000   Number         0  stm32g4xx_hal_fdcan.o ABSOLUTE
    ..\Drivers\STM32G4xx_HAL_Driver\Src\stm32g4xx_hal_flash.c 0x00000000   Number         0  stm32g4xx_hal_flash.o ABSOLUTE
    ..\Drivers\STM32G4xx_HAL_Driver\Src\stm32g4xx_hal_flash_ex.c 0x00000000   Number         0  stm32g4xx_hal_flash_ex.o ABSOLUTE
    ..\Drivers\STM32G4xx_HAL_Driver\Src\stm32g4xx_hal_flash_ramfunc.c 0x00000000   Number         0  stm32g4xx_hal_flash_ramfunc.o ABSOLUTE
    ..\Drivers\STM32G4xx_HAL_Driver\Src\stm32g4xx_hal_gpio.c 0x00000000   Number         0  stm32g4xx_hal_gpio.o ABSOLUTE
    ..\Drivers\STM32G4xx_HAL_Driver\Src\stm32g4xx_hal_i2c.c 0x00000000   Number         0  stm32g4xx_hal_i2c.o ABSOLUTE
    ..\Drivers\STM32G4xx_HAL_Driver\Src\stm32g4xx_hal_i2c_ex.c 0x00000000   Number         0  stm32g4xx_hal_i2c_ex.o ABSOLUTE
    ..\Drivers\STM32G4xx_HAL_Driver\Src\stm32g4xx_hal_pwr.c 0x00000000   Number         0  stm32g4xx_hal_pwr.o ABSOLUTE
    ..\Drivers\STM32G4xx_HAL_Driver\Src\stm32g4xx_hal_pwr_ex.c 0x00000000   Number         0  stm32g4xx_hal_pwr_ex.o ABSOLUTE
    ..\Drivers\STM32G4xx_HAL_Driver\Src\stm32g4xx_hal_rcc.c 0x00000000   Number         0  stm32g4xx_hal_rcc.o ABSOLUTE
    ..\Drivers\STM32G4xx_HAL_Driver\Src\stm32g4xx_hal_rcc_ex.c 0x00000000   Number         0  stm32g4xx_hal_rcc_ex.o ABSOLUTE
    ..\Drivers\STM32G4xx_HAL_Driver\Src\stm32g4xx_hal_spi.c 0x00000000   Number         0  stm32g4xx_hal_spi.o ABSOLUTE
    ..\Drivers\STM32G4xx_HAL_Driver\Src\stm32g4xx_hal_spi_ex.c 0x00000000   Number         0  stm32g4xx_hal_spi_ex.o ABSOLUTE
    ..\Drivers\STM32G4xx_HAL_Driver\Src\stm32g4xx_hal_tim.c 0x00000000   Number         0  stm32g4xx_hal_tim.o ABSOLUTE
    ..\Drivers\STM32G4xx_HAL_Driver\Src\stm32g4xx_hal_tim_ex.c 0x00000000   Number         0  stm32g4xx_hal_tim_ex.o ABSOLUTE
    ..\Drivers\STM32G4xx_HAL_Driver\Src\stm32g4xx_hal_uart.c 0x00000000   Number         0  stm32g4xx_hal_uart.o ABSOLUTE
    ..\Drivers\STM32G4xx_HAL_Driver\Src\stm32g4xx_hal_uart_ex.c 0x00000000   Number         0  stm32g4xx_hal_uart_ex.o ABSOLUTE
    ..\SimpleFOC\BLDCDriver.c                0x00000000   Number         0  bldcdriver.o ABSOLUTE
    ..\SimpleFOC\BLDCMotor.c                 0x00000000   Number         0  bldcmotor.o ABSOLUTE
    ..\SimpleFOC\CurrentSense.c              0x00000000   Number         0  currentsense.o ABSOLUTE
    ..\SimpleFOC\FOCMotor.c                  0x00000000   Number         0  focmotor.o ABSOLUTE
    ..\SimpleFOC\MagneticSensorI2C.c         0x00000000   Number         0  magneticsensori2c.o ABSOLUTE
    ..\SimpleFOC\Sensor.c                    0x00000000   Number         0  sensor.o ABSOLUTE
    ..\SimpleFOC\foc_utils.c                 0x00000000   Number         0  foc_utils.o ABSOLUTE
    ..\SimpleFOC\lowpass_filter.c            0x00000000   Number         0  lowpass_filter.o ABSOLUTE
    ..\SimpleFOC\pid.c                       0x00000000   Number         0  pid.o ABSOLUTE
    ..\SimpleFOC\time_utils.c                0x00000000   Number         0  time_utils.o ABSOLUTE
    ..\\Del\\Del_ADC.c                       0x00000000   Number         0  del_adc.o ABSOLUTE
    ..\\Del\\Del_AS5600.c                    0x00000000   Number         0  del_as5600.o ABSOLUTE
    ..\\Del\\Del_Driver.c                    0x00000000   Number         0  del_driver.o ABSOLUTE
    ..\\Del\\Del_Hal.c                       0x00000000   Number         0  del_hal.o ABSOLUTE
    ..\\Del\\Del_Key.c                       0x00000000   Number         0  del_key.o ABSOLUTE
    ..\\Del\\Del_Led.c                       0x00000000   Number         0  del_led.o ABSOLUTE
    ..\\Del\\Del_Port.c                      0x00000000   Number         0  del_port.o ABSOLUTE
    ..\\Del\\Del_Uart.c                      0x00000000   Number         0  del_uart.o ABSOLUTE
    ..\\Del\\Lcd.c                           0x00000000   Number         0  lcd.o ABSOLUTE
    ..\\Del\\Lcd_Init.c                      0x00000000   Number         0  lcd_init.o ABSOLUTE
    ..\\SimpleFOC\\BLDCDriver.c              0x00000000   Number         0  bldcdriver.o ABSOLUTE
    ..\\SimpleFOC\\BLDCMotor.c               0x00000000   Number         0  bldcmotor.o ABSOLUTE
    ..\\SimpleFOC\\CurrentSense.c            0x00000000   Number         0  currentsense.o ABSOLUTE
    ..\\SimpleFOC\\FOCMotor.c                0x00000000   Number         0  focmotor.o ABSOLUTE
    ..\\SimpleFOC\\MagneticSensorI2C.c       0x00000000   Number         0  magneticsensori2c.o ABSOLUTE
    ..\\SimpleFOC\\Sensor.c                  0x00000000   Number         0  sensor.o ABSOLUTE
    ..\\SimpleFOC\\foc_utils.c               0x00000000   Number         0  foc_utils.o ABSOLUTE
    ..\\SimpleFOC\\lowpass_filter.c          0x00000000   Number         0  lowpass_filter.o ABSOLUTE
    ..\\SimpleFOC\\pid.c                     0x00000000   Number         0  pid.o ABSOLUTE
    ..\\SimpleFOC\\time_utils.c              0x00000000   Number         0  time_utils.o ABSOLUTE
    cdcmple.s                                0x00000000   Number         0  cdcmple.o ABSOLUTE
    cdrcmple.s                               0x00000000   Number         0  cdrcmple.o ABSOLUTE
    dc.s                                     0x00000000   Number         0  dc.o ABSOLUTE
    handlers.s                               0x00000000   Number         0  handlers.o ABSOLUTE
    init.s                                   0x00000000   Number         0  init.o ABSOLUTE
    startup_stm32g431xx.s                    0x00000000   Number         0  startup_stm32g431xx.o ABSOLUTE
    RESET                                    0x08000000   Section      472  startup_stm32g431xx.o(RESET)
    .ARM.Collect$$$$00000000                 0x080001d8   Section        0  entry.o(.ARM.Collect$$$$00000000)
    .ARM.Collect$$$$00000001                 0x080001d8   Section        4  entry2.o(.ARM.Collect$$$$00000001)
    .ARM.Collect$$$$00000004                 0x080001dc   Section        4  entry5.o(.ARM.Collect$$$$00000004)
    .ARM.Collect$$$$00000008                 0x080001e0   Section        0  entry7b.o(.ARM.Collect$$$$00000008)
    .ARM.Collect$$$$0000000A                 0x080001e0   Section        0  entry8b.o(.ARM.Collect$$$$0000000A)
    .ARM.Collect$$$$0000000B                 0x080001e0   Section        8  entry9a.o(.ARM.Collect$$$$0000000B)
    .ARM.Collect$$$$0000000E                 0x080001e8   Section        4  entry12b.o(.ARM.Collect$$$$0000000E)
    .ARM.Collect$$$$0000000F                 0x080001ec   Section        0  entry10a.o(.ARM.Collect$$$$0000000F)
    .ARM.Collect$$$$00000011                 0x080001ec   Section        0  entry11a.o(.ARM.Collect$$$$00000011)
    .ARM.Collect$$$$00002712                 0x080001ec   Section        4  entry2.o(.ARM.Collect$$$$00002712)
    __lit__00000000                          0x080001ec   Data           4  entry2.o(.ARM.Collect$$$$00002712)
    .text                                    0x080001f0   Section       36  startup_stm32g431xx.o(.text)
    $v0                                      0x080001f0   Number         0  startup_stm32g431xx.o(.text)
    .text                                    0x08000214   Section        0  uldiv.o(.text)
    .text                                    0x08000276   Section        0  memseta.o(.text)
    .text                                    0x0800029a   Section        0  dadd.o(.text)
    .text                                    0x080003e8   Section        0  dmul.o(.text)
    .text                                    0x080004cc   Section        0  dflti.o(.text)
    .text                                    0x080004ee   Section        0  dfixi.o(.text)
    .text                                    0x0800052c   Section        0  f2d.o(.text)
    .text                                    0x08000552   Section        0  d2f.o(.text)
    .text                                    0x0800058a   Section        0  uidiv.o(.text)
    .text                                    0x080005b6   Section        0  llshl.o(.text)
    .text                                    0x080005d4   Section        0  llushr.o(.text)
    .text                                    0x080005f4   Section        0  llsshr.o(.text)
    .text                                    0x08000618   Section        0  fepilogue.o(.text)
    .text                                    0x08000618   Section        0  iusefp.o(.text)
    .text                                    0x08000686   Section        0  depilogue.o(.text)
    .text                                    0x08000740   Section        0  ddiv.o(.text)
    .text                                    0x0800081e   Section        0  drem.o(.text)
    .text                                    0x080008a4   Section        0  dfixul.o(.text)
    .text                                    0x080008d4   Section       48  cdcmple.o(.text)
    .text                                    0x08000904   Section       48  cdrcmple.o(.text)
    .text                                    0x08000934   Section       36  init.o(.text)
    i.ADC_DMAConvCplt                        0x08000958   Section        0  stm32g4xx_hal_adc.o(i.ADC_DMAConvCplt)
    i.ADC_DMAError                           0x080009c0   Section        0  stm32g4xx_hal_adc.o(i.ADC_DMAError)
    i.ADC_DMAHalfConvCplt                    0x080009da   Section        0  stm32g4xx_hal_adc.o(i.ADC_DMAHalfConvCplt)
    i.ADC_Enable                             0x080009e4   Section        0  stm32g4xx_hal_adc.o(i.ADC_Enable)
    i.AS5600_Get_RawAngle                    0x08000a58   Section        0  del_as5600.o(i.AS5600_Get_RawAngle)
    i.AS5600_Init                            0x08000a90   Section        0  del_as5600.o(i.AS5600_Init)
    i.BLDCDriver_Init                        0x08000ab8   Section        0  bldcdriver.o(i.BLDCDriver_Init)
    i.BLDCDriver_disable                     0x08000ae0   Section        0  bldcdriver.o(i.BLDCDriver_disable)
    i.BLDCDriver_enable                      0x08000b04   Section        0  bldcdriver.o(i.BLDCDriver_enable)
    i.BLDCDriver_setPWM                      0x08000b20   Section        0  bldcdriver.o(i.BLDCDriver_setPWM)
    i.BLDCMotor_absoluteZeroSearch           0x08000c18   Section        0  bldcmotor.o(i.BLDCMotor_absoluteZeroSearch)
    i.BLDCMotor_alignCurrentSense            0x08000d08   Section        0  bldcmotor.o(i.BLDCMotor_alignCurrentSense)
    i.BLDCMotor_alignSensor                  0x08000d80   Section        0  bldcmotor.o(i.BLDCMotor_alignSensor)
    i.BLDCMotor_angleOpenloop                0x08001084   Section        0  bldcmotor.o(i.BLDCMotor_angleOpenloop)
    i.BLDCMotor_create                       0x080011b4   Section        0  bldcmotor.o(i.BLDCMotor_create)
    i.BLDCMotor_disable                      0x080011d8   Section        0  bldcmotor.o(i.BLDCMotor_disable)
    i.BLDCMotor_enable                       0x08001204   Section        0  bldcmotor.o(i.BLDCMotor_enable)
    i.BLDCMotor_init                         0x08001230   Section        0  bldcmotor.o(i.BLDCMotor_init)
    i.BLDCMotor_initFOC                      0x080012f8   Section        0  bldcmotor.o(i.BLDCMotor_initFOC)
    i.BLDCMotor_linkDriver                   0x080013dc   Section        0  bldcmotor.o(i.BLDCMotor_linkDriver)
    i.BLDCMotor_loopFOC                      0x080013e4   Section        0  bldcmotor.o(i.BLDCMotor_loopFOC)
    i.BLDCMotor_move                         0x080014fc   Section        0  bldcmotor.o(i.BLDCMotor_move)
    i.BLDCMotor_setPhaseVoltage              0x08001650   Section        0  bldcmotor.o(i.BLDCMotor_setPhaseVoltage)
    i.BLDCMotor_velocityOpenloop             0x08001934   Section        0  bldcmotor.o(i.BLDCMotor_velocityOpenloop)
    i.BusFault_Handler                       0x080019e4   Section        0  stm32g4xx_it.o(i.BusFault_Handler)
    i.Button_Init                            0x080019e6   Section        0  del_key.o(i.Button_Init)
    i.Button_Scan_20ms                       0x080019f0   Section        0  del_key.o(i.Button_Scan_20ms)
    i.CurrentSense_create                    0x08001a7a   Section        0  currentsense.o(i.CurrentSense_create)
    i.CurrentSense_driverAlign               0x08001aaa   Section        0  currentsense.o(i.CurrentSense_driverAlign)
    i.CurrentSense_getDCCurrent              0x08001ab0   Section        0  currentsense.o(i.CurrentSense_getDCCurrent)
    i.CurrentSense_getFOCCurrents            0x08001b60   Section        0  currentsense.o(i.CurrentSense_getFOCCurrents)
    i.CurrentSense_getPhaseCurrents          0x08001bec   Section        0  currentsense.o(i.CurrentSense_getPhaseCurrents)
    i.CurrentSense_init                      0x08001c6c   Section        0  currentsense.o(i.CurrentSense_init)
    i.DMA1_Channel1_IRQHandler               0x08001c70   Section        0  stm32g4xx_it.o(i.DMA1_Channel1_IRQHandler)
    i.DMA_CalcDMAMUXChannelBaseAndMask       0x08001c7c   Section        0  stm32g4xx_hal_dma.o(i.DMA_CalcDMAMUXChannelBaseAndMask)
    DMA_CalcDMAMUXChannelBaseAndMask         0x08001c7d   Thumb Code    54  stm32g4xx_hal_dma.o(i.DMA_CalcDMAMUXChannelBaseAndMask)
    i.DMA_CalcDMAMUXRequestGenBaseAndMask    0x08001cbc   Section        0  stm32g4xx_hal_dma.o(i.DMA_CalcDMAMUXRequestGenBaseAndMask)
    DMA_CalcDMAMUXRequestGenBaseAndMask      0x08001cbd   Thumb Code    30  stm32g4xx_hal_dma.o(i.DMA_CalcDMAMUXRequestGenBaseAndMask)
    i.DMA_SetConfig                          0x08001ce0   Section        0  stm32g4xx_hal_dma.o(i.DMA_SetConfig)
    DMA_SetConfig                            0x08001ce1   Thumb Code    62  stm32g4xx_hal_dma.o(i.DMA_SetConfig)
    i.DebugMon_Handler                       0x08001d1e   Section        0  stm32g4xx_it.o(i.DebugMon_Handler)
    i.Del_Button1_Long_Callback              0x08001d20   Section        0  del_port.o(i.Del_Button1_Long_Callback)
    i.Del_Button1_Short_Callback             0x08001d2c   Section        0  del_port.o(i.Del_Button1_Short_Callback)
    i.Del_Button2_Long_Callback              0x08001d38   Section        0  del_port.o(i.Del_Button2_Long_Callback)
    i.Del_Button2_Short_Callback             0x08001d44   Section        0  del_port.o(i.Del_Button2_Short_Callback)
    i.Del_Init                               0x08001d50   Section        0  del_hal.o(i.Del_Init)
    i.Del_Update                             0x08001ef8   Section        0  del_hal.o(i.Del_Update)
    i.Driver_Init                            0x08001f4c   Section        0  del_driver.o(i.Driver_Init)
    i.Driver_Set_Freq                        0x08001f7c   Section        0  del_driver.o(i.Driver_Set_Freq)
    i.Driver_Set_PWM                         0x08001fc0   Section        0  del_driver.o(i.Driver_Set_PWM)
    i.Error_Handler                          0x08002010   Section        0  main.o(i.Error_Handler)
    i.FOCMotor_Create                        0x08002014   Section        0  focmotor.o(i.FOCMotor_Create)
    i.FOCMotor_Init                          0x08002158   Section        0  focmotor.o(i.FOCMotor_Init)
    i.FOCMotor_electricalAngle               0x0800215a   Section        0  focmotor.o(i.FOCMotor_electricalAngle)
    i.FOCMotor_linkCurrentSense              0x08002192   Section        0  focmotor.o(i.FOCMotor_linkCurrentSense)
    i.FOCMotor_linkSensor                    0x08002198   Section        0  focmotor.o(i.FOCMotor_linkSensor)
    i.FOCMotor_shaftAngle                    0x0800219e   Section        0  focmotor.o(i.FOCMotor_shaftAngle)
    i.FOCMotor_shaftVelocity                 0x080021d0   Section        0  focmotor.o(i.FOCMotor_shaftVelocity)
    i.HAL_ADC_ConfigChannel                  0x080021fc   Section        0  stm32g4xx_hal_adc.o(i.HAL_ADC_ConfigChannel)
    i.HAL_ADC_ConvCpltCallback               0x08002614   Section        0  stm32g4xx_hal_adc.o(i.HAL_ADC_ConvCpltCallback)
    i.HAL_ADC_ConvHalfCpltCallback           0x08002616   Section        0  stm32g4xx_hal_adc.o(i.HAL_ADC_ConvHalfCpltCallback)
    i.HAL_ADC_ErrorCallback                  0x08002618   Section        0  stm32g4xx_hal_adc.o(i.HAL_ADC_ErrorCallback)
    i.HAL_ADC_Init                           0x0800261c   Section        0  stm32g4xx_hal_adc.o(i.HAL_ADC_Init)
    i.HAL_ADC_MspInit                        0x08002818   Section        0  adc.o(i.HAL_ADC_MspInit)
    i.HAL_ADC_Start_DMA                      0x080028c8   Section        0  stm32g4xx_hal_adc.o(i.HAL_ADC_Start_DMA)
    i.HAL_DMA_Abort                          0x080029b8   Section        0  stm32g4xx_hal_dma.o(i.HAL_DMA_Abort)
    i.HAL_DMA_Abort_IT                       0x08002a22   Section        0  stm32g4xx_hal_dma.o(i.HAL_DMA_Abort_IT)
    i.HAL_DMA_IRQHandler                     0x08002a9a   Section        0  stm32g4xx_hal_dma.o(i.HAL_DMA_IRQHandler)
    i.HAL_DMA_Init                           0x08002b54   Section        0  stm32g4xx_hal_dma.o(i.HAL_DMA_Init)
    i.HAL_DMA_Start_IT                       0x08002c14   Section        0  stm32g4xx_hal_dma.o(i.HAL_DMA_Start_IT)
    i.HAL_Delay                              0x08002ca0   Section        0  stm32g4xx_hal.o(i.HAL_Delay)
    i.HAL_FDCAN_Init                         0x08002cc4   Section        0  stm32g4xx_hal_fdcan.o(i.HAL_FDCAN_Init)
    i.HAL_FDCAN_MspInit                      0x08002ec8   Section        0  fdcan.o(i.HAL_FDCAN_MspInit)
    i.HAL_GPIO_Init                          0x08002f44   Section        0  stm32g4xx_hal_gpio.o(i.HAL_GPIO_Init)
    i.HAL_GPIO_ReadPin                       0x0800318c   Section        0  stm32g4xx_hal_gpio.o(i.HAL_GPIO_ReadPin)
    i.HAL_GPIO_WritePin                      0x08003196   Section        0  stm32g4xx_hal_gpio.o(i.HAL_GPIO_WritePin)
    i.HAL_GetTick                            0x080031a0   Section        0  stm32g4xx_hal.o(i.HAL_GetTick)
    i.HAL_I2CEx_ConfigAnalogFilter           0x080031ac   Section        0  stm32g4xx_hal_i2c_ex.o(i.HAL_I2CEx_ConfigAnalogFilter)
    i.HAL_I2CEx_ConfigDigitalFilter          0x08003202   Section        0  stm32g4xx_hal_i2c_ex.o(i.HAL_I2CEx_ConfigDigitalFilter)
    i.HAL_I2C_Init                           0x08003254   Section        0  stm32g4xx_hal_i2c.o(i.HAL_I2C_Init)
    i.HAL_I2C_Master_Receive                 0x0800330c   Section        0  stm32g4xx_hal_i2c.o(i.HAL_I2C_Master_Receive)
    i.HAL_I2C_Master_Transmit                0x08003430   Section        0  stm32g4xx_hal_i2c.o(i.HAL_I2C_Master_Transmit)
    i.HAL_I2C_MspInit                        0x08003554   Section        0  i2c.o(i.HAL_I2C_MspInit)
    i.HAL_IncTick                            0x080035f8   Section        0  stm32g4xx_hal.o(i.HAL_IncTick)
    i.HAL_Init                               0x08003608   Section        0  stm32g4xx_hal.o(i.HAL_Init)
    i.HAL_InitTick                           0x08003628   Section        0  stm32g4xx_hal.o(i.HAL_InitTick)
    i.HAL_MspInit                            0x0800366c   Section        0  stm32g4xx_hal_msp.o(i.HAL_MspInit)
    i.HAL_NVIC_EnableIRQ                     0x080036ac   Section        0  stm32g4xx_hal_cortex.o(i.HAL_NVIC_EnableIRQ)
    i.HAL_NVIC_SetPriority                   0x080036c8   Section        0  stm32g4xx_hal_cortex.o(i.HAL_NVIC_SetPriority)
    i.HAL_NVIC_SetPriorityGrouping           0x08003708   Section        0  stm32g4xx_hal_cortex.o(i.HAL_NVIC_SetPriorityGrouping)
    i.HAL_PWREx_ControlVoltageScaling        0x0800372c   Section        0  stm32g4xx_hal_pwr_ex.o(i.HAL_PWREx_ControlVoltageScaling)
    i.HAL_PWREx_DisableUCPDDeadBattery       0x080037e8   Section        0  stm32g4xx_hal_pwr_ex.o(i.HAL_PWREx_DisableUCPDDeadBattery)
    i.HAL_RCCEx_PeriphCLKConfig              0x080037f8   Section        0  stm32g4xx_hal_rcc_ex.o(i.HAL_RCCEx_PeriphCLKConfig)
    i.HAL_RCC_ClockConfig                    0x08003a80   Section        0  stm32g4xx_hal_rcc.o(i.HAL_RCC_ClockConfig)
    i.HAL_RCC_GetPCLK1Freq                   0x08003c5c   Section        0  stm32g4xx_hal_rcc.o(i.HAL_RCC_GetPCLK1Freq)
    i.HAL_RCC_GetPCLK2Freq                   0x08003c80   Section        0  stm32g4xx_hal_rcc.o(i.HAL_RCC_GetPCLK2Freq)
    i.HAL_RCC_GetSysClockFreq                0x08003ca4   Section        0  stm32g4xx_hal_rcc.o(i.HAL_RCC_GetSysClockFreq)
    i.HAL_RCC_OscConfig                      0x08003d14   Section        0  stm32g4xx_hal_rcc.o(i.HAL_RCC_OscConfig)
    i.HAL_SPI_Init                           0x08004120   Section        0  stm32g4xx_hal_spi.o(i.HAL_SPI_Init)
    i.HAL_SPI_MspInit                        0x0800420c   Section        0  spi.o(i.HAL_SPI_MspInit)
    i.HAL_SPI_Transmit                       0x0800429c   Section        0  stm32g4xx_hal_spi.o(i.HAL_SPI_Transmit)
    i.HAL_SYSCFG_EnableVREFBUF               0x08004424   Section        0  stm32g4xx_hal.o(i.HAL_SYSCFG_EnableVREFBUF)
    i.HAL_SYSCFG_VREFBUF_HighImpedanceConfig 0x08004454   Section        0  stm32g4xx_hal.o(i.HAL_SYSCFG_VREFBUF_HighImpedanceConfig)
    i.HAL_SYSCFG_VREFBUF_VoltageScalingConfig 0x08004468   Section        0  stm32g4xx_hal.o(i.HAL_SYSCFG_VREFBUF_VoltageScalingConfig)
    i.HAL_SYSTICK_Config                     0x0800447c   Section        0  stm32g4xx_hal_cortex.o(i.HAL_SYSTICK_Config)
    i.HAL_TIMEx_Break2Callback               0x080044a4   Section        0  stm32g4xx_hal_tim_ex.o(i.HAL_TIMEx_Break2Callback)
    i.HAL_TIMEx_BreakCallback                0x080044a6   Section        0  stm32g4xx_hal_tim_ex.o(i.HAL_TIMEx_BreakCallback)
    i.HAL_TIMEx_CommutCallback               0x080044a8   Section        0  stm32g4xx_hal_tim_ex.o(i.HAL_TIMEx_CommutCallback)
    i.HAL_TIMEx_DirectionChangeCallback      0x080044aa   Section        0  stm32g4xx_hal_tim_ex.o(i.HAL_TIMEx_DirectionChangeCallback)
    i.HAL_TIMEx_EncoderIndexCallback         0x080044ac   Section        0  stm32g4xx_hal_tim_ex.o(i.HAL_TIMEx_EncoderIndexCallback)
    i.HAL_TIMEx_IndexErrorCallback           0x080044ae   Section        0  stm32g4xx_hal_tim_ex.o(i.HAL_TIMEx_IndexErrorCallback)
    i.HAL_TIMEx_MasterConfigSynchronization  0x080044b0   Section        0  stm32g4xx_hal_tim_ex.o(i.HAL_TIMEx_MasterConfigSynchronization)
    i.HAL_TIMEx_TransitionErrorCallback      0x0800454c   Section        0  stm32g4xx_hal_tim_ex.o(i.HAL_TIMEx_TransitionErrorCallback)
    i.HAL_TIM_Base_Init                      0x0800454e   Section        0  stm32g4xx_hal_tim.o(i.HAL_TIM_Base_Init)
    i.HAL_TIM_Base_MspInit                   0x080045b0   Section        0  tim.o(i.HAL_TIM_Base_MspInit)
    i.HAL_TIM_Base_Start_IT                  0x08004614   Section        0  stm32g4xx_hal_tim.o(i.HAL_TIM_Base_Start_IT)
    i.HAL_TIM_ConfigClockSource              0x0800468c   Section        0  stm32g4xx_hal_tim.o(i.HAL_TIM_ConfigClockSource)
    i.HAL_TIM_IC_CaptureCallback             0x0800478c   Section        0  stm32g4xx_hal_tim.o(i.HAL_TIM_IC_CaptureCallback)
    i.HAL_TIM_IRQHandler                     0x0800478e   Section        0  stm32g4xx_hal_tim.o(i.HAL_TIM_IRQHandler)
    i.HAL_TIM_MspPostInit                    0x0800498c   Section        0  tim.o(i.HAL_TIM_MspPostInit)
    i.HAL_TIM_OC_DelayElapsedCallback        0x080049d8   Section        0  stm32g4xx_hal_tim.o(i.HAL_TIM_OC_DelayElapsedCallback)
    i.HAL_TIM_PWM_ConfigChannel              0x080049da   Section        0  stm32g4xx_hal_tim.o(i.HAL_TIM_PWM_ConfigChannel)
    i.HAL_TIM_PWM_Init                       0x08004afe   Section        0  stm32g4xx_hal_tim.o(i.HAL_TIM_PWM_Init)
    i.HAL_TIM_PWM_MspInit                    0x08004b60   Section        0  tim.o(i.HAL_TIM_PWM_MspInit)
    i.HAL_TIM_PWM_PulseFinishedCallback      0x08004b84   Section        0  stm32g4xx_hal_tim.o(i.HAL_TIM_PWM_PulseFinishedCallback)
    i.HAL_TIM_PWM_Start                      0x08004b88   Section        0  stm32g4xx_hal_tim.o(i.HAL_TIM_PWM_Start)
    i.HAL_TIM_PeriodElapsedCallback          0x08004c84   Section        0  del_hal.o(i.HAL_TIM_PeriodElapsedCallback)
    i.HAL_TIM_TriggerCallback                0x08004ccc   Section        0  stm32g4xx_hal_tim.o(i.HAL_TIM_TriggerCallback)
    i.HAL_UARTEx_DisableFifoMode             0x08004cce   Section        0  stm32g4xx_hal_uart_ex.o(i.HAL_UARTEx_DisableFifoMode)
    i.HAL_UARTEx_RxEventCallback             0x08004d0c   Section        0  stm32g4xx_hal_uart.o(i.HAL_UARTEx_RxEventCallback)
    i.HAL_UARTEx_RxFifoFullCallback          0x08004d0e   Section        0  stm32g4xx_hal_uart_ex.o(i.HAL_UARTEx_RxFifoFullCallback)
    i.HAL_UARTEx_SetRxFifoThreshold          0x08004d10   Section        0  stm32g4xx_hal_uart_ex.o(i.HAL_UARTEx_SetRxFifoThreshold)
    i.HAL_UARTEx_SetTxFifoThreshold          0x08004d5c   Section        0  stm32g4xx_hal_uart_ex.o(i.HAL_UARTEx_SetTxFifoThreshold)
    i.HAL_UARTEx_TxFifoEmptyCallback         0x08004da8   Section        0  stm32g4xx_hal_uart_ex.o(i.HAL_UARTEx_TxFifoEmptyCallback)
    i.HAL_UARTEx_WakeupCallback              0x08004daa   Section        0  stm32g4xx_hal_uart_ex.o(i.HAL_UARTEx_WakeupCallback)
    i.HAL_UART_ErrorCallback                 0x08004dac   Section        0  stm32g4xx_hal_uart.o(i.HAL_UART_ErrorCallback)
    i.HAL_UART_IRQHandler                    0x08004db0   Section        0  stm32g4xx_hal_uart.o(i.HAL_UART_IRQHandler)
    i.HAL_UART_Init                          0x08005090   Section        0  stm32g4xx_hal_uart.o(i.HAL_UART_Init)
    i.HAL_UART_MspInit                       0x080050fc   Section        0  usart.o(i.HAL_UART_MspInit)
    i.HAL_UART_Receive_IT                    0x08005188   Section        0  stm32g4xx_hal_uart.o(i.HAL_UART_Receive_IT)
    i.HAL_UART_RxCpltCallback                0x080051dc   Section        0  del_uart.o(i.HAL_UART_RxCpltCallback)
    i.HAL_UART_Transmit                      0x08005244   Section        0  stm32g4xx_hal_uart.o(i.HAL_UART_Transmit)
    i.HAL_UART_TxCpltCallback                0x08005300   Section        0  stm32g4xx_hal_uart.o(i.HAL_UART_TxCpltCallback)
    i.HardFault_Handler                      0x08005302   Section        0  stm32g4xx_it.o(i.HardFault_Handler)
    i.I2C_Flush_TXDR                         0x08005304   Section        0  stm32g4xx_hal_i2c.o(i.I2C_Flush_TXDR)
    I2C_Flush_TXDR                           0x08005305   Thumb Code    34  stm32g4xx_hal_i2c.o(i.I2C_Flush_TXDR)
    i.I2C_IsErrorOccurred                    0x08005328   Section        0  stm32g4xx_hal_i2c.o(i.I2C_IsErrorOccurred)
    I2C_IsErrorOccurred                      0x08005329   Thumb Code   284  stm32g4xx_hal_i2c.o(i.I2C_IsErrorOccurred)
    i.I2C_TransferConfig                     0x08005448   Section        0  stm32g4xx_hal_i2c.o(i.I2C_TransferConfig)
    I2C_TransferConfig                       0x08005449   Thumb Code    44  stm32g4xx_hal_i2c.o(i.I2C_TransferConfig)
    i.I2C_WaitOnFlagUntilTimeout             0x08005478   Section        0  stm32g4xx_hal_i2c.o(i.I2C_WaitOnFlagUntilTimeout)
    I2C_WaitOnFlagUntilTimeout               0x08005479   Thumb Code    88  stm32g4xx_hal_i2c.o(i.I2C_WaitOnFlagUntilTimeout)
    i.I2C_WaitOnRXNEFlagUntilTimeout         0x080054d0   Section        0  stm32g4xx_hal_i2c.o(i.I2C_WaitOnRXNEFlagUntilTimeout)
    I2C_WaitOnRXNEFlagUntilTimeout           0x080054d1   Thumb Code   150  stm32g4xx_hal_i2c.o(i.I2C_WaitOnRXNEFlagUntilTimeout)
    i.I2C_WaitOnSTOPFlagUntilTimeout         0x0800556c   Section        0  stm32g4xx_hal_i2c.o(i.I2C_WaitOnSTOPFlagUntilTimeout)
    I2C_WaitOnSTOPFlagUntilTimeout           0x0800556d   Thumb Code    76  stm32g4xx_hal_i2c.o(i.I2C_WaitOnSTOPFlagUntilTimeout)
    i.I2C_WaitOnTXISFlagUntilTimeout         0x080055b8   Section        0  stm32g4xx_hal_i2c.o(i.I2C_WaitOnTXISFlagUntilTimeout)
    I2C_WaitOnTXISFlagUntilTimeout           0x080055b9   Thumb Code    80  stm32g4xx_hal_i2c.o(i.I2C_WaitOnTXISFlagUntilTimeout)
    i.LCD_Address_Set                        0x08005608   Section        0  lcd_init.o(i.LCD_Address_Set)
    i.LCD_DrawPoint                          0x0800564a   Section        0  lcd.o(i.LCD_DrawPoint)
    i.LCD_Fill                               0x08005660   Section        0  lcd.o(i.LCD_Fill)
    i.LCD_Init                               0x080056a0   Section        0  lcd_init.o(i.LCD_Init)
    i.LCD_ShowChar                           0x080058f8   Section        0  lcd.o(i.LCD_ShowChar)
    i.LCD_ShowString                         0x08005a04   Section        0  lcd.o(i.LCD_ShowString)
    i.LCD_WR_DATA                            0x08005a3e   Section        0  lcd_init.o(i.LCD_WR_DATA)
    i.LCD_WR_REG                             0x08005a54   Section        0  lcd_init.o(i.LCD_WR_REG)
    i.LCD_Writ_Bus                           0x08005a7c   Section        0  lcd_init.o(i.LCD_Writ_Bus)
    i.LL_ADC_GetOffsetChannel                0x08005ab0   Section        0  stm32g4xx_hal_adc.o(i.LL_ADC_GetOffsetChannel)
    LL_ADC_GetOffsetChannel                  0x08005ab1   Thumb Code    12  stm32g4xx_hal_adc.o(i.LL_ADC_GetOffsetChannel)
    i.LL_ADC_INJ_IsConversionOngoing         0x08005abc   Section        0  stm32g4xx_hal_adc.o(i.LL_ADC_INJ_IsConversionOngoing)
    LL_ADC_INJ_IsConversionOngoing           0x08005abd   Thumb Code     8  stm32g4xx_hal_adc.o(i.LL_ADC_INJ_IsConversionOngoing)
    i.LL_ADC_REG_IsConversionOngoing         0x08005ac4   Section        0  stm32g4xx_hal_adc.o(i.LL_ADC_REG_IsConversionOngoing)
    LL_ADC_REG_IsConversionOngoing           0x08005ac5   Thumb Code     8  stm32g4xx_hal_adc.o(i.LL_ADC_REG_IsConversionOngoing)
    i.LL_ADC_REG_IsTriggerSourceSWStart      0x08005acc   Section        0  stm32g4xx_hal_adc.o(i.LL_ADC_REG_IsTriggerSourceSWStart)
    LL_ADC_REG_IsTriggerSourceSWStart        0x08005acd   Thumb Code    16  stm32g4xx_hal_adc.o(i.LL_ADC_REG_IsTriggerSourceSWStart)
    i.LL_ADC_SetChannelSamplingTime          0x08005adc   Section        0  stm32g4xx_hal_adc.o(i.LL_ADC_SetChannelSamplingTime)
    LL_ADC_SetChannelSamplingTime            0x08005add   Thumb Code    30  stm32g4xx_hal_adc.o(i.LL_ADC_SetChannelSamplingTime)
    i.LL_ADC_SetOffsetState                  0x08005afa   Section        0  stm32g4xx_hal_adc.o(i.LL_ADC_SetOffsetState)
    LL_ADC_SetOffsetState                    0x08005afb   Thumb Code    16  stm32g4xx_hal_adc.o(i.LL_ADC_SetOffsetState)
    i.Led_Flash                              0x08005b0c   Section        0  del_led.o(i.Led_Flash)
    i.LowPassFilter_Init                     0x08005b3c   Section        0  lowpass_filter.o(i.LowPassFilter_Init)
    i.LowPassFilter_Update                   0x08005b58   Section        0  lowpass_filter.o(i.LowPassFilter_Update)
    i.MX_ADC2_Init                           0x08005bdc   Section        0  adc.o(i.MX_ADC2_Init)
    i.MX_DMA_Init                            0x08005cac   Section        0  dma.o(i.MX_DMA_Init)
    i.MX_FDCAN1_Init                         0x08005ce8   Section        0  fdcan.o(i.MX_FDCAN1_Init)
    i.MX_GPIO_Init                           0x08005d34   Section        0  gpio.o(i.MX_GPIO_Init)
    i.MX_I2C1_Init                           0x08005e14   Section        0  i2c.o(i.MX_I2C1_Init)
    i.MX_SPI1_Init                           0x08005e6c   Section        0  spi.o(i.MX_SPI1_Init)
    i.MX_SPI2_Init                           0x08005ebc   Section        0  spi.o(i.MX_SPI2_Init)
    i.MX_TIM15_Init                          0x08005f0c   Section        0  tim.o(i.MX_TIM15_Init)
    i.MX_TIM2_Init                           0x08005f78   Section        0  tim.o(i.MX_TIM2_Init)
    i.MX_TIM3_Init                           0x08006004   Section        0  tim.o(i.MX_TIM3_Init)
    i.MX_USART1_UART_Init                    0x0800606c   Section        0  usart.o(i.MX_USART1_UART_Init)
    i.MemManage_Handler                      0x080060d4   Section        0  stm32g4xx_it.o(i.MemManage_Handler)
    i.NMI_Handler                            0x080060d6   Section        0  stm32g4xx_it.o(i.NMI_Handler)
    i.PIDController_Compute                  0x080060d8   Section        0  pid.o(i.PIDController_Compute)
    i.PIDController_Init                     0x080061fc   Section        0  pid.o(i.PIDController_Init)
    i.PendSV_Handler                         0x08006220   Section        0  stm32g4xx_it.o(i.PendSV_Handler)
    i.Port_Init                              0x08006224   Section        0  del_port.o(i.Port_Init)
    i.SPI_EndRxTxTransaction                 0x08006290   Section        0  stm32g4xx_hal_spi.o(i.SPI_EndRxTxTransaction)
    SPI_EndRxTxTransaction                   0x08006291   Thumb Code    72  stm32g4xx_hal_spi.o(i.SPI_EndRxTxTransaction)
    i.SPI_WaitFifoStateUntilTimeout          0x080062d8   Section        0  stm32g4xx_hal_spi.o(i.SPI_WaitFifoStateUntilTimeout)
    SPI_WaitFifoStateUntilTimeout            0x080062d9   Thumb Code   218  stm32g4xx_hal_spi.o(i.SPI_WaitFifoStateUntilTimeout)
    i.SPI_WaitFlagStateUntilTimeout          0x080063b8   Section        0  stm32g4xx_hal_spi.o(i.SPI_WaitFlagStateUntilTimeout)
    SPI_WaitFlagStateUntilTimeout            0x080063b9   Thumb Code   180  stm32g4xx_hal_spi.o(i.SPI_WaitFlagStateUntilTimeout)
    i.SVC_Handler                            0x08006470   Section        0  stm32g4xx_it.o(i.SVC_Handler)
    i.Sensor_getAngle                        0x08006474   Section        0  sensor.o(i.Sensor_getAngle)
    i.Sensor_getMechanicalAngle              0x08006490   Section        0  sensor.o(i.Sensor_getMechanicalAngle)
    i.Sensor_getSensorAngle                  0x08006498   Section        0  sensor.o(i.Sensor_getSensorAngle)
    i.Sensor_getVelocity                     0x080064c0   Section        0  sensor.o(i.Sensor_getVelocity)
    i.Sensor_init                            0x08006530   Section        0  sensor.o(i.Sensor_init)
    i.Sensor_needsSearch                     0x08006594   Section        0  sensor.o(i.Sensor_needsSearch)
    i.Sensor_update                          0x08006598   Section        0  sensor.o(i.Sensor_update)
    i.SysTick_Handler                        0x080065fc   Section        0  stm32g4xx_it.o(i.SysTick_Handler)
    i.SystemClock_Config                     0x08006600   Section        0  main.o(i.SystemClock_Config)
    i.SystemInit                             0x08006668   Section        0  system_stm32g4xx.o(i.SystemInit)
    i.TIM1_BRK_TIM15_IRQHandler              0x08006678   Section        0  stm32g4xx_it.o(i.TIM1_BRK_TIM15_IRQHandler)
    i.TIM3_IRQHandler                        0x08006684   Section        0  stm32g4xx_it.o(i.TIM3_IRQHandler)
    i.TIM_Base_SetConfig                     0x08006690   Section        0  stm32g4xx_hal_tim.o(i.TIM_Base_SetConfig)
    i.TIM_CCxChannelCmd                      0x08006740   Section        0  stm32g4xx_hal_tim.o(i.TIM_CCxChannelCmd)
    i.TIM_ETR_SetConfig                      0x0800675a   Section        0  stm32g4xx_hal_tim.o(i.TIM_ETR_SetConfig)
    i.TIM_ITRx_SetConfig                     0x08006770   Section        0  stm32g4xx_hal_tim.o(i.TIM_ITRx_SetConfig)
    TIM_ITRx_SetConfig                       0x08006771   Thumb Code    16  stm32g4xx_hal_tim.o(i.TIM_ITRx_SetConfig)
    i.TIM_OC1_SetConfig                      0x08006784   Section        0  stm32g4xx_hal_tim.o(i.TIM_OC1_SetConfig)
    TIM_OC1_SetConfig                        0x08006785   Thumb Code   132  stm32g4xx_hal_tim.o(i.TIM_OC1_SetConfig)
    i.TIM_OC2_SetConfig                      0x08006820   Section        0  stm32g4xx_hal_tim.o(i.TIM_OC2_SetConfig)
    i.TIM_OC3_SetConfig                      0x080068b0   Section        0  stm32g4xx_hal_tim.o(i.TIM_OC3_SetConfig)
    TIM_OC3_SetConfig                        0x080068b1   Thumb Code   118  stm32g4xx_hal_tim.o(i.TIM_OC3_SetConfig)
    i.TIM_OC4_SetConfig                      0x08006940   Section        0  stm32g4xx_hal_tim.o(i.TIM_OC4_SetConfig)
    TIM_OC4_SetConfig                        0x08006941   Thumb Code   120  stm32g4xx_hal_tim.o(i.TIM_OC4_SetConfig)
    i.TIM_OC5_SetConfig                      0x080069d0   Section        0  stm32g4xx_hal_tim.o(i.TIM_OC5_SetConfig)
    TIM_OC5_SetConfig                        0x080069d1   Thumb Code    86  stm32g4xx_hal_tim.o(i.TIM_OC5_SetConfig)
    i.TIM_OC6_SetConfig                      0x08006a40   Section        0  stm32g4xx_hal_tim.o(i.TIM_OC6_SetConfig)
    TIM_OC6_SetConfig                        0x08006a41   Thumb Code    88  stm32g4xx_hal_tim.o(i.TIM_OC6_SetConfig)
    i.TIM_TI1_ConfigInputStage               0x08006ab0   Section        0  stm32g4xx_hal_tim.o(i.TIM_TI1_ConfigInputStage)
    TIM_TI1_ConfigInputStage                 0x08006ab1   Thumb Code    34  stm32g4xx_hal_tim.o(i.TIM_TI1_ConfigInputStage)
    i.TIM_TI2_ConfigInputStage               0x08006ad2   Section        0  stm32g4xx_hal_tim.o(i.TIM_TI2_ConfigInputStage)
    TIM_TI2_ConfigInputStage                 0x08006ad3   Thumb Code    36  stm32g4xx_hal_tim.o(i.TIM_TI2_ConfigInputStage)
    i.UARTEx_SetNbDataToProcess              0x08006af8   Section        0  stm32g4xx_hal_uart_ex.o(i.UARTEx_SetNbDataToProcess)
    UARTEx_SetNbDataToProcess                0x08006af9   Thumb Code    62  stm32g4xx_hal_uart_ex.o(i.UARTEx_SetNbDataToProcess)
    i.UART_AdvFeatureConfig                  0x08006b3c   Section        0  stm32g4xx_hal_uart.o(i.UART_AdvFeatureConfig)
    i.UART_CheckIdleState                    0x08006c04   Section        0  stm32g4xx_hal_uart.o(i.UART_CheckIdleState)
    i.UART_DMAAbortOnError                   0x08006c64   Section        0  stm32g4xx_hal_uart.o(i.UART_DMAAbortOnError)
    UART_DMAAbortOnError                     0x08006c65   Thumb Code    20  stm32g4xx_hal_uart.o(i.UART_DMAAbortOnError)
    i.UART_EndRxTransfer                     0x08006c78   Section        0  stm32g4xx_hal_uart.o(i.UART_EndRxTransfer)
    UART_EndRxTransfer                       0x08006c79   Thumb Code    78  stm32g4xx_hal_uart.o(i.UART_EndRxTransfer)
    i.UART_RxISR_16BIT                       0x08006ccc   Section        0  stm32g4xx_hal_uart.o(i.UART_RxISR_16BIT)
    UART_RxISR_16BIT                         0x08006ccd   Thumb Code   162  stm32g4xx_hal_uart.o(i.UART_RxISR_16BIT)
    i.UART_RxISR_16BIT_FIFOEN                0x08006d70   Section        0  stm32g4xx_hal_uart.o(i.UART_RxISR_16BIT_FIFOEN)
    UART_RxISR_16BIT_FIFOEN                  0x08006d71   Thumb Code   364  stm32g4xx_hal_uart.o(i.UART_RxISR_16BIT_FIFOEN)
    i.UART_RxISR_8BIT                        0x08006ee4   Section        0  stm32g4xx_hal_uart.o(i.UART_RxISR_8BIT)
    UART_RxISR_8BIT                          0x08006ee5   Thumb Code   162  stm32g4xx_hal_uart.o(i.UART_RxISR_8BIT)
    i.UART_RxISR_8BIT_FIFOEN                 0x08006f88   Section        0  stm32g4xx_hal_uart.o(i.UART_RxISR_8BIT_FIFOEN)
    UART_RxISR_8BIT_FIFOEN                   0x08006f89   Thumb Code   364  stm32g4xx_hal_uart.o(i.UART_RxISR_8BIT_FIFOEN)
    i.UART_SetConfig                         0x080070fc   Section        0  stm32g4xx_hal_uart.o(i.UART_SetConfig)
    i.UART_Start_Receive_IT                  0x08007370   Section        0  stm32g4xx_hal_uart.o(i.UART_Start_Receive_IT)
    i.UART_WaitOnFlagUntilTimeout            0x08007488   Section        0  stm32g4xx_hal_uart.o(i.UART_WaitOnFlagUntilTimeout)
    i.USART1_IRQHandler                      0x08007550   Section        0  stm32g4xx_it.o(i.USART1_IRQHandler)
    i.Uart_Init                              0x0800755c   Section        0  del_uart.o(i.Uart_Init)
    i.Uart_Receive                           0x08007570   Section        0  del_uart.o(i.Uart_Receive)
    i.UsageFault_Handler                     0x080075a0   Section        0  stm32g4xx_it.o(i.UsageFault_Handler)
    i.__0printf                              0x080075a4   Section        0  printfa.o(i.__0printf)
    i.__ARM_fpclassify                       0x080075c4   Section        0  fpclassify.o(i.__ARM_fpclassify)
    i.__NVIC_SetPriority                     0x080075f4   Section        0  stm32g4xx_hal_cortex.o(i.__NVIC_SetPriority)
    __NVIC_SetPriority                       0x080075f5   Thumb Code    32  stm32g4xx_hal_cortex.o(i.__NVIC_SetPriority)
    i.__hardfp_atan                          0x08007618   Section        0  atan.o(i.__hardfp_atan)
    i.__hardfp_atan2                         0x080078f0   Section        0  atan2.o(i.__hardfp_atan2)
    i.__hardfp_floor                         0x08007af0   Section        0  floor.o(i.__hardfp_floor)
    i.__hardfp_fmod                          0x08007c08   Section        0  fmod.o(i.__hardfp_fmod)
    i.__kernel_poly                          0x08007d0c   Section        0  poly.o(i.__kernel_poly)
    i.__mathlib_dbl_infnan                   0x08007e04   Section        0  dunder.o(i.__mathlib_dbl_infnan)
    i.__mathlib_dbl_infnan2                  0x08007e18   Section        0  dunder.o(i.__mathlib_dbl_infnan2)
    i.__mathlib_dbl_invalid                  0x08007e30   Section        0  dunder.o(i.__mathlib_dbl_invalid)
    i.__mathlib_dbl_underflow                0x08007e50   Section        0  dunder.o(i.__mathlib_dbl_underflow)
    i.__scatterload_copy                     0x08007e70   Section       14  handlers.o(i.__scatterload_copy)
    i.__scatterload_null                     0x08007e7e   Section        2  handlers.o(i.__scatterload_null)
    i.__scatterload_zeroinit                 0x08007e80   Section       14  handlers.o(i.__scatterload_zeroinit)
    i.__set_errno                            0x08007e90   Section        0  errno.o(i.__set_errno)
    i._cos                                   0x08007e9c   Section        0  foc_utils.o(i._cos)
    i._electricalAngle                       0x08007ec8   Section        0  foc_utils.o(i._electricalAngle)
    i._fp_digits                             0x08007ed8   Section        0  printfa.o(i._fp_digits)
    _fp_digits                               0x08007ed9   Thumb Code   366  printfa.o(i._fp_digits)
    i._normalizeAngle                        0x0800805c   Section        0  foc_utils.o(i._normalizeAngle)
    i._printf_core                           0x080080a0   Section        0  printfa.o(i._printf_core)
    _printf_core                             0x080080a1   Thumb Code  1704  printfa.o(i._printf_core)
    i._printf_post_padding                   0x08008754   Section        0  printfa.o(i._printf_post_padding)
    _printf_post_padding                     0x08008755   Thumb Code    36  printfa.o(i._printf_post_padding)
    i._printf_pre_padding                    0x08008778   Section        0  printfa.o(i._printf_pre_padding)
    _printf_pre_padding                      0x08008779   Thumb Code    46  printfa.o(i._printf_pre_padding)
    i._sin                                   0x080087a8   Section        0  foc_utils.o(i._sin)
    i._sqrtApprox                            0x08008898   Section        0  foc_utils.o(i._sqrtApprox)
    i.adc_init                               0x080088b0   Section        0  del_adc.o(i.adc_init)
    i.atan                                   0x080088d0   Section        0  atan.o(i.atan)
    i.calibrateOffsets                       0x080088e0   Section        0  currentsense.o(i.calibrateOffsets)
    i.fabs                                   0x080089b8   Section        0  fabs.o(i.fabs)
    i.fputc                                  0x080089d0   Section        0  del_uart.o(i.fputc)
    i.main                                   0x080089e8   Section        0  main.o(i.main)
    i.micros                                 0x08008a26   Section        0  del_hal.o(i.micros)
    .constdata                               0x08008a6a   Section       24  stm32g4xx_hal_uart.o(.constdata)
    .constdata                               0x08008a82   Section       16  stm32g4xx_hal_uart_ex.o(.constdata)
    numerator                                0x08008a82   Data           8  stm32g4xx_hal_uart_ex.o(.constdata)
    denominator                              0x08008a8a   Data           8  stm32g4xx_hal_uart_ex.o(.constdata)
    .constdata                               0x08008a92   Section       16  system_stm32g4xx.o(.constdata)
    .constdata                               0x08008aa2   Section        8  system_stm32g4xx.o(.constdata)
    .constdata                               0x08008aaa   Section    14620  lcd.o(.constdata)
    .constdata                               0x0800c3c8   Section      800  foc_utils.o(.constdata)
    .constdata                               0x0800c6e8   Section      152  atan.o(.constdata)
    atanhi                                   0x0800c6e8   Data          32  atan.o(.constdata)
    atanlo                                   0x0800c708   Data          32  atan.o(.constdata)
    aTodd                                    0x0800c728   Data          40  atan.o(.constdata)
    aTeven                                   0x0800c750   Data          48  atan.o(.constdata)
    .constdata                               0x0800c780   Section        8  qnan.o(.constdata)
    .data                                    0x20000000   Section       12  stm32g4xx_hal.o(.data)
    .data                                    0x2000000c   Section        4  system_stm32g4xx.o(.data)
    .data                                    0x20000010   Section        4  del_driver.o(.data)
    .data                                    0x20000014   Section        4  del_hal.o(.data)
    .data                                    0x20000018   Section        4  del_port.o(.data)
    .data                                    0x2000001c   Section        4  del_uart.o(.data)
    .data                                    0x20000020   Section        8  del_as5600.o(.data)
    angle_data_prev                          0x20000020   Data           4  del_as5600.o(.data)
    full_rotation_offset                     0x20000024   Data           4  del_as5600.o(.data)
    .data                                    0x20000028   Section        4  stdout.o(.data)
    .data                                    0x2000002c   Section        4  errno.o(.data)
    _errno                                   0x2000002c   Data           4  errno.o(.data)
    .bss                                     0x20000030   Section      204  adc.o(.bss)
    .bss                                     0x200000fc   Section      100  fdcan.o(.bss)
    .bss                                     0x20000160   Section       76  i2c.o(.bss)
    .bss                                     0x200001ac   Section      200  spi.o(.bss)
    .bss                                     0x20000274   Section      228  tim.o(.bss)
    .bss                                     0x20000358   Section      144  usart.o(.bss)
    .bss                                     0x200003e8   Section      440  del_hal.o(.bss)
    .bss                                     0x200005a0   Section       40  del_port.o(.bss)
    .bss                                     0x200005c8   Section      200  del_uart.o(.bss)
    .bss                                     0x20000690   Section       16  del_adc.o(.bss)
    STACK                                    0x200006a0   Section     1024  startup_stm32g431xx.o(STACK)

    Global Symbols

    Symbol Name                              Value     Ov Type        Size  Object(Section)

    BuildAttributes$$THM_ISAv4$E$P$D$K$B$S$7EM$VFPi3$EXTD16$VFPS$VFMA$PE$A:L22UL41UL21$X:L11$S22US41US21$IEEE1$IW$USESV6$~STKCKD$USESV7$~SHL$OTIME$ROPI$IEEEX$EBA8$MICROLIB$REQ8$PRES8$EABIv2 0x00000000   Number         0  anon$$obj.o ABSOLUTE
    __ARM_use_no_argv                        0x00000000   Number         0  main.o ABSOLUTE
    _printf_a                                0x00000000   Number         0  stubs.o ABSOLUTE
    _printf_c                                0x00000000   Number         0  stubs.o ABSOLUTE
    _printf_charcount                        0x00000000   Number         0  stubs.o ABSOLUTE
    _printf_d                                0x00000000   Number         0  stubs.o ABSOLUTE
    _printf_e                                0x00000000   Number         0  stubs.o ABSOLUTE
    _printf_f                                0x00000000   Number         0  stubs.o ABSOLUTE
    _printf_flags                            0x00000000   Number         0  stubs.o ABSOLUTE
    _printf_fp_dec                           0x00000000   Number         0  stubs.o ABSOLUTE
    _printf_fp_hex                           0x00000000   Number         0  stubs.o ABSOLUTE
    _printf_g                                0x00000000   Number         0  stubs.o ABSOLUTE
    _printf_i                                0x00000000   Number         0  stubs.o ABSOLUTE
    _printf_int_dec                          0x00000000   Number         0  stubs.o ABSOLUTE
    _printf_l                                0x00000000   Number         0  stubs.o ABSOLUTE
    _printf_lc                               0x00000000   Number         0  stubs.o ABSOLUTE
    _printf_ll                               0x00000000   Number         0  stubs.o ABSOLUTE
    _printf_lld                              0x00000000   Number         0  stubs.o ABSOLUTE
    _printf_lli                              0x00000000   Number         0  stubs.o ABSOLUTE
    _printf_llo                              0x00000000   Number         0  stubs.o ABSOLUTE
    _printf_llu                              0x00000000   Number         0  stubs.o ABSOLUTE
    _printf_llx                              0x00000000   Number         0  stubs.o ABSOLUTE
    _printf_longlong_dec                     0x00000000   Number         0  stubs.o ABSOLUTE
    _printf_longlong_hex                     0x00000000   Number         0  stubs.o ABSOLUTE
    _printf_longlong_oct                     0x00000000   Number         0  stubs.o ABSOLUTE
    _printf_ls                               0x00000000   Number         0  stubs.o ABSOLUTE
    _printf_mbtowc                           0x00000000   Number         0  stubs.o ABSOLUTE
    _printf_n                                0x00000000   Number         0  stubs.o ABSOLUTE
    _printf_o                                0x00000000   Number         0  stubs.o ABSOLUTE
    _printf_p                                0x00000000   Number         0  stubs.o ABSOLUTE
    _printf_percent                          0x00000000   Number         0  stubs.o ABSOLUTE
    _printf_pre_padding                      0x00000000   Number         0  stubs.o ABSOLUTE
    _printf_return_value                     0x00000000   Number         0  stubs.o ABSOLUTE
    _printf_s                                0x00000000   Number         0  stubs.o ABSOLUTE
    _printf_sizespec                         0x00000000   Number         0  stubs.o ABSOLUTE
    _printf_str                              0x00000000   Number         0  stubs.o ABSOLUTE
    _printf_truncate_signed                  0x00000000   Number         0  stubs.o ABSOLUTE
    _printf_truncate_unsigned                0x00000000   Number         0  stubs.o ABSOLUTE
    _printf_u                                0x00000000   Number         0  stubs.o ABSOLUTE
    _printf_wc                               0x00000000   Number         0  stubs.o ABSOLUTE
    _printf_wctomb                           0x00000000   Number         0  stubs.o ABSOLUTE
    _printf_widthprec                        0x00000000   Number         0  stubs.o ABSOLUTE
    _printf_x                                0x00000000   Number         0  stubs.o ABSOLUTE
    __arm_fini_                               - Undefined Weak Reference
    __cpp_initialize__aeabi_                  - Undefined Weak Reference
    __cxa_finalize                            - Undefined Weak Reference
    __decompress                              - Undefined Weak Reference
    _clock_init                               - Undefined Weak Reference
    _microlib_exit                            - Undefined Weak Reference
    __Vectors_Size                           0x000001d8   Number         0  startup_stm32g431xx.o ABSOLUTE
    __Vectors                                0x08000000   Data           4  startup_stm32g431xx.o(RESET)
    __Vectors_End                            0x080001d8   Data           0  startup_stm32g431xx.o(RESET)
    __main                                   0x080001d9   Thumb Code     0  entry.o(.ARM.Collect$$$$00000000)
    _main_stk                                0x080001d9   Thumb Code     0  entry2.o(.ARM.Collect$$$$00000001)
    _main_scatterload                        0x080001dd   Thumb Code     0  entry5.o(.ARM.Collect$$$$00000004)
    __main_after_scatterload                 0x080001e1   Thumb Code     0  entry5.o(.ARM.Collect$$$$00000004)
    _main_clock                              0x080001e1   Thumb Code     0  entry7b.o(.ARM.Collect$$$$00000008)
    _main_cpp_init                           0x080001e1   Thumb Code     0  entry8b.o(.ARM.Collect$$$$0000000A)
    _main_init                               0x080001e1   Thumb Code     0  entry9a.o(.ARM.Collect$$$$0000000B)
    __rt_lib_shutdown_fini                   0x080001e9   Thumb Code     0  entry12b.o(.ARM.Collect$$$$0000000E)
    __rt_final_cpp                           0x080001ed   Thumb Code     0  entry10a.o(.ARM.Collect$$$$0000000F)
    __rt_final_exit                          0x080001ed   Thumb Code     0  entry11a.o(.ARM.Collect$$$$00000011)
    Reset_Handler                            0x080001f1   Thumb Code     8  startup_stm32g431xx.o(.text)
    ADC1_2_IRQHandler                        0x0800020b   Thumb Code     0  startup_stm32g431xx.o(.text)
    COMP1_2_3_IRQHandler                     0x0800020b   Thumb Code     0  startup_stm32g431xx.o(.text)
    COMP4_IRQHandler                         0x0800020b   Thumb Code     0  startup_stm32g431xx.o(.text)
    CORDIC_IRQHandler                        0x0800020b   Thumb Code     0  startup_stm32g431xx.o(.text)
    CRS_IRQHandler                           0x0800020b   Thumb Code     0  startup_stm32g431xx.o(.text)
    DMA1_Channel2_IRQHandler                 0x0800020b   Thumb Code     0  startup_stm32g431xx.o(.text)
    DMA1_Channel3_IRQHandler                 0x0800020b   Thumb Code     0  startup_stm32g431xx.o(.text)
    DMA1_Channel4_IRQHandler                 0x0800020b   Thumb Code     0  startup_stm32g431xx.o(.text)
    DMA1_Channel5_IRQHandler                 0x0800020b   Thumb Code     0  startup_stm32g431xx.o(.text)
    DMA1_Channel6_IRQHandler                 0x0800020b   Thumb Code     0  startup_stm32g431xx.o(.text)
    DMA2_Channel1_IRQHandler                 0x0800020b   Thumb Code     0  startup_stm32g431xx.o(.text)
    DMA2_Channel2_IRQHandler                 0x0800020b   Thumb Code     0  startup_stm32g431xx.o(.text)
    DMA2_Channel3_IRQHandler                 0x0800020b   Thumb Code     0  startup_stm32g431xx.o(.text)
    DMA2_Channel4_IRQHandler                 0x0800020b   Thumb Code     0  startup_stm32g431xx.o(.text)
    DMA2_Channel5_IRQHandler                 0x0800020b   Thumb Code     0  startup_stm32g431xx.o(.text)
    DMA2_Channel6_IRQHandler                 0x0800020b   Thumb Code     0  startup_stm32g431xx.o(.text)
    DMAMUX_OVR_IRQHandler                    0x0800020b   Thumb Code     0  startup_stm32g431xx.o(.text)
    EXTI0_IRQHandler                         0x0800020b   Thumb Code     0  startup_stm32g431xx.o(.text)
    EXTI15_10_IRQHandler                     0x0800020b   Thumb Code     0  startup_stm32g431xx.o(.text)
    EXTI1_IRQHandler                         0x0800020b   Thumb Code     0  startup_stm32g431xx.o(.text)
    EXTI2_IRQHandler                         0x0800020b   Thumb Code     0  startup_stm32g431xx.o(.text)
    EXTI3_IRQHandler                         0x0800020b   Thumb Code     0  startup_stm32g431xx.o(.text)
    EXTI4_IRQHandler                         0x0800020b   Thumb Code     0  startup_stm32g431xx.o(.text)
    EXTI9_5_IRQHandler                       0x0800020b   Thumb Code     0  startup_stm32g431xx.o(.text)
    FDCAN1_IT0_IRQHandler                    0x0800020b   Thumb Code     0  startup_stm32g431xx.o(.text)
    FDCAN1_IT1_IRQHandler                    0x0800020b   Thumb Code     0  startup_stm32g431xx.o(.text)
    FLASH_IRQHandler                         0x0800020b   Thumb Code     0  startup_stm32g431xx.o(.text)
    FMAC_IRQHandler                          0x0800020b   Thumb Code     0  startup_stm32g431xx.o(.text)
    FPU_IRQHandler                           0x0800020b   Thumb Code     0  startup_stm32g431xx.o(.text)
    I2C1_ER_IRQHandler                       0x0800020b   Thumb Code     0  startup_stm32g431xx.o(.text)
    I2C1_EV_IRQHandler                       0x0800020b   Thumb Code     0  startup_stm32g431xx.o(.text)
    I2C2_ER_IRQHandler                       0x0800020b   Thumb Code     0  startup_stm32g431xx.o(.text)
    I2C2_EV_IRQHandler                       0x0800020b   Thumb Code     0  startup_stm32g431xx.o(.text)
    I2C3_ER_IRQHandler                       0x0800020b   Thumb Code     0  startup_stm32g431xx.o(.text)
    I2C3_EV_IRQHandler                       0x0800020b   Thumb Code     0  startup_stm32g431xx.o(.text)
    LPTIM1_IRQHandler                        0x0800020b   Thumb Code     0  startup_stm32g431xx.o(.text)
    LPUART1_IRQHandler                       0x0800020b   Thumb Code     0  startup_stm32g431xx.o(.text)
    PVD_PVM_IRQHandler                       0x0800020b   Thumb Code     0  startup_stm32g431xx.o(.text)
    RCC_IRQHandler                           0x0800020b   Thumb Code     0  startup_stm32g431xx.o(.text)
    RNG_IRQHandler                           0x0800020b   Thumb Code     0  startup_stm32g431xx.o(.text)
    RTC_Alarm_IRQHandler                     0x0800020b   Thumb Code     0  startup_stm32g431xx.o(.text)
    RTC_TAMP_LSECSS_IRQHandler               0x0800020b   Thumb Code     0  startup_stm32g431xx.o(.text)
    RTC_WKUP_IRQHandler                      0x0800020b   Thumb Code     0  startup_stm32g431xx.o(.text)
    SAI1_IRQHandler                          0x0800020b   Thumb Code     0  startup_stm32g431xx.o(.text)
    SPI1_IRQHandler                          0x0800020b   Thumb Code     0  startup_stm32g431xx.o(.text)
    SPI2_IRQHandler                          0x0800020b   Thumb Code     0  startup_stm32g431xx.o(.text)
    SPI3_IRQHandler                          0x0800020b   Thumb Code     0  startup_stm32g431xx.o(.text)
    TIM1_CC_IRQHandler                       0x0800020b   Thumb Code     0  startup_stm32g431xx.o(.text)
    TIM1_TRG_COM_TIM17_IRQHandler            0x0800020b   Thumb Code     0  startup_stm32g431xx.o(.text)
    TIM1_UP_TIM16_IRQHandler                 0x0800020b   Thumb Code     0  startup_stm32g431xx.o(.text)
    TIM2_IRQHandler                          0x0800020b   Thumb Code     0  startup_stm32g431xx.o(.text)
    TIM4_IRQHandler                          0x0800020b   Thumb Code     0  startup_stm32g431xx.o(.text)
    TIM6_DAC_IRQHandler                      0x0800020b   Thumb Code     0  startup_stm32g431xx.o(.text)
    TIM7_IRQHandler                          0x0800020b   Thumb Code     0  startup_stm32g431xx.o(.text)
    TIM8_BRK_IRQHandler                      0x0800020b   Thumb Code     0  startup_stm32g431xx.o(.text)
    TIM8_CC_IRQHandler                       0x0800020b   Thumb Code     0  startup_stm32g431xx.o(.text)
    TIM8_TRG_COM_IRQHandler                  0x0800020b   Thumb Code     0  startup_stm32g431xx.o(.text)
    TIM8_UP_IRQHandler                       0x0800020b   Thumb Code     0  startup_stm32g431xx.o(.text)
    UART4_IRQHandler                         0x0800020b   Thumb Code     0  startup_stm32g431xx.o(.text)
    UCPD1_IRQHandler                         0x0800020b   Thumb Code     0  startup_stm32g431xx.o(.text)
    USART2_IRQHandler                        0x0800020b   Thumb Code     0  startup_stm32g431xx.o(.text)
    USART3_IRQHandler                        0x0800020b   Thumb Code     0  startup_stm32g431xx.o(.text)
    USBWakeUp_IRQHandler                     0x0800020b   Thumb Code     0  startup_stm32g431xx.o(.text)
    USB_HP_IRQHandler                        0x0800020b   Thumb Code     0  startup_stm32g431xx.o(.text)
    USB_LP_IRQHandler                        0x0800020b   Thumb Code     0  startup_stm32g431xx.o(.text)
    WWDG_IRQHandler                          0x0800020b   Thumb Code     0  startup_stm32g431xx.o(.text)
    __aeabi_uldivmod                         0x08000215   Thumb Code    98  uldiv.o(.text)
    __aeabi_memset                           0x08000277   Thumb Code    14  memseta.o(.text)
    __aeabi_memset4                          0x08000277   Thumb Code     0  memseta.o(.text)
    __aeabi_memset8                          0x08000277   Thumb Code     0  memseta.o(.text)
    __aeabi_memclr                           0x08000285   Thumb Code     4  memseta.o(.text)
    __aeabi_memclr4                          0x08000285   Thumb Code     0  memseta.o(.text)
    __aeabi_memclr8                          0x08000285   Thumb Code     0  memseta.o(.text)
    _memset$wrapper                          0x08000289   Thumb Code    18  memseta.o(.text)
    __aeabi_dadd                             0x0800029b   Thumb Code   322  dadd.o(.text)
    __aeabi_dsub                             0x080003dd   Thumb Code     6  dadd.o(.text)
    __aeabi_drsub                            0x080003e3   Thumb Code     6  dadd.o(.text)
    __aeabi_dmul                             0x080003e9   Thumb Code   228  dmul.o(.text)
    __aeabi_i2d                              0x080004cd   Thumb Code    34  dflti.o(.text)
    __aeabi_d2iz                             0x080004ef   Thumb Code    62  dfixi.o(.text)
    __aeabi_f2d                              0x0800052d   Thumb Code    38  f2d.o(.text)
    __aeabi_d2f                              0x08000553   Thumb Code    56  d2f.o(.text)
    __aeabi_uidiv                            0x0800058b   Thumb Code     0  uidiv.o(.text)
    __aeabi_uidivmod                         0x0800058b   Thumb Code    44  uidiv.o(.text)
    __aeabi_llsl                             0x080005b7   Thumb Code    30  llshl.o(.text)
    _ll_shift_l                              0x080005b7   Thumb Code     0  llshl.o(.text)
    __aeabi_llsr                             0x080005d5   Thumb Code    32  llushr.o(.text)
    _ll_ushift_r                             0x080005d5   Thumb Code     0  llushr.o(.text)
    __aeabi_lasr                             0x080005f5   Thumb Code    36  llsshr.o(.text)
    _ll_sshift_r                             0x080005f5   Thumb Code     0  llsshr.o(.text)
    __I$use$fp                               0x08000619   Thumb Code     0  iusefp.o(.text)
    _float_round                             0x08000619   Thumb Code    18  fepilogue.o(.text)
    _float_epilogue                          0x0800062b   Thumb Code    92  fepilogue.o(.text)
    _double_round                            0x08000687   Thumb Code    30  depilogue.o(.text)
    _double_epilogue                         0x080006a5   Thumb Code   156  depilogue.o(.text)
    __aeabi_ddiv                             0x08000741   Thumb Code   222  ddiv.o(.text)
    _drem                                    0x0800081f   Thumb Code   134  drem.o(.text)
    __aeabi_d2ulz                            0x080008a5   Thumb Code    48  dfixul.o(.text)
    __aeabi_cdcmpeq                          0x080008d5   Thumb Code     0  cdcmple.o(.text)
    __aeabi_cdcmple                          0x080008d5   Thumb Code    48  cdcmple.o(.text)
    __aeabi_cdrcmple                         0x08000905   Thumb Code    48  cdrcmple.o(.text)
    __scatterload                            0x08000935   Thumb Code    28  init.o(.text)
    __scatterload_rt2                        0x08000935   Thumb Code     0  init.o(.text)
    ADC_DMAConvCplt                          0x08000959   Thumb Code   104  stm32g4xx_hal_adc.o(i.ADC_DMAConvCplt)
    ADC_DMAError                             0x080009c1   Thumb Code    26  stm32g4xx_hal_adc.o(i.ADC_DMAError)
    ADC_DMAHalfConvCplt                      0x080009db   Thumb Code    10  stm32g4xx_hal_adc.o(i.ADC_DMAHalfConvCplt)
    ADC_Enable                               0x080009e5   Thumb Code   110  stm32g4xx_hal_adc.o(i.ADC_Enable)
    AS5600_Get_RawAngle                      0x08000a59   Thumb Code    50  del_as5600.o(i.AS5600_Get_RawAngle)
    AS5600_Init                              0x08000a91   Thumb Code    30  del_as5600.o(i.AS5600_Init)
    BLDCDriver_Init                          0x08000ab9   Thumb Code    34  bldcdriver.o(i.BLDCDriver_Init)
    BLDCDriver_disable                       0x08000ae1   Thumb Code    30  bldcdriver.o(i.BLDCDriver_disable)
    BLDCDriver_enable                        0x08000b05   Thumb Code    24  bldcdriver.o(i.BLDCDriver_enable)
    BLDCDriver_setPWM                        0x08000b21   Thumb Code   244  bldcdriver.o(i.BLDCDriver_setPWM)
    BLDCMotor_absoluteZeroSearch             0x08000c19   Thumb Code   158  bldcmotor.o(i.BLDCMotor_absoluteZeroSearch)
    BLDCMotor_alignCurrentSense              0x08000d09   Thumb Code    52  bldcmotor.o(i.BLDCMotor_alignCurrentSense)
    BLDCMotor_alignSensor                    0x08000d81   Thumb Code   494  bldcmotor.o(i.BLDCMotor_alignSensor)
    BLDCMotor_angleOpenloop                  0x08001085   Thumb Code   286  bldcmotor.o(i.BLDCMotor_angleOpenloop)
    BLDCMotor_create                         0x080011b5   Thumb Code    36  bldcmotor.o(i.BLDCMotor_create)
    BLDCMotor_disable                        0x080011d9   Thumb Code    40  bldcmotor.o(i.BLDCMotor_disable)
    BLDCMotor_enable                         0x08001205   Thumb Code    40  bldcmotor.o(i.BLDCMotor_enable)
    BLDCMotor_init                           0x08001231   Thumb Code   172  bldcmotor.o(i.BLDCMotor_init)
    BLDCMotor_initFOC                        0x080012f9   Thumb Code   136  bldcmotor.o(i.BLDCMotor_initFOC)
    BLDCMotor_linkDriver                     0x080013dd   Thumb Code     6  bldcmotor.o(i.BLDCMotor_linkDriver)
    BLDCMotor_loopFOC                        0x080013e5   Thumb Code   240  bldcmotor.o(i.BLDCMotor_loopFOC)
    BLDCMotor_move                           0x080014fd   Thumb Code   332  bldcmotor.o(i.BLDCMotor_move)
    BLDCMotor_setPhaseVoltage                0x08001651   Thumb Code   712  bldcmotor.o(i.BLDCMotor_setPhaseVoltage)
    BLDCMotor_velocityOpenloop               0x08001935   Thumb Code   160  bldcmotor.o(i.BLDCMotor_velocityOpenloop)
    BusFault_Handler                         0x080019e5   Thumb Code     2  stm32g4xx_it.o(i.BusFault_Handler)
    Button_Init                              0x080019e7   Thumb Code    10  del_key.o(i.Button_Init)
    Button_Scan_20ms                         0x080019f1   Thumb Code   138  del_key.o(i.Button_Scan_20ms)
    CurrentSense_create                      0x08001a7b   Thumb Code    48  currentsense.o(i.CurrentSense_create)
    CurrentSense_driverAlign                 0x08001aab   Thumb Code     4  currentsense.o(i.CurrentSense_driverAlign)
    CurrentSense_getDCCurrent                0x08001ab1   Thumb Code   164  currentsense.o(i.CurrentSense_getDCCurrent)
    CurrentSense_getFOCCurrents              0x08001b61   Thumb Code   128  currentsense.o(i.CurrentSense_getFOCCurrents)
    CurrentSense_getPhaseCurrents            0x08001bed   Thumb Code   114  currentsense.o(i.CurrentSense_getPhaseCurrents)
    CurrentSense_init                        0x08001c6d   Thumb Code     4  currentsense.o(i.CurrentSense_init)
    DMA1_Channel1_IRQHandler                 0x08001c71   Thumb Code     6  stm32g4xx_it.o(i.DMA1_Channel1_IRQHandler)
    DebugMon_Handler                         0x08001d1f   Thumb Code     2  stm32g4xx_it.o(i.DebugMon_Handler)
    Del_Button1_Long_Callback                0x08001d21   Thumb Code     8  del_port.o(i.Del_Button1_Long_Callback)
    Del_Button1_Short_Callback               0x08001d2d   Thumb Code     8  del_port.o(i.Del_Button1_Short_Callback)
    Del_Button2_Long_Callback                0x08001d39   Thumb Code     8  del_port.o(i.Del_Button2_Long_Callback)
    Del_Button2_Short_Callback               0x08001d45   Thumb Code     8  del_port.o(i.Del_Button2_Short_Callback)
    Del_Init                                 0x08001d51   Thumb Code   350  del_hal.o(i.Del_Init)
    Del_Update                               0x08001ef9   Thumb Code    70  del_hal.o(i.Del_Update)
    Driver_Init                              0x08001f4d   Thumb Code    42  del_driver.o(i.Driver_Init)
    Driver_Set_Freq                          0x08001f7d   Thumb Code    54  del_driver.o(i.Driver_Set_Freq)
    Driver_Set_PWM                           0x08001fc1   Thumb Code    70  del_driver.o(i.Driver_Set_PWM)
    Error_Handler                            0x08002011   Thumb Code     4  main.o(i.Error_Handler)
    FOCMotor_Create                          0x08002015   Thumb Code   294  focmotor.o(i.FOCMotor_Create)
    FOCMotor_Init                            0x08002159   Thumb Code     2  focmotor.o(i.FOCMotor_Init)
    FOCMotor_electricalAngle                 0x0800215b   Thumb Code    56  focmotor.o(i.FOCMotor_electricalAngle)
    FOCMotor_linkCurrentSense                0x08002193   Thumb Code     6  focmotor.o(i.FOCMotor_linkCurrentSense)
    FOCMotor_linkSensor                      0x08002199   Thumb Code     6  focmotor.o(i.FOCMotor_linkSensor)
    FOCMotor_shaftAngle                      0x0800219f   Thumb Code    50  focmotor.o(i.FOCMotor_shaftAngle)
    FOCMotor_shaftVelocity                   0x080021d1   Thumb Code    42  focmotor.o(i.FOCMotor_shaftVelocity)
    HAL_ADC_ConfigChannel                    0x080021fd   Thumb Code   998  stm32g4xx_hal_adc.o(i.HAL_ADC_ConfigChannel)
    HAL_ADC_ConvCpltCallback                 0x08002615   Thumb Code     2  stm32g4xx_hal_adc.o(i.HAL_ADC_ConvCpltCallback)
    HAL_ADC_ConvHalfCpltCallback             0x08002617   Thumb Code     2  stm32g4xx_hal_adc.o(i.HAL_ADC_ConvHalfCpltCallback)
    HAL_ADC_ErrorCallback                    0x08002619   Thumb Code     2  stm32g4xx_hal_adc.o(i.HAL_ADC_ErrorCallback)
    HAL_ADC_Init                             0x0800261d   Thumb Code   476  stm32g4xx_hal_adc.o(i.HAL_ADC_Init)
    HAL_ADC_MspInit                          0x08002819   Thumb Code   160  adc.o(i.HAL_ADC_MspInit)
    HAL_ADC_Start_DMA                        0x080028c9   Thumb Code   214  stm32g4xx_hal_adc.o(i.HAL_ADC_Start_DMA)
    HAL_DMA_Abort                            0x080029b9   Thumb Code   106  stm32g4xx_hal_dma.o(i.HAL_DMA_Abort)
    HAL_DMA_Abort_IT                         0x08002a23   Thumb Code   120  stm32g4xx_hal_dma.o(i.HAL_DMA_Abort_IT)
    HAL_DMA_IRQHandler                       0x08002a9b   Thumb Code   186  stm32g4xx_hal_dma.o(i.HAL_DMA_IRQHandler)
    HAL_DMA_Init                             0x08002b55   Thumb Code   178  stm32g4xx_hal_dma.o(i.HAL_DMA_Init)
    HAL_DMA_Start_IT                         0x08002c15   Thumb Code   140  stm32g4xx_hal_dma.o(i.HAL_DMA_Start_IT)
    HAL_Delay                                0x08002ca1   Thumb Code    32  stm32g4xx_hal.o(i.HAL_Delay)
    HAL_FDCAN_Init                           0x08002cc5   Thumb Code   498  stm32g4xx_hal_fdcan.o(i.HAL_FDCAN_Init)
    HAL_FDCAN_MspInit                        0x08002ec9   Thumb Code   116  fdcan.o(i.HAL_FDCAN_MspInit)
    HAL_GPIO_Init                            0x08002f45   Thumb Code   550  stm32g4xx_hal_gpio.o(i.HAL_GPIO_Init)
    HAL_GPIO_ReadPin                         0x0800318d   Thumb Code    10  stm32g4xx_hal_gpio.o(i.HAL_GPIO_ReadPin)
    HAL_GPIO_WritePin                        0x08003197   Thumb Code    10  stm32g4xx_hal_gpio.o(i.HAL_GPIO_WritePin)
    HAL_GetTick                              0x080031a1   Thumb Code     6  stm32g4xx_hal.o(i.HAL_GetTick)
    HAL_I2CEx_ConfigAnalogFilter             0x080031ad   Thumb Code    86  stm32g4xx_hal_i2c_ex.o(i.HAL_I2CEx_ConfigAnalogFilter)
    HAL_I2CEx_ConfigDigitalFilter            0x08003203   Thumb Code    82  stm32g4xx_hal_i2c_ex.o(i.HAL_I2CEx_ConfigDigitalFilter)
    HAL_I2C_Init                             0x08003255   Thumb Code   178  stm32g4xx_hal_i2c.o(i.HAL_I2C_Init)
    HAL_I2C_Master_Receive                   0x0800330d   Thumb Code   282  stm32g4xx_hal_i2c.o(i.HAL_I2C_Master_Receive)
    HAL_I2C_Master_Transmit                  0x08003431   Thumb Code   282  stm32g4xx_hal_i2c.o(i.HAL_I2C_Master_Transmit)
    HAL_I2C_MspInit                          0x08003555   Thumb Code   150  i2c.o(i.HAL_I2C_MspInit)
    HAL_IncTick                              0x080035f9   Thumb Code    12  stm32g4xx_hal.o(i.HAL_IncTick)
    HAL_Init                                 0x08003609   Thumb Code    30  stm32g4xx_hal.o(i.HAL_Init)
    HAL_InitTick                             0x08003629   Thumb Code    58  stm32g4xx_hal.o(i.HAL_InitTick)
    HAL_MspInit                              0x0800366d   Thumb Code    60  stm32g4xx_hal_msp.o(i.HAL_MspInit)
    HAL_NVIC_EnableIRQ                       0x080036ad   Thumb Code    26  stm32g4xx_hal_cortex.o(i.HAL_NVIC_EnableIRQ)
    HAL_NVIC_SetPriority                     0x080036c9   Thumb Code    60  stm32g4xx_hal_cortex.o(i.HAL_NVIC_SetPriority)
    HAL_NVIC_SetPriorityGrouping             0x08003709   Thumb Code    26  stm32g4xx_hal_cortex.o(i.HAL_NVIC_SetPriorityGrouping)
    HAL_PWREx_ControlVoltageScaling          0x0800372d   Thumb Code   174  stm32g4xx_hal_pwr_ex.o(i.HAL_PWREx_ControlVoltageScaling)
    HAL_PWREx_DisableUCPDDeadBattery         0x080037e9   Thumb Code    12  stm32g4xx_hal_pwr_ex.o(i.HAL_PWREx_DisableUCPDDeadBattery)
    HAL_RCCEx_PeriphCLKConfig                0x080037f9   Thumb Code   638  stm32g4xx_hal_rcc_ex.o(i.HAL_RCCEx_PeriphCLKConfig)
    HAL_RCC_ClockConfig                      0x08003a81   Thumb Code   444  stm32g4xx_hal_rcc.o(i.HAL_RCC_ClockConfig)
    HAL_RCC_GetPCLK1Freq                     0x08003c5d   Thumb Code    24  stm32g4xx_hal_rcc.o(i.HAL_RCC_GetPCLK1Freq)
    HAL_RCC_GetPCLK2Freq                     0x08003c81   Thumb Code    24  stm32g4xx_hal_rcc.o(i.HAL_RCC_GetPCLK2Freq)
    HAL_RCC_GetSysClockFreq                  0x08003ca5   Thumb Code    98  stm32g4xx_hal_rcc.o(i.HAL_RCC_GetSysClockFreq)
    HAL_RCC_OscConfig                        0x08003d15   Thumb Code  1036  stm32g4xx_hal_rcc.o(i.HAL_RCC_OscConfig)
    HAL_SPI_Init                             0x08004121   Thumb Code   234  stm32g4xx_hal_spi.o(i.HAL_SPI_Init)
    HAL_SPI_MspInit                          0x0800420d   Thumb Code   128  spi.o(i.HAL_SPI_MspInit)
    HAL_SPI_Transmit                         0x0800429d   Thumb Code   392  stm32g4xx_hal_spi.o(i.HAL_SPI_Transmit)
    HAL_SYSCFG_EnableVREFBUF                 0x08004425   Thumb Code    44  stm32g4xx_hal.o(i.HAL_SYSCFG_EnableVREFBUF)
    HAL_SYSCFG_VREFBUF_HighImpedanceConfig   0x08004455   Thumb Code    14  stm32g4xx_hal.o(i.HAL_SYSCFG_VREFBUF_HighImpedanceConfig)
    HAL_SYSCFG_VREFBUF_VoltageScalingConfig  0x08004469   Thumb Code    14  stm32g4xx_hal.o(i.HAL_SYSCFG_VREFBUF_VoltageScalingConfig)
    HAL_SYSTICK_Config                       0x0800447d   Thumb Code    40  stm32g4xx_hal_cortex.o(i.HAL_SYSTICK_Config)
    HAL_TIMEx_Break2Callback                 0x080044a5   Thumb Code     2  stm32g4xx_hal_tim_ex.o(i.HAL_TIMEx_Break2Callback)
    HAL_TIMEx_BreakCallback                  0x080044a7   Thumb Code     2  stm32g4xx_hal_tim_ex.o(i.HAL_TIMEx_BreakCallback)
    HAL_TIMEx_CommutCallback                 0x080044a9   Thumb Code     2  stm32g4xx_hal_tim_ex.o(i.HAL_TIMEx_CommutCallback)
    HAL_TIMEx_DirectionChangeCallback        0x080044ab   Thumb Code     2  stm32g4xx_hal_tim_ex.o(i.HAL_TIMEx_DirectionChangeCallback)
    HAL_TIMEx_EncoderIndexCallback           0x080044ad   Thumb Code     2  stm32g4xx_hal_tim_ex.o(i.HAL_TIMEx_EncoderIndexCallback)
    HAL_TIMEx_IndexErrorCallback             0x080044af   Thumb Code     2  stm32g4xx_hal_tim_ex.o(i.HAL_TIMEx_IndexErrorCallback)
    HAL_TIMEx_MasterConfigSynchronization    0x080044b1   Thumb Code   132  stm32g4xx_hal_tim_ex.o(i.HAL_TIMEx_MasterConfigSynchronization)
    HAL_TIMEx_TransitionErrorCallback        0x0800454d   Thumb Code     2  stm32g4xx_hal_tim_ex.o(i.HAL_TIMEx_TransitionErrorCallback)
    HAL_TIM_Base_Init                        0x0800454f   Thumb Code    98  stm32g4xx_hal_tim.o(i.HAL_TIM_Base_Init)
    HAL_TIM_Base_MspInit                     0x080045b1   Thumb Code    86  tim.o(i.HAL_TIM_Base_MspInit)
    HAL_TIM_Base_Start_IT                    0x08004615   Thumb Code    94  stm32g4xx_hal_tim.o(i.HAL_TIM_Base_Start_IT)
    HAL_TIM_ConfigClockSource                0x0800468d   Thumb Code   246  stm32g4xx_hal_tim.o(i.HAL_TIM_ConfigClockSource)
    HAL_TIM_IC_CaptureCallback               0x0800478d   Thumb Code     2  stm32g4xx_hal_tim.o(i.HAL_TIM_IC_CaptureCallback)
    HAL_TIM_IRQHandler                       0x0800478f   Thumb Code   508  stm32g4xx_hal_tim.o(i.HAL_TIM_IRQHandler)
    HAL_TIM_MspPostInit                      0x0800498d   Thumb Code    72  tim.o(i.HAL_TIM_MspPostInit)
    HAL_TIM_OC_DelayElapsedCallback          0x080049d9   Thumb Code     2  stm32g4xx_hal_tim.o(i.HAL_TIM_OC_DelayElapsedCallback)
    HAL_TIM_PWM_ConfigChannel                0x080049db   Thumb Code   292  stm32g4xx_hal_tim.o(i.HAL_TIM_PWM_ConfigChannel)
    HAL_TIM_PWM_Init                         0x08004aff   Thumb Code    98  stm32g4xx_hal_tim.o(i.HAL_TIM_PWM_Init)
    HAL_TIM_PWM_MspInit                      0x08004b61   Thumb Code    30  tim.o(i.HAL_TIM_PWM_MspInit)
    HAL_TIM_PWM_PulseFinishedCallback        0x08004b85   Thumb Code     2  stm32g4xx_hal_tim.o(i.HAL_TIM_PWM_PulseFinishedCallback)
    HAL_TIM_PWM_Start                        0x08004b89   Thumb Code   218  stm32g4xx_hal_tim.o(i.HAL_TIM_PWM_Start)
    HAL_TIM_PeriodElapsedCallback            0x08004c85   Thumb Code    52  del_hal.o(i.HAL_TIM_PeriodElapsedCallback)
    HAL_TIM_TriggerCallback                  0x08004ccd   Thumb Code     2  stm32g4xx_hal_tim.o(i.HAL_TIM_TriggerCallback)
    HAL_UARTEx_DisableFifoMode               0x08004ccf   Thumb Code    62  stm32g4xx_hal_uart_ex.o(i.HAL_UARTEx_DisableFifoMode)
    HAL_UARTEx_RxEventCallback               0x08004d0d   Thumb Code     2  stm32g4xx_hal_uart.o(i.HAL_UARTEx_RxEventCallback)
    HAL_UARTEx_RxFifoFullCallback            0x08004d0f   Thumb Code     2  stm32g4xx_hal_uart_ex.o(i.HAL_UARTEx_RxFifoFullCallback)
    HAL_UARTEx_SetRxFifoThreshold            0x08004d11   Thumb Code    76  stm32g4xx_hal_uart_ex.o(i.HAL_UARTEx_SetRxFifoThreshold)
    HAL_UARTEx_SetTxFifoThreshold            0x08004d5d   Thumb Code    76  stm32g4xx_hal_uart_ex.o(i.HAL_UARTEx_SetTxFifoThreshold)
    HAL_UARTEx_TxFifoEmptyCallback           0x08004da9   Thumb Code     2  stm32g4xx_hal_uart_ex.o(i.HAL_UARTEx_TxFifoEmptyCallback)
    HAL_UARTEx_WakeupCallback                0x08004dab   Thumb Code     2  stm32g4xx_hal_uart_ex.o(i.HAL_UARTEx_WakeupCallback)
    HAL_UART_ErrorCallback                   0x08004dad   Thumb Code     2  stm32g4xx_hal_uart.o(i.HAL_UART_ErrorCallback)
    HAL_UART_IRQHandler                      0x08004db1   Thumb Code   722  stm32g4xx_hal_uart.o(i.HAL_UART_IRQHandler)
    HAL_UART_Init                            0x08005091   Thumb Code   106  stm32g4xx_hal_uart.o(i.HAL_UART_Init)
    HAL_UART_MspInit                         0x080050fd   Thumb Code   132  usart.o(i.HAL_UART_MspInit)
    HAL_UART_Receive_IT                      0x08005189   Thumb Code    80  stm32g4xx_hal_uart.o(i.HAL_UART_Receive_IT)
    HAL_UART_RxCpltCallback                  0x080051dd   Thumb Code    88  del_uart.o(i.HAL_UART_RxCpltCallback)
    HAL_UART_Transmit                        0x08005245   Thumb Code   188  stm32g4xx_hal_uart.o(i.HAL_UART_Transmit)
    HAL_UART_TxCpltCallback                  0x08005301   Thumb Code     2  stm32g4xx_hal_uart.o(i.HAL_UART_TxCpltCallback)
    HardFault_Handler                        0x08005303   Thumb Code     2  stm32g4xx_it.o(i.HardFault_Handler)
    LCD_Address_Set                          0x08005609   Thumb Code    66  lcd_init.o(i.LCD_Address_Set)
    LCD_DrawPoint                            0x0800564b   Thumb Code    22  lcd.o(i.LCD_DrawPoint)
    LCD_Fill                                 0x08005661   Thumb Code    62  lcd.o(i.LCD_Fill)
    LCD_Init                                 0x080056a1   Thumb Code   594  lcd_init.o(i.LCD_Init)
    LCD_ShowChar                             0x080058f9   Thumb Code   252  lcd.o(i.LCD_ShowChar)
    LCD_ShowString                           0x08005a05   Thumb Code    58  lcd.o(i.LCD_ShowString)
    LCD_WR_DATA                              0x08005a3f   Thumb Code    20  lcd_init.o(i.LCD_WR_DATA)
    LCD_WR_REG                               0x08005a55   Thumb Code    36  lcd_init.o(i.LCD_WR_REG)
    LCD_Writ_Bus                             0x08005a7d   Thumb Code    46  lcd_init.o(i.LCD_Writ_Bus)
    Led_Flash                                0x08005b0d   Thumb Code    44  del_led.o(i.Led_Flash)
    LowPassFilter_Init                       0x08005b3d   Thumb Code    24  lowpass_filter.o(i.LowPassFilter_Init)
    LowPassFilter_Update                     0x08005b59   Thumb Code   118  lowpass_filter.o(i.LowPassFilter_Update)
    MX_ADC2_Init                             0x08005bdd   Thumb Code   182  adc.o(i.MX_ADC2_Init)
    MX_DMA_Init                              0x08005cad   Thumb Code    56  dma.o(i.MX_DMA_Init)
    MX_FDCAN1_Init                           0x08005ce9   Thumb Code    68  fdcan.o(i.MX_FDCAN1_Init)
    MX_GPIO_Init                             0x08005d35   Thumb Code   210  gpio.o(i.MX_GPIO_Init)
    MX_I2C1_Init                             0x08005e15   Thumb Code    76  i2c.o(i.MX_I2C1_Init)
    MX_SPI1_Init                             0x08005e6d   Thumb Code    72  spi.o(i.MX_SPI1_Init)
    MX_SPI2_Init                             0x08005ebd   Thumb Code    72  spi.o(i.MX_SPI2_Init)
    MX_TIM15_Init                            0x08005f0d   Thumb Code   100  tim.o(i.MX_TIM15_Init)
    MX_TIM2_Init                             0x08005f79   Thumb Code   136  tim.o(i.MX_TIM2_Init)
    MX_TIM3_Init                             0x08006005   Thumb Code    96  tim.o(i.MX_TIM3_Init)
    MX_USART1_UART_Init                      0x0800606d   Thumb Code    94  usart.o(i.MX_USART1_UART_Init)
    MemManage_Handler                        0x080060d5   Thumb Code     2  stm32g4xx_it.o(i.MemManage_Handler)
    NMI_Handler                              0x080060d7   Thumb Code     2  stm32g4xx_it.o(i.NMI_Handler)
    PIDController_Compute                    0x080060d9   Thumb Code   284  pid.o(i.PIDController_Compute)
    PIDController_Init                       0x080061fd   Thumb Code    32  pid.o(i.PIDController_Init)
    PendSV_Handler                           0x08006221   Thumb Code     2  stm32g4xx_it.o(i.PendSV_Handler)
    Port_Init                                0x08006225   Thumb Code    74  del_port.o(i.Port_Init)
    SVC_Handler                              0x08006471   Thumb Code     2  stm32g4xx_it.o(i.SVC_Handler)
    Sensor_getAngle                          0x08006475   Thumb Code    22  sensor.o(i.Sensor_getAngle)
    Sensor_getMechanicalAngle                0x08006491   Thumb Code     6  sensor.o(i.Sensor_getMechanicalAngle)
    Sensor_getSensorAngle                    0x08006499   Thumb Code    32  sensor.o(i.Sensor_getSensorAngle)
    Sensor_getVelocity                       0x080064c1   Thumb Code    96  sensor.o(i.Sensor_getVelocity)
    Sensor_init                              0x08006531   Thumb Code    94  sensor.o(i.Sensor_init)
    Sensor_needsSearch                       0x08006595   Thumb Code     4  sensor.o(i.Sensor_needsSearch)
    Sensor_update                            0x08006599   Thumb Code    94  sensor.o(i.Sensor_update)
    SysTick_Handler                          0x080065fd   Thumb Code     4  stm32g4xx_it.o(i.SysTick_Handler)
    SystemClock_Config                       0x08006601   Thumb Code   102  main.o(i.SystemClock_Config)
    SystemInit                               0x08006669   Thumb Code    12  system_stm32g4xx.o(i.SystemInit)
    TIM1_BRK_TIM15_IRQHandler                0x08006679   Thumb Code     6  stm32g4xx_it.o(i.TIM1_BRK_TIM15_IRQHandler)
    TIM3_IRQHandler                          0x08006685   Thumb Code     6  stm32g4xx_it.o(i.TIM3_IRQHandler)
    TIM_Base_SetConfig                       0x08006691   Thumb Code   146  stm32g4xx_hal_tim.o(i.TIM_Base_SetConfig)
    TIM_CCxChannelCmd                        0x08006741   Thumb Code    26  stm32g4xx_hal_tim.o(i.TIM_CCxChannelCmd)
    TIM_ETR_SetConfig                        0x0800675b   Thumb Code    20  stm32g4xx_hal_tim.o(i.TIM_ETR_SetConfig)
    TIM_OC2_SetConfig                        0x08006821   Thumb Code   120  stm32g4xx_hal_tim.o(i.TIM_OC2_SetConfig)
    UART_AdvFeatureConfig                    0x08006b3d   Thumb Code   200  stm32g4xx_hal_uart.o(i.UART_AdvFeatureConfig)
    UART_CheckIdleState                      0x08006c05   Thumb Code    96  stm32g4xx_hal_uart.o(i.UART_CheckIdleState)
    UART_SetConfig                           0x080070fd   Thumb Code   582  stm32g4xx_hal_uart.o(i.UART_SetConfig)
    UART_Start_Receive_IT                    0x08007371   Thumb Code   262  stm32g4xx_hal_uart.o(i.UART_Start_Receive_IT)
    UART_WaitOnFlagUntilTimeout              0x08007489   Thumb Code   198  stm32g4xx_hal_uart.o(i.UART_WaitOnFlagUntilTimeout)
    USART1_IRQHandler                        0x08007551   Thumb Code     6  stm32g4xx_it.o(i.USART1_IRQHandler)
    Uart_Init                                0x0800755d   Thumb Code    10  del_uart.o(i.Uart_Init)
    Uart_Receive                             0x08007571   Thumb Code    32  del_uart.o(i.Uart_Receive)
    UsageFault_Handler                       0x080075a1   Thumb Code     2  stm32g4xx_it.o(i.UsageFault_Handler)
    __0printf                                0x080075a5   Thumb Code    22  printfa.o(i.__0printf)
    __1printf                                0x080075a5   Thumb Code     0  printfa.o(i.__0printf)
    __2printf                                0x080075a5   Thumb Code     0  printfa.o(i.__0printf)
    __c89printf                              0x080075a5   Thumb Code     0  printfa.o(i.__0printf)
    printf                                   0x080075a5   Thumb Code     0  printfa.o(i.__0printf)
    __ARM_fpclassify                         0x080075c5   Thumb Code    48  fpclassify.o(i.__ARM_fpclassify)
    __hardfp_atan                            0x08007619   Thumb Code   622  atan.o(i.__hardfp_atan)
    __hardfp_atan2                           0x080078f1   Thumb Code   448  atan2.o(i.__hardfp_atan2)
    __hardfp_floor                           0x08007af1   Thumb Code   252  floor.o(i.__hardfp_floor)
    __hardfp_fmod                            0x08007c09   Thumb Code   254  fmod.o(i.__hardfp_fmod)
    __kernel_poly                            0x08007d0d   Thumb Code   248  poly.o(i.__kernel_poly)
    __mathlib_dbl_infnan                     0x08007e05   Thumb Code    20  dunder.o(i.__mathlib_dbl_infnan)
    __mathlib_dbl_infnan2                    0x08007e19   Thumb Code    20  dunder.o(i.__mathlib_dbl_infnan2)
    __mathlib_dbl_invalid                    0x08007e31   Thumb Code    24  dunder.o(i.__mathlib_dbl_invalid)
    __mathlib_dbl_underflow                  0x08007e51   Thumb Code    24  dunder.o(i.__mathlib_dbl_underflow)
    __scatterload_copy                       0x08007e71   Thumb Code    14  handlers.o(i.__scatterload_copy)
    __scatterload_null                       0x08007e7f   Thumb Code     2  handlers.o(i.__scatterload_null)
    __scatterload_zeroinit                   0x08007e81   Thumb Code    14  handlers.o(i.__scatterload_zeroinit)
    __set_errno                              0x08007e91   Thumb Code     6  errno.o(i.__set_errno)
    _cos                                     0x08007e9d   Thumb Code    30  foc_utils.o(i._cos)
    _electricalAngle                         0x08007ec9   Thumb Code    14  foc_utils.o(i._electricalAngle)
    _normalizeAngle                          0x0800805d   Thumb Code    54  foc_utils.o(i._normalizeAngle)
    _sin                                     0x080087a9   Thumb Code   212  foc_utils.o(i._sin)
    _sqrtApprox                              0x08008899   Thumb Code    20  foc_utils.o(i._sqrtApprox)
    adc_init                                 0x080088b1   Thumb Code    22  del_adc.o(i.adc_init)
    atan                                     0x080088d1   Thumb Code    16  atan.o(i.atan)
    calibrateOffsets                         0x080088e1   Thumb Code   194  currentsense.o(i.calibrateOffsets)
    fabs                                     0x080089b9   Thumb Code    24  fabs.o(i.fabs)
    fputc                                    0x080089d1   Thumb Code    20  del_uart.o(i.fputc)
    main                                     0x080089e9   Thumb Code    62  main.o(i.main)
    micros                                   0x08008a27   Thumb Code    68  del_hal.o(i.micros)
    UARTPrescTable                           0x08008a6a   Data          24  stm32g4xx_hal_uart.o(.constdata)
    AHBPrescTable                            0x08008a92   Data          16  system_stm32g4xx.o(.constdata)
    APBPrescTable                            0x08008aa2   Data           8  system_stm32g4xx.o(.constdata)
    ascii_1206                               0x08008aaa   Data        1140  lcd.o(.constdata)
    ascii_1608                               0x08008f1e   Data        1520  lcd.o(.constdata)
    ascii_2412                               0x0800950e   Data        4560  lcd.o(.constdata)
    ascii_3216                               0x0800a6de   Data        6080  lcd.o(.constdata)
    tfont12                                  0x0800be9e   Data         130  lcd.o(.constdata)
    tfont16                                  0x0800bf20   Data         170  lcd.o(.constdata)
    tfont24                                  0x0800bfca   Data         370  lcd.o(.constdata)
    tfont32                                  0x0800c13c   Data         650  lcd.o(.constdata)
    sine_array                               0x0800c3c8   Data         800  foc_utils.o(.constdata)
    __mathlib_zero                           0x0800c780   Data           8  qnan.o(.constdata)
    Region$$Table$$Base                      0x0800c788   Number         0  anon$$obj.o(Region$$Table)
    Region$$Table$$Limit                     0x0800c7a8   Number         0  anon$$obj.o(Region$$Table)
    uwTickPrio                               0x20000000   Data           4  stm32g4xx_hal.o(.data)
    uwTickFreq                               0x20000004   Data           4  stm32g4xx_hal.o(.data)
    uwTick                                   0x20000008   Data           4  stm32g4xx_hal.o(.data)
    SystemCoreClock                          0x2000000c   Data           4  system_stm32g4xx.o(.data)
    count                                    0x20000010   Data           4  del_driver.o(.data)
    target_value                             0x20000014   Data           4  del_hal.o(.data)
    btn_event_flag                           0x20000018   Data           4  del_port.o(.data)
    RxBuffer                                 0x2000001c   Data           1  del_uart.o(.data)
    USART_RX_ST                              0x2000001e   Data           2  del_uart.o(.data)
    __stdout                                 0x20000028   Data           4  stdout.o(.data)
    hadc2                                    0x20000030   Data         108  adc.o(.bss)
    hdma_adc2                                0x2000009c   Data          96  adc.o(.bss)
    hfdcan1                                  0x200000fc   Data         100  fdcan.o(.bss)
    hi2c1                                    0x20000160   Data          76  i2c.o(.bss)
    hspi1                                    0x200001ac   Data         100  spi.o(.bss)
    hspi2                                    0x20000210   Data         100  spi.o(.bss)
    htim2                                    0x20000274   Data          76  tim.o(.bss)
    htim3                                    0x200002c0   Data          76  tim.o(.bss)
    htim15                                   0x2000030c   Data          76  tim.o(.bss)
    huart1                                   0x20000358   Data         144  usart.o(.bss)
    _sensor                                  0x200003e8   Data          24  del_hal.o(.bss)
    _driver                                  0x20000400   Data          24  del_hal.o(.bss)
    _motor                                   0x20000418   Data         340  del_hal.o(.bss)
    _current_sense                           0x2000056c   Data          52  del_hal.o(.bss)
    handle_btn_group                         0x200005a0   Data          40  del_port.o(.bss)
    USART_RX_BUF                             0x200005c8   Data         200  del_uart.o(.bss)
    ad_value                                 0x20000690   Data          16  del_adc.o(.bss)
    __initial_sp                             0x20000aa0   Data           0  startup_stm32g431xx.o(STACK)



==============================================================================

Memory Map of the image

  Image Entry point : 0x080001d9

  Load Region LR_IROM1 (Base: 0x08000000, Size: 0x0000c7d8, Max: 0x00020000, ABSOLUTE)

    Execution Region ER_IROM1 (Exec base: 0x08000000, Load base: 0x08000000, Size: 0x0000c7a8, Max: 0x00020000, ABSOLUTE)

    Exec Addr    Load Addr    Size         Type   Attr      Idx    E Section Name        Object

    0x08000000   0x08000000   0x000001d8   Data   RO            3    RESET               startup_stm32g431xx.o
    0x080001d8   0x080001d8   0x00000000   Code   RO         6743  * .ARM.Collect$$$$00000000  mc_w.l(entry.o)
    0x080001d8   0x080001d8   0x00000004   Code   RO         7058    .ARM.Collect$$$$00000001  mc_w.l(entry2.o)
    0x080001dc   0x080001dc   0x00000004   Code   RO         7061    .ARM.Collect$$$$00000004  mc_w.l(entry5.o)
    0x080001e0   0x080001e0   0x00000000   Code   RO         7063    .ARM.Collect$$$$00000008  mc_w.l(entry7b.o)
    0x080001e0   0x080001e0   0x00000000   Code   RO         7065    .ARM.Collect$$$$0000000A  mc_w.l(entry8b.o)
    0x080001e0   0x080001e0   0x00000008   Code   RO         7066    .ARM.Collect$$$$0000000B  mc_w.l(entry9a.o)
    0x080001e8   0x080001e8   0x00000004   Code   RO         7073    .ARM.Collect$$$$0000000E  mc_w.l(entry12b.o)
    0x080001ec   0x080001ec   0x00000000   Code   RO         7068    .ARM.Collect$$$$0000000F  mc_w.l(entry10a.o)
    0x080001ec   0x080001ec   0x00000000   Code   RO         7070    .ARM.Collect$$$$00000011  mc_w.l(entry11a.o)
    0x080001ec   0x080001ec   0x00000004   Code   RO         7059    .ARM.Collect$$$$00002712  mc_w.l(entry2.o)
    0x080001f0   0x080001f0   0x00000024   Code   RO            4    .text               startup_stm32g431xx.o
    0x08000214   0x08000214   0x00000062   Code   RO         6746    .text               mc_w.l(uldiv.o)
    0x08000276   0x08000276   0x00000024   Code   RO         6748    .text               mc_w.l(memseta.o)
    0x0800029a   0x0800029a   0x0000014e   Code   RO         7011    .text               mf_w.l(dadd.o)
    0x080003e8   0x080003e8   0x000000e4   Code   RO         7013    .text               mf_w.l(dmul.o)
    0x080004cc   0x080004cc   0x00000022   Code   RO         7015    .text               mf_w.l(dflti.o)
    0x080004ee   0x080004ee   0x0000003e   Code   RO         7017    .text               mf_w.l(dfixi.o)
    0x0800052c   0x0800052c   0x00000026   Code   RO         7019    .text               mf_w.l(f2d.o)
    0x08000552   0x08000552   0x00000038   Code   RO         7021    .text               mf_w.l(d2f.o)
    0x0800058a   0x0800058a   0x0000002c   Code   RO         7075    .text               mc_w.l(uidiv.o)
    0x080005b6   0x080005b6   0x0000001e   Code   RO         7077    .text               mc_w.l(llshl.o)
    0x080005d4   0x080005d4   0x00000020   Code   RO         7079    .text               mc_w.l(llushr.o)
    0x080005f4   0x080005f4   0x00000024   Code   RO         7081    .text               mc_w.l(llsshr.o)
    0x08000618   0x08000618   0x00000000   Code   RO         7090    .text               mc_w.l(iusefp.o)
    0x08000618   0x08000618   0x0000006e   Code   RO         7091    .text               mf_w.l(fepilogue.o)
    0x08000686   0x08000686   0x000000ba   Code   RO         7093    .text               mf_w.l(depilogue.o)
    0x08000740   0x08000740   0x000000de   Code   RO         7095    .text               mf_w.l(ddiv.o)
    0x0800081e   0x0800081e   0x00000086   Code   RO         7099    .text               mf_w.l(drem.o)
    0x080008a4   0x080008a4   0x00000030   Code   RO         7101    .text               mf_w.l(dfixul.o)
    0x080008d4   0x080008d4   0x00000030   Code   RO         7103    .text               mf_w.l(cdcmple.o)
    0x08000904   0x08000904   0x00000030   Code   RO         7105    .text               mf_w.l(cdrcmple.o)
    0x08000934   0x08000934   0x00000024   Code   RO         7111    .text               mc_w.l(init.o)
    0x08000958   0x08000958   0x00000068   Code   RO          744    i.ADC_DMAConvCplt   stm32g4xx_hal_adc.o
    0x080009c0   0x080009c0   0x0000001a   Code   RO          745    i.ADC_DMAError      stm32g4xx_hal_adc.o
    0x080009da   0x080009da   0x0000000a   Code   RO          746    i.ADC_DMAHalfConvCplt  stm32g4xx_hal_adc.o
    0x080009e4   0x080009e4   0x00000074   Code   RO          748    i.ADC_Enable        stm32g4xx_hal_adc.o
    0x08000a58   0x08000a58   0x00000038   Code   RO         6112    i.AS5600_Get_RawAngle  del_as5600.o
    0x08000a90   0x08000a90   0x00000028   Code   RO         6113    i.AS5600_Init       del_as5600.o
    0x08000ab8   0x08000ab8   0x00000028   Code   RO         6321    i.BLDCDriver_Init   bldcdriver.o
    0x08000ae0   0x08000ae0   0x00000024   Code   RO         6322    i.BLDCDriver_disable  bldcdriver.o
    0x08000b04   0x08000b04   0x0000001c   Code   RO         6323    i.BLDCDriver_enable  bldcdriver.o
    0x08000b20   0x08000b20   0x000000f8   Code   RO         6324    i.BLDCDriver_setPWM  bldcdriver.o
    0x08000c18   0x08000c18   0x000000f0   Code   RO         6549    i.BLDCMotor_absoluteZeroSearch  bldcmotor.o
    0x08000d08   0x08000d08   0x00000078   Code   RO         6550    i.BLDCMotor_alignCurrentSense  bldcmotor.o
    0x08000d80   0x08000d80   0x00000304   Code   RO         6551    i.BLDCMotor_alignSensor  bldcmotor.o
    0x08001084   0x08001084   0x00000130   Code   RO         6552    i.BLDCMotor_angleOpenloop  bldcmotor.o
    0x080011b4   0x080011b4   0x00000024   Code   RO         6553    i.BLDCMotor_create  bldcmotor.o
    0x080011d8   0x080011d8   0x0000002c   Code   RO         6554    i.BLDCMotor_disable  bldcmotor.o
    0x08001204   0x08001204   0x0000002c   Code   RO         6555    i.BLDCMotor_enable  bldcmotor.o
    0x08001230   0x08001230   0x000000c8   Code   RO         6556    i.BLDCMotor_init    bldcmotor.o
    0x080012f8   0x080012f8   0x000000e4   Code   RO         6557    i.BLDCMotor_initFOC  bldcmotor.o
    0x080013dc   0x080013dc   0x00000006   Code   RO         6558    i.BLDCMotor_linkDriver  bldcmotor.o
    0x080013e2   0x080013e2   0x00000002   PAD
    0x080013e4   0x080013e4   0x00000118   Code   RO         6559    i.BLDCMotor_loopFOC  bldcmotor.o
    0x080014fc   0x080014fc   0x00000154   Code   RO         6560    i.BLDCMotor_move    bldcmotor.o
    0x08001650   0x08001650   0x000002e4   Code   RO         6561    i.BLDCMotor_setPhaseVoltage  bldcmotor.o
    0x08001934   0x08001934   0x000000b0   Code   RO         6562    i.BLDCMotor_velocityOpenloop  bldcmotor.o
    0x080019e4   0x080019e4   0x00000002   Code   RO          619    i.BusFault_Handler  stm32g4xx_it.o
    0x080019e6   0x080019e6   0x0000000a   Code   RO         5935    i.Button_Init       del_key.o
    0x080019f0   0x080019f0   0x0000008a   Code   RO         5936    i.Button_Scan_20ms  del_key.o
    0x08001a7a   0x08001a7a   0x00000030   Code   RO         6650    i.CurrentSense_create  currentsense.o
    0x08001aaa   0x08001aaa   0x00000004   Code   RO         6651    i.CurrentSense_driverAlign  currentsense.o
    0x08001aae   0x08001aae   0x00000002   PAD
    0x08001ab0   0x08001ab0   0x000000b0   Code   RO         6653    i.CurrentSense_getDCCurrent  currentsense.o
    0x08001b60   0x08001b60   0x0000008c   Code   RO         6654    i.CurrentSense_getFOCCurrents  currentsense.o
    0x08001bec   0x08001bec   0x00000080   Code   RO         6655    i.CurrentSense_getPhaseCurrents  currentsense.o
    0x08001c6c   0x08001c6c   0x00000004   Code   RO         6656    i.CurrentSense_init  currentsense.o
    0x08001c70   0x08001c70   0x0000000c   Code   RO          620    i.DMA1_Channel1_IRQHandler  stm32g4xx_it.o
    0x08001c7c   0x08001c7c   0x00000040   Code   RO         2023    i.DMA_CalcDMAMUXChannelBaseAndMask  stm32g4xx_hal_dma.o
    0x08001cbc   0x08001cbc   0x00000024   Code   RO         2024    i.DMA_CalcDMAMUXRequestGenBaseAndMask  stm32g4xx_hal_dma.o
    0x08001ce0   0x08001ce0   0x0000003e   Code   RO         2025    i.DMA_SetConfig     stm32g4xx_hal_dma.o
    0x08001d1e   0x08001d1e   0x00000002   Code   RO          621    i.DebugMon_Handler  stm32g4xx_it.o
    0x08001d20   0x08001d20   0x0000000c   Code   RO         5995    i.Del_Button1_Long_Callback  del_port.o
    0x08001d2c   0x08001d2c   0x0000000c   Code   RO         5996    i.Del_Button1_Short_Callback  del_port.o
    0x08001d38   0x08001d38   0x0000000c   Code   RO         5997    i.Del_Button2_Long_Callback  del_port.o
    0x08001d44   0x08001d44   0x0000000c   Code   RO         5998    i.Del_Button2_Short_Callback  del_port.o
    0x08001d50   0x08001d50   0x000001a8   Code   RO         5862    i.Del_Init          del_hal.o
    0x08001ef8   0x08001ef8   0x00000054   Code   RO         5863    i.Del_Update        del_hal.o
    0x08001f4c   0x08001f4c   0x00000030   Code   RO         5632    i.Driver_Init       del_driver.o
    0x08001f7c   0x08001f7c   0x00000044   Code   RO         5633    i.Driver_Set_Freq   del_driver.o
    0x08001fc0   0x08001fc0   0x00000050   Code   RO         5634    i.Driver_Set_PWM    del_driver.o
    0x08002010   0x08002010   0x00000004   Code   RO           13    i.Error_Handler     main.o
    0x08002014   0x08002014   0x00000144   Code   RO         6459    i.FOCMotor_Create   focmotor.o
    0x08002158   0x08002158   0x00000002   Code   RO         6460    i.FOCMotor_Init     focmotor.o
    0x0800215a   0x0800215a   0x00000038   Code   RO         6462    i.FOCMotor_electricalAngle  focmotor.o
    0x08002192   0x08002192   0x00000006   Code   RO         6465    i.FOCMotor_linkCurrentSense  focmotor.o
    0x08002198   0x08002198   0x00000006   Code   RO         6466    i.FOCMotor_linkSensor  focmotor.o
    0x0800219e   0x0800219e   0x00000032   Code   RO         6469    i.FOCMotor_shaftAngle  focmotor.o
    0x080021d0   0x080021d0   0x0000002a   Code   RO         6470    i.FOCMotor_shaftVelocity  focmotor.o
    0x080021fa   0x080021fa   0x00000002   PAD
    0x080021fc   0x080021fc   0x00000418   Code   RO          750    i.HAL_ADC_ConfigChannel  stm32g4xx_hal_adc.o
    0x08002614   0x08002614   0x00000002   Code   RO          751    i.HAL_ADC_ConvCpltCallback  stm32g4xx_hal_adc.o
    0x08002616   0x08002616   0x00000002   Code   RO          752    i.HAL_ADC_ConvHalfCpltCallback  stm32g4xx_hal_adc.o
    0x08002618   0x08002618   0x00000002   Code   RO          754    i.HAL_ADC_ErrorCallback  stm32g4xx_hal_adc.o
    0x0800261a   0x0800261a   0x00000002   PAD
    0x0800261c   0x0800261c   0x000001fc   Code   RO          759    i.HAL_ADC_Init      stm32g4xx_hal_adc.o
    0x08002818   0x08002818   0x000000b0   Code   RO          308    i.HAL_ADC_MspInit   adc.o
    0x080028c8   0x080028c8   0x000000f0   Code   RO          767    i.HAL_ADC_Start_DMA  stm32g4xx_hal_adc.o
    0x080029b8   0x080029b8   0x0000006a   Code   RO         2026    i.HAL_DMA_Abort     stm32g4xx_hal_dma.o
    0x08002a22   0x08002a22   0x00000078   Code   RO         2027    i.HAL_DMA_Abort_IT  stm32g4xx_hal_dma.o
    0x08002a9a   0x08002a9a   0x000000ba   Code   RO         2031    i.HAL_DMA_IRQHandler  stm32g4xx_hal_dma.o
    0x08002b54   0x08002b54   0x000000c0   Code   RO         2032    i.HAL_DMA_Init      stm32g4xx_hal_dma.o
    0x08002c14   0x08002c14   0x0000008c   Code   RO         2036    i.HAL_DMA_Start_IT  stm32g4xx_hal_dma.o
    0x08002ca0   0x08002ca0   0x00000024   Code   RO         1197    i.HAL_Delay         stm32g4xx_hal.o
    0x08002cc4   0x08002cc4   0x00000204   Code   RO         2709    i.HAL_FDCAN_Init    stm32g4xx_hal_fdcan.o
    0x08002ec8   0x08002ec8   0x0000007c   Code   RO          374    i.HAL_FDCAN_MspInit  fdcan.o
    0x08002f44   0x08002f44   0x00000248   Code   RO         1888    i.HAL_GPIO_Init     stm32g4xx_hal_gpio.o
    0x0800318c   0x0800318c   0x0000000a   Code   RO         1890    i.HAL_GPIO_ReadPin  stm32g4xx_hal_gpio.o
    0x08003196   0x08003196   0x0000000a   Code   RO         1892    i.HAL_GPIO_WritePin  stm32g4xx_hal_gpio.o
    0x080031a0   0x080031a0   0x0000000c   Code   RO         1201    i.HAL_GetTick       stm32g4xx_hal.o
    0x080031ac   0x080031ac   0x00000056   Code   RO         3512    i.HAL_I2CEx_ConfigAnalogFilter  stm32g4xx_hal_i2c_ex.o
    0x08003202   0x08003202   0x00000052   Code   RO         3513    i.HAL_I2CEx_ConfigDigitalFilter  stm32g4xx_hal_i2c_ex.o
    0x08003254   0x08003254   0x000000b8   Code   RO         3061    i.HAL_I2C_Init      stm32g4xx_hal_i2c.o
    0x0800330c   0x0800330c   0x00000124   Code   RO         3067    i.HAL_I2C_Master_Receive  stm32g4xx_hal_i2c.o
    0x08003430   0x08003430   0x00000124   Code   RO         3074    i.HAL_I2C_Master_Transmit  stm32g4xx_hal_i2c.o
    0x08003554   0x08003554   0x000000a4   Code   RO          416    i.HAL_I2C_MspInit   i2c.o
    0x080035f8   0x080035f8   0x00000010   Code   RO         1204    i.HAL_IncTick       stm32g4xx_hal.o
    0x08003608   0x08003608   0x0000001e   Code   RO         1205    i.HAL_Init          stm32g4xx_hal.o
    0x08003626   0x08003626   0x00000002   PAD
    0x08003628   0x08003628   0x00000044   Code   RO         1206    i.HAL_InitTick      stm32g4xx_hal.o
    0x0800366c   0x0800366c   0x00000040   Code   RO          719    i.HAL_MspInit       stm32g4xx_hal_msp.o
    0x080036ac   0x080036ac   0x0000001a   Code   RO         2535    i.HAL_NVIC_EnableIRQ  stm32g4xx_hal_cortex.o
    0x080036c6   0x080036c6   0x00000002   PAD
    0x080036c8   0x080036c8   0x00000040   Code   RO         2541    i.HAL_NVIC_SetPriority  stm32g4xx_hal_cortex.o
    0x08003708   0x08003708   0x00000024   Code   RO         2542    i.HAL_NVIC_SetPriorityGrouping  stm32g4xx_hal_cortex.o
    0x0800372c   0x0800372c   0x000000bc   Code   RO         2291    i.HAL_PWREx_ControlVoltageScaling  stm32g4xx_hal_pwr_ex.o
    0x080037e8   0x080037e8   0x00000010   Code   RO         2303    i.HAL_PWREx_DisableUCPDDeadBattery  stm32g4xx_hal_pwr_ex.o
    0x080037f8   0x080037f8   0x00000288   Code   RO         1550    i.HAL_RCCEx_PeriphCLKConfig  stm32g4xx_hal_rcc_ex.o
    0x08003a80   0x08003a80   0x000001dc   Code   RO         1425    i.HAL_RCC_ClockConfig  stm32g4xx_hal_rcc.o
    0x08003c5c   0x08003c5c   0x00000024   Code   RO         1433    i.HAL_RCC_GetPCLK1Freq  stm32g4xx_hal_rcc.o
    0x08003c80   0x08003c80   0x00000024   Code   RO         1434    i.HAL_RCC_GetPCLK2Freq  stm32g4xx_hal_rcc.o
    0x08003ca4   0x08003ca4   0x00000070   Code   RO         1435    i.HAL_RCC_GetSysClockFreq  stm32g4xx_hal_rcc.o
    0x08003d14   0x08003d14   0x0000040c   Code   RO         1438    i.HAL_RCC_OscConfig  stm32g4xx_hal_rcc.o
    0x08004120   0x08004120   0x000000ea   Code   RO         3577    i.HAL_SPI_Init      stm32g4xx_hal_spi.o
    0x0800420a   0x0800420a   0x00000002   PAD
    0x0800420c   0x0800420c   0x00000090   Code   RO          458    i.HAL_SPI_MspInit   spi.o
    0x0800429c   0x0800429c   0x00000188   Code   RO         3585    i.HAL_SPI_Transmit  stm32g4xx_hal_spi.o
    0x08004424   0x08004424   0x00000030   Code   RO         1219    i.HAL_SYSCFG_EnableVREFBUF  stm32g4xx_hal.o
    0x08004454   0x08004454   0x00000014   Code   RO         1220    i.HAL_SYSCFG_VREFBUF_HighImpedanceConfig  stm32g4xx_hal.o
    0x08004468   0x08004468   0x00000014   Code   RO         1222    i.HAL_SYSCFG_VREFBUF_VoltageScalingConfig  stm32g4xx_hal.o
    0x0800447c   0x0800447c   0x00000028   Code   RO         2546    i.HAL_SYSTICK_Config  stm32g4xx_hal_cortex.o
    0x080044a4   0x080044a4   0x00000002   Code   RO         4633    i.HAL_TIMEx_Break2Callback  stm32g4xx_hal_tim_ex.o
    0x080044a6   0x080044a6   0x00000002   Code   RO         4634    i.HAL_TIMEx_BreakCallback  stm32g4xx_hal_tim_ex.o
    0x080044a8   0x080044a8   0x00000002   Code   RO         4635    i.HAL_TIMEx_CommutCallback  stm32g4xx_hal_tim_ex.o
    0x080044aa   0x080044aa   0x00000002   Code   RO         4646    i.HAL_TIMEx_DirectionChangeCallback  stm32g4xx_hal_tim_ex.o
    0x080044ac   0x080044ac   0x00000002   Code   RO         4660    i.HAL_TIMEx_EncoderIndexCallback  stm32g4xx_hal_tim_ex.o
    0x080044ae   0x080044ae   0x00000002   Code   RO         4674    i.HAL_TIMEx_IndexErrorCallback  stm32g4xx_hal_tim_ex.o
    0x080044b0   0x080044b0   0x0000009c   Code   RO         4675    i.HAL_TIMEx_MasterConfigSynchronization  stm32g4xx_hal_tim_ex.o
    0x0800454c   0x0800454c   0x00000002   Code   RO         4696    i.HAL_TIMEx_TransitionErrorCallback  stm32g4xx_hal_tim_ex.o
    0x0800454e   0x0800454e   0x00000062   Code   RO         3919    i.HAL_TIM_Base_Init  stm32g4xx_hal_tim.o
    0x080045b0   0x080045b0   0x00000064   Code   RO          506    i.HAL_TIM_Base_MspInit  tim.o
    0x08004614   0x08004614   0x00000078   Code   RO         3924    i.HAL_TIM_Base_Start_IT  stm32g4xx_hal_tim.o
    0x0800468c   0x0800468c   0x00000100   Code   RO         3928    i.HAL_TIM_ConfigClockSource  stm32g4xx_hal_tim.o
    0x0800478c   0x0800478c   0x00000002   Code   RO         3953    i.HAL_TIM_IC_CaptureCallback  stm32g4xx_hal_tim.o
    0x0800478e   0x0800478e   0x000001fc   Code   RO         3967    i.HAL_TIM_IRQHandler  stm32g4xx_hal_tim.o
    0x0800498a   0x0800498a   0x00000002   PAD
    0x0800498c   0x0800498c   0x0000004c   Code   RO          507    i.HAL_TIM_MspPostInit  tim.o
    0x080049d8   0x080049d8   0x00000002   Code   RO         3970    i.HAL_TIM_OC_DelayElapsedCallback  stm32g4xx_hal_tim.o
    0x080049da   0x080049da   0x00000124   Code   RO         3991    i.HAL_TIM_PWM_ConfigChannel  stm32g4xx_hal_tim.o
    0x08004afe   0x08004afe   0x00000062   Code   RO         3994    i.HAL_TIM_PWM_Init  stm32g4xx_hal_tim.o
    0x08004b60   0x08004b60   0x00000024   Code   RO          509    i.HAL_TIM_PWM_MspInit  tim.o
    0x08004b84   0x08004b84   0x00000002   Code   RO         3997    i.HAL_TIM_PWM_PulseFinishedCallback  stm32g4xx_hal_tim.o
    0x08004b86   0x08004b86   0x00000002   PAD
    0x08004b88   0x08004b88   0x000000fc   Code   RO         3999    i.HAL_TIM_PWM_Start  stm32g4xx_hal_tim.o
    0x08004c84   0x08004c84   0x00000048   Code   RO         5864    i.HAL_TIM_PeriodElapsedCallback  del_hal.o
    0x08004ccc   0x08004ccc   0x00000002   Code   RO         4010    i.HAL_TIM_TriggerCallback  stm32g4xx_hal_tim.o
    0x08004cce   0x08004cce   0x0000003e   Code   RO         5482    i.HAL_UARTEx_DisableFifoMode  stm32g4xx_hal_uart_ex.o
    0x08004d0c   0x08004d0c   0x00000002   Code   RO         5071    i.HAL_UARTEx_RxEventCallback  stm32g4xx_hal_uart.o
    0x08004d0e   0x08004d0e   0x00000002   Code   RO         5489    i.HAL_UARTEx_RxFifoFullCallback  stm32g4xx_hal_uart_ex.o
    0x08004d10   0x08004d10   0x0000004c   Code   RO         5490    i.HAL_UARTEx_SetRxFifoThreshold  stm32g4xx_hal_uart_ex.o
    0x08004d5c   0x08004d5c   0x0000004c   Code   RO         5491    i.HAL_UARTEx_SetTxFifoThreshold  stm32g4xx_hal_uart_ex.o
    0x08004da8   0x08004da8   0x00000002   Code   RO         5493    i.HAL_UARTEx_TxFifoEmptyCallback  stm32g4xx_hal_uart_ex.o
    0x08004daa   0x08004daa   0x00000002   Code   RO         5494    i.HAL_UARTEx_WakeupCallback  stm32g4xx_hal_uart_ex.o
    0x08004dac   0x08004dac   0x00000002   Code   RO         5087    i.HAL_UART_ErrorCallback  stm32g4xx_hal_uart.o
    0x08004dae   0x08004dae   0x00000002   PAD
    0x08004db0   0x08004db0   0x000002e0   Code   RO         5090    i.HAL_UART_IRQHandler  stm32g4xx_hal_uart.o
    0x08005090   0x08005090   0x0000006a   Code   RO         5091    i.HAL_UART_Init     stm32g4xx_hal_uart.o
    0x080050fa   0x080050fa   0x00000002   PAD
    0x080050fc   0x080050fc   0x0000008c   Code   RO          578    i.HAL_UART_MspInit  usart.o
    0x08005188   0x08005188   0x00000054   Code   RO         5096    i.HAL_UART_Receive_IT  stm32g4xx_hal_uart.o
    0x080051dc   0x080051dc   0x00000068   Code   RO         6050    i.HAL_UART_RxCpltCallback  del_uart.o
    0x08005244   0x08005244   0x000000bc   Code   RO         5100    i.HAL_UART_Transmit  stm32g4xx_hal_uart.o
    0x08005300   0x08005300   0x00000002   Code   RO         5103    i.HAL_UART_TxCpltCallback  stm32g4xx_hal_uart.o
    0x08005302   0x08005302   0x00000002   Code   RO          622    i.HardFault_Handler  stm32g4xx_it.o
    0x08005304   0x08005304   0x00000022   Code   RO         3108    i.I2C_Flush_TXDR    stm32g4xx_hal_i2c.o
    0x08005326   0x08005326   0x00000002   PAD
    0x08005328   0x08005328   0x00000120   Code   RO         3116    i.I2C_IsErrorOccurred  stm32g4xx_hal_i2c.o
    0x08005448   0x08005448   0x00000030   Code   RO         3123    i.I2C_TransferConfig  stm32g4xx_hal_i2c.o
    0x08005478   0x08005478   0x00000058   Code   RO         3125    i.I2C_WaitOnFlagUntilTimeout  stm32g4xx_hal_i2c.o
    0x080054d0   0x080054d0   0x0000009c   Code   RO         3126    i.I2C_WaitOnRXNEFlagUntilTimeout  stm32g4xx_hal_i2c.o
    0x0800556c   0x0800556c   0x0000004c   Code   RO         3127    i.I2C_WaitOnSTOPFlagUntilTimeout  stm32g4xx_hal_i2c.o
    0x080055b8   0x080055b8   0x00000050   Code   RO         3128    i.I2C_WaitOnTXISFlagUntilTimeout  stm32g4xx_hal_i2c.o
    0x08005608   0x08005608   0x00000042   Code   RO         5811    i.LCD_Address_Set   lcd_init.o
    0x0800564a   0x0800564a   0x00000016   Code   RO         5682    i.LCD_DrawPoint     lcd.o
    0x08005660   0x08005660   0x0000003e   Code   RO         5684    i.LCD_Fill          lcd.o
    0x0800569e   0x0800569e   0x00000002   PAD
    0x080056a0   0x080056a0   0x00000258   Code   RO         5812    i.LCD_Init          lcd_init.o
    0x080058f8   0x080058f8   0x0000010c   Code   RO         5686    i.LCD_ShowChar      lcd.o
    0x08005a04   0x08005a04   0x0000003a   Code   RO         5695    i.LCD_ShowString    lcd.o
    0x08005a3e   0x08005a3e   0x00000014   Code   RO         5813    i.LCD_WR_DATA       lcd_init.o
    0x08005a52   0x08005a52   0x00000002   PAD
    0x08005a54   0x08005a54   0x00000028   Code   RO         5815    i.LCD_WR_REG        lcd_init.o
    0x08005a7c   0x08005a7c   0x00000034   Code   RO         5816    i.LCD_Writ_Bus      lcd_init.o
    0x08005ab0   0x08005ab0   0x0000000c   Code   RO          773    i.LL_ADC_GetOffsetChannel  stm32g4xx_hal_adc.o
    0x08005abc   0x08005abc   0x00000008   Code   RO          774    i.LL_ADC_INJ_IsConversionOngoing  stm32g4xx_hal_adc.o
    0x08005ac4   0x08005ac4   0x00000008   Code   RO          775    i.LL_ADC_REG_IsConversionOngoing  stm32g4xx_hal_adc.o
    0x08005acc   0x08005acc   0x00000010   Code   RO          776    i.LL_ADC_REG_IsTriggerSourceSWStart  stm32g4xx_hal_adc.o
    0x08005adc   0x08005adc   0x0000001e   Code   RO          778    i.LL_ADC_SetChannelSamplingTime  stm32g4xx_hal_adc.o
    0x08005afa   0x08005afa   0x00000010   Code   RO          779    i.LL_ADC_SetOffsetState  stm32g4xx_hal_adc.o
    0x08005b0a   0x08005b0a   0x00000002   PAD
    0x08005b0c   0x08005b0c   0x00000030   Code   RO         5965    i.Led_Flash         del_led.o
    0x08005b3c   0x08005b3c   0x0000001c   Code   RO         6210    i.LowPassFilter_Init  lowpass_filter.o
    0x08005b58   0x08005b58   0x00000084   Code   RO         6211    i.LowPassFilter_Update  lowpass_filter.o
    0x08005bdc   0x08005bdc   0x000000d0   Code   RO          309    i.MX_ADC2_Init      adc.o
    0x08005cac   0x08005cac   0x0000003c   Code   RO          349    i.MX_DMA_Init       dma.o
    0x08005ce8   0x08005ce8   0x0000004c   Code   RO          375    i.MX_FDCAN1_Init    fdcan.o
    0x08005d34   0x08005d34   0x000000e0   Code   RO          283    i.MX_GPIO_Init      gpio.o
    0x08005e14   0x08005e14   0x00000058   Code   RO          417    i.MX_I2C1_Init      i2c.o
    0x08005e6c   0x08005e6c   0x00000050   Code   RO          459    i.MX_SPI1_Init      spi.o
    0x08005ebc   0x08005ebc   0x00000050   Code   RO          460    i.MX_SPI2_Init      spi.o
    0x08005f0c   0x08005f0c   0x0000006c   Code   RO          510    i.MX_TIM15_Init     tim.o
    0x08005f78   0x08005f78   0x0000008c   Code   RO          511    i.MX_TIM2_Init      tim.o
    0x08006004   0x08006004   0x00000068   Code   RO          512    i.MX_TIM3_Init      tim.o
    0x0800606c   0x0800606c   0x00000068   Code   RO          579    i.MX_USART1_UART_Init  usart.o
    0x080060d4   0x080060d4   0x00000002   Code   RO          623    i.MemManage_Handler  stm32g4xx_it.o
    0x080060d6   0x080060d6   0x00000002   Code   RO          624    i.NMI_Handler       stm32g4xx_it.o
    0x080060d8   0x080060d8   0x00000124   Code   RO         6240    i.PIDController_Compute  pid.o
    0x080061fc   0x080061fc   0x00000024   Code   RO         6241    i.PIDController_Init  pid.o
    0x08006220   0x08006220   0x00000002   Code   RO          625    i.PendSV_Handler    stm32g4xx_it.o
    0x08006222   0x08006222   0x00000002   PAD
    0x08006224   0x08006224   0x0000006c   Code   RO         5999    i.Port_Init         del_port.o
    0x08006290   0x08006290   0x00000048   Code   RO         3615    i.SPI_EndRxTxTransaction  stm32g4xx_hal_spi.o
    0x080062d8   0x080062d8   0x000000e0   Code   RO         3620    i.SPI_WaitFifoStateUntilTimeout  stm32g4xx_hal_spi.o
    0x080063b8   0x080063b8   0x000000b8   Code   RO         3621    i.SPI_WaitFlagStateUntilTimeout  stm32g4xx_hal_spi.o
    0x08006470   0x08006470   0x00000002   Code   RO          626    i.SVC_Handler       stm32g4xx_it.o
    0x08006472   0x08006472   0x00000002   PAD
    0x08006474   0x08006474   0x0000001c   Code   RO         6369    i.Sensor_getAngle   sensor.o
    0x08006490   0x08006490   0x00000006   Code   RO         6371    i.Sensor_getMechanicalAngle  sensor.o
    0x08006496   0x08006496   0x00000002   PAD
    0x08006498   0x08006498   0x00000028   Code   RO         6373    i.Sensor_getSensorAngle  sensor.o
    0x080064c0   0x080064c0   0x00000070   Code   RO         6374    i.Sensor_getVelocity  sensor.o
    0x08006530   0x08006530   0x00000064   Code   RO         6375    i.Sensor_init       sensor.o
    0x08006594   0x08006594   0x00000004   Code   RO         6376    i.Sensor_needsSearch  sensor.o
    0x08006598   0x08006598   0x00000064   Code   RO         6377    i.Sensor_update     sensor.o
    0x080065fc   0x080065fc   0x00000004   Code   RO          627    i.SysTick_Handler   stm32g4xx_it.o
    0x08006600   0x08006600   0x00000066   Code   RO           14    i.SystemClock_Config  main.o
    0x08006666   0x08006666   0x00000002   PAD
    0x08006668   0x08006668   0x00000010   Code   RO         5595    i.SystemInit        system_stm32g4xx.o
    0x08006678   0x08006678   0x0000000c   Code   RO          628    i.TIM1_BRK_TIM15_IRQHandler  stm32g4xx_it.o
    0x08006684   0x08006684   0x0000000c   Code   RO          629    i.TIM3_IRQHandler   stm32g4xx_it.o
    0x08006690   0x08006690   0x000000b0   Code   RO         4012    i.TIM_Base_SetConfig  stm32g4xx_hal_tim.o
    0x08006740   0x08006740   0x0000001a   Code   RO         4013    i.TIM_CCxChannelCmd  stm32g4xx_hal_tim.o
    0x0800675a   0x0800675a   0x00000014   Code   RO         4023    i.TIM_ETR_SetConfig  stm32g4xx_hal_tim.o
    0x0800676e   0x0800676e   0x00000002   PAD
    0x08006770   0x08006770   0x00000014   Code   RO         4024    i.TIM_ITRx_SetConfig  stm32g4xx_hal_tim.o
    0x08006784   0x08006784   0x0000009c   Code   RO         4025    i.TIM_OC1_SetConfig  stm32g4xx_hal_tim.o
    0x08006820   0x08006820   0x00000090   Code   RO         4026    i.TIM_OC2_SetConfig  stm32g4xx_hal_tim.o
    0x080068b0   0x080068b0   0x00000090   Code   RO         4027    i.TIM_OC3_SetConfig  stm32g4xx_hal_tim.o
    0x08006940   0x08006940   0x00000090   Code   RO         4028    i.TIM_OC4_SetConfig  stm32g4xx_hal_tim.o
    0x080069d0   0x080069d0   0x00000070   Code   RO         4029    i.TIM_OC5_SetConfig  stm32g4xx_hal_tim.o
    0x08006a40   0x08006a40   0x00000070   Code   RO         4030    i.TIM_OC6_SetConfig  stm32g4xx_hal_tim.o
    0x08006ab0   0x08006ab0   0x00000022   Code   RO         4032    i.TIM_TI1_ConfigInputStage  stm32g4xx_hal_tim.o
    0x08006ad2   0x08006ad2   0x00000024   Code   RO         4034    i.TIM_TI2_ConfigInputStage  stm32g4xx_hal_tim.o
    0x08006af6   0x08006af6   0x00000002   PAD
    0x08006af8   0x08006af8   0x00000044   Code   RO         5495    i.UARTEx_SetNbDataToProcess  stm32g4xx_hal_uart_ex.o
    0x08006b3c   0x08006b3c   0x000000c8   Code   RO         5105    i.UART_AdvFeatureConfig  stm32g4xx_hal_uart.o
    0x08006c04   0x08006c04   0x00000060   Code   RO         5106    i.UART_CheckIdleState  stm32g4xx_hal_uart.o
    0x08006c64   0x08006c64   0x00000014   Code   RO         5107    i.UART_DMAAbortOnError  stm32g4xx_hal_uart.o
    0x08006c78   0x08006c78   0x00000054   Code   RO         5117    i.UART_EndRxTransfer  stm32g4xx_hal_uart.o
    0x08006ccc   0x08006ccc   0x000000a2   Code   RO         5119    i.UART_RxISR_16BIT  stm32g4xx_hal_uart.o
    0x08006d6e   0x08006d6e   0x00000002   PAD
    0x08006d70   0x08006d70   0x00000174   Code   RO         5120    i.UART_RxISR_16BIT_FIFOEN  stm32g4xx_hal_uart.o
    0x08006ee4   0x08006ee4   0x000000a2   Code   RO         5121    i.UART_RxISR_8BIT   stm32g4xx_hal_uart.o
    0x08006f86   0x08006f86   0x00000002   PAD
    0x08006f88   0x08006f88   0x00000174   Code   RO         5122    i.UART_RxISR_8BIT_FIFOEN  stm32g4xx_hal_uart.o
    0x080070fc   0x080070fc   0x00000274   Code   RO         5123    i.UART_SetConfig    stm32g4xx_hal_uart.o
    0x08007370   0x08007370   0x00000118   Code   RO         5125    i.UART_Start_Receive_IT  stm32g4xx_hal_uart.o
    0x08007488   0x08007488   0x000000c6   Code   RO         5130    i.UART_WaitOnFlagUntilTimeout  stm32g4xx_hal_uart.o
    0x0800754e   0x0800754e   0x00000002   PAD
    0x08007550   0x08007550   0x0000000c   Code   RO          630    i.USART1_IRQHandler  stm32g4xx_it.o
    0x0800755c   0x0800755c   0x00000014   Code   RO         6051    i.Uart_Init         del_uart.o
    0x08007570   0x08007570   0x00000030   Code   RO         6053    i.Uart_Receive      del_uart.o
    0x080075a0   0x080075a0   0x00000002   Code   RO          631    i.UsageFault_Handler  stm32g4xx_it.o
    0x080075a2   0x080075a2   0x00000002   PAD
    0x080075a4   0x080075a4   0x00000020   Code   RO         6983    i.__0printf         mc_w.l(printfa.o)
    0x080075c4   0x080075c4   0x00000030   Code   RO         7107    i.__ARM_fpclassify  m_wm.l(fpclassify.o)
    0x080075f4   0x080075f4   0x00000020   Code   RO         2548    i.__NVIC_SetPriority  stm32g4xx_hal_cortex.o
    0x08007614   0x08007614   0x00000004   PAD
    0x08007618   0x08007618   0x000002d8   Code   RO         7023    i.__hardfp_atan     m_wm.l(atan.o)
    0x080078f0   0x080078f0   0x00000200   Code   RO         6713    i.__hardfp_atan2    m_wm.l(atan2.o)
    0x08007af0   0x08007af0   0x00000118   Code   RO         6725    i.__hardfp_floor    m_wm.l(floor.o)
    0x08007c08   0x08007c08   0x00000104   Code   RO         6731    i.__hardfp_fmod     m_wm.l(fmod.o)
    0x08007d0c   0x08007d0c   0x000000f8   Code   RO         7109    i.__kernel_poly     m_wm.l(poly.o)
    0x08007e04   0x08007e04   0x00000014   Code   RO         7038    i.__mathlib_dbl_infnan  m_wm.l(dunder.o)
    0x08007e18   0x08007e18   0x00000014   Code   RO         7039    i.__mathlib_dbl_infnan2  m_wm.l(dunder.o)
    0x08007e2c   0x08007e2c   0x00000004   PAD
    0x08007e30   0x08007e30   0x00000020   Code   RO         7040    i.__mathlib_dbl_invalid  m_wm.l(dunder.o)
    0x08007e50   0x08007e50   0x00000020   Code   RO         7043    i.__mathlib_dbl_underflow  m_wm.l(dunder.o)
    0x08007e70   0x08007e70   0x0000000e   Code   RO         7115    i.__scatterload_copy  mc_w.l(handlers.o)
    0x08007e7e   0x08007e7e   0x00000002   Code   RO         7116    i.__scatterload_null  mc_w.l(handlers.o)
    0x08007e80   0x08007e80   0x0000000e   Code   RO         7117    i.__scatterload_zeroinit  mc_w.l(handlers.o)
    0x08007e8e   0x08007e8e   0x00000002   PAD
    0x08007e90   0x08007e90   0x0000000c   Code   RO         7085    i.__set_errno       mc_w.l(errno.o)
    0x08007e9c   0x08007e9c   0x0000002c   Code   RO         6270    i._cos              foc_utils.o
    0x08007ec8   0x08007ec8   0x0000000e   Code   RO         6271    i._electricalAngle  foc_utils.o
    0x08007ed6   0x08007ed6   0x00000002   PAD
    0x08007ed8   0x08007ed8   0x00000184   Code   RO         6990    i._fp_digits        mc_w.l(printfa.o)
    0x0800805c   0x0800805c   0x00000044   Code   RO         6272    i._normalizeAngle   foc_utils.o
    0x080080a0   0x080080a0   0x000006b4   Code   RO         6991    i._printf_core      mc_w.l(printfa.o)
    0x08008754   0x08008754   0x00000024   Code   RO         6992    i._printf_post_padding  mc_w.l(printfa.o)
    0x08008778   0x08008778   0x0000002e   Code   RO         6993    i._printf_pre_padding  mc_w.l(printfa.o)
    0x080087a6   0x080087a6   0x00000002   PAD
    0x080087a8   0x080087a8   0x000000f0   Code   RO         6273    i._sin              foc_utils.o
    0x08008898   0x08008898   0x00000018   Code   RO         6274    i._sqrtApprox       foc_utils.o
    0x080088b0   0x080088b0   0x00000020   Code   RO         6149    i.adc_init          del_adc.o
    0x080088d0   0x080088d0   0x00000010   Code   RO         7025    i.atan              m_wm.l(atan.o)
    0x080088e0   0x080088e0   0x000000d8   Code   RO         6657    i.calibrateOffsets  currentsense.o
    0x080089b8   0x080089b8   0x00000018   Code   RO         7053    i.fabs              m_wm.l(fabs.o)
    0x080089d0   0x080089d0   0x00000018   Code   RO         6055    i.fputc             del_uart.o
    0x080089e8   0x080089e8   0x0000003e   Code   RO           15    i.main              main.o
    0x08008a26   0x08008a26   0x00000044   Code   RO         5865    i.micros            del_hal.o
    0x08008a6a   0x08008a6a   0x00000018   Data   RO         5131    .constdata          stm32g4xx_hal_uart.o
    0x08008a82   0x08008a82   0x00000010   Data   RO         5496    .constdata          stm32g4xx_hal_uart_ex.o
    0x08008a92   0x08008a92   0x00000010   Data   RO         5596    .constdata          system_stm32g4xx.o
    0x08008aa2   0x08008aa2   0x00000008   Data   RO         5597    .constdata          system_stm32g4xx.o
    0x08008aaa   0x08008aaa   0x0000391c   Data   RO         5697    .constdata          lcd.o
    0x0800c3c6   0x0800c3c6   0x00000002   PAD
    0x0800c3c8   0x0800c3c8   0x00000320   Data   RO         6275    .constdata          foc_utils.o
    0x0800c6e8   0x0800c6e8   0x00000098   Data   RO         7026    .constdata          m_wm.l(atan.o)
    0x0800c780   0x0800c780   0x00000008   Data   RO         7057    .constdata          m_wm.l(qnan.o)
    0x0800c788   0x0800c788   0x00000020   Data   RO         7113    Region$$Table       anon$$obj.o


    Execution Region RW_IRAM1 (Exec base: 0x20000000, Load base: 0x0800c7a8, Size: 0x00000aa0, Max: 0x00008000, ABSOLUTE)

    Exec Addr    Load Addr    Size         Type   Attr      Idx    E Section Name        Object

    0x20000000   0x0800c7a8   0x0000000c   Data   RW         1225    .data               stm32g4xx_hal.o
    0x2000000c   0x0800c7b4   0x00000004   Data   RW         5598    .data               system_stm32g4xx.o
    0x20000010   0x0800c7b8   0x00000004   Data   RW         5636    .data               del_driver.o
    0x20000014   0x0800c7bc   0x00000004   Data   RW         5867    .data               del_hal.o
    0x20000018   0x0800c7c0   0x00000004   Data   RW         6001    .data               del_port.o
    0x2000001c   0x0800c7c4   0x00000004   Data   RW         6057    .data               del_uart.o
    0x20000020   0x0800c7c8   0x00000008   Data   RW         6114    .data               del_as5600.o
    0x20000028   0x0800c7d0   0x00000004   Data   RW         7074    .data               mc_w.l(stdout.o)
    0x2000002c   0x0800c7d4   0x00000004   Data   RW         7086    .data               mc_w.l(errno.o)
    0x20000030        -       0x000000cc   Zero   RW          310    .bss                adc.o
    0x200000fc        -       0x00000064   Zero   RW          376    .bss                fdcan.o
    0x20000160        -       0x0000004c   Zero   RW          418    .bss                i2c.o
    0x200001ac        -       0x000000c8   Zero   RW          461    .bss                spi.o
    0x20000274        -       0x000000e4   Zero   RW          513    .bss                tim.o
    0x20000358        -       0x00000090   Zero   RW          580    .bss                usart.o
    0x200003e8        -       0x000001b8   Zero   RW         5866    .bss                del_hal.o
    0x200005a0        -       0x00000028   Zero   RW         6000    .bss                del_port.o
    0x200005c8        -       0x000000c8   Zero   RW         6056    .bss                del_uart.o
    0x20000690        -       0x00000010   Zero   RW         6150    .bss                del_adc.o
    0x200006a0        -       0x00000400   Zero   RW            1    STACK               startup_stm32g431xx.o


==============================================================================

Image component sizes


      Code (inc. data)   RO Data    RW Data    ZI Data      Debug   Object Name

       384         42          0          0        204       1951   adc.o
       352         20          0          0          0       2607   bldcdriver.o
      3530        680          0          0          0      12573   bldcmotor.o
       716         60          0          0          0       5638   currentsense.o
        32         10          0          0         16        942   del_adc.o
        96         16          0          8          0       1904   del_as5600.o
       196         30          0          4          0       1805   del_driver.o
       648        108          0          4        440       4050   del_hal.o
       148          0          0          0          0       1457   del_key.o
        48          4          0          0          0        556   del_led.o
       156         50          0          4         40       3564   del_port.o
       196         46          0          4        200       2797   del_uart.o
        60          4          0          0          0        818   dma.o
       200         16          0          0        100       1787   fdcan.o
       390         60        800          0          0       3530   foc_utils.o
       486         30          0          0          0       4526   focmotor.o
       224         14          0          0          0       1011   gpio.o
       252         26          0          0         76       1821   i2c.o
       410         16      14620          0          0       4979   lcd.o
       778         16          0          0          0       5704   lcd_init.o
       160         18          0          0          0       1824   lowpass_filter.o
       168          0          0          0          0     705901   main.o
       328         12          0          0          0       2161   pid.o
       390         42          0          0          0       4378   sensor.o
       304         32          0          0        200       2398   spi.o
        36          8        472          0       1024        840   startup_stm32g431xx.o
       250         40          0         12          0       6271   stm32g4xx_hal.o
      2148        114          0          0          0      79637   stm32g4xx_hal_adc.o
       198         14          0          0          0      33863   stm32g4xx_hal_cortex.o
       906         30          0          0          0       6606   stm32g4xx_hal_dma.o
       516         18          0          0          0       3805   stm32g4xx_hal_fdcan.o
       604         34          0          0          0       3019   stm32g4xx_hal_gpio.o
      1538         40          0          0          0      11186   stm32g4xx_hal_i2c.o
       168          0          0          0          0       1923   stm32g4xx_hal_i2c_ex.o
        64          4          0          0          0        886   stm32g4xx_hal_msp.o
       204         18          0          0          0       1413   stm32g4xx_hal_pwr_ex.o
      1696         92          0          0          0       6296   stm32g4xx_hal_rcc.o
       648         10          0          0          0       1884   stm32g4xx_hal_rcc_ex.o
      1106         10          0          0          0       5906   stm32g4xx_hal_spi.o
      2756        260          0          0          0      18288   stm32g4xx_hal_tim.o
       170         24          0          0          0       5428   stm32g4xx_hal_tim_ex.o
      3694        124         24          0          0      36734   stm32g4xx_hal_uart.o
       288          6         16          0          0       5390   stm32g4xx_hal_uart_ex.o
        68         24          0          0          0       6115   stm32g4xx_it.o
        16          4         24          4          0       1139   system_stm32g4xx.o
       564         44          0          0        228       4358   tim.o
       244         18          0          0        144       1810   usart.o

    ----------------------------------------------------------------------
     28590       2288      15990         40       2672    1023479   Object Totals
         0          0         32          0          0          0   (incl. Generated)
        56          0          2          0          0          0   (incl. Padding)

    ----------------------------------------------------------------------

      Code (inc. data)   RO Data    RW Data    ZI Data      Debug   Library Member Name

       744        106        152          0          0        352   atan.o
       512         64          0          0          0        208   atan2.o
       104         16          0          0          0        496   dunder.o
        24          0          0          0          0        124   fabs.o
       280         28          0          0          0        156   floor.o
       260          6          0          0          0        144   fmod.o
        48          0          0          0          0        124   fpclassify.o
       248          0          0          0          0        152   poly.o
         0          0          8          0          0          0   qnan.o
         0          0          0          0          0          0   entry.o
         0          0          0          0          0          0   entry10a.o
         0          0          0          0          0          0   entry11a.o
         4          0          0          0          0          0   entry12b.o
         8          4          0          0          0          0   entry2.o
         4          0          0          0          0          0   entry5.o
         0          0          0          0          0          0   entry7b.o
         0          0          0          0          0          0   entry8b.o
         8          4          0          0          0          0   entry9a.o
        12          6          0          4          0         68   errno.o
        30          0          0          0          0          0   handlers.o
        36          8          0          0          0         68   init.o
         0          0          0          0          0          0   iusefp.o
        30          0          0          0          0         68   llshl.o
        36          0          0          0          0         68   llsshr.o
        32          0          0          0          0         68   llushr.o
        36          0          0          0          0        108   memseta.o
      2218         90          0          0          0        464   printfa.o
         0          0          0          4          0          0   stdout.o
        44          0          0          0          0         80   uidiv.o
        98          0          0          0          0         92   uldiv.o
        48          0          0          0          0         68   cdcmple.o
        48          0          0          0          0         68   cdrcmple.o
        56          0          0          0          0         88   d2f.o
       334          0          0          0          0        148   dadd.o
       222          0          0          0          0        100   ddiv.o
       186          0          0          0          0        176   depilogue.o
        62          0          0          0          0         80   dfixi.o
        48          0          0          0          0         68   dfixul.o
        34          0          0          0          0         76   dflti.o
       228          0          0          0          0         96   dmul.o
       134          0          0          0          0         96   drem.o
        38          0          0          0          0         68   f2d.o
       110          0          0          0          0        168   fepilogue.o

    ----------------------------------------------------------------------
      6372        332        160          8          0       4140   Library Totals
         8          0          0          0          0          0   (incl. Padding)

    ----------------------------------------------------------------------

      Code (inc. data)   RO Data    RW Data    ZI Data      Debug   Library Name

      2220        220        160          0          0       1756   m_wm.l
      2596        112          0          8          0       1084   mc_w.l
      1548          0          0          0          0       1300   mf_w.l

    ----------------------------------------------------------------------
      6372        332        160          8          0       4140   Library Totals

    ----------------------------------------------------------------------

==============================================================================


      Code (inc. data)   RO Data    RW Data    ZI Data      Debug   

     34962       2620      16150         48       2672    1003027   Grand Totals
     34962       2620      16150         48       2672    1003027   ELF Image Totals
     34962       2620      16150         48          0          0   ROM Totals

==============================================================================

    Total RO  Size (Code + RO Data)                51112 (  49.91kB)
    Total RW  Size (RW Data + ZI Data)              2720 (   2.66kB)
    Total ROM Size (Code + RO Data + RW Data)      51160 (  49.96kB)

==============================================================================

